S011000053656D6573746572342E7372656397
S1130000E5C0000004C1000002C1000000C10000FE
S1130010FEC00000FCC00000FAC00000F8C00000F0
S1130020F6C00000F4C00000F2C00000F0C0000000
S113003077C60000ECC00000EAC00000E8C0000081
S1130040E6C00000E4C00000E2C00000E0C0000020
S1130050DEC00000DCC00000DAC00000D8C0000030
S1130060D6C000000C943F270C949127D0C0000008
S1130070CEC00000CCC00000CAC00000C8C0000050
S1130080C6C00000C4C00000C2C00000C0C0000060
S11300900C94D5270C942728BAC000000C94DF2BAD
S11300A0B6C00000B4C00000B2C00000B0C0000080
S11300B0AEC00000ACC00000AAC00000A8C0000090
S11300C0A6C00000A4C00000A2C000000C946B28CD
S11300D00C94BD289CC000000C9401290C94532955
S11300E096C000004C1C4C1C4C1C831C8B1CA01C7C
S11300F04C1C4C1C831C8B1C012C712C712C712CE2
S1130100712C712C712C712C012C712C712C712C73
S1130110712C712C712C712C032C712C712C712C61
S1130120712C712C712C712C712C712C712C712CE3
S1130130712C712C712C712C032C712C712C712C41
S1130140712C712C712C712C712C712C712C712CC3
S1130150712C712C712C712C6D2C712C712C712CB7
S1130160712C712C712C712C382C712C712C712CDC
S1130170712C712C712C712C712C712C712C712C93
S1130180712C712C712C712C2C2C712C712C712CC8
S1130190712C712C712C712C502C0E948D0E80911D
S11301A0FB14823008F0F6D40E94C91CF6CFCF931A
S11301B0DF931F92CDB7DEB7CE0101960E94C91915
S11301C049810E94BE1B0E94151CF6CF11241FBE3C
S11301D0CFEFD1E2DEBFCDBF00E00CBF18E0A0E05E
S11301E0B2E0EEE1F7E600E00BBF02C007900D922B
S11301F0AA31B107D9F727E1AAE1B8E001C01D92FD
S1130200A338B207E1F70E94F21F0C948D33F8CEA5
S11302100F931F93CF93DF9300D000D0CDB7DEB7F9
S113022000E010E013C0B801660F771F81E090E092
S11302308C0F9D1F680F791F2FEF3FEFA90180914D
S11302406F17909170178BD70F5F1F4F03301105F5
S113025054F389819A810E94A41E8B819C810E94FF
S1130260A91E8D819E810E949F1E60E080916F1760
S1130270909170172FD626960FB6F894DEBF0FBE56
S1130280CDBFDF91CF911F910F910895CC24CA94D3
S1130290DC2C760101E021E043E050E060E070E016
S11302A0809177179091781720D1DC01CB0183706E
S11302B09927AA27BB270397A105B105B1F48FE6B7
S11302C092E00E948230A4DF60E17DE180E090E072
S11302D00E94591200E020E030E0A90160E070E0E3
S11302E080917317909174176DD663E070E080E08D
S11302F090E00E945912CACFEF92FF920F93E12C23
S1130300F12C082F20E030E040EC50E062E872E08D
S113031086E491E00E94540F0F91FF90EF900895AE
S11303200F93CF93DF931F921F92CDB7DEB79A83BB
S1130330898300E02FEF3FEFA901BE016F5F7F4F7C
S113034080916F17909170173DD641E050E060E0C6
S113035070E0809177179091781767D10F900F9084
S1130360DF91CF910F91089583E00E94712580E978
S113037091E00C94962508950E949B2580934D1737
S1130380882321F08AE892E00C9482300895CC24EA
S1130390CA94DC2C760101E020E042E050E060E009
S11303A070E080917717909178179FD061FDE4DF1A
S11303B063E070E080E090E00E945912E8CFEF9291
S11303C0FF920F93082FD0DFE12CF12C20E030E0D6
S11303D040EC50E061EA72E087EC91E00E94540F37
S11303E00F91FF90EF9008950F938CE9809350172D
S11303F043E060E081E0C3D590934F1780934E179C
S113040000E020E030E0A90160E070E0DBD50F916E
S113041008950F93CF93C82F4FEF5FEFBA018091E8
S11304204E1790914F172AD7813069F4C093501713
S113043000E020E030E0A90160E070E080914E1718
S113044090914F17BFD5CF910F9108950F934FEF10
S11304505FEFBA0180914E1790914F170FD78130FB
S113046071F400E020E030E0A90160E070E08091E8
S11304704E1790914F17A6D58091501700C00F9139
S113048008950F9301110CC0DC01CB018223932347
S1130490A423B523892B8A2B8B2B79F480E010C0FD
S11304A0DC01CB0182239323A423B5232817390726
S11304B04A075B0721F080E003C081E001C081E0CE
S11304C00F910895CF93DF938FE090E0AFD1EC01CB
S11304D0009739F0FC011192119211921192CF01FF
S11304E08BD2CE01DF91CF9108952F923F924F92FC
S11304F05F926F927F928F929F92AF92BF92CF92B0
S1130500DF92EF92FF920F931F93CF93DF93EC014F
S11305104A015B01622E702E0E94D80F2880398018
S11305204A805B80A5019401C201B101AADF88233E
S1130530A1F0662089F1D501C40180959095A0951C
S1130540B09582219321A421B52188839983AA831C
S1130550BB83C12CD12C760122C0C114D104E10487
S1130560F104E9F0611004C040E050E0BA0104C0B5
S113057040E050E060E071E071107460482959294E
S11305806A297B2997018601CE0104960E94F01204
S1130590212C312C210103C0C12CD12C76010E94C5
S11305A01811CD28CE28CF2859F1811101C0F2D2DB
S11305B00E94B2166B017C0191FD1FC00FB6F89426
S11305C00F92C880D980EA80FB80072DA501940191
S11305D0C701B60156DF882371F0662061F080946C
S11305E09094A094B0948C209D20AE20BF2088824B
S11305F09982AA82BB820F900FBE1601270155244F
S1130600C201B101DF91CF911F910F91FF90EF9043
S1130610DF90CF90BF90AF909F908F907F906F901E
S11306205F904F903F902F9008954F925F926F92FA
S11306307F92AF92BF92CF92DF92EF92FF920F938D
S11306401F93CF93DF93EC016A017B018C01095F57
S11306501F4F0E94D80FEB85FC8588819981AA8160
S1130660BB81C82AD92AEA2AFB2AC882D982EA820B
S1130670FB82C12CD12C76013DC0A480B580808141
S11306809181A281B381AC01BD017727B2FD0EC077
S1130690488059806A807B804422552266227722D2
S11306A045284628472889F420E012C0488059800C
S11306B06A807B80442255226622772244155505A0
S11306C06605770521F020E003C021E001C021E0A8
S11306D0222371F0B0FF04C0C42AD52AE62AF72ADF
S11306E0488159816A817B817260CF010E942B14F9
S11306F0EA2DFB2DE017F10709F0BFCFC094D09489
S1130700E094F09488819981AA81BB81C822D9227E
S1130710EA22FB22C882D982EA82FB820E94181153
S1130720688179818A819B81DF91CF911F910F919B
S1130730FF90EF90DF90CF90BF90AF907F906F903D
S11307405F904F900895E6E2F8E0AAE2B8E0B18342
S1130750A08313821282E6EAF4E1F0932508E09381
S1130760240813821282118210828CE79CE0139673
S11307709C938E931297ED93FC939093210880930E
S11307802008909323088093220880E090E89093B7
S11307901B0880931A080895CF93DF93EC01A6E217
S11307A0B8E001C0DF01ED91FC911197EC17FD0752
S11307B0C8F312968D919C9113979D01280F391FB0
S11307C0C217D30749F42A813B81820F931F1396E2
S11307D09C938E931297ED018A819B819E01280F31
S11307E0391FE217F307C1F420912408309125083A
S11307F0E217F30771F022813381820F931F9B83E9
S11308008A83ED91FC9111978081918199838883EA
S113081005C03983288302C0F983E883CA17DB073C
S113082011F0CD93DC93DF91CF910895EF92FF9275
S11308300F931F93CF93DF938C010E94D80F809165
S1130840240890912508892B09F47DDF80911A08EA
S113085090911B0880239123892B09F076C0011500
S1130860110549F0C80104960817190718F000E0AB
S113087010E001C08C010115110509F469C08091D3
S11308802208909123088017910708F464C0C0914E
S11308902608D0912708E6E2F8E002C0FE01EC0148
S11308A08A819B818017910720F488819981009720
S11308B0A9F78091240890912508C817D90709F44D
S11308C04DC0E080F18084E0E80EF11C88819981BC
S11308D0918380832A813B81201B310B2930310590
S11308E048F0CE01800F911FFC01338322831B83C8
S11308F00A8352DF2A813B81809122089091230848
S1130900821B930B90932308809322084091200824
S1130910509121088417950720F49093210880931F
S1130920200880911A0890911B08282B392B3B83AF
S11309302A831982188280911E0890911F080196BB
S113094090931F0880931E080BC0E12CF12C08C063
S1130950E12CF12C05C0E12CF12C02C0E12CF12C8E
S11309600E941811E114F10411F40E94D51CC7016E
S1130970DF91CF911F910F91FF90EF9008950F9306
S11309801F93CF93DF93009791F1EC0124974A8151
S11309905B8120911A0830911B08BA0162237323EA
S11309A0672B29F168817981672B09F520953095AA
S11309B0242335233B832A830E94D80F8A819B8179
S11309C02091220830912308820F931F90932308CB
S11309D080932208CE01E0DE80911C0890911D08CE
S11309E0019690931D0880931C080E941811DF91B2
S11309F0CF911F910F910895FC01039692838183F7
S1130A004FEF5FEFBA014383548365837683908706
S1130A1087839287818710820895FC01138612864A
S1130A2008950F931F93CF93DF93EB0108811981EE
S1130A302A813B810F3F4FEF14072407340721F429
S1130A40FC01A185B28511C0DC01139601C0DF0150
S1130A501496ED91FC9115974081518162817381C7
S1130A60041715072607370790F71496ED91FC91A4
S1130A701597FD83EC83D783C683BF83AE83159616
S1130A80DC93CE9314979B878A87FC0120812F5F88
S1130A902083DF91CF911F910F910895CF93DF931E
S1130AA0FC01A285B385C481D581868197819F830A
S1130AB08E83C681D781848195819D838C83119691
S1130AC08D919C911297E817F90731F486819781EB
S1130AD012969C938E931197138612868C91815053
S1130AE08C938C91DF91CF910895A89590EC88E137
S1130AF00FB6F894A895809360000FBE90936000A1
S1130B000895FC0160833197708331971082319787
S1130B101082319720E82083319710823197108218
S1130B203197108277974083319750838697089541
S1130B30DCDFA0916915B0916A15CD91CDBFDD912F
S1130B40DEBFFF91EF91DF91CF91BF91AF919F9164
S1130B508F917F916F915F914F913F912F911F9151
S1130B600F91FF90EF90DF90CF90BF90AF909F9048
S1130B708F907F906F905F904F903F902F901F9039
S1130B800F900CBE0F900BBE0F900FBE0F900895E8
S1130B9081E008950F920FB6F8940F920BB60F925E
S1130BA00CB60F921F9211242F923F924F925F9294
S1130BB06F927F928F929F92AF92BF92CF92DF9269
S1130BC0EF92FF920F931F932F933F934F935F9353
S1130BD06F937F938F939F93AF93BF93CF93DF9341
S1130BE0EF93FF93A0916915B0916A150DB60D921C
S1130BF00EB60D920E947412A0916915B0916A15F7
S1130C00CD91CDBFDD91DEBFFF91EF91DF91CF910B
S1130C10BF91AF919F918F917F916F915F914F9110
S1130C203F912F911F910F91FF90EF90DF90CF9004
S1130C30BF90AF909F908F907F906F905F904F90F8
S1130C403F902F901F900F900CBE0F900BBE0F90F3
S1130C500FBE0F9008950F920FB6F8940F920BB633
S1130C600F920CB60F921F9211242F923F924F9223
S1130C705F926F927F928F929F92AF92BF92CF9228
S1130C80DF92EF92FF920F931F932F933F934F9313
S1130C905F936F937F938F939F93AF93BF93CF9300
S1130CA0DF93EF93FF93A0916915B0916A150DB688
S1130CB00D920EB60D9213BE0E94EC0F81110E948C
S1130CC07412A0916915B0916A15CD91CDBFDD91D3
S1130CD0DEBFFF91EF91DF91CF91BF91AF919F91D3
S1130CE08F917F916F915F914F913F912F911F91C0
S1130CF00F91FF90EF90DF90CF90BF90AF909F90B7
S1130D008F907F906F905F904F903F902F901F90A7
S1130D100F900CBE0F900BBE0F900FBE0F90089556
S1130D209ADF1895DC0153962C915397222341F0B6
S1130D305A96ED91FC915B9790818AE0891B089506
S1130D4080E008950FB6F8940F92FC01868D81110E
S1130D5002C081E001C080E00F900FBE08950FB67D
S1130D60F8940F92FC01268D878D281302C081E030
S1130D7001C080E00F900FBE08950F931F93CF938F
S1130D80DF93EC01042F1E8D48A141110CC0888112
S1130D909981892B09F042C08C819D810E94F015B4
S1130DA01D821C8242C0011117C050E08A819B81C0
S1130DB00E94103028A18A819B81820F911D9B8300
S1130DC08A832C813D818217930750F18881998110
S1130DD09B838A8380E029C050E08E819F810E949A
S1130DE0103088A190E09195819591092E813F81E1
S1130DF0280F391F3F832E834881598124173507D3
S1130E0030F42C813D81820F931F9F838E830230A7
S1130E1049F4112349F0115080E007C080E005C077
S1130E2080E003C080E001C080E01F5F1E8FDF917F
S1130E30CF911F910F910895FC0140A14423A9F083
S1130E4050E026813781240F351F37832683848120
S1130E5095812817390720F08081918197838683B3
S1130E60CB01668177810C94103008951F93CF9342
S1130E70DF93EC010FB6F8940F921AA10BC08B8983
S1130E80882351F0CE0143960E947C1381110E9465
S1130E905215115011169CF38FEF8AA30F900FBEB9
S1130EA00FB6F8940F9219A10BC08885882351F0CE
S1130EB0CE0108960E947C1381110E945215115094
S1130EC011169CF38FEF89A30F900FBEDF91CF9182
S1130ED01F910895CF93DF93EC010FB6F8940F920E
S1130EE0E881F9818F8D28A190E030E0829FA001F4
S1130EF0839F500D929F500D11244E0F5F1F5D83F1
S1130F004C831E8EFB83EA830197289FA001299FAF
S1130F10500D389F500D1124CF01840F951F9F83CE
S1130F208E838FEF89A38AA361110BC088858823E0
S1130F3071F0CE0108960E947C13882341F02ADECA
S1130F4006C0CE01089658DDCE01439655DD0F90BC
S1130F500FBE81E0DF91CF9108950F931F93F801A5
S1130F60611103C01183008302C051834083878FC2
S1130F7060A361E0CF01AEDF1F910F910895DF926E
S1130F80EF92FF920F931F93CF93DF93F82EE62EE9
S1130F90D42E869FC0011124839648DCEC0100976F
S1130FA041F08C012D2DAC014D5D5F4F6E2D8F2DC9
S1130FB0D4DFCE01DF91CF911F910F91FF90EF907D
S1130FC0DF900895CF92DF92EF92FF920F931F93D9
S1130FD0CF93DF93CDB7DEB729970FB6F894DEBF72
S1130FE00FBECDBF7C016B012E833F834887598799
S1130FF010E00FB6F8940F92F701968D878D98172D
S113100010F00230B1F4402FB601C701B6DEF7018B
S11310109389992341F0C70143960E947C13882346
S113102021F0B8DD02C08111B5DD0F900FBE81E063
S11310304CC08E819F81A885B985892B8A2B8B2BE7
S113104021F40F900FBE80E040C0111105C0CE0105
S113105001960E94DB1411E00F900FBEA9D70FB6C2
S1131060F8940F92F70181A18F3F09F411A2F701BF
S113107082A18F3F09F412A20F900FBEBE016A5FD6
S11310807F4FCE0101960E94EC14811119C0C70153
S113109066DE882381F04E815F8168857985C7018A
S11310A008960E94D912C701E1DE0E94181181112D
S11310B0A0CF70DD9ECFC701D9DE0E94181199CF51
S11310C0C701D4DE0E94181180E029960FB6F89467
S11310D0DEBF0FBECDBFDF91CF911F910F91FF9067
S11310E0EF90DF90CF900895EF92FF920F931F93AC
S11310F0CF93DF938A01FC01568D378D531710F07F
S11311002230F9F4422F7801EC011AA18E8DCE0120
S113111034DE1F3F81F48B898823A9F0CE014396E6
S11311200E947C13882389F0E114F10481F081E0AA
S1131130F70180830DC0FF24F394F10EFAA281E03D
S113114007C080E005C081E003C081E001C081E008
S1131150DF91CF911F910F91FF90EF900895CF925F
S1131160DF92EF92FF920F931F93CF93DF93CDB74C
S1131170DEB729970FB6F894DEBF0FBECDBF8C0142
S11311806B012E833F8348875987E12C0FB6F8946F
S11311900F92F801F68CFF2099F0B601C8014CDEDD
S11311A0FA94F801F68E8085882331F0C8010896F8
S11311B00E947C138111EEDC0F900FBE81E04FC0C2
S11311C08E819F81A885B985892B8A2B8B2B21F44D
S11311D00F900FBE80E043C0E11006C0CE0101961F
S11311E00E94DB14EE24E3940F900FBEE1D60FB6F9
S11311F0F8940F92F80181A18F3F09F411A2F8012C
S113120082A18F3F09F412A20F900FBEBE016A5F44
S11312107F4FCE0101960E94EC14811117C0C801C2
S113122091DD882379F04E815F8168857985C801D5
S113123043960E94D912C80119DEFAD78111A6CFAC
S1131240A9DCA4CFC80112DEF3D7A0CFC8010EDEFB
S1131250EFD7C80177DD882309F498CF80E0299679
S11312600FB6F894DEBF0FBECDBFDF91CF911F91B3
S11312700F91FF90EF90DF90CF900895EF92FF923F
S11312800F931F93CF93DF93CDB7DEB729970FB694
S1131290F894DEBF0FBECDBF8C014E835F83688799
S11312A07987E12CF12C0FB6F8940F92F801868D12
S11312B08823C9F08150868F80819181892B29F4FC
S11312C00E94DC16F80195838483F80180858823C5
S11312D031F0C80108960E947C1381115BDC0F90E9
S11312E00FBE81E06FC08E819F81A885B985892B4F
S11312F08A2B8B2B21F40F900FBE80E063C0F1107A
S113130006C0CE0101960E94DB14FF24F3940F90D3
S11313100FBE4ED60FB6F8940F92F80181A18F3FFD
S113132009F411A2F80182A18F3F09F412A20F90CF
S11313300FBEBE016A5F7F4FCE0101960E94EC147E
S1131340811126C0C801FEDC8823F1F0F8018081F8
S11313509181892B51F40FB6F8940F928481958171
S11313600E946915E82E0F900FBE4E815F8168853B
S11313707985C80143960E94D912C80177DD58D7F0
S1131380811191CF07DC8FCFC80170DD51D78BCF8E
S1131390C8016CDD4DD7C801D5DC882309F483CF9F
S11313A0EE2079F00FB6F8940F92C801BBDC682FD9
S11313B0F801848195810E944B160F900FBE80E046
S11313C001C080E029960FB6F894DEBF0FBECDBFF2
S11313D0DF91CF911F910F91FF90EF900895CF93DC
S11313E0DF93EC010FB6F8940F9289A18F3F09F4B3
S11313F019A28AA18F3F09F41AA20F900FBE8E8DF5
S1131400811104C0CE0143960E943A13CE012EDD11
S1131410DF91CF910895FC0144815581228133816C
S1131420240F351F80819181B901681B790BCB0191
S11314306417750710F0841B950B08950F93FC0136
S11314408FE0DF011D928A95E9F7758764875583DC
S113145044833783268306870F910895AF92BF9202
S1131460CF92DF92EF92FF920F931F93CF93DF936C
S11314706C015B017A01FC01C281D3810481158175
S11314800C1B1D0B4017510708F48A01F6018485D3
S11314909585A801B5018C0F9D1F0E9410300E1573
S11314A01F0558F4A701401B510BB501600F711FB4
S11314B0F601848595850E941030CE018E0D9F1D06
S11314C0F601248135818217930710F0821B930B58
S11314D0F60193838283C701DF91CF911F910F910E
S11314E0FF90EF90DF90CF90BF90AF900895CF9290
S11314F0DF92EF92FF920F931F93CF93DF931F928C
S11315001F92CDB7DEB77C016B015A834983211545
S11315103105C1F0FC01868580FD08C042175307E0
S113152008F49A013A83298381E00FC02017310718
S113153058F042E050E0BE016F5F7F4FC7018EDF7D
S113154081E003C080E001C080E0882331F049815C
S11315505A81B601C70182DF02C080E090E00F909B
S11315600F90DF91CF911F910F91FF90EF90DF903B
S1131570CF900895AF92BF92CF92DF92EF92FF92F5
S11315800F931F93CF93DF937C015B01E901421713
S1131590530708F4EA01209781F1F70100811181D2
S11315A084819581801B910B6E018C179D0708F433
S11315B06C01F70164857585600F711FA601C50173
S11315C00E941030CC16DD0658F4AE014C195D09AA
S11315D0F70164857585C5018C0D9D1D0E94103031
S11315E00C0F1D1FF701848195810817190710F04E
S11315F0081B190BF70111830083CE01DF91CF91F2
S11316001F910F91FF90EF90DF90CF90BF90AF901C
S113161008956F927F928F929F92AF92BF92CF92D2
S1131620DF92EF92FF920F931F93CF93DF931F925A
S11316301F92CDB7DEB76C014B015A017901011538
S11316401105B1F0FC0160807180A801BE016F5FDB
S11316507F4F90DF89819A81E01AF10AA816B906B2
S113166030F4F60171826082A12CB12C01C05C01BE
S11316709701A501B401C6017DDF0F900F90DF91A2
S1131680CF911F910F91FF90EF90DF90CF90BF907B
S1131690AF909F908F907F906F900895CF92DF923C
S11316A0EF92FF920F93CF93DF93EC016B014130E4
S11316B011F401E001C000E0C114D10419F4CC24F8
S11316C0C394D12CCE014096C817D90720F4219693
S11316D0ADD87C0102C0E12CF12CE114F10439F005
S11316E09601AE01B701615F7F4FC701A7DEC70155
S11316F0DF91CF910F91FF90EF90DF90CF900895FD
S11317000F930FB6F8940F92FC0120853185232B9B
S113171071F422853385232B61F42681378144813A
S1131720558164857585068589DE81E003C080E086
S113173001C080E00F900FBE0F910895FC01248139
S1131740358180819181820F931F42815381841B53
S1131750950B01978217930710F0821B930B089542
S11317602F923F924F925F926F927F928F929F92AD
S1131770AF92BF92CF92DF92EF92FF920F931F939B
S1131780CF93DF93CDB7DEB72B970FB6F894DEBFB8
S11317900FBECDBF4C017B876A871A010E831F835E
S11317A028873987FC01848195810197268520FF4C
S11317B00CC02A01F2E04F0E511C8415950558F413
S11317C01E821F821886198606C08417950710F09A
S11317D02A0101C02C018E819F81A885B985892B9E
S11317E08A2B8B2B09F438C0CE0101960E94C514B4
S11317F00FB6F8940F92C401A1DF3C01841595053E
S113180040F560E080E090E00E94AF190E94561518
S1131810F401938782870F900FBEAE80BF80C88487
S1131820D984E12CF12C00E010E0980140E050E074
S1131830BA0180E00E94EE16F40113861286BE01FE
S11318406A5F7F4FCE0101960E94EC14882381F2D7
S113185005C00F900FBE02C0612C712C611471047D
S113186019F4C4016BDF3C0182019301A1016A8573
S11318707B85C4013CDE6C01892BE9F0C401CBDD1E
S1131880F4012681378182179307A8F091D3F401DC
S113189080859185892B71F080859185E12CF12CCF
S11318A000E020E030E0A90160E00E949617F40116
S11318B011861086BDD4C6012B960FB6F894DEBFF0
S11318C00FBECDBFDF91CF911F910F91FF90EF908D
S11318D0DF90CF90BF90AF909F908F907F906F904C
S11318E05F904F903F902F900895AF92BF92CF9208
S11318F0DF92EF92FF920F931F93CF93DF93EC014C
S11319007B015A0169018E8580FF04C08A010E5F44
S11319101F4F01C08A01CE0111DF9C01A501B7014F
S1131920CE01E5DD5C01892BC1F0CE0174DD2E8191
S11319303F818217930788F088859985892B69F000
S113194088859985E12CF12C00E020E030E0A901A4
S113195060E00E948D1819861886C501DF91CF9129
S11319601F910F91FF90EF90DF90CF90BF90AF90B9
S113197008954F925F926F927F928F929F92AF924F
S1131980BF92CF92DF92EF92FF920F931F93CF9368
S1131990DF93EC012B013A01580169018E8580FF28
S11319A005C06894882481F8912C02C0812C912C64
S11319B0A114B104C104D10441F10FB6F8940F92FB
S11319C0CE0129DD7C018816990648F060E080E0AC
S11319D090E00E94AF190E945615998788870F904E
S11319E00FBE8E149F04A0F0E12CF12C00E010E057
S11319F0980140E050E0BA0180E00E94EE1619869A
S1131A001886CE0108DD7C0103C0CE0104DD7C0113
S1131A108E149F04E8F484019701A301B201CE015E
S1131A20F8DD6C01892BB1F0C3D28A859B85892BA3
S1131A3069F08A859B85E12CF12C00E020E030E000
S1131A40A90160E00E9496171B861A86F1D302C092
S1131A50C12CD12CC601DF91CF911F910F91FF9022
S1131A60EF90DF90CF90BF90AF909F908F907F903A
S1131A706F905F904F900895E091E314F091E41417
S1131A80808181110CC08FEF9FEFDC018093AD1436
S1131A909093AE14A093AF14B093B0140895E09152
S1131AA0E314F091E4140780F085E02D80819181A6
S1131AB0A281B3818093AD149093AE14A093AF141C
S1131AC0B093B0140895CF93DF93EC018B8D9C8D6C
S1131AD00E94BF04CE010E94BF04DF91CF910895FC
S1131AE04F925F926F927F928F929F92AF92BF922A
S1131AF0CF92DF92EF92FF920F93CF93DF932C015B
S1131B005B014A013901E60165EA70E08B8D9C8D29
S1131B100E9419308B8D9C8D21E0821A9108880EC9
S1131B20991EA114B10489F415C0822F90E0F50127
S1131B30E80FF91F3081DE01A80FB91F5D963C93B1
S1131B408081882329F02F5F01C020E0203168F3D1
S1131B501CA601C01D8E0A3008F009E00A8F0DA7EB
S1131B601EA6CE0102960E940D05CE010E960E947D
S1131B700D05DB87CA878AE090E0A0E0B0E0801B17
S1131B809109A109B1098E879F87A88BB98BDF8B37
S1131B90CE8B84E0FE01BF96DF011D928A95E9F7A2
S1131BA01BAAA301B201C4010E9481059983888301
S1131BB0E114F10419F0F701D183C083DF91CF91CF
S1131BC00F91FF90EF90DF90CF90BF90AF909F90D8
S1131BD08F907F906F905F904F900895CF93C0E067
S1131BE009C02BE0C29FC001112485509B4E0E9466
S1131BF0FC04CF5FCA30A8F380EF94E10E94FC0498
S1131C0085EE94E10E94FC0486ED94E10E94FC04BC
S1131C108BEC94E10E94FC048FEB94E10E94FC04A1
S1131C2080EF94E19093E4148093E31485EE94E1BF
S1131C309093E2148093E114CF910895CF93DF93AE
S1131C40EC010FB6F8940F928091BE148F5F8093CD
S1131C50BE148091691590916A15892B51F4D09323
S1131C606A15C09369158091BE14813091F4B6DF72
S1131C7010C08091B81481110CC0E0916915F091E5
S1131C806A15928D8A8D891720F0D0936A15C093B6
S1131C9069158091B1148F5F8093B114EA8D80919E
S1131CA0B9148E1710F4E093B9148BE08E9FF001F1
S1131CB01124E550FB4E0180F281E02DFF83EE8379
S1131CC02681378139872887A681B7819E012E5FB7
S1131CD03F4F15963C932E93149737832683EA8DB2
S1131CE08E9FF0011124E550FB4EFD87EC87808127
S1131CF08F5F80830F900FBE8091B814882351F0BA
S1131D00E0916915F0916A15928D8A8D981710F4F7
S1131D100E94CA05DF91CF910895CF93DF931BC032
S1131D200FB6F8940F92E091D214F091D314C085B9
S1131D30D185CE0102960E944E058091BE14815039
S1131D408093BE148091CA1481508093CA140F905A
S1131D500FBECE01B8DE8091CA148111E1CFDF91AC
S1131D60CF9108958F929F92AF92BF92CF92DF92BC
S1131D70EF92FF92CF93DF936B017C01C42F80908D
S1131D80BA149090BB14A090BC14B090BD14809170
S1131D90691590916A1502960E944E058FEFC81638
S1131DA0D806E806F806B1F5CC23A1F1EFEBF4E18F
S1131DB0A181B281C0916915D0916A15BF83AE83A8
S1131DC0C0916915D0916A1516968D919C911797BB
S1131DD0998788871696CD91DC911797809169151C
S1131DE090916A1502969D838C83809169159091D8
S1131DF06A15029617969C938E931697A09169156F
S1131E00B0916A151D96FC93EE931C9780818F5FA9
S1131E1080833FC0C80CD91CEA1CFB1CE0916915E7
S1131E20F0916A15C282D382E482F582C814D9047F
S1131E30EA04FB0468F46091691570916A15809155
S1131E40E1149091E2146E5F7F4F0E94110521C04E
S1131E506091691570916A158091E3149091E4146E
S1131E606E5F7F4F0E9411058091AD149091AE1466
S1131E70A091AF14B091B014C816D906EA06FB06B7
S1131E8040F4C092AD14D092AE14E092AF14F0922C
S1131E90B014DF91CF91FF90EF90DF90CF90BF907F
S1131EA0AF909F908F9008952F923F924F925F92A0
S1131EB06F927F928F929F92AF92BF92CF92DF9256
S1131EC0EF92FF920F93CF93DF933C011B014A01E2
S1131ED02901CA010E9416046C01892B71F084E364
S1131EE090E00E941604EC01892B19F0DC8ECB8E55
S1131EF006C0C6010E94BF0402C0C0E0D0E0209723
S1131F0061F0A12CB12C6E019201A401B101C301B5
S1131F10E7DDCE0193DE81E001C08FEFDF91CF9149
S1131F200F91FF90EF90DF90CF90BF90AF909F9074
S1131F308F907F906F905F904F903F902F90089577
S1131F40EF92FF920F930F2EFBEAEF2EF4E1FF2E98
S1131F50F02D00E020E030E040EC50E069EA72E06F
S1131F608DEC90E0A1DF813011F40E94531A81308E
S1131F70C9F4F8948FEF9FEFDC018093AD14909334
S1131F80AE14A093AF14B093B01481E08093B8144E
S1131F901092BA141092BB141092BC141092BD1477
S1131FA00E949805809106020F91FF90EF9008958A
S1131FB08091AA148F5F8093AA1408950FB6F894A1
S1131FC00F926091BA147091BB148091BC149091DB
S1131FD0BD140F900FBE0895CF92DF92EF92FF923F
S1131FE0CF93DF938091AA14811105C1C090BA14D4
S1131FF0D090BB14E090BC14F090BD148FEFC81ABD
S1132000D80AE80AF80AC092BA14D092BB14E09233
S1132010BC14F092BD14C114D104E104F104B1F470
S11320208091E3149091E4142091E1143091E2142E
S11320303093E4142093E3149093E2148093E11416
S11320408091B2148F5F8093B21416DD8091AD1429
S11320509091AE14A091AF14B091B014C816D906E3
S1132060EA06FB0620F480E0B2C081E001C080E013
S1132070E091E314F091E414908191110CC04FEFBE
S11320805FEFBA014093AD145093AE146093AF1454
S11320907093B0149CC0E091E314F091E4140780B1
S11320A0F085E02D0084F185E02D42815381648127
S11320B07581C416D506E606F70648F44093AD14B8
S11320C05093AE146093AF147093B01480C0A48581
S11320D0B585C681D781208531853F832E83C08510
S11320E0D185268137813D832C8311964D915C9156
S11320F012979F012E5F3F4F4217530731F44085DB
S1132100518512965C934E931197158614869C9173
S113211091509C93A08DB18D109709F1C289D389F8
S1132120448955895F834E83C489D58942895389FB
S11321305D834C8311966D917C911297AF01425F40
S11321405F4F6417750731F44489558912965C937F
S11321504E931197118E108E9C9191509C93A28D49
S11321609091B9149A1710F4A093B9149BE09A9F14
S1132170D0011124A550BB4E11960D90BC91A02DF9
S1132180B783A68316964D915C9117975187408724
S11321901696CD91DC9117973D832C8317963C932B
S11321A02E931697A28D9A9FD0011124A550BB4E51
S11321B0B587A4879C919F5F9C93228DE0916915BC
S11321C0F0916A15928D291708F04FCF51CFE09105
S11321D06915F0916A15E28D9BE0E99FF0011124E5
S11321E0E550FB4E9081923008F081E09091B31459
S11321F0911116C016C08091B4149091B514A09199
S1132200B614B091B7140196A11DB11D8093B414F6
S11322109093B514A093B614B093B71480E001C0A2
S113222081E0DF91CF91FF90EF90DF90CF90089500
S1132230CF92DF92EF92FF92CF93DF930FB6F89491
S11322400F928091AA1481508093AA148091AA14A9
S11322508111BEC08091BE14811188C0BCC0E091C0
S1132260DD14F091DE140084F185E02DA08DB18D94
S1132270C289D389848995899F838E83C489D589AA
S1132280828993899D838C8311962D913C91129719
S1132290CF010E962817390731F48489958912964F
S11322A09C938E931197118E108E8C9181508C93E8
S11322B0A485B585C681D781808591859F838E83CA
S11322C0C085D185868197819D838C8311968D915C
S11322D09C9112979F012E5F3F4F8217930731F411
S11322E08085918512969C938E93119715861486FA
S11322F08C9181508C93A28D8091B9148A1710F41B
S1132300A093B9148BE08A9FD0011124A550BB4E31
S113231011960D90BC91A02DB783A68316964D916E
S11323205C911797518740871696CD91DC9117974A
S11323303D832C8317963C932E931697A28D8A9FE8
S1132340D0011124A550BB4EB587A4878C918F5F13
S11323508C93928DA0916915B0916A155A968C91BF
S1132360981730F081E08093B31402C0E0E0F0E00D
S11323708091D614811173CFEF2B09F07DDBC090CF
S1132380B414D090B514E090B614F090B714C114FE
S1132390D104E104F104A1F01FDE882319F081E0E7
S11323A08093B31481E0C81AD108E108F108A1F7B9
S11323B01092B4141092B5141092B6141092B7146B
S11323C08091B314882331F00E94CA0581E003C0D0
S11323D080E001C080E00F900FBEDF91CF91FF90AD
S11323E0EF90DF90CF9008958F929F92AF92BF921B
S11323F0CF92DF92EF92FF921F93CF93DF93EC0182
S11324006A017B01D5DD8090BA149090BB14A09032
S1132410BC14B090BD1488819981AA81BB81AC01A0
S1132420BD014C0D5D1D6E1D7F1D88169906AA0603
S1132430BB0660F4481759076A077B0798F48416AB
S11324409506A606B70680F010E013C04817590792
S11324506A077B0758F084169506A606B70640F06F
S113246010E007C010E005C011E003C011E001C096
S113247011E0488359836A837B83112341F0CB01A4
S1132480BA01681979098A099B0940E06BDCD0DE3E
S1132490811102C00E94CA05812FDF91CF911F9143
S11324A0FF90EF90DF90CF90BF90AF909F908F9070
S11324B00895CF92DF92EF92FF926B017C01672B1C
S11324C0682B692B39F074DD40E0C701B6014ADCA2
S11324D0AFDE01C080E0811102C00E94CA05FF90F6
S11324E0EF90DF90CF9008958091AA14882321F073
S11324F081E08093B31408951092B314E0916915A8
S1132500F0916A1520813181E0916915F0916A1585
S1132510838D948D8217930760F060916915709193
S11325206A15635E7F4F8091691590916A150E94C8
S1132530E11C8091B91401C08150282F30E09BE048
S1132540929FF001939FF00D1124E550FB4E908172
S1132550992391F39BE0929FA001939F500D112426
S1132560DF010180F281E02D0480F581E02D1296D7
S1132570FC93EE93119742505B4EE417F50729F450
S113258044815581FD01528341839BE0929FF00178
S1132590939FF00D1124E550FB4E0180F281E02D54
S11325A02085318530936A15209369158093B91479
S11325B00895CF92DF92EF92FF926A017B016091BE
S11325C0691570916A15625F7F4F0E94110541E0A1
S11325D0C701B601C7DBFF90EF90DF90CF9008955D
S11325E00F931F93CF93DF93FC01A0916915B091D2
S11325F06A1570681E964D935D936D937C93519705
S1132600A181B281C0916915D0916A15BB8BAA8B47
S1132610C0916915D0916A1516968D919C91179762
S11326209D8B8C8B1696CD91DC91179780916915B3
S113263090916A150E969D838C8380916915909173
S11326406A150E9617969C938E931697A09169150A
S1132650B0916A155996FC93EE93589780818F5FD9
S1132660808341E0C901B8017DDBDF91CF911F91E7
S11326700F910895CF93DF93FC01CB01BA01A1819F
S1132680B281C0916915D0916A15BB8BAA8BC09198
S11326906915D0916A1516964D915C9117975D8BCB
S11326A04C8B1696CD91DC911797409169155091FA
S11326B06A15425F5F4F5D834C8340916915509169
S11326C06A15425F5F4F17965C934E931697A091DD
S11326D06915B0916A155996FC93EE935897308119
S11326E03F5F3083222319F06FEF7FEFCB01422F3E
S11326F039DBDF91CF910895CF93DF93DC011796F7
S1132700ED91FC9118970084F185E02DA08DB18D99
S1132710C289D389848995899F838E83C489D58905
S1132720828993899D838C8311968D919C911297B4
S11327309F01225F3F4F8217930731F48489958963
S113274012969C938E931197118E108E8C918150BA
S11327508C938091AA14811152C0A485B585C68139
S1132760D781808591859F838E83C085D18586811D
S113277097819D838C8311968D919C9112979F01D3
S11327802E5F3F4F8217930731F48085918512960F
S11327909C938E931197158614868C9181508C93FB
S11327A0A28D8091B9148A1710F4A093B9148BE008
S11327B08A9FD0011124A550BB4E11960D90BC9157
S11327C0A02DB783A68316964D915C9117975187D8
S11327D040871696CD91DC9117973D832C831796ED
S11327E03C932E931697A28D8A9FD0011124A55055
S11327F0BB4EB587A4878C918F5F8C931CC046ED2C
S113280054E1DA011196CD91DC911297D38BC28BEE
S11328108E819F81958B848B8E819F81DC0115969F
S11328203C932E9314973F832E83518F408FDA016C
S11328308C918F5F8C93928DE0916915F0916A155C
S1132840828D891720F481E08093B31401C080E065
S1132850DF91CF910895CF93DF93DC0170684D939E
S11328605D936D937C9313971896ED91FC91199752
S11328701A964D915C911B9714968D919C91159786
S113288016962D913C911797EC013F832E83169653
S11328908D919C91179714962D913C911597EC016D
S11328A03D832C83EA0189819A81A817B90731F401
S11328B016968D919C9117979A8389831B961C92E7
S11328C01E921A97DA018C9181508C93A485B58558
S11328D0C681D781808591859F838E83C085D1856C
S11328E0868197819D838C8311968D919C911297FB
S11328F09F012E5F3F4F8217930731F480859185A6
S113290012969C938E931197158614868C91815000
S11329108C93A28D8091B9148A1710F4A093B914E2
S11329208BE08A9FD0011124A550BB4E11960D90C7
S1132930BC91A02DB783A68316964D915C911797F1
S1132940518740871696CD91DC9117973D832C8350
S113295017963C932E931697A28D8A9FD00111242B
S1132960A550BB4EB587A4878C918F5F8C93928DB5
S1132970E0916915F0916A15828D891718F481E048
S11329808093B314DF91CF9108950FB6F8940F920A
S11329902091B214FC0120834091BA145091BB14CD
S11329A06091BC147091BD1441835283638374831A
S11329B00F900FBE08952091B214FC012083409122
S11329C0BA145091BB146091BC147091BD1441832E
S11329D052836383748308958F929F92AF92BF92C0
S11329E0CF92DF92EF92FF920F931F93CF93DF93D7
S11329F0FB010FB6F8940F92C090BA14D090BB1498
S1132A00E090BC14F090BD14DC0111960D911D9161
S1132A102D913C91149746015701801A910AA20AFC
S1132A20B30A40815181628173814F3FBFEF5B07DD
S1132A306B077B0739F1EC01B881A091B214BA1786
S1132A4059F0C016D106E206F30630F01082118266
S1132A501282138281E017C084169506A606B70673
S1132A6058F4481959096A097B09408351836283E0
S1132A707383A1DF80E007C0108211821282138267
S1132A8081E001C080E00F900FBEDF91CF911F91D4
S1132A900F91FF90EF90DF90CF90BF90AF909F90F9
S1132AA08F90089581E08093B314089580916915FF
S1132AB090916A1508958091B814882331F080911B
S1132AC0AA14811104C082E0089581E0089580E091
S1132AD008950F931F93CF93DF93FC01892B09F47F
S1132AE077C0828DA0916915B0916A155A969C9110
S1132AF0891708F063C046855785608971897723F3
S1132B0094F0A0916915B0916A155A969C914AE087
S1132B1050E060E070E0491B510961097109468782
S1132B205787608B718B248535854BE0849FC0016A
S1132B30112485509B4E28173907B9F5EF018F01F1
S1132B400E5F1F4FC8010E944E05E0916915F09178
S1132B506A15E28DEA8F8091B9148E1710F4E09310
S1132B60B9148BE08E9FF0011124E550FB4E0180D7
S1132B70F281E02DFF83EE83268137813987288710
S1132B80A681B78115961C930E9314971783068319
S1132B90EA8D8E9FF0011124E550FB4EFD87EC87F2
S1132BA080818F5F808381E016C0A0916915B09108
S1132BB06A155A968C91828F81E00DC095A5E0919B
S1132BC06915F0916A15828D981720F080E003C092
S1132BD080E001C081E0DF91CF911F910F910895B2
S1132BE00F931F93CF93DF93FC01892B09F449C002
S1132BF086A5815086A7228D95A5291709F443C07F
S1132C00811143C0EF018F010E5F1F4FC8010E9465
S1132C104E05EDA5EA8F8AE090E0A0E0B0E08E1BBF
S1132C209109A109B1098E879F87A88BB98B8091DF
S1132C30B9148E1710F4E093B9148BE08E9FF00151
S1132C401124E550FB4E0180F281E02DFF83EE83D9
S1132C502681378139872887A681B78115961C93E9
S1132C600E93149717830683EA8D8E9FF001112427
S1132C70E550FB4EFD87EC8780818F5F808381E088
S1132C8005C080E003C080E001C080E0DF91CF9107
S1132C901F910F9108950F931F93CF93DF93FC011E
S1132CA0892B09F45AC085A5861708F4862F928DBE
S1132CB0891709F452C026A5213009F04EC0828F2D
S1132CC04685578560897189772364F04AE050E02E
S1132CD060E070E0481B5109610971094687578714
S1132CE0608B718B248535854BE0949FC001112442
S1132CF085509B4E2817390781F5EF018F010E5F30
S1132D001F4FC8010E944E05EA8D8091B9148E1799
S1132D1010F4E093B9148BE08E9FF0011124E55078
S1132D20FB4E0180F281E02DFF83EE832681378103
S1132D3039872887A681B78115961C930E9314971B
S1132D4017830683EA8D8E9FF0011124E550FB4E14
S1132D50FD87EC8780818F5F8083DF91CF911F9106
S1132D600F910895CF92DF92EF92FF92E09169154F
S1132D70F0916A156685778580899189E091691556
S1132D80F0916A15A0916915B0916A155A962C9123
S1132D900F2EFAE0CF2ED12CE12CF12CF02DC21AFB
S1132DA0D108E108F108C686D786E08AF18AFF9047
S1132DB0EF90DF90CF9008958091691590916A15F6
S1132DC0892B39F0E0916915F0916A1586A58F5F1A
S1132DD086A78091691590916A1508954F925F9224
S1132DE06F927F92AF92BF92CF92DF92EF92FF9257
S1132DF00F931F93CF93DF93280139010FB6F894F3
S1132E000F92E0916915F0916A15C82FD0E0EC0F8C
S1132E10FD1F83A9823079F1E0916915F0916A155B
S1132E20CE01880F991F880F991FE80FF91F87A5F6
S1132E3090A9A1A9B2A94095509560957095482391
S1132E4059236A237B2347A750AB61AB72ABE09154
S1132E506915F0916A15EC0FFD1F81E083ABA11495
S1132E60B104C104D10439F041E0C601B5010E94A6
S1132E70B20E0E94CA050F900FBE0FB6F8940F92BF
S1132E80E114F104A1F0E0916915F0916A15CE0105
S1132E90880F991F880F991FE80FF91F87A590A91C
S1132EA0A1A9B2A9F70180839183A283B383E0919E
S1132EB06915F0916A15EC0FFD1F83A98230E9F4BE
S1132EC0E0916915F0916A15CE01880F991F880F5A
S1132ED0991FE80FF91F87A590A9A1A9B2A9409449
S1132EE0509460947094482259226A227B2247A607
S1132EF050AA61AA72AA81E001C080E020916915FC
S1132F0030916A15C20FD31F1BAA0F900FBEDF9119
S1132F10CF911F910F91FF90EF90DF90CF90BF90D2
S1132F20AF907F906F905F904F9008958F929F9293
S1132F30AF92BF92EF92FF920F93CF93DF93DC0196
S1132F400FB6F8940F92E114F10489F0E62FF0E043
S1132F50EE0FFF1FEE0FFF1FE80FF91F87A490A8C5
S1132F60A1A8B2A8F70180829182A282B38270E004
S1132F70FD01E60FF71F83A992E093AB023001F144
S1132F8018F4013031F04DC0033079F10430D1F13F
S1132F9048C0660F771F660F771FFD01E60FF71F06
S1132FA087A490A8A1A8B2A8BA01A90148295929BF
S1132FB06A297B2947A750AB61AB72AB01E034C0EF
S1132FC0660F771F660F771FFD01E60FF71F47A5F2
S1132FD050A961A972A94F5F5F4F6F4F7F4F47A7F9
S1132FE050AB61AB72AB01E01FC0660F771F660F79
S1132FF0771FFD01E60FF71F27A730AB41AB52AB9C
S113300001E012C0823079F0660F771F660F771FD8
S1133010FD01E60FF71F27A730AB41AB52AB01E030
S113302003C001E001C000E0813009F069C01C96D2
S1133030ED91FC911D971696CD91DC9117971896FA
S11330408D919C9119979F838E831896CD91DC91D5
S1133050199716968D919C9117979D838C838181E6
S113306092819D012E5F3F4F8217930731F418968A
S11330708D919C911997928381831D961C921E9227
S11330801C978081815080835A96EC915A97809145
S1133090B9148E1710F4E093B9148BE08E9FF001ED
S11330A01124E550FB4E0180F281E02D1796FC932C
S11330B0EE9316974681578119965C934E93189711
S11330C0C681D7813D832C83378326835A96EC911E
S11330D05A978E9FF0011124E550FB4E1D96FC93E8
S11330E0EE931C9780818F5F80835A969C91E09128
S11330F06915F0916A15828D891710F40E94CA052A
S11331000F900FBE802FDF91CF910F91FF90EF9022
S1133110BF90AF909F908F9008958F929F92AF929F
S1133120BF92CF92DF92EF92FF920F93CF93DF93F0
S1133130DC01E114F10489F0E62FF0E0EE0FFF1F4B
S1133140EE0FFF1FE80FF91F87A490A8A1A8B2A84B
S1133150F70180829182A282B38270E0FD01E60FC2
S1133160F71F93A982E083AB023001F118F4013018
S113317031F04DC0033079F10430D1F148C0660F0D
S1133180771F660F771FFD01E60FF71F87A490A82E
S1133190A1A8B2A8BA01A901482959296A297B29F9
S11331A047A750AB61AB72AB81E034C0660F771FA9
S11331B0660F771FFD01E60FF71F47A550A961A908
S11331C072A94F5F5F4F6F4F7F4F47A750AB61AB03
S11331D072AB81E01FC0660F771F660F771FFD017A
S11331E0E60FF71F27A730AB41AB52AB81E012C00B
S11331F0923079F0660F771F660F771FFD01E60F97
S1133200F71F27A730AB41AB52AB81E003C081E08D
S113321001C080E0913009F096C09091AA149111F8
S11332205FC01C96ED91FC911D971696CD91DC9193
S1133230179718962D913C9119973F832E831896D2
S1133240CD91DC91199716962D913C9117973D835A
S11332502C83418152819D012E5F3F4F42175307BA
S113326031F418964D915C911997528341831D96C0
S11332701C921E921C979081915090835A96EC91C7
S11332805A979091B9149E1710F4E093B9149BE0E7
S11332909E9FF0011124E550FB4E0180F281E02D48
S11332A01796FC93EE9316974681578119965C9373
S11332B04E931897C681D7813D832C833783268309
S11332C05A96EC915A979E9FF0011124E550FB4EBB
S11332D01D96FC93EE931C9790819F5F908321C071
S11332E066ED74E1FB01C181D2815396DC93CE93E8
S11332F052972E813F8155963C932E9354974E813D
S11333005F819D01225F3F4FFA01358324833F8310
S11333102E8359967C936E935897FB0190819F5FFF
S113332090835A962C91E0916915F0916A15928DCB
S1133330921748F4C114D10419F091E0F601908376
S113334091E09093B314DF91CF910F91FF90EF90A0
S1133350DF90CF90BF90AF909F908F90089500978B
S113336021F48091691590916A150FB6F8940F9223
S113337070E0FC01E60FF71F23A9223031F4FC01B1
S1133380E60FF71F13AA81E001C080E00F900FBE83
S11333900895DC01E0917515F0917615808191E036
S11333A0811190E09C93911108C00780F085E02D75
S11333B06081718182819381089560E070E0CB0126
S11333C00895CF92DF92EF92FF920F931F93FC0127
S11333D04283538364837583938782870417150715
S11333E026073707C0F00C191D092E093F098685E9
S11333F09785A089B189081719072A073B0700F5A3
S1133400BF016E5F7F4F80917315909174150E9478
S1133410110580E018C00C151D052E053F0528F484
S11334204C155D056E057F0568F4BF016E5F7F4F27
S113343080917515909176150E94110580E003C066
S113344081E001C081E01F910F91FF90EF90DF9028
S1133450CF9008950FB6F8940F92809171159091C2
S11334607215892BE9F482E895E10E94FC0487E750
S113347095E10E94FC0482E895E19093761580938F
S1133480751587E795E1909374158093731540E063
S113349067E08AE00E94BF079093721580937115CC
S11334A00F900FBE0895EF92FF920F93D3DF809198
S11334B0711590917215892B91F00F2EFFE6EF2E66
S11334C0F5E1FF2EF02D03E020E030E040EC50E089
S11334D06EEA72E087ED90E00E94540F01C080E034
S11334E00F91FF90EF9008958F929F92AF92BF92A9
S11334F0CF92DF92EF92FF920F931F93CF93DF93BC
S1133500CDB7DEB727970FB6F894DEBF0FBECDBF99
S1133510E0917115F0917215309781F169832A83D6
S11335203B834C835D839F838E836630F4F4C3DADC
S1133530823069F400E0A7019601BE016F5F7F4FFE
S113354080917115909172150E94E20718C000E0F5
S113355020E030E0A901BE016F5F7F4F80917115BB
S1133560909172150E94E2070AC020E0A801BE01F2
S11335706F5F7F4FCF010E94740801C080E02796DF
S11335800FB6F894DEBF0FBECDBFDF91CF911F9170
S11335900F91FF90EF90DF90CF90BF90AF909F90EE
S11335A08F9008958F929F92AF92BF92CF92DF92A5
S11335B0EF92FF920F931F93CF93DF933BC007804B
S11335C0F085E02D80809180A280B380C085D18574
S11335D08E010E5F1F4FC8010E944E05EC89FD89C4
S11335E0CE0119958E8982FF25C08E859F85A88975
S11335F0B989880D991DAA1DBB1D88169906AA06AE
S1133600BB0670F48A839B83AC83BD83DB87CA8744
S1133610B80180917515909176150E9411050AC024
S1133620C12CD12C760100E010E0A501940160E0EA
S1133630CE015ADFE0917515F091761580818111E4
S1133640BECF8091731590917415909376158093E5
S11336507515F0937415E0937315DF91CF911F9155
S11336600F91FF90EF90DF90CF90BF90AF909F901D
S11336708F900895CF92DF92EF92FF92CF93DF93D2
S1133680EC010E94DE0F6B017C0180916B1590911F
S11336906C15A0916D15B0916E15C816D906EA0681
S11336A0FB0620F47FDF81E0888301C01882C0928A
S11336B06B15D0926C15E0926D15F0926E15C701E2
S11336C0B601DF91CF91FF90EF90DF90CF900895F6
S11336D04F925F926F927F928F929F92AF92BF921E
S11336E0CF92DF92EF92FF920F931F93CF93DF93CA
S11336F04B015C0129013A01E0917515F0917615B1
S11337000780F085E02DC085D185CE0102960E9408
S11337104E058E8982FF1BC04E855F856889798935
S1133720480D591D6A1D7B1D7501640193018201B9
S1133730CE0147DE882369F0C12CD12C760100E04C
S113374010E0A501940160E0CE01CEDE02C08E7FC0
S11337508E8BEC89FD89CE011995DF91CF911F9154
S11337600F91FF90EF90DF90CF90BF90AF909F901C
S11337708F907F906F905F904F9008958F929F925B
S1133780AF92BF92CF92DF92EF92FF921F93CF93AB
S1133790DF931F92CDB7DEB76B017C01142F0E941B
S11337A0D80FCE01019666DF4B015C01898181113E
S11337B02DC011110DC08C149D04AE04BF0440F043
S11337C00E941811A5019401C701B60181DF20C030
S11337D0112341F0E0917315F0917415808111E08B
S11337E0811110E0B701A601481959096A097B093A
S11337F0212F80917115909172150E94EF090E94FA
S11338001811811105C00E94CA0502C00E94181136
S11338100F90DF91CF911F91FF90EF90DF90CF90A9
S1133820BF90AF909F908F900895AF92BF92CF9228
S1133830DF92EF92FF920F931F93CF93DF93CDB755
S1133840DEB728970FB6F894DEBF0FBECDBF82C097
S1133850898188230CF47EC0AE80BF80D5011C967C
S11338608D919C911D97892B21F0C50102960E9490
S11338704E05CE010896FEDE8B019C01E9810E2ED9
S1133880000CFF0BEA30F10508F064C08827EE58FD
S1133890FF4F8F4F0C94C92EF50186898160868B6A
S11338A0CA80DB80EC80FD804685578560897189FC
S11338B04C0D5D1D6E1D7F1DC50183DD882309F43C
S11338C049C0D5015496ED91FC915597C5011995C0
S11338D0F501868982FF3EC04A815B816C817D81CE
S11338E086859785A089B1899A01AB01280F391F74
S11338F04A1F5B1FC12CD12C760100E010E060E070
S1133900C501F2DD27C0D50156968C9156978E7F5E
S113391056968C931FC0F50186898160868B4A81F7
S11339205B816C817D8146875787608B718B400FEB
S1133930511F621F731F68017901C50142DD0AC06E
S1133940F501868981FD04C0C5010E94BF0402C03F
S11339508E7F868B20E030E0A901BE016F5F7F4F30
S113396080917115909172150E94AF08811170CFEA
S113397028960FB6F894DEBF0FBECDBFDF91CF916E
S11339801F910F91FF90EF90DF90CF90BF90AF9079
S11339900895089584B1806884B985B1806885B933
S11339A0089583B1806883B90895F4DF2FEF80E729
S11339B092E0215080409040E1F700C00000F1DF28
S11339C0F5CFE8DF2FEF87EA91E621508040904061
S11339D0E1F700C00000E5DFF5CF0FEF1FEF98011E
S11339E046E150E061E577E1809175179091761793
S11339F00E94B90CC1E5D7E1998188811F929F93F8
S1133A001F928F9386EB92E09F938F930E946F3067
S1133A1089810F900F900F900F900F900F9081302D
S1133A2081F4809153170E94090200E020E030E005
S1133A30A90160E070E080917117909172170E9463
S1133A40E20766E070E080E090E00E945912C5CF82
S1133A50EF92FF920F93E12CF12C082F20E030E03D
S1133A6040EC50E06CEE72E08DEE9CE10E94540F4D
S1133A700F91FF90EF900895CF93DF9381E00E9420
S1133A80762AD6D452D79F938F938AEF92E09F934E
S1133A908F930E946F304AD648D79F938F938DE0BF
S1133AA093E09F938F930E946F308DE895E1D2D479
S1133AB03CD7CDE8D5E1DF93CF939F938F9386E2F4
S1133AC093E09F938F930E946F30CE01DFD42DD764
S1133AD09F938F93DF93CF938AE393E09F938F9386
S1133AE00E946F30AE016FE473E080E793E0FCD690
S1133AF01CD79F938F93DF93CF938FE493E09F938F
S1133B008F9380E793E09F938F9381E893E09F9353
S1133B108F930E946F30EDD408D79F938F9387EBD8
S1133B2093E09F938F930E946F308DB79EB78296D8
S1133B300FB6F8949EBF0FBE8DBF81E0D4D5F5D6E5
S1133B409F938F9386EC93E09F938F930E946F30A3
S1133B5084EF91E0D3D5E9D69F938F9381E08F933F
S1133B6084EF8F9387EE93E09F938F930E946F303F
S1133B708DB79EB70A960FB6F8949EBF0FBE8DBF41
S1133B80CAE080E0BCD4D82FD0D69F938F931F92E5
S1133B90CF9387E094E09F938F930E946F300F90B0
S1133BA00F900F900F900F900F90D83059F080E045
S1133BB00E94DA2A66E371E080E090E00E945912E4
S1133BC0C150F9F6D83021F481E00E94BC2A09C022
S1133BD081E00E94CB2A80E00E94992A0E94CA05B3
S1133BE0FDCFDF91CF910895CF93DF93CDB7DEB7AB
S1133BF06A970FB6F894DEBF0FBECDBF81E00AD43A
S1133C0062E070E080E090E00E94591280E002D40B
S1133C1066E970E080E090E00E945912B4D32CDF92
S1133C200E94DE0F69837A838B839C8386E084D031
S1133C3062E0CE01059692D048E85EE060E070E074
S1133C40CE0101960E94F4118E811F928F9387E218
S1133C5094E09F938F930E946F308E810F900F900A
S1133C600F900F90863008F44CC083E00E94EC2A39
S1133C708F811F928F9383E394E09F938F930E948D
S1133C806F3088851F928F938CE394E09F938F937A
S1133C900E946F3089851F928F9385E494E09F93EF
S1133CA08F930E946F308A851F928F938EE494E0E5
S1133CB09F938F930E946F308B851F928F9387E51C
S1133CC094E09F938F930E946F308C851F928F9303
S1133CD080E694E09F938F930E946F30BE016B5FE8
S1133CE07F4F80E035D421D69F938F9389E694E06B
S1133CF09F938F930E946F300FB6F894DEBF0FBE70
S1133D00CDBF64E670E080E090E00E94591290CF4D
S1133D10EF92FF920F93E12CF12C082F20E030E07A
S1133D2040EC50E062E974E084EF9DE10E94540F9E
S1133D300F91FF90EF90089580936E1708959093DC
S1133D406D1780936C170895909368178093671785
S1133D50089590936B1780936A1708951F93CF93D8
S1133D60DF93EC01162F86E190E00E941604FC011B
S1133D70892BB1F0108380916E17818380916C1729
S1133D8090916D179283838380916A1790916B173A
S1133D9094838583809167179091681796838783AE
S1133DA086E1DE0101900D928A95E1F7CE01DF9163
S1133DB0CF911F9108950F9343E060E081E00E944A
S1133DC0BF07909374178093731700E020E030E0EE
S1133DD0A90160E070E00E94E2070F9108950F933B
S1133DE043E060E081E00E94BF07909372178093E4
S1133DF0711700E020E030E0A90160E070E00E946B
S1133E00E2070F91089540E062E083E00E94BF075B
S1133E109093701780936F1708950E946202909395
S1133E20781780937717089541E060E070E08CE2A2
S1133E3090E00E944E0B9093761780937517089527
S1133E4006D1811105C08FE994E00C948230089565
S1133E5082EC94E00C948230089511D1882321F0EF
S1133E608CED94E00E94823063E070E080E090E0AA
S1133E700E94591219D1882321F08CEF94E00E94FA
S1133E80823061E070E080E090E00C945912089573
S1133E90CF93DF9300D01F92CDB7DEB71C821B8275
S1133EA01A8219824FEF5FEFBA01809173179091D4
S1133EB074170E943E09813051F5CFDF41D19C83B4
S1133EC08B8318D19A83898300E02FEF3FEFA901F8
S1133ED0BE016D5F7F4F80916F17909170170E94A4
S1133EE0E2072FEF3FEFA901BE016F5F7F4F809183
S1133EF06F17909170170E94E20742E050E060E073
S1133F0070E080917717909178170E94150360E014
S1133F1070E0CB010E945912C1CFEF92FF920F9330
S1133F20082F8EDFE12CF12C20E030E040EC50E053
S1133F3061E275E088E49FE10E94540F0F91FF90C5
S1133F40EF9008954FEF5FEFBA0180917117909150
S1133F5072170E943E09813029F40E942602682FBC
S1133F6081E018D666E070E080E090E00E9459128B
S1133F70E9CFEF92FF920F9325D6E12CF12C03E0C9
S1133F8020E030E040EC50E060E375E082EA9FE13D
S1133F900E94540F0F91FF90EF9008953EDF33DF9E
S1133FA00ADF1DDF0E94F4013FDF609175177091F5
S1133FB0761781E0EFC1089581E0AFDF81E00E94D0
S1133FC0DF0182E00E947C0184E0A2DE83E040DD28
S1133FD083E090E0CECF089580E00E94B529DEDF33
S1133FE0EBCF0895F9DF8CE395E00E9482300E94C4
S1133FF0A00FFFCF6530F1F4FA0180818F7390E058
S1134000982F88272181822B90930A02809309029A
S11340108281F0E48F9FC0011124FA012381269547
S11340202695822B909308028093070281E0809367
S1134030F1150895643051F080E090E49093080203
S11340408093070290930A028093090208950F93C4
S11340501F930AEF1FE120E034E244EF50E060E0F8
S113406087E20E940F2B9093F3158093F21521E0C1
S1134070892B09F020E0822F1F910F9108958091E0
S1134080F2159091F315009759F040E060E070E06C
S11340900E94602B843031F41092F11580E0089571
S11340A082E0089583E008958091F2159091F315CC
S11340B0009739F064E00E94AC2B853021F083E056
S11340C0089582E0089580E0089560910902709156
S11340D00A0280E090E00E94B62D20E030E048EC37
S11340E052E40E94442E20E038EF4FE756E40C944B
S11340F01D2D0895EADF20E030E040E251E40E9403
S1134100442E0E948A2DCB0108956091070270917C
S1134110080280E090E00E94B62D20E030E045E205
S113412053E40E94442E20E038EF4FE756E40E9407
S11341301D2D20E030E040E252E40C94B82C0895A8
S1134140E4DF20E030E040E251E40E94442E0E948B
S1134150852DCB0108950F931F93CF93DF931F9267
S11341601F92CDB7DEB78C0119822DC0E09158168D
S1134170EC3250F481E08E0F80935816F0E0E6574D
S1134180F94E8A81808302C0109258168A818A303F
S1134190D1F44091581650E0FA01E857F94E1082D4
S11341A0415051099E012F5F3F4F6AE876E18091AB
S11341B05B1690915C160E94750C898181110E9496
S11341C0CA0510925816BE016E5F7F4FC80137D6DC
S11341D0882361F20F900F90DF91CF911F910F917F
S11341E008950F931F93CF93DF938C01EB0180917C
S11341F05B1690915C160E94800BB80184EF95E1E8
S11342000E945030209779F0E4EFF5E1019000200E
S1134210E9F7319780E290E091838083BE0184EFD7
S113422095E10E944530E4EFF5E1DF010D900020B7
S1134230E9F711978DE09AE011969C938E9312966C
S11342401C9201900020E9F73197E45FF541AE2F0D
S113425084EF95E1AC016A2F80915D1690915E1612
S113426099D5811111C008E215E020E030E04DE25B
S113427050E064EE76E180915B1690915C160E94AA
S1134280B90C84EE96E102C080E090E0DF91CF911A
S11342901F910F9108952F923F924F925F926F92C8
S11342A07F928F929F92AF92BF92CF92DF92EF92C2
S11342B0FF920F931F93CF93DF935C01FC01019056
S11342C00020E9F731976F01C81AD90A5C2C0F2E28
S11342D0F7EE8F2EF7E09F2EF02DE12CF12C4C2CD5
S11342E03701F40101811281E80109900020E9F706
S11342F02197C01BD10B3C2EF9E0CF16D10458F006
S1134300F4012080FEE02F1206C0B801C5010E940E
S11343102030892B09F5442D351408F44C2F50E036
S1134320B801C5010E945730892B49F4F301EE0FFF
S1134330FF1FE60DF71DE951F84F20800DC08FEFE8
S1134340E81AF80AE3E08E0E911CF1E1EF16F1048D
S113435039F66894222424F8822DDF91CF911F919D
S11343600F91FF90EF90DF90CF90BF90AF909F9010
S11343708F907F906F905F904F903F902F90089513
S113438030DF89CF089580915B1690915C160C9470
S1134390800B08958F929F92AF92CF92EF920F93DA
S11343A01F93CF93C82F8B0141E060E070E088EC4D
S11343B090E00E944E0B90935C1680935B161093D2
S11343C05A16009359160F2EFBEA8F2EF0E29F2EF9
S11343D0F02D6894AA24A6F86894CC24C6F8E12C9D
S11343E000E023E040E051EE60E070E08C2F06D462
S11343F090935E1680935D16E7E0F1E08081806122
S11344008083CF911F910F91EF90CF90AF909F90A9
S11344108F900895882331F0E8E0F1E080818F7E69
S113442080830895E8E0F1E08081806180830895CD
S113443060E070E08DE695E0D4DEE4EEF6E1019014
S11344400020E9F73197E45EF64181E0759708F0C2
S113445080E00895CF93DF93EC0160E070E08EE795
S113446095E0BFDEE4EEF6E101900020E9F7E55FB8
S1134470F64139F464EE76E1CE010E94503080E0DA
S113448002C0188281E0DF91CF910895FC01019070
S11344900020E9F79F01215131092817390729F430
S11344A0BC018CEA95E06CCF089589E00895FC0185
S11344B001900020E9F79F0121513109281739079C
S11344C029F4BC018BEB95E05BCF089589E0089556
S11344D0FC0101900020E9F79F01215231092817BE
S11344E0390729F4BC018AEC95E04ACF089589E0A4
S11344F0089560E070E089E096E042CF08950F935C
S11345001F93E82FF0E0EE0FFF1FED51F84F60818D
S1134510718182E196E034DF811114C008E215E074
S113452020E030E04DE250E064EE76E180915B16ED
S113453090915C160E94B90C882321F084EE96E1D8
S1134540AADE03C084EE96E1A6DE1F910F910895C2
S11345500F931F93CF93DF931F92CDB7DEB7DB0189
S113456011969C911197953108F0B4C0992381F16B
S113457060E070E0272F30E0462F50E0FD01E40FAB
S1134580F51F928192959F709A3010F0995C01C04A
S1134590905DF901EB58F94E90832F5F3F4FFD0179
S11345A0E40FF51F92819F70492F50E04A30510566
S11345B014F0995C01C0905DF901EB58F94E9083B9
S11345C07E5F6F5F11969C911197691798F201C0F5
S11345D070E0E72FF0E0EB58F94E10824C91811116
S11345E003C08BE196E002C08DE196E025E736E159
S11345F03F932F931F924F939F938F9381E296E063
S11346009F938F9387EB96E19F938F930E94B23091
S113461060E070E087EB96E1B3DE0FB6F894DEBF9E
S11346200FBECDBF811159C008E215E020E030E093
S11346304DE250E064EE76E180915B1690915C1659
S11346400E94B90C882309F447C084EE96E123DE66
S11346508E3009F042C087E0898380915916909189
S11346605A16892BA9F1BE016F5F7F4F84EE96E144
S113467068D180935F16E981F0E0EC51F94EDF01D7
S11346800D900020E9F71197AE1BBF0BAA2391F000
S1134690BB27CD0101979C0112F42F5F3F4F359545
S11346A0279520936016AF014F5F5F4F64E181E669
S11346B096E173D101E010E020E030E046E150E003
S11346C06FE576E18091591690915A160E94B00BCD
S11346D08EE003C084E101C080E00F90DF91CF91B0
S11346E01F910F910895813019F061E376E002C0C3
S11346F06AE077E085E396E043CE08959F938F9335
S113470086E696E09F938F9387EB96E19F938F9332
S11347100E94B23060E070E087EB96E131DE0F90EA
S11347200F900F900F900F900F9008952F923F923B
S11347304F925F926F927F928F929F92AF92BF92AD
S1134740CF92DF92EF92FF920F931F93CF93DF9359
S1134750CDB7DEB7A0970FB6F894DEBF0FBECDBFBE
S113476063E976E08FE996E03CDD95DD8111A3C035
S113477080E2E2E2F2E0DE01119601900D928A9568
S1134780E1F79E012F5F3F4F6901E12CF12C0F2EC1
S1134790FBEAAF2EF6E0BF2EF02D07EB16E10F2E4D
S11347A0F4EC4F2EF6E05F2EF02D0F2EFBED8F2E46
S11347B0F6E09F2EF02D0F2EF5EF6F2EF6E07F2EF4
S11347C0F02D3E2C2F2CFF92EF92BF92AF921F93AD
S11347D00F930E94B23060E070E0C80102DD5BDD3F
S11347E00F900F900F900F900F900F90811163C056
S11347F032E03E15E8F4F60183818F9382818F9332
S113480081818F9380818F93FF92EF925F924F9279
S11348101F930F930E94B23060E070E0C801E1DCA6
S11348203ADD0FB6F894DEBF0FBECDBF811143C091
S11348302F923F929F928F921F930F930E94B230B8
S113484060E070E0C801CDDC26DD0F900F900F9082
S11348500F900F900F9081112EC02F923F927F9254
S11348606F921F930F930E94B23060E070E0C80112
S1134870B8DC11DD0F900F900F900F900F900F90F8
S1134880811119C03FEFE31AF30A84E0C80ED11C6A
S113489098E0E916F10409F094CF60E070E08DE04F
S11348A097E09FDCF8DC811106C060E070E08EE1E7
S11348B097E097DCF0DCA0960FB6F894DEBF0FBE4D
S11348C0CDBFDF91CF911F910F91FF90EF90DF90BB
S11348D0CF90BF90AF909F908F907F906F905F909C
S11348E04F903F902F900895EF92FF920F931F9354
S11348F0CF93DF93EC018B017A0181E0F4DE811127
S11349000DC0CE01D4DD811109C0C801E1DD8111E2
S113491005C0C701BBDD811101C0EBDDDF91CF9183
S11349201F910F91FF90EF90089590E0FC01EE0F1E
S1134930FF1F8E0F9F1FFC01E951F84F8181928167
S11349400895DC01009729F1FB012081FC0101900D
S11349500020E9F73197E81BF90B822F90E0E81764
S1134960F907C8F080E008C0880F382F330F330FE1
S1134970830F8053890F2F5FFD01E20FF11D90819A
S113498030ED390F3A3010F49111EECFFB01208352
S1134990089580E0089580E008950F931F93CF93C6
S11349A0DF93DC01EA012097E1F1FA010190002094
S11349B0E9F73197E41BF50B329710F532C08D01FE
S11349C0040F151F30E0AE01420F531FFA0190810E
S11349D0913428F09753592F5295507F03C0592F83
S11349E05295507F2C0F3D1FF9019181913410F0A5
S11349F0975301C09053950FF80190838F5F01C0C6
S1134A0080E0282F220F482F50E0FE010190002063
S1134A10E9F73197EC1BFD0B4E175F0710F4861373
S1134A20CECFDF91CF911F910F91089580911417EC
S1134A30860F8093141790911717913079F028F00E
S1134A409230A9F0933019F108956F3F09F048C0EE
S1134A501092141781E0809317170895663809F0AF
S1134A603FC01092131782E0809317170895E091C6
S1134A70131781E08E0F80931317F0E0EF5EF84E6A
S1134A806083823069F583E08093171708959091CD
S1134A90131721E0290F20931317963009F581117C
S1134AA00EC0E1E1F7E1808190E0982F8827218111
S1134AB0820F911D909319178093181704C01092B8
S1134AC019171092181710921717E0911517F091F3
S1134AD01617309729F08091181790911917199586
S1134AE008958F929F92AF92CF92EF920F930F2ED1
S1134AF0F6E18F2EF5E29F2EF02D6894AA24A4F8F7
S1134B006894CC24C4F8E12C00E023E040E855E2AA
S1134B1060E070E073D090931B1780931A170F9185
S1134B20EF90CF90AF909F908F9008959093161729
S1134B30809315170895CF93DF93CDB7DEB72997E8
S1134B400FB6F894DEBF0FBECDBF89E0E2E4F2E019
S1134B509E012F5F3F4FD90101900D928A95E1F795
S1134B60109219171092181780911A1790911B1709
S1134B70009731F0422F532F69E00CD180E001C03F
S1134B8082E029960FB6F894DEBF0FBECDBFDF9149
S1134B90CF91089565360CF064E66C390CF46CE939
S1134BA096EF6902B00111246854744F811105C055
S1134BB07093290160932801089570932B016093E9
S1134BC02A010895EAE0F1E08081886180838FE31F
S1134BD09CE9909327018093260160E080E0DADF6E
S1134BE060E081E0D7DFE0E2F1E08081826A8083E7
S1134BF0E1E2F1E080818A61808308952F923F92FF
S1134C004F925F926F927F928F929F92AF92CF92C8
S1134C10EF92FF920F931F93CF93DF93CDB7DEB73D
S1134C20F82E2A013B0188E090E00E94EB2E8C01D3
S1134C308F2D90E0FC01EE0FFF1FE45EF84E118310
S1134C4000830115110509F468C0880F991FFC0140
S1134C50E55FFD4F80819181D8018D939C936C2DEC
S1134C6070E084E090E00E94D12E1C0161E070E0CD
S1134C7086E090E00E94D12E7C014C2DB1015CD6DF
S1134C80F801F582E4826A2D70E084E090E00E94ED
S1134C90D12E1C0161E070E086E090E00E94D12EEC
S1134CA07C014A2DB10148D6D8011396FC92EE92AC
S1134CB0129717969C928E921697FFB6F894ED91E0
S1134CC0FC91119736978081826080838D909C90AF
S1134CD0C301B2014BD720E030E040E051E4D4D727
S1134CE09B01AC0160E074E284E79BE4A6D620E07B
S1134CF030E040E85FE33CD60DD7F401329760839F
S1134D00D801ED91FC911197359788E98083ED9155
S1134D10FC91349786E08083FFBEC801DF91CF9178
S1134D201F910F91FF90EF90CF90AF909F908F9035
S1134D307F906F905F904F903F902F900895CF9306
S1134D40DF93DC01892B01F11296ED91FC9113970D
S1134D50938182812581981B922384819817B1F0D5
S1134D60838126952823C081D181C20FD11D6883F8
S1134D708F5F958189238383ED91FC9135978081A1
S1134D808062808380E003C081E001C082E0DF9123
S1134D90CF910895EF92FF920F931F93CF93DF93D8
S1134DA07C01009709F441C0DC011296ED91FC915D
S1134DB0139793818281981B858198238481891B11
S1134DC08617A8F1662341F1842F952FDC016150E9
S1134DD0462F50E04F5F5F4F480F591FE701EA81AC
S1134DE0FB81938182812581981B9223848198176A
S1134DF079F08C91938126952923608171818B01AF
S1134E00020F111DE80188839F5F85819823938396
S1134E101196A417B50711F7D701ED91FC913597B9
S1134E2080818062808380E003C081E001C082E0F1
S1134E30DF91CF911F910F91FF90EF90089500970C
S1134E40D1F0DC011496ED91FC9115979381828148
S1134E50981799F09281858186958923A081B181E3
S1134E60A80FB11D8C91DB018C939F5F85819823E2
S1134E70928380E0089581E0089583E008951F926D
S1134E800F920FB60F9211240BB60F922F933F93EC
S1134E904F935F936F937F938F939F93AF93BF933E
S1134EA0CF93DF93EF93FF93A0911C17B0911D173D
S1134EB0109711F16091C6001496ED91FC9115972D
S1134EC0938182812581981B92238481981761F0B4
S1134ED0838126952823C081D181C20FD11D688387
S1134EE08F5F9581892383831696ED91FC911797A3
S1134EF0309711F0CD011995FF91EF91DF91CF918A
S1134F00BF91AF919F918F917F916F915F914F91DD
S1134F103F912F910F900BBE0F900FBE0F901F90DB
S1134F2018951F920F920FB60F9211240BB60F9281
S1134F302F938F939F93AF93BF93EF93FF93E0913E
S1134F401C17F0911D173097B9F00280F381E02D02
S1134F50938182819817B1F092818581282F2695BB
S1134F602923A081B181A20FB11D2C919F5F8923B8
S1134F7082832093C6000BC0E1ECF0E080818F7D3A
S1134F80808305C0E1ECF0E080818F7D8083FF9118
S1134F90EF91BF91AF919F918F912F910F900BBE85
S1134FA00F900FBE0F901F9018951F920F920FB67F
S1134FB00F9211240BB60F922F933F934F935F934D
S1134FC06F937F938F939F93AF93BF93CF93DF930D
S1134FD0EF93FF93A0911E17B0911F17109711F133
S1134FE06091CE001496ED91FC9115979381828186
S1134FF02581981B92238481981761F083812695DB
S11350002823C081D181C20FD11D68838F5F958110
S1135010892383831696ED91FC911797309711F0AD
S1135020CD011995FF91EF91DF91CF91BF91AF9190
S11350309F918F917F916F915F914F913F912F91AC
S11350400F900BBE0F900FBE0F901F9018951F92DC
S11350500F920FB60F9211240BB60F922F938F93CA
S11350609F93AF93BF93EF93FF93E0911E17F0913B
S11350701F173097B9F00280F381E02D938182816C
S11350809817B1F092818581282F26952923A08134
S1135090B181A20FB11D2C919F5F8923828320933C
S11350A0CE000BC0E9ECF0E080818F7D808305C0E9
S11350B0E9ECF0E080818F7D8083FF91EF91BF91D7
S11350C0AF919F918F912F910F900BBE0F900FBEB8
S11350D00F901F9018951F920F920FB60F921124E4
S11350E00BB60F922F933F934F935F936F937F93DE
S11350F08F939F93AF93BF93CF93DF93EF93FF93DC
S1135100A0912017B0912117109711F16091D6004A
S11351101496ED91FC911597938182812581981BBA
S113512092238481981761F0838126952823C08176
S1135130D181C20FD11D68838F5F958189238383B9
S11351401696ED91FC911797309711F0CD011995B2
S1135150FF91EF91DF91CF91BF91AF919F918F918B
S11351607F916F915F914F913F912F910F900BBE63
S11351700F900FBE0F901F9018951F920F920FB6AD
S11351800F9211240BB60F922F938F939F93AF938B
S1135190BF93EF93FF93E0912017F091211730977D
S11351A0B9F00280F381E02D938182819817B1F0E8
S11351B092818581282F26952923A081B181A20F70
S11351C0B11D2C919F5F892382832093D6000BC04D
S11351D0E1EDF0E080818F7D808305C0E1EDF0E0BA
S11351E080818F7D8083FF91EF91BF91AF919F91DB
S11351F08F912F910F900BBE0F900FBE0F901F90A9
S113520018951F920F920FB60F9211240BB60F929E
S11352102F933F934F935F936F937F938F939F93BA
S1135220AF93BF93CF93DF93EF93FF93A091221794
S1135230B0912317109711F1609136011496ED91F6
S1135240FC911597938182812581981B92238481F7
S1135250981761F0838126952823C081D181C20FDC
S1135260D11D68838F5F9581892383831696ED9181
S1135270FC911797309711F0CD011995FF91EF919B
S1135280DF91CF91BF91AF919F918F917F916F915A
S11352905F914F913F912F910F900BBE0F900FBED6
S11352A00F901F9018951F920F920FB60F92112412
S11352B00BB60F922F938F939F93AF93BF93EF935C
S11352C0FF93E0912217F09123173097B9F00280F1
S11352D0F381E02D938182819817B1F092818581C9
S11352E0282F26952923A081B181A20FB11D2C91CD
S11352F09F5F89238283209336010BC0E1E3F1E0B1
S113530080818F7D808305C0E1E3F1E080818F7D22
S11353108083FF91EF91BF91AF919F918F912F91D6
S11353200F900BBE0F900FBE0F901F901895CF9348
S1135330DF931F92CDB7DEB7BE016F5F7F4F8091C1
S11353402417909125177BDD8111F6CF898190E098
S11353500F90DF91CF910895682F80912417909139
S11353602517EDDC80E090E008958F929F92AF9234
S1135370CF92EF920F93812C912C6894AA24A7F8D2
S11353806894CC24C7F8E12C00E023E040E051EE1F
S113539060E070E033DC9093251780932417EDE7E9
S11353A0F7E183E192E091838083938382830F9179
S11353B0EF90CF90AF909F908F90089590E0FC0174
S11353C0EE0FFF1FE80FF91FEE0FFF1FEA5DF84E07
S11353D0238121111FC09C01220F331FF901E80F03
S11353E0F91FEE0FFF1FEA5DF84EA081B1814C91C9
S11353F0F901E80FF91FEE0FFF1FEA5DF84E81E097
S113540090E0028002C0880F991F0A94E2F7842B6F
S11354108C930895FC01EE0FFF1FDF01A80FB91F45
S1135420AA0FBB1FAA5DB84E0D90BC91A02D2C9164
S1135430E80FF91FEE0FFF1FEA5DF84E81E090E0E0
S1135440028002C0880F991F0A94E2F78095822394
S11354508C93089590E0FC01EE0FFF1FE80FF91FF5
S1135460EE0FFF1FEA5DF84E2381211120C09C013D
S1135470220F331FF901E80FF91FEE0FFF1FEA5D3A
S1135480F84EA081B1814C91F901E80FF91FEE0F9C
S1135490FF1FEA5DF84E81E090E0028002C0880FB1
S11354A0991F0A94E2F7809584238C930895FC0154
S11354B0EE0FFF1FDF01A80FB91FAA0FBB1FAA5DC4
S11354C0B84E0D90BC91A02D2C91E80FF91FEE0F52
S11354D0FF1FEA5DF84E81E090E0028002C0880F71
S11354E0991F0A94E2F7822B8C930895CF93DF934C
S11354F090E0FC01EE0FFF1FDF01A80FB91FAA0FF8
S1135500BB1FAA5DB84ECD91DC911197488121E073
S113551030E012960C90129702C0220F331F0A94A7
S1135520E2F724272883FD0181E08483DF91CF9172
S11355300895CF93DF9390E0FC01EE0FFF1FDF018E
S1135540A80FB91FAA0FBB1FAA5DB84ECD91DC915D
S11355501197488121E030E012960C90129702C016
S1135560220F331F0A94E2F724272883FD0182E0E7
S11355708483DF91CF910895282F30E0F901EE0F55
S1135580FF1FE20FF31FEE0FFF1FEA5DF84E93E0DB
S1135590948360CF0895282F30E0F901EE0FFF1FA8
S11355A0E20FF31FEE0FFF1FEA5DF84E94E09483C1
S11355B005CF089590E0FC01EE0FFF1FDF01A80F57
S11355C0B91FAA0FBB1FAA5DB84E24E015962C93F1
S11355D01597FD011482089590E0FC01EE0FFF1F62
S11355E0DF01A80FB91FAA0FBB1FAA5DB84E21E0A7
S11355F015962C931597FD011482089580914C17EC
S113560081110CC08CE08093B8008FEF8093BB00B5
S113561084E08093BC0081E080934C170895AF929E
S1135620BF92CF92DF92EF92FF920F931F93CF938B
S1135630DF93A82EB62E69017A0184E090E0CBD3E3
S1135640EC01892B61F1A88281E0B81212C0C70174
S1135650B60120EA36E841E050E079D3DA01C90125
S11356604097A109B109B695A79597958795898320
S113567011C0C701B60120E83AE146E050E067D323
S1135680DA01C9014097A109B109B695A795979583
S1135690879589831B830A838C2F9D2F02C080E00A
S11356A090E0DF91CF911F910F91FF90EF90DF90E9
S11356B0CF90BF90AF9008958091BC008170089501
S11356C0FF920F931F93CF93DF930097D1F14A304A
S11356D0D0F5F42E8B01EC01EFDF811136C08091FF
S11356E03F1790914017C817D90741F087DF898188
S11356F08093B800D0934017C0933F1781E08F0D7B
S1135700809341178881880F80934217FF2089F086
S1135710F801A3E4B7E14FEF4F0D642F70E0CB0124
S11357200196B801680F791F81918D93E617F707E9
S1135730D9F788EF8093210285EA8093BC0084E046
S113574005C086E003C087E001C082E0DF91CF910D
S11357501F910F91FF9008951F93CF93DF930097AC
S113576029F16B3028F5162FEC01A6DF811122C038
S113577080913F1790914017C817D90741F03EDF39
S113578089818093B800D0934017C0933F1710933A
S113579041178881880F81608093421788EF809336
S11357A0210285EA8093BC0085E005C086E003C041
S11357B087E001C082E0DF91CF911F9108951F928D
S11357C00F920FB60F9211240BB60F922F933F93A3
S11357D04F935F936F937F938F939F93AF93BF93F5
S11357E0EF93FF93E091B9008E2F90E0FC0138977E
S11357F0E135F10508F075C08827E458FF4F8F4F55
S1135800C8C210923E17E0913E1780914117E817E5
S113581070F481E08E0F80933E17F0E0EE5BF84E5B
S113582080818093BB0085E88093BC0072C084E9CA
S11358308093BC0080913F1790914017DC01129631
S1135840ED91FC911397309709F463C020E040E098
S113585050E064E019955DC0E0913E1781E08E0F41
S113586080933E178091BB00F0E0EE5BF84E80839E
S11358708091B900803411F410923E1720913E17A4
S113588030E08091411790E001972817390724F4FC
S113589085EC8093BC003DC085E88093BC0039C092
S11358A08091BB00E0913E17F0E0EE5BF84E808300
S11358B084E98093BC0080913F1790914017DC01EC
S11358C01296ED91FC911397309719F1209141179D
S11358D042E457E165E019951CC085EA8093BC0059
S11358E018C08091B9008093210284E08093BC00A9
S11358F080913F1790914017DC011296ED91FC9135
S11359001397309731F020E040E050E0609121029D
S11359101995FF91EF91BF91AF919F918F917F91D5
S11359206F915F914F913F912F910F900BBE0F900C
S11359300FBE0F901F901895FC01411101C06CD34C
S1135940842F90E09C012150310982239323892BD9
S113595009F062D3413808F05FD312821382448382
S1135960440F415045837183608380E090E0089543
S11359705058BB27AA270ED04DC13ED130F043D199
S113598020F031F49F3F11F41EF433C10EF4E0957E
S1135990E7FB29C1E92F4FD180F3BA1762077307D8
S11359A08407950718F071F49EF567C10EF4E0952D
S11359B00B2EBA2FA02D0B01B90190010C01CA01C5
S11359C0A0011124FF27591B99F0593F50F4503E70
S11359D068F11A16F040A22F232F342F4427585F62
S11359E0F3CF469537952795A795F0405395C9F77A
S11359F07EF41F16BA0B620B730B840BBAF0915032
S1135A00A1F0FF0FBB1F661F771F881FC2F70EC0D0
S1135A10BA0F621F731F841F48F4879577956795A3
S1135A20B795F7959E3F08F0B3CF9395880F08F08C
S1135A309927EE0F9795879508950CD0EBC0E3D086
S1135A4040F0DAD030F021F45F3F19F0CCC05111AE
S1135A5015C1CFC0F0D098F39923C9F35523B1F3FE
S1135A60951B550BBB27AA2762177307840738F0C9
S1135A709F5F5F4F220F331F441FAA1FA9F333D028
S1135A800E2E3AF0E0E830D091505040E695001CDC
S1135A90CAF729D0FE2F27D0660F771F881FBB1F98
S1135AA0261737074807AB07B0E809F0BB0B802D72
S1135AB0BF01FF2793585F4F2AF09E3F510568F0BE
S1135AC092C0DCC05F3FECF3983EDCF3869577959B
S1135AD06795B795F7959F5FC9F7880F911D9695C0
S1135AE0879597F90895E1E0660F771F881FBB1F1C
S1135AF0621773078407BA0720F0621B730B840BC9
S1135B00BA0BEE1F88F7E095089504D06894B1119C
S1135B10B5C0089598D088F09F5790F0B92F992771
S1135B20B751A0F0D1F0660F771F881F991F1AF0A4
S1135B30BA95C9F712C0B13081F09FD0B1E0089591
S1135B409CC0672F782F8827B85F39F0B93FCCF312
S1135B50869577956795B395D9F73EF4909580959A
S1135B60709561957F4F8F4F9F4F0895E89409C0BA
S1135B7097FB3EF490958095709561957F4F8F4F7C
S1135B809F4F9923A9F0F92F96E9BB279395F69592
S1135B90879577956795B795F111F8CFFAF4BB0F10
S1135BA011F460FF1BC06F5F7F4F8F4F9F4F16C074
S1135BB0882311F096E911C0772321F09EE8872FFE
S1135BC0762F05C0662371F096E8862F70E060E0BA
S1135BD02AF09A95660F771F881FDAF7880F969533
S1135BE0879597F9089597F99F6780E870E060E0DA
S1135BF008959FEF80EC089500240A941616170662
S1135C0018060906089500240A94121613061406A9
S1135C1005060895092E0394000C11F4882352F00C
S1135C20BB0F40F4BF2B11F460FF04C06F5F7F4FC4
S1135C308F4F9F4F089557FD9058440F551F59F0AB
S1135C405F3F71F04795880F97FB991F61F09F3F65
S1135C5079F087950895121613061406551FF2CF8E
S1135C604695F1DF08C0161617061806991FF1CFDE
S1135C7086957105610508940895E894BB27662705
S1135C807727CB0197F908950BD0C4CFB5DF28F05F
S1135C90BADF18F0952309F0A6CFABCF1124EECFCD
S1135CA0CADFA0F3959FD1F3950F50E0551F629F73
S1135CB0F001729FBB27F00DB11D639FAA27F00D61
S1135CC0B11DAA1F649F6627B00DA11D661F829F88
S1135CD02227B00DA11D621F739FB00DA11D621F6D
S1135CE0839FA00D611D221F749F3327A00D611D8A
