S011000053656D6573746572342E7372656397
S1130000E5C0000004C1000002C1000000C10000FE
S1130010FEC00000FCC00000FAC00000F8C00000F0
S1130020F6C00000F4C00000F2C00000F0C0000000
S11300306DC60000ECC00000EAC00000E8C000008B
S1130040E6C00000E4C00000E2C00000E0C0000020
S1130050DEC00000DCC00000DAC00000D8C0000030
S1130060D6C000000C94C9240C941B25D0C00000F9
S1130070CEC00000CCC00000CAC00000C8C0000050
S1130080C6C00000C4C00000C2C00000C0C0000060
S11300900C945F250C94B125BAC000000C94692916
S11300A0B6C00000B4C00000B2C00000B0C0000080
S11300B0AEC00000ACC00000AAC00000A8C0000090
S11300C0A6C00000A4C00000A2C000000C94F52546
S11300D00C9447269CC000000C948B260C94DD26BF
S11300E096C000005E1B5E1B5E1B951B9D1BB21B16
S11300F05E1B5E1B951B9D1B8B29FB29FB29FB2982
S1130100FB29FB29FB29FB298B29FB29FB29FB293B
S1130110FB29FB29FB29FB298D29FB29FB29FB2929
S1130120FB29FB29FB29FB29FB29FB29FB29FB29AB
S1130130FB29FB29FB29FB298D29FB29FB29FB2909
S1130140FB29FB29FB29FB29FB29FB29FB29FB298B
S1130150FB29FB29FB29FB29F729FB29FB29FB297F
S1130160FB29FB29FB29FB29C229FB29FB29FB29A4
S1130170FB29FB29FB29FB29FB29FB29FB29FB295B
S1130180FB29FB29FB29FB29B629FB29FB29FB2990
S1130190FB29FB29FB29FB29DA290E94B50D809153
S11301A00313823008F0ECD40E94DB1BF6CFCF930C
S11301B0DF931F92CDB7DEB7CE0101960E94DB1804
S11301C049810E94D01A0E94271BF6CF11241FBE1A
S11301D0CFEFD1E2DEBFCDBF00E00CBF18E0A0E05E
S11301E0B2E0E2E3F2E600E00BBF02C007900D923A
S11301F0AE3DB107D9F725E1AEEDB8E001C01D92DF
S1130200A236B207E1F70E94F01E0C941731F8CE23
S11302100F931F93CF93DF9300D000D0CDB7DEB7F9
S113022000E010E013C0B801660F771F81E090E092
S11302308C0F9D1F680F791F2FEF3FEFA90180914D
S11302404E1590914F157ED70F5F1F4F0330110548
S113025054F389819A810E94B11D8B819C810E94F3
S1130260B61D8D819E810E94AC1D60E080914E156B
S113027090914F1525D626960FB6F894DEBF0FBE83
S1130280CDBFDF91CF911F910F910895CC24CA94D3
S1130290DC2C760101E021E043E050E060E070E016
S11302A0809154159091551516D1DC01CB018370C2
S11302B09927AA27BB270397A105B105B1F48FE6B7
S11302C092E00E940C2EA4DF60E17DE180E090E0EA
S11302D00E94811100E020E030E0A90160E070E0BC
S11302E0809150159091511563D663E070E080E0E1
S11302F090E00E948111CACFEF92FF920F93E12CFC
S1130300F12C01E020E030E040EC50E062E872E0E3
S113031086E491E00E947C0E0F91FF90EF90089587
S11303200F93CF93DF931F921F92CDB7DEB79A83BB
S113033089838A818F9389818F938AE892E09F933E
S11303408F930E94F92D00E02FEF3FEFA901BE012A
S11303506F5F7F4F80914E1590914F1529D641E0E4
S113036050E060E070E0809154159091551553D1A0
S11303700F900F900F900F900F900F90DF91CF91EF
S11303800F91089583E00C942F2308950E9459231C
S113039080934015882321F089E992E00C940C2E77
S11303A0089580EB92E00E940C2ECC24CA94DC2C9D
S11303B0760101E020E042E050E060E070E08091EE
S11303C054159091551587D061FDE0DF6EE170E022
S11303D080E090E00E948111E4CFEF92FF920F93AE
S11303E0D1DF80E991E00E945423E12CF12C01E05B
S11303F020E030E040EC50E069EB72E081ED91E008
S11304000E947C0E0F91FF90EF9008950F9310922D
S1130410431543E060E081E0A8D5909342158093B2
S1130420411500E020E030E0A90160E070E0C0D5B3
S11304300F9108950F93CF93C82F4FEF5FEFBA0139
S113044080914115909142150CD7813069F4C09385
S1130450431500E020E030E0A90160E070E0809105
S1130460411590914215A4D5CF910F9108950F9302
S113047001110CC0DC01CB0182239323A423B523F7
S1130480892B8A2B8B2B79F480E010C0DC01CB0103
S113049082239323A423B523281739074A075B072C
S11304A021F080E003C081E001C081E00F91089554
S11304B0CF93DF938FE090E0AFD1EC01009739F058
S11304C0FC011192119211921192CF018BD2CE01A3
S11304D0DF91CF9108952F923F924F925F926F9246
S11304E07F928F929F92AF92BF92CF92DF92EF92C0
S11304F0FF920F931F93CF93DF93EC014A015B01AB
S1130500622E702E0E94000F288039804A805B8002
S1130510A5019401C201B101AADF8823A1F06620DC
S113052089F1D501C40180959095A095B09582215B
S11305309321A421B52188839983AA83BB83C12CE9
S1130540D12C760122C0C114D104E104F104E9F0F4
S1130550611004C040E050E0BA0104C040E050E043
S113056060E071E071107460482959296A297B2977
S113057097018601CE0104960E941812212C312C79
S1130580210103C0C12CD12C76010E944010CD283A
S1130590CE28CF2859F1811101C0F2D20E94C4158E
S11305A06B017C0191FD1FC00FB6F8940F92C880B7
S11305B0D980EA80FB80072DA5019401C701B6010B
S11305C056DF882371F0662061F080949094A094A3
S11305D0B0948C209D20AE20BF2088829982AA826C
S11305E0BB820F900FBE160127015524C201B10131
S11305F0DF91CF911F910F91FF90EF90DF90CF90FB
S1130600BF90AF909F908F907F906F905F904F902E
S11306103F902F9008954F925F926F927F92AF9286
S1130620BF92CF92DF92EF92FF920F931F93CF93DB
S1130630DF93EC016A017B018C01095F1F4F0E946B
S1130640000FEB85FC8588819981AA81BB81C82A2A
S1130650D92AEA2AFB2AC882D982EA82FB82C12CDF
S1130660D12C76013DC0A480B58080819181A28186
S1130670B381AC01BD017727B2FD0EC0488059801B
S11306806A807B80442255226622772245284628A8
S1130690472889F420E012C0488059806A807B8012
S11306A044225522662277224415550566057705AE
S11306B021F020E003C021E001C021E0222371F0F9
S11306C0B0FF04C0C42AD52AE62AF72A48815981F2
S11306D06A817B817260CF010E945313EA2DFB2D46
S11306E0E017F10709F0BFCFC094D094E094F094E0
S11306F088819981AA81BB81C822D922EA22FB225E
S1130700C882D982EA82FB820E9440106881798182
S11307108A819B81DF91CF911F910F91FF90EF9080
S1130720DF90CF90BF90AF907F906F905F904F908D
S11307300895EAEEF8E0AEEEB8E0B183A083138248
S11307401282EEEAF2E1F093E908E093E8081382FA
S113075012821182108280EC99E013969C938E93FE
S11307601297ED93FC939093E5088093E40890939B
S1130770E7088093E60880E090E89093DF08809390
S1130780DE080895CF93DF93EC01AAEEB8E001C030
S1130790DF01ED91FC911197EC17FD07C8F3129658
S11307A08D919C9113979D01280F391FC217D30770
S11307B049F42A813B81820F931F13969C938E9355
S11307C01297ED018A819B819E01280F391FE21740
S11307D0F307C1F42091E8083091E908E217F30720
S11307E071F022813381820F931F9B838A83ED9161
S11307F0FC911197808191819983888305C0398305
S1130800288302C0F983E883CA17DB0711F0CD936C
S1130810DC93DF91CF910895EF92FF920F931F9392
S1130820CF93DF938C010E94000F8091E808909190
S1130830E908892B09F47DDF8091DE089091DF08B7
S113084080239123892B09F076C00115110549F005
S1130850C80104960817190718F000E010E001C059
S11308608C010115110509F469C08091E608909185
S1130870E7088017910708F464C0C091EA08D09192
S1130880EB08EAEEF8E002C0FE01EC018A819B81EC
S11308908017910720F4888199810097A9F78091A6
S11308A0E8089091E908C817D90709F44DC0E08019
S11308B0F18084E0E80EF11C888199819183808322
S11308C02A813B81201B310B2930310548F0CE01B0
S11308D0800F911FFC01338322831B830A8352DF21
S11308E02A813B818091E6089091E708821B930B53
S11308F09093E7088093E6084091E4085091E50856
S11309008417950720F49093E5088093E408809178
S1130910DE089091DF08282B392B3B832A83198228
S113092018828091E2089091E30801969093E3087D
S11309308093E2080BC0E12CF12C08C0E12CF12CCF
S113094005C0E12CF12C02C0E12CF12C0E944010D6
S1130950E114F10411F40E94E71BC701DF91CF9168
S11309601F910F91FF90EF9008950F931F93CF93D2
S1130970DF93009791F1EC0124974A815B812091E8
S1130980DE083091DF08BA0162237323672B29F153
S113099068817981672B09F52095309524233523C7
S11309A03B832A830E94000F8A819B812091E60861
S11309B03091E708820F931F9093E7088093E6082D
S11309C0CE01E0DE8091E0089091E10801969093D9
S11309D0E1088093E0080E944010DF91CF911F91BD
S11309E00F910895FC010396928381834FEF5FEF8B
S11309F0BA01438354836583768390878783928780
S1130A00818710820895FC011386128608950F933E
S1130A101F93CF93DF93EB01088119812A813B81D6
S1130A200F3F4FEF14072407340721F4FC01A1857D
S1130A30B28511C0DC01139601C0DF011496ED915B
S1130A40FC911597408151816281738104171507C8
S1130A502607370790F71496ED91FC911597FD83BF
S1130A60EC83D783C683BF83AE831596DC93CE9382
S1130A7014979B878A87FC0120812F5F2083DF9155
S1130A80CF911F910F910895CF93DF93FC01A2851D
S1130A90B385C481D581868197819F838E83C681E6
S1130AA0D781848195819D838C8311968D919C91AE
S1130AB01297E817F90731F48681978112969C936F
S1130AC08E931197138612868C9181508C938C91FE
S1130AD0DF91CF910895A89590EC88E10FB6F89432
S1130AE0A895809360000FBE909360000895FC0168
S1130AF060833197708331971082319710823197D8
S1130B0020E8208331971082319710823197108228
S1130B10779740833197508386970895DCDFA091BF
S1130B207113B0917213CD91CDBFDD91DEBFFF91F2
S1130B30EF91DF91CF91BF91AF919F918F917F9171
S1130B406F915F914F913F912F911F910F91FF9062
S1130B50EF90DF90CF90BF90AF909F908F907F9059
S1130B606F905F904F903F902F901F900F900CBE0E
S1130B700F900BBE0F900FBE0F90089581E0089563
S1130B800F920FB6F8940F920BB60F920CB60F9209
S1130B901F9211242F923F924F925F926F927F92F5
S1130BA08F929F92AF92BF92CF92DF92EF92FF9279
S1130BB00F931F932F933F934F935F936F937F9361
S1130BC08F939F93AF93BF93CF93DF93EF93FF9351
S1130BD0A0917113B09172130DB60D920EB60D92D1
S1130BE00E949C11A0917113B0917213CD91CDBF4D
S1130BF0DD91DEBFFF91EF91DF91CF91BF91AF9176
S1130C009F918F917F916F915F914F913F912F9120
S1130C101F910F91FF90EF90DF90CF90BF90AF9016
S1130C209F908F907F906F905F904F903F902F9008
S1130C301F900F900CBE0F900BBE0F900FBE0F9025
S1130C4008950F920FB6F8940F920BB60F920CB64C
S1130C500F921F9211242F923F924F925F926F92A4
S1130C607F928F929F92AF92BF92CF92DF92EF9238
S1130C70FF920F931F932F933F934F935F936F9321
S1130C807F938F939F93AF93BF93CF93DF93EF9310
S1130C90FF93A0917113B09172130DB60D920EB61D
S1130CA00D9213BE0E94140F81110E949C11A091F9
S1130CB07113B0917213CD91CDBFDD91DEBFFF9161
S1130CC0EF91DF91CF91BF91AF919F918F917F91E0
S1130CD06F915F914F913F912F911F910F91FF90D1
S1130CE0EF90DF90CF90BF90AF909F908F907F90C8
S1130CF06F905F904F903F902F901F900F900CBE7D
S1130D000F900BBE0F900FBE0F9008959ADF1895A9
S1130D10DC0153962C915397222341F05A96ED917E
S1130D20FC915B9790818AE0891B089580E0089587
S1130D300FB6F8940F92FC01868D811102C081E0F8
S1130D4001C080E00F900FBE08950FB6F8940F9283
S1130D50FC01268D878D281302C081E001C080E04C
S1130D600F900FBE08950F931F93CF93DF93EC0161
S1130D70042F1E8D48A141110CC088819981892BB3
S1130D8009F042C08C819D810E9402151D821C8243
S1130D9042C0011117C050E08A819B810E949A2DA4
S1130DA028A18A819B81820F911D9B838A832C8138
S1130DB03D818217930750F1888199819B838A83AF
S1130DC080E029C050E08E819F810E949A2D88A1E5
S1130DD090E09195819591092E813F81280F391FCB
S1130DE03F832E83488159812417350730F42C81A1
S1130DF03D81820F931F9F838E83023049F4112318
S1130E0049F0115080E007C080E005C080E003C0D5
S1130E1080E001C080E01F5F1E8FDF91CF911F91A2
S1130E200F910895FC0140A14423A9F050E02681CC
S1130E303781240F351F37832683848195812817B2
S1130E40390720F08081918197838683CB01668165
S1130E5077810C949A2D08951F93CF93DF93EC011F
S1130E600FB6F8940F921AA10BC08B89882351F006
S1130E70CE0143960E94A41281110E946414115061
S1130E8011169CF38FEF8AA30F900FBE0FB6F89440
S1130E900F9219A10BC08885882351F0CE010896C2
S1130EA00E94A41281110E946414115011169CF323
S1130EB08FEF89A30F900FBEDF91CF911F910895FB
S1130EC0CF93DF93EC010FB6F8940F92E881F98188
S1130ED08F8D28A190E030E0829FA001839F500D68
S1130EE0929F500D11244E0F5F1F5D834C831E8E05
S1130EF0FB83EA830197289FA001299F500D389F07
S1130F00500D1124CF01840F951F9F838E838FEF83
S1130F1089A38AA361110BC08885882371F0CE014F
S1130F2008960E94A412882341F02ADE06C0CE014E
S1130F30089658DDCE01439655DD0F900FBE81E033
S1130F40DF91CF9108950F931F93F801611103C0AE
S1130F501183008302C051834083878F60A361E0C3
S1130F60CF01AEDF1F910F910895DF92EF92FF92B0
S1130F700F931F93CF93DF93F82EE62ED42E869FE4
S1130F80C0011124839648DCEC01009741F08C01E8
S1130F902D2DAC014D5D5F4F6E2D8F2DD4DFCE0115
S1130FA0DF91CF911F910F91FF90EF90DF90089503
S1130FB0CF92DF92EF92FF920F931F93CF93DF9321
S1130FC0CDB7DEB729970FB6F894DEBF0FBECDBFFD
S1130FD07C016B012E833F834887598710E00FB64D
S1130FE0F8940F92F701968D878D981710F00230C0
S1130FF0B1F4402FB601C701B6DEF70193899923F6
S113100041F0C70143960E94A412882321F0B8DD61
S113101002C08111B5DD0F900FBE81E049C08E8101
S11310209F81A885B985892B8A2B8B2B21F40F905E
S11310300FBE80E03DC0111105C0CE0101960E9493
S1131040ED1311E00F900FBEDBD60FB6F8940F929C
S1131050F70181A18F3F09F411A2F70182A18F3F0B
S113106009F412A20F900FBEBE016A5F7F4FCE013A
S113107001960E94FE13811117C0C70166DE882302
S113108079F04E815F8168857985C70108960E9451
S11310900112C701E1DEF4D78111A1CF71DD9FCF29
S11310A0C701DADEEDD79BCFC701D6DEE9D780E0F2
S11310B029960FB6F894DEBF0FBECDBFDF91CF9156
S11310C01F910F91FF90EF90DF90CF900895EF92D2
S11310D0FF920F931F93CF93DF938A01FC01568DE8
S11310E0378D531710F02230F9F4422F7801EC01B8
S11310F01AA18E8DCE0137DE1F3F81F48B898823A0
S1131100A9F0CE0143960E94A412882389F0E11429
S1131110F10481F081E0F70180830DC0FF24F39492
S1131120F10EFAA281E007C080E005C081E003C0AF
S113113081E001C081E0DF91CF911F910F91FF9079
S1131140EF900895CF92DF92EF92FF920F931F9347
S1131150CF93DF93CDB7DEB729970FB6F894DEBFF0
S11311600FBECDBF8C016B012E833F834887598707
S1131170E12C0FB6F8940F92F801F68CFF2099F049
S1131180B601C8014FDEFA94F801F68E80858823F3
S113119031F0C80108960E94A4128111F1DC0F906D
S11311A00FBE81E04FC08E819F81A885B985892BB0
S11311B08A2B8B2B21F40F900FBE80E043C0E110EB
S11311C006C0CE0101960E94ED13EE24E3940F9025
S11311D00FBE16D60FB6F8940F92F80181A18F3F77
S11311E009F411A2F80182A18F3F09F412A20F9011
S11311F00FBEBE016A5F7F4FCE0101960E94FE13AF
S1131200811117C0C80194DD882379F04E815F8174
S113121068857985C80143960E940112C8011CDEC5
S11312202FD78111A6CFACDCA4CFC80115DE28D7F7
S1131230A0CFC80111DE24D7C8017ADD882309F4C0
S113124098CF80E029960FB6F894DEBF0FBECDBFCD
S1131250DF91CF911F910F91FF90EF90DF90CF908E
S11312600895EF92FF920F931F93CF93DF93CDB71F
S1131270DEB729970FB6F894DEBF0FBECDBF8C0141
S11312804E835F8368877987E12CF12C0FB6F8943D
S11312900F92F801868D8823C9F08150868F808152
S11312A09181892B29F40E94EE15F801958384839A
S11312B0F8018085882331F0C80108960E94A412A1
S11312C081115EDC0F900FBE81E06FC08E819F8123
S11312D0A885B985892B8A2B8B2B21F40F900FBEFF
S11312E080E063C0F11006C0CE0101960E94ED13A8
S11312F0FF24F3940F900FBE83D50FB6F8940F928A
S1131300F80181A18F3F09F411A2F80182A18F3F56
S113131009F412A20F900FBEBE016A5F7F4FCE0187
S113132001960E94FE13811126C0C80101DD8823A5
S1131330F1F0F80180819181892B51F40FB6F89472
S11313400F92848195810E947B14E82E0F900FBE2A
S11313504E815F8168857985C80143960E94011298
S1131360C8017ADD8DD6811191CF0ADC8FCFC801F7
S113137073DD86D68BCFC8016FDD82D6C801D8DC79
S1131380882309F483CFEE2079F00FB6F8940F92F6
S1131390C801BEDC682FF801848195810E945D1527
S11313A00F900FBE80E001C080E029960FB6F8943C
S11313B0DEBF0FBECDBFDF91CF911F910F91FF9084
S11313C0EF900895CF93DF93EC010FB6F8940F924A
S11313D089A18F3F09F419A28AA18F3F09F41AA2A7
S11313E00F900FBE8E8D811104C0CE0143960E94D2
S11313F06212CE0131DDDF91CF910895FC01448169
S1131400558122813381240F351F80819181B90157
S1131410681B790BCB016417750710F0841B950BBF
S113142008950F93FC018FE0DF011D928A95E9F77F
S113143075876487558344833783268306870F9192
S11314400895AF92BF92CF92DF92EF92FF920F93E3
S11314501F93CF93DF936C015B017A01FC01C2817E
S1131460D381048115810C1B1D0B4017510708F40F
S11314708A01F60184859585A801B5018C0F9D1F0D
S11314800E949A2D0E151F0558F4A701401B510BFD
S1131490B501600F711FF601848595850E949A2D10
S11314A0CE018E0D9F1DF60124813581821793078D
S11314B010F0821B930BF60193838283C701DF91A3
S11314C0CF911F910F91FF90EF90DF90CF90BF903D
S11314D0AF900895CF92DF92EF92FF920F931F93F4
S11314E0CF93DF931F921F92CDB7DEB77C016B01C0
S11314F05A83498321153105C1F0FC01868580FD9D
S113150008C04217530708F49A013A83298381E0FB
S11315100FC02017310758F042E050E0BE016F5F62
S11315207F4FC7018EDF81E003C080E001C080E00F
S1131530882331F049815A81B601C70182DF02C094
S113154080E090E00F900F90DF91CF911F910F9169
S1131550FF90EF90DF90CF900895AF92BF92CF921B
S1131560DF92EF92FF920F931F93CF93DF937C014F
S11315705B01E9014217530708F4EA01209781F15E
S1131580F7010081118184819581801B910B6E018B
S11315908C179D0708F46C01F70164857585600F4D
S11315A0711FA601C5010E949A2DCC16DD0658F4C0
S11315B0AE014C195D09F70164857585C5018C0D73
S11315C09D1D0E949A2D0C0F1D1FF701848195818A
S11315D00817190710F0081B190BF7011183008372
S11315E0CE01DF91CF911F910F91FF90EF90DF908B
S11315F0CF90BF90AF9008956F927F928F929F92F9
S1131600AF92BF92CF92DF92EF92FF920F931F930C
S1131610CF93DF931F921F92CDB7DEB76C014B01BE
S11316205A01790101151105B1F0FC016080718046
S1131630A801BE016F5F7F4F90DF89819A81E01A14
S1131640F10AA816B90630F4F60171826082A12C61
S1131650B12C01C05C019701A501B401C6017DDF75
S11316600F900F90DF91CF911F910F91FF90EF900A
S1131670DF90CF90BF90AF909F908F907F906F90AE
S11316800895CF92DF92EF92FF920F93CF93DF935F
S1131690EC016B01413011F401E001C000E0C11420
S11316A0D10419F4CC24C394D12CCE014096C8178C
S11316B0D90720F42196B0D87C0102C0E12CF12C8A
S11316C0E114F10439F09601AE01B701615F7F4F77
S11316D0C701A7DEC701DF91CF910F91FF90EF9073
S11316E0DF90CF9008950F930FB6F8940F92FC01FA
S11316F020853185232B71F422853385232B61F4D6
S1131700268137814481558164857585068589DE06
S113171081E003C080E001C080E00F900FBE0F9114
S11317200895FC012481358180819181820F931F6A
S113173042815381841B950B01978217930710F004
S1131740821B930B0895AF92BF92CF92DF92EF92D8
S1131750FF920F931F93CF93DF93EC017B015A0108
S113176069018E8580FF04C08A010E5F1F4F01C08E
S11317708A01CE01D6DF9C01A501B701CE01AADE04
S11317805C01892BC1F0CE0139DE2E813F818217A5
S1131790930788F088859985892B69F088859985D0
S11317A0E12CF12C00E020E030E0A90160E00E948F
S11317B09F1719861886C501DF91CF911F910F914C
S11317C0FF90EF90DF90CF90BF90AF9008954F922D
S11317D05F926F927F928F929F92AF92BF92CF92BD
S11317E0DF92EF92FF920F931F93CF93DF93EC015D
S11317F02B013A01580169018E8580FF05C0689468
S1131800882481F8912C02C0812C912CA114B1045C
S1131810C104D10441F10FB6F8940F92CE01EEDD6C
S11318207C018816990648F060E080E090E00E9410
S1131830C1180E946814998788870F900FBE8E1470
S11318409F04A0F0E12CF12C00E010E0980140E0AE
S113185050E0BA0180E00E94001619861886CE0175
S1131860CDDD7C0103C0CE01C9DD7C018E149F0453
S1131870E8F484019701A301B201CE01BDDE6C013D
S1131880892BB1F0BDD28A859B85892B69F08A8525
S11318909B85E12CF12C00E020E030E0A90160E020
S11318A00E94A8161B861A86EBD302C0C12CD12C29
S11318B0C601DF91CF911F910F91FF90EF90DF90C0
S11318C0CF90BF90AF909F908F907F906F905F90DC
S11318D04F900895E091EB12F091EC128081811108
S11318E00CC08FEF9FEFDC018093B5129093B6127A
S11318F0A093B712B093B8120895E091EB12F0914F
S1131900EC120780F085E02D80819181A281B38162
S11319108093B5129093B612A093B712B093B812F5
S11319200895CF93DF93EC018B8D9C8D1ED8CE014F
S11319301CD8DF91CF9108954F925F926F927F925E
S11319408F929F92AF92BF92CF92DF92EF92FF92CB
S11319500F93CF93DF932C015B014A013901E60118
S113196065EA70E08B8D9C8D0E94A32D8B8D9C8DE0
S113197021E0821A9108880E991EA114B10489F4F9
S113198015C0822F90E0F501E80FF91F3081DE01C8
S1131990A80FB91F5D963C938081882329F02F5F9F
S11319A001C020E0203168F31CA601C01D8E0A305E
S11319B008F009E00A8F0DA71EA6CE01029623D8CF
S11319C0CE010E9620D8DB87CA878AE090E0A0E09B
S11319D0B0E0801B9109A109B1098E879F87A88B6C
S11319E0B98BDF8BCE8B84E0FE01BF96DF011D92A5
S11319F08A95E9F71BAAA301B201C40178D8998397
S1131A008883E114F10419F0F701D183C083DF91D5
S1131A10CF910F91FF90EF90DF90CF90BF90AF9058
S1131A209F908F907F906F905F904F900895CF9389
S1131A30C0E009C02BE0C29FC00111248D5F9C4E01
S1131A400E94F204CF5FCA30A8F388EF92E10E94AB
S1131A50F2048DEE92E10E94F2048EED92E10E9476
S1131A60F20483ED92E10E94F20487EC92E10E9479
S1131A70F20488EF92E19093EC128093EB128DEED6
S1131A8092E19093EA128093E912CF910895CF9353
S1131A90DF93EC010FB6F8940F928091C6128F5F1A
S1131AA08093C6128091711390917213892B51F413
S1131AB0D0937213C09371138091C612813091F444
S1131AC0B6DF10C08091C01281110CC0E091711377
S1131AD0F0917213928D8A8D891720F0D09372132E
S1131AE0C09371138091B9128F5F8093B912EA8DFC
S1131AF08091C1128E1710F4E093C1128BE08E9F77
S1131B00F0011124ED5FFC4E0180F281E02DFF8392
S1131B10EE832681378139872887A681B7819E0184
S1131B202E5F3F4F15963C932E931497378326834D
S1131B30EA8D8E9FF0011124ED5FFC4EFD87EC874A
S1131B4080818F5F80830F900FBE8091C0128823A5
S1131B5049F0E0917113F0917213928D8A8D981768
S1131B6008F40ED8DF91CF910895CF93DF931BC073
S1131B700FB6F8940F92E091DA12F091DB12C0855F
S1131B80D185CE0102960E9444058091C6128150EF
S1131B908093C6128091D21281508093D2120F90FA
S1131BA00FBECE01BEDE8091D2128111E1CFDF9152
S1131BB0CF9108958F929F92AF92BF92CF92DF926E
S1131BC0EF92FF92CF93DF936B017C01C42F80903F
S1131BD0C2129090C312A090C412B090C51280910A
S1131BE071139091721302960E9444058FEFC816E8
S1131BF0D806E806F806B1F5CC23A1F1E7ECF2E14A
S1131C00A181B281C0917113D0917213BF83AE834D
S1131C10C0917113D091721316968D919C91179760
S1131C20998788871696CD91DC91179780917113C7
S1131C309091721302969D838C838091711390917D
S1131C407213029617969C938E931697A091711314
S1131C50B09172131D96FC93EE931C9780818F5F55
S1131C6080833FC0C80CD91CEA1CFB1CE091711393
S1131C70F0917213C282D382E482F582C814D9042B
S1131C80EA04FB0468F460917113709172138091FB
S1131C90E9129091EA126E5F7F4F0E94070521C0FE
S1131CA060917113709172138091EB129091EC1208
S1131CB06E5F7F4F0E9407058091B5129091B61216
S1131CC0A091B712B091B812C816D906EA06FB065D
S1131CD040F4C092B512D092B612E092B712F092CC
S1131CE0B812DF91CF91FF90EF90DF90CF90BF902B
S1131CF0AF909F908F9008952F923F924F925F9252
S1131D006F927F928F929F92AF92BF92CF92DF9207
S1131D10EF92FF920F93CF93DF933C011B014A0193
S1131D202901CA010E940C046C01892B71F084E31F
S1131D3090E00E940C04EC01892B19F0DC8ECB8E10
S1131D4006C0C6010E94B50402C0C0E0D0E02097DE
S1131D5061F0A12CB12C6E019201A401B101C30167
S1131D60EBDDCE0194DE81E001C08FEFDF91CF91F6
S1131D700F91FF90EF90DF90CF90BF90AF909F9026
S1131D808F907F906F905F904F903F902F90089529
S1131D90EF92FF920F930F2EF3EBEF2EF2E1FF2E53
S1131DA0F02D00E020E030E040EC50E061EC72E027
S1131DB08DEC90E0A1DF813011F40E94651981302F
S1131DC0C9F4F8948FEF9FEFDC018093B5129093E0
S1131DD0B612A093B712B093B81281E08093C012E8
S1131DE01092C2121092C3121092C4121092C51211
S1131DF00E948E05809106020F91FF90EF90089546
S1131E008091B2128F5F8093B21208950FB6F89446
S1131E100F926091C2127091C3128091C41290917A
S1131E20C5120F900FBE0895CF92DF92EF92FF92EA
S1131E30CF93DF938091B212811105C1C090C21279
S1131E40D090C312E090C412F090C5128FEFC81A5C
S1131E50D80AE80AF80AC092C212D092C312E092D9
S1131E60C412F092C512C114D104E104F104B1F416
S1131E708091EB129091EC122091E9123091EA12C8
S1131E803093EC122093EB129093EA128093E912B0
S1131E908091BA128F5F8093BA121CDD8091B512C3
S1131EA09091B612A091B712B091B812C816D90683
S1131EB0EA06FB0620F480E0B2C081E001C080E0C5
S1131EC0E091EB12F091EC12908191110CC04FEF64
S1131ED05FEFBA014093B5125093B6126093B712F4
S1131EE07093B8129CC0E091EB12F091EC12078051
S1131EF0F085E02D0084F185E02D428153816481D9
S1131F007581C416D506E606F70648F44093B51263
S1131F105093B6126093B7127093B81280C0A48520
S1131F20B585C681D781208531853F832E83C085C1
S1131F30D185268137813D832C8311964D915C9107
S1131F4012979F012E5F3F4F4217530731F440858C
S1131F50518512965C934E931197158614869C9125
S1131F6091509C93A08DB18D109709F1C289D389AA
S1131F70448955895F834E83C489D58942895389AD
S1131F805D834C8311966D917C911297AF01425FF2
S1131F905F4F6417750731F44489558912965C9331
S1131FA04E931197118E108E9C9191509C93A28DFB
S1131FB09091C1129A1710F4A093C1129BE09A9FBA
S1131FC0D0011124AD5FBC4E11960D90BC91A02D93
S1131FD0B783A68316964D915C91179751874087D6
S1131FE01696CD91DC9117973D832C8317963C93DD
S1131FF02E931697A28D9A9FD0011124AD5FBC4EEB
S1132000B587A4879C919F5F9C93228DE091711367
S1132010F0917213928D291708F04FCF51CFE091B0
S11320207113F0917213E28D9BE0E99FF00111248A
S1132030ED5FFC4E9081923008F081E09091BB12EC
S1132040911116C016C08091BC129091BD12A0913E
S1132050BE12B091BF120196A11DB11D8093BC1296
S11320609093BD12A093BE12B093BF1280E001C042
S113207081E0DF91CF91FF90EF90DF90CF900895B2
S1132080CF92DF92EF92FF92CF93DF930FB6F89443
S11320900F928091B21281508093B2128091B21249
S11320A08111BEC08091C612811188C0BCC0E0916C
S11320B0E512F091E6120084F185E02DA08DB18D3A
S11320C0C289D389848995899F838E83C489D5895C
S11320D0828993899D838C8311962D913C911297CB
S11320E0CF010E962817390731F484899589129601
S11320F09C938E931197118E108E8C9181508C939A
S1132100A485B585C681D781808591859F838E837B
S1132110C085D185868197819D838C8311968D910D
S11321209C9112979F012E5F3F4F8217930731F4C2
S11321308085918512969C938E93119715861486AB
S11321408C9181508C93A28D8091C1128A1710F4C6
S1132150A093C1128BE08A9FD0011124AD5FBC4EC5
S113216011960D90BC91A02DB783A68316964D9120
S11321705C911797518740871696CD91DC911797FC
S11321803D832C8317963C932E931697A28D8A9F9A
S1132190D0011124AD5FBC4EB587A4878C918F5FAD
S11321A08C93928DA0917113B09172135A968C9165
S11321B0981730F081E08093BB1202C0E0E0F0E0B9
S11321C08091DE12811173CFEF2B09F083DBC09075
S11321D0BC12D090BD12E090BE12F090BF12C11498
S11321E0D104E104F104A1F01FDE882319F081E099
S11321F08093BB1281E0C81AD108E108F108A1F765
S11322001092BC121092BD121092BE121092BF1204
S11322108091BB12882331F00E94C00581E003C085
S113222080E001C080E00F900FBEDF91CF91FF905E
S1132230EF90DF90CF9008958F929F92AF92BF92CC
S1132240CF92DF92EF92FF921F93CF93DF93EC0133
S11322506A017B01D5DD8090C2129090C312A090D8
S1132260C412B090C51288819981AA81BB81AC0146
S1132270BD014C0D5D1D6E1D7F1D88169906AA06B5
S1132280BB0660F4481759076A077B0798F484165D
S11322909506A606B70680F010E013C04817590744
S11322A06A077B0758F084169506A606B70640F021
S11322B010E007C010E005C011E003C011E001C048
S11322C011E0488359836A837B83112341F0CB0156
S11322D0BA01681979098A099B0940E06BDCD0DEF0
S11322E0811102C00E94C005812FDF91CF911F91FF
S11322F0FF90EF90DF90CF90BF90AF909F908F9022
S11323000895CF92DF92EF92FF926B017C01672BCD
S1132310682B692B39F074DD40E0C701B6014ADC53
S1132320AFDE01C080E0811102C00E94C005FF90B1
S1132330EF90DF90CF9008958091B212882321F01E
S113234081E08093BB1208951092BB12E091711347
S1132350F091721320813181E0917113F091721325
S1132360838D948D8217930760F06091711370913F
S11323707213635E7F4F80917113909172130E9468
S1132380F31B8091C11201C08150282F30E09BE0E3
S1132390929FF001939FF00D1124ED5FFC4E90810C
S11323A0992391F39BE0929FA001939F500D1124D8
S11323B0DF010180F281E02D0480F581E02D129689
S11323C0FC93EE9311974A5F5C4EE417F50729F4EA
S11323D044815581FD01528341839BE0929FF0012A
S11323E0939FF00D1124ED5FFC4E0180F281E02DEE
S11323F02085318530937213209371138093C11219
S11324000895CF92DF92EF92FF926A017B0160916F
S1132410711370917213625F7F4F0E94070541E050
S1132420C701B601C7DBFF90EF90DF90CF9008950E
S11324300F931F93CF93DF93FC01A0917113B0917D
S1132440721370681E964D935D936D937C935197B0
S1132450A181B281C0917113D0917213BB8BAA8BED
S1132460C0917113D091721316968D919C91179708
S11324709D8B8C8B1696CD91DC911797809171135F
S1132480909172130E969D838C8380917113909119
S113249072130E9617969C938E931697A0917113B0
S11324A0B09172135996FC93EE93589780818F5F85
S11324B0808341E0C901B8017DDBDF91CF911F9199
S11324C00F910895CF93DF93FC01CB01BA01A18151
S11324D0B281C0917113D0917213BB8BAA8BC0913E
S11324E07113D091721316964D915C9117975D8B71
S11324F04C8B1696CD91DC911797409171135091A6
S11325007213425F5F4F5D834C834091711350910E
S11325107213425F5F4F17965C934E931697A09188
S11325207113B09172135996FC93EE9358973081BE
S11325303F5F3083222319F06FEF7FEFCB01422FEF
S113254039DBDF91CF910895CF93DF93DC011796A8
S1132550ED91FC9118970084F185E02DA08DB18D4B
S1132560C289D389848995899F838E83C489D589B7
S1132570828993899D838C8311968D919C91129766
S11325809F01225F3F4F8217930731F48489958915
S113259012969C938E931197118E108E8C9181506C
S11325A08C938091B212811152C0A485B585C681E5
S11325B0D781808591859F838E83C085D1858681CF
S11325C097819D838C8311968D919C9112979F0185
S11325D02E5F3F4F8217930731F4808591851296C1
S11325E09C938E931197158614868C9181508C93AD
S11325F0A28D8091C1128A1710F4A093C1128BE0AE
S11326008A9FD0011124AD5FBC4E11960D90BC91F0
S1132610A02DB783A68316964D915C911797518789
S113262040871696CD91DC9117973D832C8317969E
S11326303C932E931697A28D8A9FD0011124AD5FEF
S1132640BC4EB587A4878C918F5F8C931CC04EEDD4
S113265052E1DA011196CD91DC911297D38BC28BA2
S11326608E819F81958B848B8E819F81DC01159651
S11326703C932E9314973F832E83518F408FDA011E
S11326808C918F5F8C93928DE0917113F091721302
S1132690828D891720F481E08093BB1201C080E011
S11326A0DF91CF910895CF93DF93DC0170684D9350
S11326B05D936D937C9313971896ED91FC91199704
S11326C01A964D915C911B9714968D919C91159738
S11326D016962D913C911797EC013F832E83169605
S11326E08D919C91179714962D913C911597EC011F
S11326F03D832C83EA0189819A81A817B90731F4B3
S113270016968D919C9117979A8389831B961C9298
S11327101E921A97DA018C9181508C93A485B58509
S1132720C681D781808591859F838E83C085D1851D
S1132730868197819D838C8311968D919C911297AC
S11327409F012E5F3F4F8217930731F48085918557
S113275012969C938E931197158614868C918150B2
S11327608C93A28D8091C1128A1710F4A093C11288
S11327708BE08A9FD0011124AD5FBC4E11960D9061
S1132780BC91A02DB783A68316964D915C911797A3
S1132790518740871696CD91DC9117973D832C8302
S11327A017963C932E931697A28D8A9FD0011124DD
S11327B0AD5FBC4EB587A4878C918F5F8C93928D4F
S11327C0E0917113F0917213828D891718F481E0EE
S11327D08093BB12DF91CF9108952091BA12FC012E
S11327E020834091C2125091C3126091C41270911F
S11327F0C512418352836383748308958F929F9299
S1132800AF92BF92CF92DF92EF92FF920F931F93FA
S1132810CF93DF93FB010FB6F8940F92C090C212CE
S1132820D090C312E090C412F090C512DC0111964E
S11328300D911D912D913C91149746015701801AD9
S1132840910AA20AB30A40815181628173814F3F88
S1132850BFEF5B076B077B0739F1EC01B881A091EF
S1132860BA12BA1759F0C016D106E206F30630F0D0
S1132870108211821282138281E017C08416950699
S1132880A606B70658F4481959096A097B09408312
S1132890518362837383A1DF80E007C010821182B9
S11328A01282138281E001C080E00F900FBEDF919D
S11328B0CF911F910F91FF90EF90DF90CF90BF9039
S11328C0AF909F908F90089581E08093BB120895FC
S11328D0809171139091721308958091C01288238E
S11328E031F08091B212811104C082E0089581E038
S11328F0089580E008950F931F93CF93DF93FC0115
S1132900892B09F477C0828DA0917113B091721351
S11329105A969C91891708F063C04685578560894B
S11329207189772394F0A0917113B09172135A9620
S11329309C914AE050E060E070E0491B5109610954
S1132940710946875787608B718B248535854BE0E9
S1132950849FC00111248D5F9C4E28173907B9F557
S1132960EF018F010E5F1F4FC8010E944405E091E3
S11329707113F0917213E28DEA8F8091C1128E1758
S113298010F4E093C1128BE08E9FF0011124ED5FEF
S1132990FC4E0180F281E02DFF83EE832681378196
S11329A039872887A681B78115961C930E931497AF
S11329B017830683EA8D8E9FF0011124ED5FFC4E90
S11329C0FD87EC8780818F5F808381E016C0A091B2
S11329D07113B09172135A968C91828F81E00DC05D
S11329E095A5E0917113F0917213828D981720F0E0
S11329F080E003C080E001C081E0DF91CF911F91AE
S1132A000F9108950F931F93CF93DF93FC01892BAC
S1132A1009F449C086A5815086A7228D95A529175A
S1132A2009F443C0811143C0EF018F010E5F1F4FB2
S1132A30C8010E944405EDA5EA8F8AE090E0A0E079
S1132A40B0E08E1B9109A109B1098E879F87A88BDD
S1132A50B98B8091C1128E1710F4E093C1128BE0F0
S1132A608E9FF0011124ED5FFC4E0180F281E02D78
S1132A70FF83EE832681378139872887A681B78132
S1132A8015961C930E93149717830683EA8D8E9FD5
S1132A90F0011124ED5FFC4EFD87EC8780818F5F90
S1132AA0808381E005C080E003C080E001C080E055
S1132AB0DF91CF911F910F9108950F931F93CF939F
S1132AC0DF93FC01892B09F45AC085A5861708F405
S1132AD0862F928D891709F452C026A5213009F05A
S1132AE04EC0828F4685578560897189772364F04B
S1132AF04AE050E060E070E0481B51096109710947
S1132B0046875787608B718B248535854BE0949F6E
S1132B10C00111248D5F9C4E2817390781F5EF0100
S1132B208F010E5F1F4FC8010E944405EA8D8091FA
S1132B30C1128E1710F4E093C1128BE08E9FF00146
S1132B401124ED5FFC4E0180F281E02DFF83EE83C2
S1132B502681378139872887A681B78115961C93EA
S1132B600E93149717830683EA8D8E9FF001112428
S1132B70ED5FFC4EFD87EC8780818F5F8083DF9162
S1132B80CF911F910F910895CF92DF92EF92FF9210
S1132B90E0917113F091721366857785808991892C
S1132BA0E0917113F0917213A0917113B0917213AB
S1132BB05A962C910F2EFAE0CF2ED12CE12CF12C29
S1132BC0F02DC21AD108E108F108C686D786E08A3A
S1132BD0F18AFF90EF90DF90CF9008958091711368
S1132BE090917213892B39F0E0917113F091721363
S1132BF086A58F5F86A780917113909172130895B3
S1132C004F925F926F927F92AF92BF92CF92DF9278
S1132C10EF92FF920F931F93CF93DF932801390113
S1132C200FB6F8940F92E0917113F0917213C82FBC
S1132C30D0E0EC0FFD1F83A9823079F1E09171138C
S1132C40F0917213CE01880F991F880F991FE80F16
S1132C50F91F87A590A9A1A9B2A94095509560959F
S1132C607095482359236A237B2347A750AB61AB54
S1132C7072ABE0917113F0917213EC0FFD1F81E0C0
S1132C8083ABA114B104C104D10439F041E0C601FD
S1132C90B5010E94DA0D0E94C0050F900FBE0FB659
S1132CA0F8940F92E114F104A1F0E0917113F09102
S1132CB07213CE01880F991F880F991FE80FF91F0F
S1132CC087A590A9A1A9B2A9F70180839183A283C2
S1132CD0B383E0917113F0917213EC0FFD1F83A97C
S1132CE08230E9F4E0917113F0917213CE01880FF0
S1132CF0991F880F991FE80FF91F87A590A9A1A90B
S1132D00B2A94094509460947094482259226A2243
S1132D107B2247A650AA61AA72AA81E001C080E082
S1132D202091711330917213C20FD31F1BAA0F90FD
S1132D300FBEDF91CF911F910F91FF90EF90DF9025
S1132D40CF90BF90AF907F906F905F904F90089519
S1132D508F929F92AF92BF92EF92FF920F93CF9375
S1132D60DF93DC010FB6F8940F92E114F10489F0BB
S1132D70E62FF0E0EE0FFF1FEE0FFF1FE80FF91F25
S1132D8087A490A8A1A8B2A8F70180829182A28208
S1132D90B38270E0FD01E60FF71F83A992E093ABC5
S1132DA0023001F118F4013031F04DC0033079F1F3
S1132DB00430D1F148C0660F771F660F771FFD01FD
S1132DC0E60FF71F87A490A8A1A8B2A8BA01A90189
S1132DD0482959296A297B2947A750AB61AB72ABB3
S1132DE001E034C0660F771F660F771FFD01E60F01
S1132DF0F71F47A550A961A972A94F5F5F4F6F4F95
S1132E007F4F47A750AB61AB72AB01E01FC0660FA9
S1132E10771F660F771FFD01E60FF71F27A730AB5B
S1132E2041AB52AB01E012C0823079F0660F771FDC
S1132E30660F771FFD01E60FF71F27A730AB41ABE5
S1132E4052AB01E003C001E001C000E0813009F0B1
S1132E5069C01C96ED91FC911D971696CD91DC915D
S1132E60179718968D919C9119979F838E83189626
S1132E70CD91DC91199716968D919C9117979D830E
S1132E808C83818192819D012E5F3F4F821793072E
S1132E9031F418968D919C911997928381831D9694
S1132EA01C921E921C978081815080835A96EC91CB
S1132EB05A978091C1128E1710F4E093C1128BE0DF
S1132EC08E9FF0011124ED5FFC4E0180F281E02D14
S1132ED01796FC93EE9316974681578119965C9347
S1132EE04E931897C681D7813D832C8337832683DD
S1132EF05A96EC915A978E9FF0011124ED5FFC4E87
S1132F001D96FC93EE931C9780818F5F80835A9665
S1132F109C91E0917113F0917213828D891710F4D2
S1132F200E94C0050F900FBE802FDF91CF910F91AB
S1132F30FF90EF90BF90AF909F908F9008958F92E5
S1132F409F92AF92BF92CF92DF92EF92FF920F9334
S1132F50CF93DF93DC01E114F10489F0E62FF0E074
S1132F60EE0FFF1FEE0FFF1FE80FF91F87A490A8B5
S1132F70A1A8B2A8F70180829182A282B38270E0F4
S1132F80FD01E60FF71F93A982E083AB023001F144
S1132F9018F4013031F04DC0033079F10430D1F12F
S1132FA048C0660F771F660F771FFD01E60FF71FF6
S1132FB087A490A8A1A8B2A8BA01A90148295929AF
S1132FC06A297B2947A750AB61AB72AB81E034C05F
S1132FD0660F771F660F771FFD01E60FF71F47A5E2
S1132FE050A961A972A94F5F5F4F6F4F7F4F47A7E9
S1132FF050AB61AB72AB81E01FC0660F771F660FE9
S1133000771FFD01E60FF71F27A730AB41AB52AB8B
S113301081E012C0923079F0660F771F660F771F38
S1133020FD01E60FF71F27A730AB41AB52AB81E0A0
S113303003C081E001C080E0913009F096C0909116
S1133040B21291115FC01C96ED91FC911D971696DA
S1133050CD91DC91179718962D913C9119973F8348
S11330602E831896CD91DC91199716962D913C914B
S113307017973D832C83418152819D012E5F3F4FE1
S11330804217530731F418964D915C911997528366
S113309041831D961C921E921C979081915090839F
S11330A05A96EC915A979091C1129E1710F4E0939E
S11330B0C1129BE09E9FF0011124ED5FFC4E018044
S11330C0F281E02D1796FC93EE9316974681578173
S11330D019965C934E931897C681D7813D832C83B0
S11330E0378326835A96EC915A979E9FF0011124B8
S11330F0ED5FFC4E1D96FC93EE931C9790819F5FB1
S1133100908321C06EED72E1FB01C181D28153969F
S1133110DC93CE9352972E813F8155963C932E9308
S113312054974E815F819D01225F3F4FFA013583A1
S113313024833F832E8359967C936E935897FB0187
S113314090819F5F90835A962C91E0917113F09136
S11331507213928D921748F4C114D10419F091E0BE
S1133160F601908391E09093BB12DF91CF910F9180
S1133170FF90EF90DF90CF90BF90AF909F908F9093
S11331800895009721F480917113909172130FB6F2
S1133190F8940F9270E0FC01E60FF71F23A9223088
S11331A031F4FC01E60FF71F13AA81E001C080E0AF
S11331B00F900FBE0895DC01E0917D13F0917E1312
S11331C0808191E0811190E09C93911108C0078067
S11331D0F085E02D6081718182819381089560E0A2
S11331E070E0CB010895CF92DF92EF92FF920F939C
S11331F01F93FC014283538364837583938782877F
S11332000417150726073707C0F00C191D092E09E6
S11332103F0986859785A089B189081719072A0768
S11332203B0700F5BF016E5F7F4F80917B13909148
S11332307C130E94070580E018C00C151D052E059F
S11332403F0528F44C155D056E057F0568F4BF0144
S11332506E5F7F4F80917D1390917E130E940705CE
S113326080E003C081E001C081E01F910F91FF90D5
S1133270EF90DF90CF9008950FB6F8940F9280915D
S1133280791390917A13892BE9F48AE893E10E94E7
S1133290F2048FE793E10E94F2048AE893E19093A9
S11332A07E1380937D138FE793E190937C13809337
S11332B07B1340E067E08AE00E94B50790937A139D
S11332C0809379130F900FBE0895EF92FF920F939E
S11332D0D3DF8091791390917A13892B91F00F2E7B
S11332E0F7E7EF2EF3E1FF2EF02D03E020E030E0CE
S11332F040EC50E066EC72E087ED90E00E947C0EBA
S113330001C080E00F91FF90EF9008958F929F92FB
S1133310AF92BF92CF92DF92EF92FF920F931F93DF
S1133320CF93DF93CDB7DEB727970FB6F894DEBF00
S11333300FBECDBFE0917913F0917A13309781F1EC
S113334069832A833B834C835D839F838E836630AA
S1133350F4F4C3DA823069F400E0A7019601BE01F7
S11333606F5F7F4F8091791390917A130E94D807F1
S113337018C000E020E030E0A901BE016F5F7F4F7C
S11333808091791390917A130E94D8070AC020E0A3
S1133390A801BE016F5F7F4FCF010E94670801C083
S11333A080E027960FB6F894DEBF0FBECDBFDF9145
S11333B0CF911F910F91FF90EF90DF90CF90BF902E
S11333C0AF909F908F9008958F929F92AF92BF92EB
S11333D0CF92DF92EF92FF920F931F93CF93DF93DD
S11333E03BC00780F085E02D80809180A280B3806F
S11333F0C085D1858E010E5F1F4FC8010E94440510
S1133400EC89FD89CE0119958E8982FF25C08E85B0
S11334109F85A889B989880D991DAA1DBB1D881689
S11334209906AA06BB0670F48A839B83AC83BD838A
S1133430DB87CA87B80180917D1390917E130E9427
S113344007050AC0C12CD12C760100E010E0A501CB
S1133450940160E0CE015ADFE0917D13F0917E1378
S113346080818111BECF80917B1390917C139093C6
S11334707E1380937D13F0937C13E0937B13DF9191
S1133480CF911F910F91FF90EF90DF90CF90BF905D
S1133490AF909F908F900895CF92DF92EF92FF921A
S11334A0CF93DF93EC010E94060F6B017C018091A6
S11334B0731390917413A0917513B0917613C81679
S11334C0D906EA06FB0620F47FDF81E0888301C089
S11334D01882C0927313D0927413E0927513F09211
S11334E07613C701B601DF91CF91FF90EF90DF9083
S11334F0CF9008954F925F926F927F928F929F9296
S1133500AF92BF92CF92DF92EF92FF920F931F93ED
S1133510CF93DF934B015C0129013A01E0917D13C4
S1133520F0917E130780F085E02DC085D185CE0112
S113353002960E9444058E8982FF1BC04E855F85DA
S113354068897989480D591D6A1D7B1D75016401BF
S113355093018201CE0147DE882369F0C12CD12C6E
S1133560760100E010E0A501940160E0CE01CEDE1A
S113357002C08E7F8E8BEC89FD89CE011995DF9177
S1133580CF911F910F91FF90EF90DF90CF90BF905C
S1133590AF909F908F907F906F905F904F90089521
S11335A08F929F92AF92BF92CF92DF92EF92FF924F
S11335B01F93CF93DF931F92CDB7DEB76B017C01CE
S11335C0142F0E94000FCE01019666DF4B015C01AF
S11335D0898181112DC011110DC08C149D04AE047C
S11335E0BF0440F00E944010A5019401C701B60138
S11335F081DF20C0112341F0E0917B13F0917C1313
S1133600808111E0811110E0B701A6014819590920
S11336106A097B09212F8091791390917A130E9472
S1133620E2090E944010811105C00E94C00502C039
S11336300E9440100F90DF91CF911F91FF90EF9067
S1133640DF90CF90BF90AF909F908F900895AF92EE
S1133650BF92CF92DF92EF92FF920F931F93CF937B
S1133660DF93CDB7DEB728970FB6F894DEBF0FBE51
S1133670CDBF82C0898188230CF47EC0AE80BF8018
S1133680D5011C968D919C911D97892B21F0C50124
S113369002960E944405CE010896FEDE8B019C0131
S11336A0E9810E2E000CFF0BEA30F10508F064C02E
S11336B08827EE58FF4F8F4F0C94532CF5018689C1
S11336C08160868BCA80DB80EC80FD8046855785CF
S11336D0608971894C0D5D1D6E1D7F1DC50183DDE3
S11336E0882309F449C0D5015496ED91FC9155976E
S11336F0C5011995F501868982FF3EC04A815B8127
S11337006C817D8186859785A089B1899A01AB01F9
S1133710280F391F4A1F5B1FC12CD12C760100E0F2
S113372010E060E0C501F2DD27C0D50156968C910A
S113373056978E7F56968C931FC0F50186898160BB
S1133740868B4A815B816C817D8146875787608B3C
S1133750718B400F511F621F731F68017901C501EE
S113376042DD0AC0F501868981FD04C0C5010E94BD
S1133770B50402C08E7F868B20E030E0A901BE0133
S11337806F5F7F4F8091791390917A130E94A20802
S1133790811170CF28960FB6F894DEBF0FBECDBF4F
S11337A0DF91CF911F910F91FF90EF90DF90CF9019
S11337B0BF90AF900895089584B1806884B985B1AD
S11337C0806885B9089583B1806883B90895F4DF6A
S11337D02FEF80E792E0215080409040E1F700C055
S11337E00000F1DFF5CFE8DF2FEF87EA91E6215003
S11337F080409040E1F700C00000E5DFF5CF86EDA2
S113380092E00E940C2E8EEC92E00E940C2E0FEFA0
S11338101FEF980146E150E065E973E1809152158C
S1133820909153150E94E70BC5E9D3E199818881F2
S11338301F929F931F928F9384EE92E09F938F9396
S11338400E94F92D89810F900F900F900F900F9087
S11338500F90823079F48A8190E0982F88272B8109
S1133860820F911D909345158093441580914315C3
S11338700E941A0264E670E080E090E00E948111E8
S1133880BECFEF92FF920F93E12CF12C082F20E092
S113389030E040EC50E065E173E08FEF9BE10E9483
S11338A07C0E0F91FF90EF900895CF93DF9381E00A
S11338B00E940028BBD46CD69F938F9383E293E03D
S11338C09F938F930E94F92D64D562D69F938F9313
S11338D086E393E09F938F930E94F92D8BEA93E103
S11338E0B7D456D6CBEAD3E1DF93CF939F938F938C
S11338F08FE493E09F938F930E94F92DCE01C4D45B
S113390047D69F938F93DF93CF9383E693E09F9360
S11339108F930E94F92DAE0168E773E089E993E083
S113392016D636D69F938F93DF93CF9388E793E091
S11339309F938F9389E993E09F938F938AEA93E00F
S11339409F938F930E94F92DD2D422D69F938F9365
S113395080EE93E09F938F930E94F92D8DB79EB7CD
S113396082960FB6F8949EBF0FBE8DBF81E0EED451
S11339700FD69F938F938FEE93E09F938F930E9424
S1133980F92D84EF91E0EDD403D69F938F9381E0DA
S11339908F9384EF8F9380E194E09F938F930E94A1
S11339A0F92D8DB79EB70A960FB6F8949EBF0FBE39
S11339B08DBFCAE080E0A1D4D82FEAD59F938F931E
S11339C01F92CF9380E394E09F938F930E94F92DED
S11339D00F900F900F900F900F900F90D83059F0D8
S11339E080E00E94642866E371E080E090E00E9439
S11339F08111C150F9F6D83021F481E00E944628A3
S1133A0009C081E00E94552880E00E9423280E947A
S1133A10C005FDCFDF91CF910895CF93DF93CDB74C
S1133A20DEB76A970FB6F894DEBF0FBECDBF81E054
S1133A30EFD362E070E080E090E00E94811180E0CA
S1133A40E7D366E970E080E090E00E94811199D3A9
S1133A502CDF80E594E00E940C2E0E94060F6983FF
S1133A607A838B839C8386E074D062E0CE010596D2
S1133A7082D08EE594E00E940C2E81E894E00E94AE
S1133A800C2E44E457E060E070E0CE0101960E9401
S1133A901C1182E994E00E940C2E8E811F928F9358
S1133AA085EB94E09F938F930E94F92D83E00E940D
S1133AB076288F811F928F9381EC94E09F938F934C
S1133AC00E94F92D88851F928F938AEC94E09F932E
S1133AD08F930E94F92D89851F928F9383ED94E033
S1133AE09F938F930E94F92D8A851F928F938CED5B
S1133AF094E09F938F930E94F92D8B851F928F934F
S1133B0085EE94E09F938F930E94F92D8C851F92EC
S1133B108F938EEE94E09F938F930E94F92D0FB6AE
S1133B20F894DEBF0FBECDBFA0CFEF92FF920F93EC
S1133B30E12CF12C082F20E030E040EC50E067EF5E
S1133B4074E08DE09DE10E947C0E0F91FF90EF9058
S1133B50089580934D15089590934C1580934B15BB
S1133B6008959093471580934615089590934A15A8
S1133B708093491508951F93CF93DF93EC01162F7B
S1133B8086E190E00E940C04FC01892BB1F01083C3
S1133B9080914D15818380914B1590914C159283A2
S1133BA083838091491590914A15948385838091EC
S1133BB04615909147159683878386E1DE0101902F
S1133BC00D928A95E1F7CE01DF91CF911F9108956F
S1133BD00F9343E060E081E00E94B5079093511594
S1133BE08093501500E020E030E0A90160E070E02F
S1133BF00E94D8070F91089540E062E083E00E949C
S1133C00B50790934F1580934E1508950E9458025E
S1133C109093551580935415089541E060E070E049
S1133C2084E690E00E94410B9093571580935615BB
S1133C30089541E060E070E084E690E00E94410B6A
S1133C4090935315809352150895FFD0811105C0A8
S1133C5084E095E00C940C2E089587E295E00C9492
S1133C600C2E08950AD1882321F081E495E00E9466
S1133C700C2E63E070E080E090E00E94811112D18C
S1133C80882321F081E695E00E940C2E61E070E02B
S1133C9080E090E00C9481110895CF93DF9300D0DD
S1133CA01F92CDB7DEB71C821B821A82198286E866
S1133CB095E00E940C2E4FEF5FEFBA0180915015F2
S1133CC0909151150E943109813009F043C0CADF37
S1133CD035D19C838B830CD19A8389838C818F9378
S1133CE08B818F9381E995E09F938F930E94F92DA7
S1133CF08A818F9389818F9382EA95E09F938F9332
S1133D000E94F92D00E02FEF3FEFA901BE016D5F86
S1133D107F4F80914E1590914F150E94D8072FEF39
S1133D203FEFA901BE016F5F7F4F80914E159091C7
S1133D304F150E94D80742E050E060E070E08091A7
S1133D405415909155150E940B030FB6F894DEBFDD
S1133D500FBECDBF6AE070E080E090E00E94811168
S1133D60A2CFEF92FF920F9370DFE12CF12C01E0D0
S1133D7020E030E040EC50E060EB75E08DE49EE143
S1133D800E947C0E0F91FF90EF9008953FDF34DF87
S1133D901FDF0E94060241DF4CCF0895E2DF0E943C
S1133DA0ED010C947C01089580E00E943F27EEDF32
S1133DB0F5DF609152157091531581E0E9D182E0ED
S1133DC0B4DE8FEB95E00E940C2E83E05ADD86ED85
S1133DD095E00E940C2E8AEE95E00C940C2E08952A
S1133DE0E3DF8CEF95E00E940C2E0E94C80EFFCFFB
S1133DF06530F1F4FA0180818F7390E0982F882761
S1133E002181822B90930A02809309028281F0E43B
S1133E108F9FC0011124FA01238126952695822BB8
S1133E20909308028093070281E080930F14089511
S1133E30643051F080E090E490930802809307028C
S1133E4090930A028093090208950F931F9308EF39
S1133E501EE120E034E244EF50E060E087E20E949B
S1133E609928909311148093101421E0892B09F060
S1133E7020E0822F1F910F9108958091101490914A
S1133E801114009759F040E060E070E00E94EA28C5
S1133E90843031F410920F1480E0089582E0089584
S1133EA083E008958091101490911114009739F0D3
S1133EB064E00E943629853021F083E0089582E091
S1133EC0089580E008956091090270910A0280E0EB
S1133ED090E00E94402B20E030E048EC52E40E9445
S1133EE0CE2B20E038EF4FE756E40C94A72A089530
S1133EF0EADF20E030E040E251E40E94CE2B0E9451
S1133F00142BCB010895609107027091080280E0A0
S1133F1090E00E94402B20E030E045E253E40E9410
S1133F20CE2B20E038EF4FE756E40E94A72A20E08A
S1133F3030E040E252E40C94422A0895E4DF20E0A9
S1133F4030E040E251E40E94CE2B0E940F2BCB01C3
S1133F5008950F931F93CF93DF931F921F92CDB7B2
S1133F60DEB78C0119822DC0E0917614EC3250F446
S1133F7081E08E0F80937614F0E0E358FB4E8A8143
S1133F80808302C0109276148A818A30D1F44091E1
S1133F90761450E0FA01E558FB4E10824150510965
S1133FA09E012F5F3F4F6DE774E1809179149091EA
S1133FB07A140E94A30B898181110E94C00510927A
S1133FC07614BE016E5F7F4FC801C3D4882361F2AB
S1133FD00F900F90DF91CF911F910F9108950F9340
S1133FE01F93CF93DF938C01EB018091791490910F
S1133FF07A140E94730BB80182E194E10E94DA2DD5
S1134000209779F0E2E1F4E101900020E9F731979B
S113401080E290E091838083BE0182E194E10E947A
S1134020CF2DE2E1F4E1DF010D900020E9F71197D3
S11340308DE09AE011969C938E9312961C920190B7
S11340400020E9F73197E251F441AE2F82E194E187
S1134050AC016A2F80917B1490917C1425D481113A
S113406011C008E215E020E030E04DE250E067EDD9
S113407074E18091791490917A140E94E70B87ED92
S113408094E102C080E090E0DF91CF911F910F9105
S113409008952F923F924F925F926F927F928F92E8
S11340A09F92AF92BF92CF92DF92EF92FF920F93C3
S11340B01F93CF93DF935C01FC0101900020E9F78B
S11340C031976F01C81AD90A5C2C0F2EFBEA8F2E88
S11340D0F8E09F2EF02DE12CF12C4C2C3701F4014B
S11340E001811281E80109900020E9F72197C01BA2
S11340F0D10B3C2EF9E0CF16D10458F0F401208006
S1134100FEE02F1206C0B801C5010E94AA2D892B1A
S113411009F5442D351408F44C2F50E0B801C501BD
S11341200E94E12D892B49F4F301EE0FFF1FE60DE8
S1134130F71DE555F74F20800DC08FEFE81AF80AF8
S1134140E3E08E0E911CF1E1EF16F10439F6689468
S1134150222424F8822DDF91CF911F910F91FF909B
S1134160EF90DF90CF90BF90AF909F908F907F9013
S11341706F905F904F903F902F90089530DF89CFDC
S113418008958091791490917A140C94730B089586
S11341908F929F92AF92CF92EF920F931F93CF93F0
S11341A0C82F8B0141E060E070E088EC90E00E9451
S11341B0410B90937A14809379141093781400939C
S11341C077140F2EF9EA8F2EFFE19F2EF02D6894BD
S11341D0AA24A6F86894CC24C6F8E12C00E023E0D5
S11341E040E051EE60E070E08C2F92D290937C140A
S11341F080937B14E7E0F1E0808180618083CF913C
S11342001F910F91EF90CF90AF909F908F90089552
S1134210882331F0E8E0F1E080818F7E8083089587
S1134220E8E0F1E0808180618083089560E070E0DF
S113423081E396E0D4DEE7EDF4E101900020E9F7B4
S11342403197E75DF44181E0759708F080E00895C7
S1134250CF93DF93EC0160E070E082E496E0BFDE90
S1134260E7EDF4E101900020E9F7E85EF44139F468
S113427067ED74E1CE010E94DA2D80E002C018825D
S113428081E0DF91CF910895FC0101900020E9F7CE
S11342909F01215131092817390729F4BC0180E70E
S11342A096E06CCF089589E00895FC010190002008
S11342B0E9F79F01215131092817390729F4BC0175
S11342C08FE796E05BCF089589E00895FC010190A3
S11342D00020E9F79F01215231092817390729F4F1
S11342E0BC018EE896E04ACF089589E0089560E025
S11342F070E08DEC96E042CF08950F931F93E82F62
S1134300F0E0EE0FFF1FE955F74F6081718186EDF4
S113431096E034DF811114C008E215E020E030E0BB
S11343204DE250E067ED74E18091791490917A1434
S11343300E94E70B882321F087ED94E1AADE03C0F5
S113434087ED94E1A6DE1F910F910895813019F055
S113435065EF76E002C06EEC77E089EF96E00ECF71
S113436008959F938F938AE297E09F938F938AEAAD
S113437094E19F938F930E943C2E60E070E08AEA60
S113438094E1FCDE0F900F900F900F900F900F9020
S113439008952F923F924F925F926F927F928F92E5
S11343A09F92AF92BF92CF92DF92EF92FF920F93C0
S11343B01F93CF93DF93CDB7DEB7A0970FB6F894D2
S11343C0DEBF0FBECDBF67E577E083E697E007DE8B
S11343D060DE8111A3C080E2E2E2F2E0DE01119628
S11343E001900D928A95E1F79E012F5F3F4F69017D
S11343F0E12CF12C0F2EFFE6AF2EF7E0BF2EF02DAF
S11344000AEA14E10F2EF8E84F2EF7E05F2EF02DA4
S11344100F2EFFE98F2EF7E09F2EF02D0F2EF9EBD4
S11344206F2EF7E07F2EF02D3E2C2F2CFF92EF9273
S1134430BF92AF921F930F930E943C2E60E070E0F6
S1134440C801CDDD26DE0F900F900F900F900F90D6
S11344500F90811163C032E03E15E8F4F6018381C8
S11344608F9382818F9381818F9380818F93FF9229
S1134470EF925F924F921F930F930E943C2E60E045
S113448070E0C801ACDD05DE0FB6F894DEBF0FBEE8
S1134490CDBF811143C02F923F929F928F921F9361
S11344A00F930E943C2E60E070E0C80198DDF1DDBE
S11344B00F900F900F900F900F900F9081112EC0BE
S11344C02F923F927F926F921F930F930E943C2EE4
S11344D060E070E0C80183DDDCDD0F900F900F9089
S11344E00F900F900F90811119C03FEFE31AF30A58
S11344F084E0C80ED11C98E0E916F10409F094CFC9
S113450060E070E081ED97E06ADDC3DD811106C0F3
S113451060E070E082EE97E062DDBBDDA0960FB64E
S1134520F894DEBF0FBECDBFDF91CF911F910F91E5
S1134530FF90EF90DF90CF90BF90AF909F908F90BF
S11345407F906F905F904F903F902F900895EF92DF
S1134550FF920F931F93CF93DF93EC018B017A01AA
S113456081E0F4DE81110DC0CE019FDE811109C00E
S1134570C801ACDE811105C0C70186DE811101C00E
S1134580B6DEDF91CF911F910F91FF90EF900895C8
S113459090E0FC01EE0FFF1F8E0F9F1FFC01E555FD
S11345A0F74F81819281089580910715860F80933A
S11345B0071590910A15913079F028F09230A9F0FE
S11345C0933019F108956F3F09F048C01092071510
S11345D081E080930A150895663809F03FC010926F
S11345E0061582E080930A150895E091061581E08E
S11345F08E0F80930615F0E0EC5FFA4E60838230F4
S113460069F583E080930A1508959091061521E0D9
S1134610290F20930615963009F581110EC0E4E0A8
S1134620F5E1808190E0982F88272181820F911DE8
S113463090930C1580930B1504C010920C151092D6
S11346400B1510920A15E0910815F0910915309791
S113465029F080910B1590910C15199508958F925E
S11346609F92AF92CF92EF920F930F2EF4ED8F2E75
S1134670F2E29F2EF02D6894AA24A4F86894CC2426
S1134680C4F8E12C00E023E040E855E260E070E08B
S11346903FD090930E1580930D150F91EF90CF900E
S11346A0AF909F908F90089590930915809308156B
S11346B00895CF93DF93CDB7DEB729970FB6F8945B
S11346C0DEBF0FBECDBF89E0E2E4F2E09E012F5FC2
S11346D03F4FD90101900D928A95E1F710920C1584
S11346E010920B1580910D1590910E15009731F0D5
S11346F0422F532F69E0D8D080E001C082E0299690
S11347000FB6F894DEBF0FBECDBFDF91CF910895F1
S11347102F923F924F925F926F927F928F929F92CD
S1134720AF92CF92EF92FF920F931F93CF93DF93A9
S1134730CDB7DEB7F82E2A013B0188E090E00E9455
S1134740752C8C018F2D90E0FC01EE0FFF1FE15FB3
S1134750FA4E118300830115110509F468C0880F0E
S1134760991FFC01E55FFD4F80819181D8018D93F4
S11347709C936C2D70E084E090E00E945B2C1C0103
S113478061E070E086E090E00E945B2C7C014C2D9F
S1134790B1015CD6F801F582E4826A2D70E084E010
S11347A090E00E945B2C1C0161E070E086E090E0E8
S11347B00E945B2C7C014A2DB10148D6D801139686
S11347C0FC92EE92129717969C928E921697FFB6D1
S11347D0F894ED91FC9111973697808182608083E3
S11347E08D909C90C301B2014BD720E030E040E0B3
S11347F051E4D4D79B01AC0160E074E284E79BE40C
S1134800A6D620E030E040E85FE33CD60DD7F401C3
S113481032976083D801ED91FC911197359788E91F
S11348208083ED91FC91349786E08083FFBEC801BC
S1134830DF91CF911F910F91FF90EF90CF90AF90A8
S11348409F908F907F906F905F904F903F902F90AC
S11348500895CF93DF93DC01892B01F11296ED913A
S1134860FC911397938182812581981B92238481E3
S11348709817B1F0838126952823C081D181C20F76
S1134880D11D68838F5F958189238383ED91FC918A
S1134890359780818062808380E003C081E001C01D
S11348A082E0DF91CF910895EF92FF920F931F93CF
S11348B0CF93DF937C01009709F441C0DC01129689
S11348C0ED91FC91139793818281981B85819823A4
S11348D08481891B8617A8F1662341F1842F952FC3
S11348E0DC016150462F50E04F5F5F4F480F591F66
S11348F0E701EA81FB81938182812581981B9223C0
S11349008481981779F08C9193812695292360816D
S113491071818B01020F111DE80188839F5F8581DE
S1134920982393831196A417B50711F7D701ED9136
S1134930FC91359780818062808380E003C081E0B0
S113494001C082E0DF91CF911F910F91FF90EF9012
S113495008950097D1F0DC011496ED91FC91159720
S113496093818281981799F0928185818695892314
S1134970A081B181A80FB11D8C91DB018C939F5F45
S113498085819823928380E0089581E0089583E0EF
S113499008951F920F920FB60F9211240BB60F9227
S11349A02F933F934F935F936F937F938F939F9333
S11349B0AF93BF93CF93DF93EF93FF93A0910F1522
S11349C0B0911015109711F16091C6001496ED91F5
S11349D0FC911597938182812581981B9223848170
S11349E0981761F0838126952823C081D181C20F55
S11349F0D11D68838F5F9581892383831696ED91FA
S1134A00FC911797309711F0CD011995FF91EF9113
S1134A10DF91CF91BF91AF919F918F917F916F91D2
S1134A205F914F913F912F910F900BBE0F900FBE4E
S1134A300F901F9018951F920F920FB60F9211248A
S1134A400BB60F922F938F939F93AF93BF93EF93D4
S1134A50FF93E0910F15F09110153097B9F0028093
S1134A60F381E02D938182819817B1F09281858141
S1134A70282F26952923A081B181A20FB11D2C9145
S1134A809F5F892382832093C6000BC0E1ECF0E092
S1134A9080818F7D808305C0E1ECF0E080818F7D93
S1134AA08083FF91EF91BF91AF919F918F912F914F
S1134AB00F900BBE0F900FBE0F901F9018951F9272
S1134AC00F920FB60F9211240BB60F922F933F93B0
S1134AD04F935F936F937F938F939F93AF93BF9302
S1134AE0CF93DF93EF93FF93A0911115B09112151B
S1134AF0109711F16091CE001496ED91FC911597E9
S1134B00938182812581981B92238481981761F077
S1134B10838126952823C081D181C20FD11D68834A
S1134B208F5F9581892383831696ED91FC91179766
S1134B30309711F0CD011995FF91EF91DF91CF914D
S1134B40BF91AF919F918F917F916F915F914F91A1
S1134B503F912F910F900BBE0F900FBE0F901F909F
S1134B6018951F920F920FB60F9211240BB60F9245
S1134B702F938F939F93AF93BF93EF93FF93E09102
S1134B801115F09112153097B9F00280F381E02DE0
S1134B90938182819817B1F092818581282F26957F
S1134BA02923A081B181A20FB11D2C919F5F89237C
S1134BB082832093CE000BC0E9ECF0E080818F7DEE
S1134BC0808305C0E9ECF0E080818F7D8083FF91D4
S1134BD0EF91BF91AF919F918F912F910F900BBE49
S1134BE00F900FBE0F901F9018951F920F920FB643
S1134BF00F9211240BB60F922F933F934F935F9311
S1134C006F937F938F939F93AF93BF93CF93DF93D0
S1134C10EF93FF93A0911315B0911415109711F110
S1134C206091D6001496ED91FC9115979381828141
S1134C302581981B92238481981761F0838126959E
S1134C402823C081D181C20FD11D68838F5F9581D4
S1134C50892383831696ED91FC911797309711F071
S1134C60CD011995FF91EF91DF91CF91BF91AF9154
S1134C709F918F917F916F915F914F913F912F9170
S1134C800F900BBE0F900FBE0F901F9018951F92A0
S1134C900F920FB60F9211240BB60F922F938F938E
S1134CA09F93AF93BF93EF93FF93E0911315F0910C
S1134CB014153097B9F00280F381E02D938182813D
S1134CC09817B1F092818581282F26952923A081F8
S1134CD0B181A20FB11D2C919F5F89238283209300
S1134CE0D6000BC0E1EDF0E080818F7D808305C0AC
S1134CF0E1EDF0E080818F7D8083FF91EF91BF91A2
S1134D00AF919F918F912F910F900BBE0F900FBE7B
S1134D100F901F9018951F920F920FB60F921124A7
S1134D200BB60F922F933F934F935F936F937F93A1
S1134D308F939F93AF93BF93CF93DF93EF93FF939F
S1134D40A0911515B0911615109711F160913601C7
S1134D501496ED91FC911597938182812581981B7E
S1134D6092238481981761F0838126952823C0813A
S1134D70D181C20FD11D68838F5F9581892383837D
S1134D801696ED91FC911797309711F0CD01199576
S1134D90FF91EF91DF91CF91BF91AF919F918F914F
S1134DA07F916F915F914F913F912F910F900BBE27
S1134DB00F900FBE0F901F9018951F920F920FB671
S1134DC00F9211240BB60F922F938F939F93AF934F
S1134DD0BF93EF93FF93E0911515F091161530975B
S1134DE0B9F00280F381E02D938182819817B1F0AC
S1134DF092818581282F26952923A081B181A20F34
S1134E00B11D2C919F5F89238283209336010BC0AF
S1134E10E1E3F1E080818F7D808305C0E1E3F1E08F
S1134E2080818F7D8083FF91EF91BF91AF919F919E
S1134E308F912F910F900BBE0F900FBE0F901F906C
S1134E401895CF93DF931F92CDB7DEB7BE016F5F86
S1134E507F4F80911715909118157BDD8111F6CF46
S1134E60898190E00F90DF91CF910895682F809110
S1134E70171590911815EDDC80E090E008958F925D
S1134E809F92AF92CF92EF920F93812C912C6894C2
S1134E90AA24A7F86894CC24C7F8E12C00E023E006
S1134EA040E051EE60E070E033DC9093181580939D
S1134EB01715ECE5F5E183E192E091838083938318
S1134EC082830F91EF90CF90AF909F908F90089531
S1134ED090E0FC01EE0FFF1FE80FF91FEE0FFF1F1C
S1134EE0E75EFA4E238121111FC09C01220F331F5C
S1134EF0F901E80FF91FEE0FFF1FE75EFA4EA081DC
S1134F00B1814C91F901E80FF91FEE0FFF1FE75E25
S1134F10FA4E81E090E0028002C0880F991F0A9443
S1134F20E2F7842B8C930895FC01EE0FFF1FDF0141
S1134F30A80FB91FAA0FBB1FA75EBA4E0D90BC9154
S1134F40A02D2C91E80FF91FEE0FFF1FE75EFA4E1C
S1134F5081E090E0028002C0880F991F0A94E2F772
S1134F60809582238C93089590E0FC01EE0FFF1F3F
S1134F70E80FF91FEE0FFF1FE75EFA4E23812111A0
S1134F8020C09C01220F331FF901E80FF91FEE0F17
S1134F90FF1FE75EFA4EA081B1814C91F901E80F41
S1134FA0F91FEE0FFF1FE75EFA4E81E090E00280EA
S1134FB002C0880F991F0A94E2F7809584238C938A
S1134FC00895FC01EE0FFF1FDF01A80FB91FAA0F00
S1134FD0BB1FA75EBA4E0D90BC91A02D2C91E80F7B
S1134FE0F91FEE0FFF1FE75EFA4E81E090E00280AA
S1134FF002C0880F991F0A94E2F7822B8C930895BC
S1135000CF93DF9390E0FC01EE0FFF1FDF01A80FA9
S1135010B91FAA0FBB1FA75EBA4ECD91DC911197A1
S1135020488121E030E012960C90129702C0220FC2
S1135030331F0A94E2F724272883FD0181E0848347
S1135040DF91CF910895CF93DF9390E0FC01EE0FB1
S1135050FF1FDF01A80FB91FAA0FBB1FA75EBA4E1F
S1135060CD91DC911197488121E030E012960C90AB
S1135070129702C0220F331F0A94E2F724272883D1
S1135080FD0182E08483DF91CF910895282F30E0E1
S1135090F901EE0FFF1FE20FF31FEE0FFF1FE75E94
S11350A0FA4E93E0948360CF0895282F30E0F901FD
S11350B0EE0FFF1FE20FF31FEE0FFF1FE75EFA4E26
S11350C094E0948305CF089590E0FC01EE0FFF1F58
S11350D0DF01A80FB91FAA0FBB1FA75EBA4E24E0B9
S11350E015962C931597FD011482089590E0FC0108
S11350F0EE0FFF1FDF01A80FB91FAA0FBB1FA75E8A
S1135100BA4E21E015962C931597FD01148208954B
S113511080913F1581110CC08CE08093B8008FEF13
S11351208093BB0084E08093BC0081E080933F15B2
S11351300895AF92BF92CF92DF92EF92FF920F93B6
S11351401F93CF93DF93A82EB62E69017A0184E0D2
S113515090E0CBD3EC01892B61F1A88281E0B812F5
S113516012C0C701B60120EA36E841E050E079D325
S1135170DA01C9014097A109B109B695A795979598
S11351808795898311C0C701B60120E83AE146E05A
S113519050E067D3DA01C9014097A109B109B69576
S11351A0A7959795879589831B830A838C2F9D2FB9
S11351B002C080E090E0DF91CF911F910F91FF90AA
S11351C0EF90DF90CF90BF90AF9008958091BC0096
S11351D081700895FF920F931F93CF93DF930097ED
S11351E0D1F14A30D0F5F42E8B01EC01EFDF8111BF
S11351F036C08091321590913315C817D90741F004
S113520087DF89818093B800D0933315C09332151A
S113521081E08F0D809334158881880F8093351534
S1135220FF2089F0F801A6E3B5E14FEF4F0D642F9D
S113523070E0CB010196B801680F791F81918D93BD
S1135240E617F707D9F788EF8093210285EA809360
S1135250BC0084E005C086E003C087E001C082E0B2
S1135260DF91CF911F910F91FF9008951F93CF93DA
S1135270DF93009729F16B3028F5162FEC01A6DF98
S1135280811122C08091321590913315C817D90726
S113529041F03EDF89818093B800D0933315C093E9
S11352A03215109334158881880F816080933515E9
S11352B088EF8093210285EA8093BC0085E005C0D5
S11352C086E003C087E001C082E0DF91CF911F91A7
S11352D008951F920F920FB60F9211240BB60F92DE
S11352E02F933F934F935F936F937F938F939F93EA
S11352F0AF93BF93EF93FF93E091B9008E2F90E0AB
S1135300FC013897E135F10508F075C08827E458A9
S1135310FF4F8F4FC8C210923115E0913115809123
S11353203415E81770F481E08E0F80933115F0E0A6
S1135330EB5CFA4E80818093BB0085E88093BC00CF
S113534072C084E98093BC0080913215909133152A
S1135350DC011296ED91FC911397309709F463C028
S113536020E040E050E064E019955DC0E091311523
S113537081E08E0F809331158091BB00F0E0EB5CEF
S1135380FA4E80838091B900803411F41092311563
S11353902091311530E08091341590E00197281761
S11353A0390724F485EC8093BC003DC085E88093E4
S11353B0BC0039C08091BB00E0913115F0E0EB5C9A
S11353C0FA4E808384E98093BC00809132159091D9
S11353D03315DC011296ED91FC911397309719F176
S11353E02091341545E355E165E019951CC085EA23
S11353F08093BC0018C08091B9008093210284E09E
S11354008093BC008091321590913315DC01129683
S1135410ED91FC911397309731F020E040E050E09B
S1135420609121021995FF91EF91BF91AF919F91E6
S11354308F917F916F915F914F913F912F910F9039
S11354400BBE0F900FBE0F901F901895FC014111D9
S113545001C06CD3842F90E09C0121503109822338
S11354609323892B09F062D3413808F05FD3128269
S113547013824483440F415045837183608380E0E9
S113548090E008955058BB27AA270ED04DC13ED1B5
S113549030F043D120F031F49F3F11F41EF433C1B6
S11354A00EF4E095E7FB29C1E92F4FD180F3BA1739
S11354B0620773078407950718F071F49EF567C1B6
S11354C00EF4E0950B2EBA2FA02D0B01B90190011B
S11354D00C01CA01A0011124FF27591B99F0593F5F
S11354E050F4503E68F11A16F040A22F232F342FA7
S11354F04427585FF3CF469537952795A795F040F5
S11355005395C9F77EF41F16BA0B620B730B840B09
S1135510BAF09150A1F0FF0FBB1F661F771F881FC1
S1135520C2F70EC0BA0F621F731F841F48F4879519
S113553077956795B795F7959E3F08F0B3CF939508
S1135540880F08F09927EE0F9795879508950CD04A
S1135550EBC0E3D040F0DAD030F021F45F3F19F033
S1135560CCC0511115C1CFC0F0D098F39923C9F321
S11355705523B1F3951B550BBB27AA276217730755
S1135580840738F09F5F5F4F220F331F441FAA1F09
S1135590A9F333D00E2E3AF0E0E830D091505040C9
S11355A0E695001CCAF729D0FE2F27D0660F771F77
S11355B0881FBB1F261737074807AB07B0E809F059
S11355C0BB0B802DBF01FF2793585F4F2AF09E3FEE
S11355D0510568F092C0DCC05F3FECF3983EDCF309
S11355E0869577956795B795F7959F5FC9F7880F67
S11355F0911D9695879597F90895E1E0660F771FB9
S1135600881FBB1F621773078407BA0720F0621B49
S1135610730B840BBA0BEE1F88F7E095089504D042
S11356206894B111B5C0089598D088F09F5790F050
S1135630B92F9927B751A0F0D1F0660F771F881FB3
S1135640991F1AF0BA95C9F712C0B13081F09FD0F2
S1135650B1E008959CC0672F782F8827B85F39F090
S1135660B93FCCF3869577956795B395D9F73EF412
S113567090958095709561957F4F8F4F9F4F0895BA
S1135680E89409C097FB3EF49095809570956195D8
S11356907F4F8F4F9F4F9923A9F0F92F96E9BB278E
S11356A09395F695879577956795B795F111F8CF0A
S11356B0FAF4BB0F11F460FF1BC06F5F7F4F8F4F75
S11356C09F4F16C0882311F096E911C0772321F06B
S11356D09EE8872F762F05C0662371F096E8862F03
S11356E070E060E02AF09A95660F771F881FDAF75A
S11356F0880F9695879597F9089597F99F6780E89D
S113570070E060E008959FEF80EC089500240A940F
S11357101616170618060906089500240A94121688
S11357201306140605060895092E0394000C11F4BB
S1135730882352F0BB0F40F4BF2B11F460FF04C068
S11357406F5F7F4F8F4F9F4F089557FD9058440FC1
S1135750551F59F05F3F71F04795880F97FB991FCC
S113576061F09F3F79F08795089512161306140689
S1135770551FF2CF4695F1DF08C016161706180616
S1135780991FF1CF86957105610508940895E894F1
S1135790BB2766277727CB0197F908950BD0C4CF91
S11357A0B5DF28F0BADF18F0952309F0A6CFABCF08
S11357B01124EECFCADFA0F3959FD1F3950F50E0EB
S11357C0551F629FF001729FBB27F00DB11D639FAF
S11357D0AA27F00DB11DAA1F649F6627B00DA11D55
S11357E0661F829F2227B00DA11D621F739FB00DFB
S11357F0A11D621F839FA00D611D221F749F33276B
S1135800A00D611D231F849F600D211D822F762F03
S11358106A2F11249F5750408AF0E1F088234AF000
S1135820EE0FFF1FBB1F661F771F881F915050404C
S1135830A9F79E3F510570F060CFAACF5F3FECF30C
S1135840983EDCF3869577956795B795F795E79538
S11358509F5FC1F7FE2B880F911D9695879597F949
S11358600895A1E21A2EAA1BBB1BFD010DC0AA1F9D
S1135870BB1FEE1FFF1FA217B307E407F50720F0B5
S1135880A21BB30BE40BF50B661F771F881F991F30
S11358901A9469F760957095809590959B01AC0179
S11358A0BD01CF010895EE0FFF1F881F8BBF079026
S11358B0F691E02D19940F931F93CF93DF93869F56
S11358C08001879F100D969F100D1124C8010DD0E3
S11358D0EC01009721F0A80160E070E034D1CE0122
S11358E0DF91CF911F910F9108950F931F93CF9341
S11358F0DF938230910510F482E090E0E0915A1534
S1135900F0915B1520E030E0A0E0B0E0309719F1B1
S1135910408151810281138148175907C8F08417C7
S1135920950769F4109731F012960C931297139619
S11359301C9327C000935A1510935B1522C02115A0
S1135940310519F04217530718F49A01BD01EF010C
S1135950DF01F801DBCF21153105F9F0281B390BE4
S11359602430310580F48A819B816115710521F011
S1135970FB019383828304C090935B1580935A1533
S1135980FE01329644C0FE01E20FF31F819391930E
S113599022503109398328833AC020915815309117
S11359A05915232B41F420910202309103023093C4
S11359B059152093581520910002309101022115A8
S11359C0310541F42DB73EB74091040250910502D0
S11359D0241B350BE0915815F0915915E217F30784
S11359E0A0F42E1B3F0B2817390778F0AC014E5F4B
S11359F05F4F2417350748F04E0F5F1F509359151A
S1135A00409358158193919302C0E0E0F0E0CF01F8
S1135A10DF91CF911F910F910895CF93DF9300975A
S1135A2009F481C0FC01329713821282A0915A15A5
S1135A30B0915B15109781F420813181820F931FFF
S1135A4020915815309159152817390751F5F093BD
S1135A505915E093581567C0ED0120E030E0CE17EA
S1135A60DF0740F44A815B819E0141155105F1F045
S1135A70EA01F5CFD383C28340815181840F951FFE
S1135A80C817D90759F488819981840F951F029604
S1135A90918380838A819B8193838283211531053D
S1135AA029F4F0935B15E0935A153DC0E901FB839B
S1135AB0EA8349915991C40FD51FEC17FD0761F48E
S1135AC080819181840F951F0296E90199838883CF
S1135AD0828193819B838A83E0E0F0E012968D912A
S1135AE09C911397009719F0FD01DC01F7CF8D917C
S1135AF09C9111979D012E5F3F4F820F931F209120
S1135B005815309159152817390769F4309729F435
S1135B1010925B1510925A1502C013821282B09330
S1135B205915A0935815DF91CF91089581E090E025
S1135B30F8947DC3FB01DC0102C001900D92415039
S1135B405040D8F70895DC0101C06D934150504096
S1135B50E0F70895FB0151915523B1F0BF01DC0139
S1135B60052E4D91442369F010D0D9F7CD01019051
S1135B70002049F04D91411108D0C9F3FB014111B6
S1135B80EECF81E090E001970895402539F040324E
S1135B9029F440294B57465E08F018940895FB01F8
S1135BA0DC010D900020E9F7119701900D9200207F
S1135BB0E1F70895FB01DC0101900D920020E1F76B
S1135BC00895FB01DC014150504088F08D918134EF
S1135BD01CF08B350CF4805E619161341CF06B35E4
S1135BE00CF4605E861B611171F3990B0895881B98
S1135BF0FCCFCF93DF93CDB7DEB7AE014A5F5F4FE3
S1135C00FA0161917191AF0180915E1590915F15D8
S1135C1061D0DF91CF9108950F931F93CF93DF93BA
S1135C20E0915E15F0915F15238121FF1BC08C016B
S1135C30D0E0C0E0F80181918F0160915E15709110
S1135C405F15DB011896ED91FC911997882331F0CB
S1135C501995892B79F3DFEFCFEFECCF8AE0199513
S1135C60892B19F08FEF9FEF02C08D2F9C2FDF91AE
S1135C70CF911F910F9108950F931F93CF93DF93AB
S1135C80CDB7DEB72E970FB6F894DEBF0FBECDBFEB
S1135C900E891F8986E08C831A8309838FEF9FE71F
S1135CA09E838D83AE01465E5F4F688D798DCE01F4
S1135CB0019610D0EF81F885E00FF11F10822E9627
S1135CC00FB6F894DEBF0FBECDBFDF91CF911F9109
S1135CD00F9108952F923F924F925F926F927F920D
S1135CE08F929F92AF92BF92CF92DF92EF92FF92E8
