:10000000E5C0000004C1000002C1000000C1000002
:10001000FEC00000FCC00000FAC00000F8C00000F4
:10002000F6C00000F4C00000F2C00000F0C0000004
:10003000CCC50000ECC00000EAC00000E8C0000031
:10004000E6C00000E4C00000E2C00000E0C0000024
:10005000DEC00000DCC00000DAC00000D8C0000034
:10006000D6C000000C9433190C948519D0C0000040
:10007000CEC00000CCC00000CAC00000C8C0000054
:10008000C6C00000C4C00000C2C00000C0C0000064
:100090000C94C9190C941B1ABAC000000C94B31C20
:1000A000B6C00000B4C00000B2C00000B0C0000084
:1000B000AEC00000ACC00000AAC00000A8C0000094
:1000C000A6C00000A4C00000A2C000000C945F1AEB
:1000D0000C94B11A9CC000000C94F51A0C94471BA8
:1000E00096C00000EF14EF14EF1426152E154315DB
:1000F000EF14EF1426152E15D51C451D451D451D65
:10010000451D451D451D451DD51C451D451D451D50
:10011000451D451D451D451DD71C451D451D451D3E
:10012000451D451D451D451D451D451D451D451DBF
:10013000451D451D451D451DD71C451D451D451D1E
:10014000451D451D451D451D451D451D451D451D9F
:10015000451D451D451D451D411D451D451D451D93
:10016000451D451D451D451D0C1D451D451D451DB8
:10017000451D451D451D451D451D451D451D451D6F
:10018000451D451D451D451D001D451D451D451DA4
:10019000451D451D451D451D241D0E94970A809142
:1001A000D70D823008F04CD40E946C15F6CFCF9357
:1001B000DF931F92CDB7DEB7CE0101960E94701279
:1001C00049810E9464140E94B814F6CF11241FBE06
:1001D000CFEFD1E2DEBFCDBF00E00CBF13E0A0E067
:1001E000B2E0ECECF7E400E00BBF02C007900D9228
:1001F000A23BB107D9F72EE0A2EBB3E001C01D92FC
:10020000A73AB207E1F70E9497160C94E423F8CEC0
:100210000F93CF93DF931F921F92CDB7DEB79A83D0
:1002200089838A818F9389818F938FE492E09F9352
:100230008F930E94F42000E02FEF3FEFA901BE0151
:100240006F5F7F4F8091990E90919A0E10D641E08A
:1002500050E060E070E08091940E9091950E3CD15A
:1002600020E030E0A90160E070E08091920E909172
:10027000930EFDD50F900F900F900F900F900F9051
:10028000DF91CF910F91089583E00E949E1788E03F
:1002900091E00C94C31708950E94C8178093980E9C
:1002A000882321F08DE592E00C940721089584E7DE
:1002B00092E00E940721CC24CA94DC2C760101E054
:1002C00020E042E050E060E070E08091940E909178
:1002D000950E62D061FF06C081E892E00E9407217E
:1002E000DBDF0AC08DE792E00E9407216CE271E03B
:1002F00080E090E00E94F70D6CE271E080E090E019
:100300000E94F70DD4CFEF92FF920F93BDDFE12C47
:10031000F12C01E020E030E040EC50E06AE872E0CF
:1003200087E591E00E945A0B0F91FF90EF9008959E
:100330000F9301110CC0DC01CB0182239323A42372
:10034000B523892B8A2B8B2B79F480E010C0DC013C
:10035000CB0182239323A423B523281739074A0707
:100360005B0721F080E003C081E001C081E00F91D4
:100370000895CF93DF938FE090E0AFD1EC01009729
:1003800039F0FC011192119211921192CF018AD28F
:10039000CE01DF91CF9108952F923F924F925F92BD
:1003A0006F927F928F929F92AF92BF92CF92DF9285
:1003B000EF92FF920F931F93CF93DF93EC014A01CB
:1003C0005B01622E702E0E94DB0B288039804A80F0
:1003D0005B80A5019401C201B101AADF8823A1F0CD
:1003E000662089F1D501C40180959095A095B095BE
:1003F00082219321A421B52188839983AA83BB8379
:10040000C12CD12C760122C0C114D104E104F10425
:10041000E9F0611004C040E050E0BA0104C040E0DF
:1004200050E060E071E071107460482959296A2930
:100430007B2997018601CE0104960E948D0E212C06
:10044000312C210103C0C12CD12C76010E941B0D3F
:10045000CD28CE28CF2859F1811101C0F1D20E94B8
:1004600034126B017C0191FD1FC00FB6F8940F92FE
:10047000C880D980EA80FB80072DA5019401C701BF
:10048000B60156DF882371F0662061F08094909465
:10049000A094B0948C209D20AE20BF2088829982A9
:1004A000AA82BB820F900FBE160127015524C201FC
:1004B000B101DF91CF911F910F91FF90EF90DF90ED
:1004C000CF90BF90AF909F908F907F906F905F90F4
:1004D0004F903F902F9008954F925F926F927F922E
:1004E000AF92BF92CF92DF92EF92FF920F931F9342
:1004F000CF93DF93EC016A017B018C01095F1F4FF1
:100500000E94DB0BEB85FC8588819981AA81BB81E8
:10051000C82AD92AEA2AFB2AC882D982EA82FB821F
:10052000C12CD12C76013DC0A480B5808081918101
:10053000A281B381AC01BD017727B2FD0EC0488016
:1005400059806A807B804422552266227722452882
:100550004628472889F420E012C0488059806A80E4
:100560007B80442255226622772244155505660574
:10057000770521F020E003C021E001C021E0222323
:1005800071F0B0FF04C0C42AD52AE62AF72A4881B0
:1005900059816A817B817260CF010E94C80FEA2D68
:1005A000FB2DE017F10709F0BFCFC094D094E09481
:1005B000F09488819981AA81BB81C822D922EA223C
:1005C000FB22C882D982EA82FB820E941B0D6881CD
:1005D00079818A819B81DF91CF911F910F91FF904B
:1005E000EF90DF90CF90BF90AF907F906F905F9033
:1005F0004F900895EEEBF3E0A2ECB3E0B183A0835B
:1006000013821282E2E8FDE0F093BD03E093BC03A5
:10061000138212821182108280EC99E013969C93CF
:100620008E931297ED93FC939093B9038093B80344
:100630009093BB038093BA0380E090E89093B30358
:100640008093B2030895CF93DF93EC01AEEBB3E058
:1006500001C0DF01ED91FC911197EC17FD07C8F384
:1006600012968D919C9113979D01280F391FC217E7
:10067000D30749F42A813B81820F931F13969C93E1
:100680008E931297ED018A819B819E01280F391F5D
:10069000E217F307C1F42091BC033091BD03E217C8
:1006A000F30771F022813381820F931F9B838A832A
:1006B000ED91FC911197808191819983888305C088
:1006C0003983288302C0F983E883CA17DB0711F056
:1006D000CD93DC93DF91CF910895EF92FF920F932A
:1006E0001F93CF93DF938C010E94DB0B8091BC039F
:1006F0009091BD03892B09F47DDF8091B203909125
:10070000B30380239123892B09F076C001151105CD
:1007100049F0C80104960817190718F000E010E026
:1007200001C08C010115110509F469C08091BA035B
:100730009091BB038017910708F464C0C091BE0379
:10074000D091BF03EEEBF3E002C0FE01EC018A8121
:100750009B818017910720F4888199810097A9F7E0
:100760008091BC039091BD03C817D90709F44DC00F
:10077000E080F18084E0E80EF11C8881998191830A
:1007800080832A813B81201B310B2930310548F0C1
:10079000CE01800F911FFC01338322831B830A83C8
:1007A00052DF2A813B818091BA039091BB03821B67
:1007B000930B9093BB038093BA034091B80350917D
:1007C000B9038417950720F49093B9038093B80375
:1007D0008091B2039091B303282B392B3B832A835A
:1007E000198218828091B6039091B7030196909375
:1007F000B7038093B6030BC0E12CF12C08C0E12CA9
:10080000F12C05C0E12CF12C02C0E12CF12C0E944E
:100810001B0DE114F10411F40E947815C701DF915A
:10082000CF911F910F91FF90EF9008950F931F9319
:10083000CF93DF93009789F1EC0124974A815B8184
:100840002091B2033091B303BA0162237323672B63
:1008500021F168817981672B01F52095309524235A
:1008600035233B832A83A7D78A819B812091BA03B2
:100870003091BB03820F931F9093BB038093BA0305
:10088000CE01E1DE8091B4039091B503019690937F
:10089000B5038093B4030E941B0DDF91CF911F918C
:1008A0000F910895FC010396928381834FEF5FEFD0
:1008B000BA014383548365837683908787839287C5
:1008C000818710820895FC011386128608950F9384
:1008D0001F93CF93DF93EB01088119812A813B811C
:1008E0000F3F4FEF14072407340721F4FC01A185C3
:1008F000B28511C0DC01139601C0DF011496ED91A1
:10090000FC9115974081518162817381041715070D
:100910002607370790F71496ED91FC911597FD8304
:10092000EC83D783C683BF83AE831596DC93CE93C7
:1009300014979B878A87FC0120812F5F2083DF919A
:10094000CF911F910F910895CF93DF93FC01A28562
:10095000B385C481D581868197819F838E83C6812B
:10096000D781848195819D838C8311968D919C91F3
:100970001297E817F90731F48681978112969C93B4
:100980008E931197138612868C9181508C938C9143
:10099000DF91CF910895A89590EC88E10FB6F89477
:1009A000A895809360000FBE909360000895FC01AD
:1009B000608331977083319710823197108231971D
:1009C00020E820833197108231971082319710826E
:1009D000779740833197508386970895DCDFA09105
:1009E000450EB091460ECD91CDBFDD91DEBFFF919A
:1009F000EF91DF91CF91BF91AF919F918F917F91B7
:100A00006F915F914F913F912F911F910F91FF90A7
:100A1000EF90DF90CF90BF90AF909F908F907F909E
:100A20006F905F904F903F902F901F900F900CBE53
:100A30000F900BBE0F900FBE0F90089581E00895A8
:100A40000F920FB6F8940F920BB60F920CB60F924E
:100A50001F9211242F923F924F925F926F927F923A
:100A60008F929F92AF92BF92CF92DF92EF92FF92BE
:100A70000F931F932F933F934F935F936F937F93A6
:100A80008F939F93AF93BF93CF93DF93EF93FF9396
:100A9000A091450EB091460E0DB60D920EB60D9278
:100AA0000E94120EA091450EB091460ECD91CDBF81
:100AB000DD91DEBFFF91EF91DF91CF91BF91AF91BB
:100AC0009F918F917F916F915F914F913F912F9166
:100AD0001F910F91FF90EF90DF90CF90BF90AF905C
:100AE0009F908F907F906F905F904F903F902F904E
:100AF0001F900F900CBE0F900BBE0F900FBE0F906B
:100B000008950F920FB6F8940F920BB60F920CB691
:100B10000F921F9211242F923F924F925F926F92E9
:100B20007F928F929F92AF92BF92CF92DF92EF927D
:100B3000FF920F931F932F933F934F935F936F9366
:100B40007F938F939F93AF93BF93CF93DF93EF9355
:100B5000FF93A091450EB091460E0DB60D920EB6C4
:100B60000D9213BE3CD681110E94120EA091450E2B
:100B7000B091460ECD91CDBFDD91DEBFFF91EF91DB
:100B8000DF91CF91BF91AF919F918F917F916F91A5
:100B90005F914F913F912F911F910F91FF90EF9097
:100BA000DF90CF90BF90AF909F908F907F906F908D
:100BB0005F904F903F902F901F900F900CBE0F9022
:100BC0000BBE0F900FBE0F9008959BDF1895DC01B0
:100BD00053962C915397222341F05A96ED91FC9114
:100BE0005B9790818AE0891B089580E008950FB695
:100BF000F8940F92FC01868D811102C081E001C042
:100C000080E00F900FBE08950FB6F8940F92FC018C
:100C1000268D878D281302C081E001C080E00F90EF
:100C20000FBE08950F931F93CF93DF93EC01042F12
:100C30001E8D48A141110CC088819981892B09F032
:100C400042C08C819D810E9472111D821C8242C013
:100C5000011117C050E08A819B810E94E42028A1E5
:100C60008A819B81820F911D9B838A832C813D8188
:100C70008217930750F1888199819B838A8380E052
:100C800029C050E08E819F810E94E42088A190E0DD
:100C90009195819591092E813F81280F391F3F83BE
:100CA0002E83488159812417350730F42C813D81EA
:100CB000820F931F9F838E83023049F4112349F0E2
:100CC000115080E007C080E005C080E003C080E0F4
:100CD00001C080E01F5F1E8FDF91CF911F910F91A8
:100CE0000895FC0140A14423A9F050E026813781FA
:100CF000240F351F37832683848195812817390770
:100D000020F08081918197838683CB0166817781F2
:100D10000C94E42008951F93CF93DF93EC010FB65A
:100D2000F8940F921AA10BC08B89882351F0CE0141
:100D300043960E94190F81110E94D910115011166B
:100D40009CF38FEF8AA30F900FBE0FB6F8940F920B
:100D500019A10BC08885882351F0CE0108960E9406
:100D6000190F81110E94D910115011169CF38FEFA9
:100D700089A30F900FBEDF91CF911F910895CF935C
:100D8000DF93EC010FB6F8940F92E881F9818F8D13
:100D900028A190E030E0829FA001839F500D929F98
:100DA000500D11244E0F5F1F5D834C831E8EFB83FD
:100DB000EA830197289FA001299F500D389F500D6D
:100DC0001124CF01840F951F9F838E838FEF89A3FA
:100DD0008AA361110BC08885882371F0CE01089623
:100DE0000E94190F882341F02BDE06C0CE01089621
:100DF00059DDCE01439656DD0F900FBE81E0DF91A5
:100E0000CF9108950F931F93F801611103C01183CF
:100E1000008302C051834083878F60A361E0CF01CC
:100E2000AEDF1F910F910895DF92EF92FF920F9323
:100E30001F93CF93DF93F82EE62ED42E869FC0010A
:100E4000112483964ADCEC01009741F08C012D2D92
:100E5000AC014D5D5F4F6E2D8F2DD4DFCE01DF9144
:100E6000CF911F910F91FF90EF90DF900895CF9257
:100E7000DF92EF92FF920F931F93CF93DF93CDB743
:100E8000DEB729970FB6F894DEBF0FBECDBF7C0149
:100E90006B012E833F834887598710E00FB6F89483
:100EA0000F92F701968D878D981710F00230A9F4F4
:100EB000402FB601C701B6DEF7019389992339F0B7
:100EC000C7014396B6D7882321F0BADD02C081114D
:100ED000B7DD0F900FBE81E048C08E819F81A8854D
:100EE000B985892B8A2B8B2B21F40F900FBE80E0C4
:100EF0003CC0111105C0CE0101960E94621011E0A4
:100F00000F900FBE58D40FB6F8940F92F70181A13D
:100F10008F3F09F411A2F70182A18F3F09F412A2B9
:100F20000F900FBEBE016A5F7F4FCE0101960E94F7
:100F30007310811116C0C70167DE882371F04E81DE
:100F40005F8168857985C7010896D0D6C701E3DE41
:100F500072D58111A3CF74DDA1CFC701DCDE6BD5C3
:100F60009DCFC701D8DE67D580E029960FB6F894EB
:100F7000DEBF0FBECDBFDF91CF911F910F91FF90CC
:100F8000EF90DF90CF900895EF92FF920F931F9311
:100F9000CF93DF938A01FC01568D378D531710F0E4
:100FA0002230F1F4422F7801EC011AA18E8DCE018E
:100FB00039DE1F3F79F48B898823A1F0CE01439657
:100FC00038D7882389F0E114F10481F081E0F7013A
:100FD00080830DC0FF24F394F10EFAA281E007C0D4
:100FE00080E005C081E003C081E001C081E0DF91C5
:100FF000CF911F910F91FF90EF900895CF92DF92C4
:10100000EF92FF920F931F93CF93DF93CDB7DEB78D
:1010100029970FB6F894DEBF0FBECDBF8C016B01D0
:101020002E833F8348875987E12C0FB6F8940F929F
:10103000F801F68CFF2091F0B601C80152DEFA9457
:10104000F801F68E8085882329F0C8010896F1D62C
:101050008111F6DC0F900FBE81E04EC08E819F8122
:10106000A885B985892B8A2B8B2B21F40F900FBE75
:1010700080E042C0E11006C0CE0101960E946210DD
:10108000EE24E3940F900FBE96D30FB6F8940F9210
:10109000F80181A18F3F09F411A2F80182A18F3FCD
:1010A00009F412A20F900FBEBE016A5F7F4FCE01FE
:1010B00001960E947310811116C0C80198DD882323
:1010C00071F04E815F8168857985C80143960ED69F
:1010D000C80121DEB0D48111A8CFB2DCA6CFC801EF
:1010E0001ADEA9D4A2CFC80116DEA5D4C8017FDDBF
:1010F000882309F49ACF80E029960FB6F894DEBFD2
:101100000FBECDBFDF91CF911F910F91FF90EF9058
:10111000DF90CF900895EF92FF920F931F93CF939C
:10112000DF93CDB7DEB729970FB6F894DEBF0FBEB9
:10113000CDBF8C014E835F8368877987E12CF12CCA
:101140000FB6F8940F92F801868D8823C1F0815074
:10115000868F80819181892B29F40E945E12F8018B
:1011600095838483F8018085882329F0C801089637
:1011700060D6811165DC0F900FBE81E06BC08E815F
:101180009F81A885B985892B8A2B8B2B21F40F9001
:101190000FBE80E05FC0F11005C0CE01019692D76E
:1011A000FF24F3940F900FBE06D30FB6F8940F925E
:1011B000F80181A18F3F09F411A2F80182A18F3FAC
:1011C00009F412A20F900FBEBE016A5F7F4FCE01DD
:1011D000019689D7811124C0C80109DD8823E1F077
:1011E000F80180819181892B49F40FB6F8940F9210
:1011F00084819581F0D7E82E0F900FBE4E815F81DC
:1012000068857985C801439671D5C80184DD13D4FA
:10121000811196CF15DC94CFC8017DDD0CD490CF21
:10122000C80179DD08D4C801E2DC882309F488CF3D
:10123000EE2079F00FB6F8940F92C801C8DC682F41
:10124000F801848195810E94CD110F900FBE80E03E
:1012500001C080E029960FB6F894DEBF0FBECDBF67
:10126000DF91CF911F910F91FF90EF900895CF9351
:10127000DF93EC010FB6F8940F9289A18F3F09F428
:1012800019A28AA18F3F09F41AA20F900FBE8E8D6A
:10129000811103C0CE0143968AD5CE013CDDDF919A
:1012A000CF910895E091BF0DF091C00D8081811123
:1012B0000CC08FEF9FEFDC018093890D90938A0D16
:1012C000A0938B0DB0938C0D0895E091BF0DF0911C
:1012D000C00D0780F085E02D80819181A281B381CE
:1012E0008093890D90938A0DA0938B0DB0938C0DF4
:1012F0000895CF93DF93EC018B8D9C8D97DACE010F
:1013000095DADF91CF9108954F925F926F927F921D
:101310008F929F92AF92BF92CF92DF92EF92FF9205
:101320000F93CF93DF932C015B014A013901E60152
:1013300065EA70E08B8D9C8D0E94ED208B8D9C8DDD
:1013400021E0821A9108880E991EA114B10489F433
:1013500015C0822F90E0F501E80FF91F3081DE0102
:10136000A80FB91F5D963C938081882329F02F5FD9
:1013700001C020E0203168F31CA601C01D8E0A3098
:1013800008F009E00A8F0DA71EA6CE0102969BDA8F
:10139000CE010E9698DADB87CA878AE090E0A0E05B
:1013A000B0E0801B9109A109B1098E879F87A88BA6
:1013B000B98BDF8BCE8B84E0FE01BF96DF011D92DF
:1013C0008A95E9F71BAAA301B201C401F0DA998357
:1013D0008883E114F10419F0F701D183C083DF9110
:1013E000CF910F91FF90EF90DF90CF90BF90AF9093
:1013F0009F908F907F906F905F904F900895CF93C4
:10140000C0E008C02BE0C29FC00111248952924F56
:1014100049DACF5FCA30B0F38CEC9DE043DA81EC5F
:101420009DE040DA82EB9DE03DDA87EA9DE03ADA22
:101430008BE99DE037DA8CEC9DE09093C00D8093B2
:10144000BF0D81EC9DE09093BE0D8093BD0DCF91BB
:101450000895CF93DF93EC010FB6F8940F9280912B
:101460009A0D8F5F80939A0D8091450E9091460E54
:10147000892B51F4D093460EC093450E80919A0D5E
:10148000813091F4BCDF10C08091940D81110CC0AB
:10149000E091450EF091460E928D8A8D891720F0CD
:1014A000D093460EC093450E80918D0D8F5F809333
:1014B0008D0DEA8D8091950D8E1710F4E093950DAA
:1014C0008BE08E9FF0011124E952F24F0180F281EE
:1014D000E02DFF83EE832681378139872887A68117
:1014E000B7819E012E5F3F4F15963C932E93149724
:1014F00037832683EA8D8E9FF0011124E952F24F43
:10150000FD87EC8780818F5F80830F900FBE809175
:10151000940D882349F0E091450EF091460E928D8E
:101520008A8D981708F48CDADF91CF910895CF93C4
:10153000DF931AC00FB6F8940F92E091AE0DF091C0
:10154000AF0DC085D185CE010296FED980919A0D4E
:10155000815080939A0D8091A60D81508093A60DA5
:101560000F900FBECE01C5DE8091A60D8111E2CF96
:10157000DF91CF9108958F929F92AF92BF92CF92B9
:10158000DF92EF92FF92CF93DF936B017C01C42F28
:101590008090960D9090970DA090980DB090990D19
:1015A0008091450E9091460E0296CED98FEFC816C7
:1015B000D806E806F806B1F5CC23A1F1EBE9FDE089
:1015C000A181B281C091450ED091460EBF83AE83FA
:1015D000C091450ED091460E16968D919C9117970D
:1015E000998788871696CD91DC9117978091450E43
:1015F0009091460E02969D838C838091450E90912A
:10160000460E029617969C938E931697A091450EC0
:10161000B091460E1D96FC93EE931C9780818F5FD0
:1016200080833DC0C80CD91CEA1CFB1CE091450E10
:10163000F091460EC282D382E482F582C814D904A6
:10164000EA04FB0460F46091450E7091460E8091AF
:10165000BD0D9091BE0D6E5F7F4F39D920C0609156
:10166000450E7091460E8091BF0D9091C00D6E5F3A
:101670007F4F2DD98091890D90918A0DA0918B0D6E
:10168000B0918C0DC816D906EA06FB0640F4C0924C
:10169000890DD0928A0DE0928B0DF0928C0DDF9126
:1016A000CF91FF90EF90DF90CF90BF90AF909F9041
:1016B0008F9008952F923F924F925F926F927F92F8
:1016C0008F929F92AF92BF92CF92DF92EF92FF9252
:1016D0000F93CF93DF933C011B014A012901CA01FB
:1016E0000E946D036C01892B69F084E390E00E94F5
:1016F0006D03EC01892B19F0DC8ECB8E05C0C60181
:1017000095D802C0C0E0D0E0209761F0A12CB12CA8
:101710006E019201A401B101C301F6DDCE0199DE93
:1017200081E001C08FEFDF91CF910F91FF90EF909B
:10173000DF90CF90BF90AF909F908F907F906F90F1
:101740005F904F903F902F900895EF92FF920F93EC
:101750000F2EF7E8EF2EFDE0FF2EF02D00E020E049
:1017600030E040EC50E062E972E08DEC90E0A2DF06
:10177000813009F43FD78130C1F4F8948FEF9FEFA7
:10178000DC018093890D90938A0DA0938B0DB0930B
:101790008C0D81E08093940D1092960D1092970D10
:1017A0001092980D1092990D19D9809106020F91FF
:1017B000FF90EF9008958091860D8F5F8093860D46
:1017C00008950FB6F8940F926091960D7091970D51
:1017D0008091980D9091990D0F900FBE0895CF9222
:1017E000DF92EF92FF92CF93DF938091860D81116C
:1017F00005C1C090960DD090970DE090980DF09097
:10180000990D8FEFC81AD80AE80AF80AC092960D07
:10181000D092970DE092980DF092990DC114D104D9
:10182000E104F104B1F48091BF0D9091C00D2091BD
:10183000BD0D3091BE0D3093C00D2093BF0D909320
:10184000BE0D8093BD0D80918E0D8F5F80938E0DA8
:1018500029DD8091890D90918A0DA0918B0DB09119
:101860008C0DC816D906EA06FB0620F480E0B2C04B
:1018700081E001C080E0E091BF0DF091C00D90814A
:1018800091110CC04FEF5FEFBA014093890D509357
:101890008A0D60938B0D70938C0D9CC0E091BF0DF1
:1018A000F091C00D0780F085E02D0084F185E02DDA
:1018B0004281538164817581C416D506E606F70618
:1018C00048F44093890D50938A0D60938B0D70936B
:1018D0008C0D80C0A485B585C681D78120853185D2
:1018E0003F832E83C085D185268137813D832C831C
:1018F00011964D915C9112979F012E5F3F4F4217B9
:10190000530731F44085518512965C934E9311979D
:10191000158614869C9191509C93A08DB18D109743
:1019200009F1C289D389448955895F834E83C4896B
:10193000D589428953895D834C8311966D917C9141
:101940001297AF01425F5F4F6417750731F4448906
:10195000558912965C934E931197118E108E9C911F
:1019600091509C93A28D9091950D9A1710F4A0938D
:10197000950D9BE09A9FD0011124A952B24F119668
:101980000D90BC91A02DB783A68316964D915C91C6
:101990001797518740871696CD91DC9117973D8315
:1019A0002C8317963C932E931697A28D9A9FD00165
:1019B0001124A952B24FB587A4879C919F5F9C9335
:1019C000228DE091450EF091460E928D291708F078
:1019D0004FCF51CFE091450EF091460EE28D9BE046
:1019E000E99FF0011124E952F24F9081923008F002
:1019F00081E090918F0D911116C016C08091900DCD
:101A00009091910DA091920DB091930D0196A11D11
:101A1000B11D8093900D9093910DA093920DB09372
:101A2000930D80E001C081E0DF91CF91FF90EF90B6
:101A3000DF90CF900895CF92DF92EF92FF92CF93F5
:101A4000DF930FB6F8940F928091860D81508093AA
:101A5000860D8091860D8111BEC080919A0D8111F5
:101A600088C0BCC0E091B90DF091BA0D0084F18539
:101A7000E02DA08DB18DC289D389848995899F83FA
:101A80008E83C489D589828993899D838C8311969D
:101A90002D913C911297CF010E962817390731F4FA
:101AA0008489958912969C938E931197118E108E2E
:101AB0008C9181508C93A485B585C681D781808512
:101AC00091859F838E83C085D185868197819D83F3
:101AD0008C8311968D919C9112979F012E5F3F4FA1
:101AE0008217930731F48085918512969C938E938B
:101AF0001197158614868C9181508C93A28D8091BC
:101B0000950D8A1710F4A093950D8BE08A9FD00154
:101B10001124A952B24F11960D90BC91A02DB783FC
:101B2000A68316964D915C9117975187408716961C
:101B3000CD91DC9117973D832C8317963C932E9380
:101B40001697A28D8A9FD0011124A952B24FB58752
:101B5000A4878C918F5F8C93928DA091450EB0914C
:101B6000460E5A968C91981730F081E080938F0D35
:101B700002C0E0E0F0E08091B20D811173CFEF2B55
:101B800009F090DBC090900DD090910DE090920DF7
:101B9000F090930DC114D104E104F104A1F01FDE13
:101BA000882319F081E080938F0D81E0C81AD10855
:101BB000E108F108A1F71092900D1092910D10928A
:101BC000920D1092930D80918F0D882331F00E9419
:101BD000200581E003C080E001C080E00F900FBECF
:101BE000DF91CF91FF90EF90DF90CF900895CF924B
:101BF000DF92EF92FF926B017C01672B682B692BC0
:101C000039F0D9DD40E0C701B601B5DC14DF01C011
:101C100080E0811102C00E942005FF90EF90DF90CC
:101C2000CF9008958091860D882321F081E08093E4
:101C30008F0D089510928F0DE091450EF091460E94
:101C400020813181E091450EF091460E838D948D77
:101C50008217930758F06091450E7091460E635EAF
:101C60007F4F8091450E9091460E4ED78091950DF5
:101C700001C08150282F30E09BE0929FF001939F9C
:101C8000F00D1124E952F24F9081992391F39BE0DA
:101C9000929FA001939F500D1124DF010180F281DA
:101CA000E02D0480F581E02D1296FC93EE931197C0
:101CB0004652524FE417F50729F444815581FD013E
:101CC000528341839BE0929FF001939FF00D11247A
:101CD000E952F24F0180F281E02D20853185309369
:101CE000460E2093450E8093950D0895CF92DF9276
:101CF000EF92FF926A017B016091450E7091460E52
:101D0000625F7F4F0E94670441E0C701B60133DC88
:101D1000FF90EF90DF90CF9008950F931F93CF9394
:101D2000DF93FC01A091450EB091460E70681E969F
:101D30004D935D936D937C935197A181B281C09136
:101D4000450ED091460EBB8BAA8BC091450ED0910B
:101D5000460E16968D919C9117979D8B8C8B16969F
:101D6000CD91DC9117978091450E9091460E0E967D
:101D70009D838C838091450E9091460E0E9617960A
:101D80009C938E931697A091450EB091460E59964E
:101D9000FC93EE93589780818F5F808341E0C90167
:101DA000B801E9DBDF91CF911F910F910895CF9397
:101DB000DF93FC01CB01BA01A181B281C091450E34
:101DC000D091460EBB8BAA8BC091450ED091460E8A
:101DD00016964D915C9117975D8B4C8B1696CD9115
:101DE000DC9117974091450E5091460E425F5F4F30
:101DF0005D834C834091450E5091460E425F5F4F8C
:101E000017965C934E931697A091450EB091460E8F
:101E10005996FC93EE93589730813F5F308322238D
:101E200019F06FEF7FEFCB01422FA5DBDF91CF9150
:101E30000895CF93DF93DC011796ED91FC911897ED
:101E40000084F185E02DA08DB18DC289D38984896C
:101E500095899F838E83C489D589828993899D833F
:101E60008C8311968D919C9112979F01225F3F4F19
:101E70008217930731F48489958912969C938E93E7
:101E80001197118E108E8C9181508C938091860DBC
:101E9000811152C0A485B585C681D7818085918581
:101EA0009F838E83C085D185868197819D838C8316
:101EB00011968D919C9112979F012E5F3F4F821733
:101EC000930731F48085918512969C938E93119798
:101ED000158614868C9181508C93A28D8091950DDE
:101EE0008A1710F4A093950D8BE08A9FD0011124DE
:101EF000A952B24F11960D90BC91A02DB783A68325
:101F000016964D915C911797518740871696CD9103
:101F1000DC9117973D832C8317963C932E9316974D
:101F2000A28D8A9FD0011124A952B24FB587A487F0
:101F30008C918F5F8C931CC042EB5DE0DA011196AF
:101F4000CD91DC911297D38BC28B8E819F81958B23
:101F5000848B8E819F81DC0115963C932E93149780
:101F60003F832E83518F408FDA018C918F5F8C934A
:101F7000928DE091450EF091460E828D891720F4E6
:101F800081E080938F0D01C080E0DF91CF910895B3
:101F9000CF93DF93DC0170684D935D936D937C93D9
:101FA00013971896ED91FC9119971A964D915C91A3
:101FB0001B9714968D919C91159716962D913C9197
:101FC0001797EC013F832E8316968D919C9117975E
:101FD00014962D913C911597EC013D832C83EA01D9
:101FE00089819A81A817B90731F416968D919C9131
:101FF00017979A8389831B961C921E921A97DA016F
:102000008C9181508C93A485B585C681D7818085BC
:1020100091859F838E83C085D185868197819D839D
:102020008C8311968D919C9112979F012E5F3F4F4B
:102030008217930731F48085918512969C938E9335
:102040001197158614868C9181508C93A28D809166
:10205000950D8A1710F4A093950D8BE08A9FD001FF
:102060001124A952B24F11960D90BC91A02DB783A7
:10207000A68316964D915C911797518740871696C7
:10208000CD91DC9117973D832C8317963C932E932B
:102090001697A28D8A9FD0011124A952B24FB587FD
:1020A000A4878C918F5F8C93928DE091450EF09177
:1020B000460E828D891718F481E080938F0DDF9191
:1020C000CF91089520918E0DFC0120834091960DB3
:1020D0005091970D6091980D7091990D41835283A5
:1020E0006383748308958F929F92AF92BF92CF9231
:1020F000DF92EF92FF920F931F93CF93DF93FB0139
:102100000FB6F8940F92C090960DD090970DE09076
:10211000980DF090990DDC0111960D911D912D9166
:102120003C91149746015701801A910AA20AB30AFA
:1021300040815181628173814F3FBFEF5B076B0725
:102140007B0739F1EC01B881A0918E0DBA1759F0D7
:10215000C016D106E206F30630F010821182128218
:10216000138281E017C084169506A606B70658F4B8
:10217000481959096A097B09408351836283738333
:10218000A1DF80E007C0108211821282138281E0F9
:1021900001C080E00F900FBEDF91CF911F910F9192
:1021A000FF90EF90DF90CF90BF90AF909F908F9077
:1021B000089581E080938F0D08958091940D882378
:1021C00031F08091860D811104C082E0089581E094
:1021D000089580E008950F931F93CF93DF93FC0140
:1021E000892B09F477C0828DA091450EB091460EDF
:1021F0005A969C91891708F063C046855785608977
:102200007189772394F0A091450EB091460E5A96AD
:102210009C914AE050E060E070E0491B510961097F
:10222000710946875787608B718B248535854BE014
:10223000849FC00111248952924F28173907B9F59C
:10224000EF018F010E5F1F4FC8010E94A404E091AF
:10225000450EF091460EE28DEA8F8091950D8E1716
:1022600010F4E093950D8BE08E9FF0011124E9525C
:10227000F24F0180F281E02DFF83EE8326813781CA
:1022800039872887A681B78115961C930E931497DA
:1022900017830683EA8D8E9FF0011124E952F24FD5
:1022A000FD87EC8780818F5F808381E016C0A091DD
:1022B000450EB091460E5A968C91828F81E00DC0EA
:1022C00095A5E091450EF091460E828D981720F06D
:1022D00080E003C080E001C081E0DF91CF911F91D9
:1022E0000F9108950F931F93CF93DF93FC01892BD8
:1022F00009F449C086A5815086A7228D95A5291786
:1023000009F443C0811143C0EF018F010E5F1F4FDD
:10231000C8010E94A404EDA5EA8F8AE090E0A0E045
:10232000B0E08E1B9109A109B1098E879F87A88B08
:10233000B98B8091950D8E1710F4E093950D8BE07D
:102340008E9FF0011124E952F24F0180F281E02DBD
:10235000FF83EE832681378139872887A681B7815D
:1023600015961C930E93149717830683EA8D8E9F00
:10237000F0011124E952F24FFD87EC8780818F5FD5
:10238000808381E005C080E003C080E001C080E080
:10239000DF91CF911F910F9108950F931F93CF93CA
:1023A000DF93FC01892B09F45AC085A5861708F430
:1023B000862F928D891709F452C026A5213009F085
:1023C0004EC0828F4685578560897189772364F076
:1023D0004AE050E060E070E0481B51096109710972
:1023E00046875787608B718B248535854BE0949F9A
:1023F000C00111248952924F2817390781F5EF0146
:102400008F010E5F1F4FC8010E94A404EA8D8091C6
:10241000950D8E1710F4E093950D8BE08E9FF001D3
:102420001124E952F24F0180F281E02DFF83EE8307
:102430002681378139872887A681B78115961C9315
:102440000E93149717830683EA8D8E9FF001112453
:10245000E952F24FFD87EC8780818F5F8083DF91A7
:10246000CF911F910F910895CF92DF92EF92FF923B
:10247000E091450EF091460E6685778580899189B9
:10248000E091450EF091460EA091450EB091460E9A
:102490005A962C910F2EFAE0CF2ED12CE12CF12C54
:1024A000F02DC21AD108E108F108C686D786E08A65
:1024B000F18AFF90EF90DF90CF9008958091450EC4
:1024C0009091460E892B39F0E091450EF091460E21
:1024D00086A58F5F86A78091450E9091460E089540
:1024E000DC01E091510EF091520E808191E081115A
:1024F00090E09C93911108C00780F085E02D6081E9
:10250000718182819381089560E070E0CB0108952C
:10251000CF92DF92EF92FF920F931F93FC014283C1
:10252000538364837583938782870417150726076F
:102530003707C0F00C191D092E093F0986859785BC
:10254000A089B189081719072A073B0700F5BF01C1
:102550006E5F7F4F80914F0E9091500E0E946704E6
:1025600080E018C00C151D052E053F0528F44C15FC
:102570005D056E057F0568F4BF016E5F7F4F80913A
:10258000510E9091520E0E94670480E003C081E0DA
:1025900001C081E01F910F91FF90EF90DF90CF90ED
:1025A00008950FB6F8940F9280914D0E90914E0EB3
:1025B000892BE9F48EE59EE00E94520483E59EE0BB
:1025C0000E9452048EE59EE09093520E8093510E2D
:1025D00083E59EE09093500E80934F0E40E067E0BD
:1025E0008AE00E94140790934E0E80934D0E0F9038
:1025F0000FBE0895EF92FF920F93D3DF80914D0E9F
:1026000090914E0E892B89F00F2EFBE4EF2EFEE009
:10261000FF2EF02D03E020E030E040EC50E067E9D1
:1026200072E087ED90E046D801C080E00F91FF9006
:10263000EF9008958F929F92AF92BF92CF92DF92C8
:10264000EF92FF920F931F93CF93DF93CDB7DEB737
:1026500027970FB6F894DEBF0FBECDBFE0914D0EA9
:10266000F0914E0E309781F169832A833B834C832E
:102670005D839F838E836630F4F49FDD823069F43E
:1026800000E0A7019601BE016F5F7F4F80914D0E64
:1026900090914E0E0E94370718C000E020E030E015
:1026A000A901BE016F5F7F4F80914D0E90914E0E3C
:1026B0000E9437070AC020E0A801BE016F5F7F4F6C
:1026C000CF010E94C40701C080E027960FB6F8949E
:1026D000DEBF0FBECDBFDF91CF911F910F91FF9055
:1026E000EF90DF90CF90BF90AF909F908F90089524
:1026F0008F929F92AF92BF92CF92DF92EF92FF9212
:102700000F931F93CF93DF933BC00780F085E02D9D
:1027100080809180A280B380C085D1858E010E5FBC
:102720001F4FC8010E94A404EC89FD89CE011995B0
:102730008E8982FF25C08E859F85A889B989880DDD
:10274000991DAA1DBB1D88169906AA06BB0670F422
:102750008A839B83AC83BD83DB87CA87B801809162
:10276000510E9091520E0E9467040AC0C12CD12CC8
:10277000760100E010E0A501940160E0CE015ADF8F
:10278000E091510EF091520E80818111BECF809167
:102790004F0E9091500E9093520E8093510EF093E5
:1027A000500EE0934F0EDF91CF911F910F91FF904C
:1027B000EF90DF90CF90BF90AF909F908F90089553
:1027C000CF92DF92EF92FF92CF93DF93EC010E94C2
:1027D000E10B6B017C018091470E9091480EA09116
:1027E000490EB0914A0EC816D906EA06FB0620F437
:1027F0007FDF81E0888301C01882C092470ED092AB
:10280000480EE092490EF0924A0EC701B601DF91E0
:10281000CF91FF90EF90DF90CF9008954F925F920D
:102820006F927F928F929F92AF92BF92CF92DF92E0
:10283000EF92FF920F931F93CF93DF934B015C01B5
:1028400029013A01E091510EF091520E0780F08576
:10285000E02DC085D185CE0102960E94A4048E8908
:1028600082FF1BC04E855F8568897989480D591D97
:102870006A1D7B1D7501640193018201CE0148DE52
:10288000882369F0C12CD12C760100E010E0A5016D
:10289000940160E0CE01CEDE02C08E7F8E8BEC898B
:1028A000FD89CE011995DF91CF911F910F91FF9076
:1028B000EF90DF90CF90BF90AF909F908F907F90E0
:1028C0006F905F904F9008958F929F92AF92BF92BA
:1028D000CF92DF92EF92FF921F93CF93DF931F92DD
:1028E000CDB7DEB76B017C01142F0E94DB0BCE014C
:1028F000019666DF4B015C01898181112BC01111AA
:102900000CC08C149D04AE04BF0438F094D8A5010B
:102910009401C701B60182DF1EC0112341F0E0918E
:102920004F0EF091500E808111E0811110E0B7013F
:10293000A601481959096A097B09212F80914D0E7A
:1029400090914E0E0E94370976D8811104C00E94E2
:10295000200501C070D80F90DF91CF911F91FF909B
:10296000EF90DF90CF90BF90AF909F908F900895A1
:10297000AF92BF92CF92DF92EF92FF920F931F938D
:10298000CF93DF93CDB7DEB728970FB6F894DEBFAD
:102990000FBECDBF82C0898188230CF47EC0AE807B
:1029A000BF80D5011C968D919C911D97892B21F09C
:1029B000C50102960E94A404CE01089601DF8B0196
:1029C0009C01E9810E2E000CFF0BEA30F10508F0A6
:1029D00064C08827EE58FF4F8F4F0C949D1FF50160
:1029E00086898160868BCA80DB80EC80FD8046858D
:1029F0005785608971894C0D5D1D6E1D7F1DC50158
:102A000087DD882309F449C0D5015496ED91FC91E6
:102A10005597C5011995F501868982FF3EC04A8107
:102A20005B816C817D8186859785A089B1899A01BA
:102A3000AB01280F391F4A1F5B1FC12CD12C760117
:102A400000E010E060E0C501F5DD27C0D501569635
:102A50008C9156978E7F56968C931FC0F501868970
:102A60008160868B4A815B816C817D814687578737
:102A7000608B718B400F511F621F731F68017901BA
:102A8000C50146DD0AC0F501868981FD04C0C50186
:102A90000E94160402C08E7F868B20E030E0A901E0
:102AA000BE016F5F7F4F80914D0E90914E0E0E9440
:102AB000FE07811170CF28960FB6F894DEBF0FBEC7
:102AC000CDBFDF91CF911F910F91FF90EF90DF90DD
:102AD000CF90BF90AF900895089584B1806884B975
:102AE00085B1806885B9089583B1806883B90895F8
:102AF000F4DF2FEF80E792E0215080409040E1F733
:102B000000C00000F1DFF5CFE8DF2FEF87EA91E6A4
:102B1000215080409040E1F700C00000E5DFF5CF94
:102B20000F9343E060E081E00E9414079093930EBE
:102B30008093920E00E020E030E0A90160E070E0B8
:102B40000E9437070F91089540E062E083E00E9401
:102B5000140790939A0E8093990E08950E94B901DC
:102B60009093950E8093940E089516D1811105C00F
:102B70008FE992E00C940721089582EC92E00C9486
:102B80000721089520D1882321F08CED92E00E9446
:102B9000072163E070E080E090E029D828D1882305
:102BA00021F08CEF92E00E94072161E070E080E06C
:102BB00090E01DC808954FEF5FEFBA018091920E2B
:102BC0009091930E0E948B08813099F5DBDF52D1F2
:102BD000182F092F2FD1C82FD92F0F931F9381E2C0
:102BE00093E09F938F930E94F420DF93CF9382E32F
:102BF00093E09F938F930E94F42042E050E060E0C6
:102C000070E08091940E9091950E0E946C0280E489
:102C100093E00E9407216CE271E080E090E00E9466
:102C2000F70D8DB79EB708960FB6F8949EBF0FBEEE
:102C30008DBF6CE271E080E090E00E94F70DBBCFA9
:102C4000EF92FF920F9391DFE12CF12C01E020E055
:102C500030E040EC50E06DE473E08BED95E10E94D4
:102C60005A0B0F91FF90EF900895CC24CA94DC2C5E
:102C7000760101E021E043E050E060E070E0809107
:102C8000940E9091950E0E94CC01DC01CB018370D3
:102C90009927AA27BB270397A105B10579F48CE5ED
:102CA00093E09F938F930E94F4206EE370E080E0A6
:102CB00090E00E94F70D0F900F9004C08FE693E014
:102CC0000E9407216EE370E080E090E00E94F70D23
:102CD000CCCF8EE793E09F938F930E94F4203EDF4A
:102CE00033DF1EDF0F900F900895EF92FF920F9346
:102CF000E12CF12C01E020E030E040EC50E063E812
:102D000073E085E396E10E945A0B0F91FF90EF90DC
:102D10000895EBDF95DF0C948301089580E019D5C9
:102D20008BE893E00E940721D4DFF3CF0895F6DF0C
:102D30008CE993E00E9407210E94A50BFFCF65302C
:102D4000F1F4FA0180818F7390E0982F8827218118
:102D5000822B90930A02809309028281F0E48F9F74
:102D6000C0011124FA01238126952695822B909388
:102D700008028093070281E08093690E0895643011
:102D800051F080E090E490930802809307029093C2
:102D90000A028093090208950F931F930FE916E129
:102DA00020E034E244EF50E060E087E20CD59093FD
:102DB0006B0E80936A0E21E0892B09F020E0822FB0
:102DC0001F910F91089580916A0E90916B0E00975C
:102DD00051F040E060E070E047D5843031F410926B
:102DE000690E80E0089582E0089583E0089580915F
:102DF0006A0E90916B0E009731F064E081D58530BA
:102E000021F083E0089582E0089580E008956091C4
:102E1000090270910A0280E090E07CD720E030E067
:102E200048EC52E40E94181F20E038EF4FE756E4C8
:102E3000D8C60895ECDF20E030E040E251E4F8D756
:102E40003DD7CB010895609107027091080280E0A0
:102E500090E060D720E030E045E253E4E9D720E09D
:102E600038EF4FE756E4BDD620E030E040E252E4D0
:102E700053C60895E8DF20E030E040E251E4D8D7BF
:102E800018D7CB01089580916F0E860F80936F0E37
:102E90009091720E913079F028F09230A9F0933031
:102EA00019F108956F3F09F048C010926F0E81E04C
:102EB0008093720E0895663809F03FC010926E0E2E
:102EC00082E08093720E0895E0916E0E81E08E0F85
:102ED00080936E0EF0E0E459F14F6083823069F523
:102EE00083E08093720E089590916E0E21E0290F79
:102EF00020936E0E963009F581110EC0ECE6FEE0CF
:102F0000808190E0982F88272181820F911D9093D6
:102F1000740E8093730E04C01092740E1092730E90
:102F20001092720EE091700EF091710E309729F0B0
:102F30008091730E9091740E199508958F929F92BF
:102F4000AF92CF92EF920F930F2EF3E48F2EF7E113
:102F50009F2EF02D6894AA24A4F86894CC24C4F879
:102F6000E12C00E023E040E855E260E070E03FD073
:102F70009093760E8093750E0F91EF90CF90AF9057
:102F80009F908F9008959093710E8093700E089586
:102F9000CF93DF93CDB7DEB729970FB6F894DEBF96
:102FA0000FBECDBF89E0E2E2F2E09E012F5F3F4F0E
:102FB000D90101900D928A95E1F71092740E10924A
:102FC000730E8091750E9091760E009731F0422F1E
:102FD000532F69E0D3D080E001C082E029960FB67C
:102FE000F894DEBF0FBECDBFDF91CF9108952F9231
:102FF0003F924F925F926F927F928F929F92AF9289
:10300000CF92EF92FF920F931F93CF93DF93CDB7A1
:10301000DEB7F82E2A013B0188E090E0B0D78C01A2
:103020008F2D90E0FC01EE0FFF1FE958F14F118347
:1030300000830115110509F464C0880F991FFC0174
:10304000E55FFD4F80819181D8018D939C936C2D1C
:1030500070E084E090E079D71C0161E070E086E0E8
:1030600090E073D77C014C2DB1013AD5F801F5827F
:10307000E4826A2D70E084E090E067D71C0161E093
:1030800070E086E090E061D77C014A2DB10128D53F
:10309000D8011396FC92EE92129717969C928E92FC
:1030A0001697FFB6F894ED91FC91119736978081B1
:1030B000826080838D909C90C301B2012BD620E06A
:1030C00030E040E051E4B4D69B01AC0160E074E232
:1030D00084E79BE486D520E030E040E85FE31CD540
:1030E000EDD5F40132976083D801ED91FC911197F1
:1030F000359788E98083ED91FC91349786E0808351
:10310000FFBEC801DF91CF911F910F91FF90EF900B
:10311000CF90AF909F908F907F906F905F904F90E7
:103120003F902F900895CF93DF93DC01892B01F11D
:103130001296ED91FC911397938182812581981BC2
:10314000922384819817B1F0838126952823C0812A
:10315000D181C20FD11D68838F5F958189238383BD
:10316000ED91FC91359780818062808380E003C07F
:1031700081E001C082E0DF91CF910895EF92FF924C
:103180000F931F93CF93DF937C01009709F441C005
:10319000DC011296ED91FC91139793818281981B2B
:1031A000858198238481891B8617A8F1662341F1C4
:1031B000842F952FDC016150462F50E04F5F5F4F09
:1031C000480F591FE701EA81FB81938182812581A4
:1031D000981B92238481981779F08C91938126957E
:1031E0002923608171818B01020F111DE801888301
:1031F0009F5F8581982393831196A417B50711F7D4
:10320000D701ED91FC91359780818062808380E0C9
:1032100003C081E001C082E0DF91CF911F910F9147
:10322000FF90EF9008950097D1F0DC011496ED9196
:10323000FC91159793818281981799F092818581ED
:1032400086958923A081B181A80FB11D8C91DB01E6
:103250008C939F5F85819823928380E0089581E01D
:10326000089583E008951F920F920FB60F921124D4
:103270000BB60F922F933F934F935F936F937F9370
:103280008F939F93AF93BF93CF93DF93EF93FF936E
:10329000A091770EB091780E109711F16091C60051
:1032A0001496ED91FC911597938182812581981B4D
:1032B00092238481981761F0838126952823C08109
:1032C000D181C20FD11D68838F5F9581892383834C
:1032D0001696ED91FC911797309711F0CD01199545
:1032E000FF91EF91DF91CF91BF91AF919F918F911E
:1032F0007F916F915F914F913F912F910F900BBEF6
:103300000F900FBE0F901F9018951F920F920FB63F
:103310000F9211240BB60F922F938F939F93AF931D
:10332000BF93EF93FF93E091770EF091780E309773
:10333000B9F00280F381E02D938182819817B1F07A
:1033400092818581282F26952923A081B181A20F02
:10335000B11D2C919F5F892382832093C6000BC0EF
:10336000E1ECF0E080818F7D808305C0E1ECF0E04E
:1033700080818F7D8083FF91EF91BF91AF919F916D
:103380008F912F910F900BBE0F900FBE0F901F903B
:1033900018951F920F920FB60F9211240BB60F9231
:1033A0002F933F934F935F936F937F938F939F934D
:1033B000AF93BF93CF93DF93EF93FF93A091790ED9
:1033C000B0917A0E109711F16091CE001496ED91A4
:1033D000FC911597938182812581981B922384818A
:1033E000981761F0838126952823C081D181C20F6F
:1033F000D11D68838F5F9581892383831696ED9114
:10340000FC911797309711F0CD011995FF91EF912D
:10341000DF91CF91BF91AF919F918F917F916F91EC
:103420005F914F913F912F910F900BBE0F900FBE68
:103430000F901F9018951F920F920FB60F921124A4
:103440000BB60F922F938F939F93AF93BF93EF93EE
:10345000FF93E091790EF0917A0E3097B9F00280E7
:10346000F381E02D938182819817B1F0928185815B
:10347000282F26952923A081B181A20FB11D2C915F
:103480009F5F892382832093CE000BC0E9ECF0E09C
:1034900080818F7D808305C0E9ECF0E080818F7DA5
:1034A0008083FF91EF91BF91AF919F918F912F9169
:1034B0000F900BBE0F900FBE0F901F9018951F928C
:1034C0000F920FB60F9211240BB60F922F933F93CA
:1034D0004F935F936F937F938F939F93AF93BF931C
:1034E000CF93DF93EF93FF93A0917B0EB0917C0E6F
:1034F000109711F16091D6001496ED91FC911597FB
:10350000938182812581981B92238481981761F091
:10351000838126952823C081D181C20FD11D688364
:103520008F5F9581892383831696ED91FC91179780
:10353000309711F0CD011995FF91EF91DF91CF9167
:10354000BF91AF919F918F917F916F915F914F91BB
:103550003F912F910F900BBE0F900FBE0F901F90B9
:1035600018951F920F920FB60F9211240BB60F925F
:103570002F938F939F93AF93BF93EF93FF93E0911C
:103580007B0EF0917C0E3097B9F00280F381E02D34
:10359000938182819817B1F092818581282F269599
:1035A0002923A081B181A20FB11D2C919F5F892396
:1035B00082832093D6000BC0E1EDF0E080818F7D07
:1035C000808305C0E1EDF0E080818F7D8083FF91F5
:1035D000EF91BF91AF919F918F912F910F900BBE63
:1035E0000F900FBE0F901F9018951F920F920FB65D
:1035F0000F9211240BB60F922F933F934F935F932B
:103600006F937F938F939F93AF93BF93CF93DF93EA
:10361000EF93FF93A0917D0EB0917E0E109711F164
:10362000609136011496ED91FC91159793818281FA
:103630002581981B92238481981761F083812695B8
:103640002823C081D181C20FD11D68838F5F9581EE
:10365000892383831696ED91FC911797309711F08B
:10366000CD011995FF91EF91DF91CF91BF91AF916E
:103670009F918F917F916F915F914F913F912F918A
:103680000F900BBE0F900FBE0F901F9018951F92BA
:103690000F920FB60F9211240BB60F922F938F93A8
:1036A0009F93AF93BF93EF93FF93E0917D0EF091C3
:1036B0007E0E3097B9F00280F381E02D93818281F4
:1036C0009817B1F092818581282F26952923A08112
:1036D000B181A20FB11D2C919F5F8923828320931A
:1036E00036010BC0E1E3F1E080818F7D808305C06E
:1036F000E1E3F1E080818F7D8083FF91EF91BF91C5
:10370000AF919F918F912F910F900BBE0F900FBE95
:103710000F901F901895CF93DF931F92CDB7DEB710
:10372000BE016F5F7F4F80917F0E9091800E7BDD99
:103730008111F6CF898190E00F90DF91CF910895AC
:10374000682F80917F0E9091800EEDDC80E090E0FC
:1037500008958F929F92AF92CF92EF920F93812C08
:10376000912C6894AA24A7F86894CC24C7F8E12C7B
:1037700000E023E040E051EE60E070E038DC909340
:10378000800E80937F0EE1EAFEE083E192E0918378
:103790008083938382830F91EF90CF90AF909F901F
:1037A0008F90089580918F0E81110CC08CE08093D2
:1037B000B8008FEF8093BB0084E08093BC0081E071
:1037C00080938F0E0895AF92BF92CF92DF92EF92C7
:1037D000FF920F931F93CF93DF93A82EB62E69010C
:1037E0007A0184E090E0CBD3EC01892B61F1A882CF
:1037F00081E0B81212C0C701B60120EA36E841E004
:1038000050E079D3DA01C9014097A109B109B69511
:10381000A79597958795898311C0C701B60120E8C0
:103820003AE146E050E067D3DA01C9014097A109C7
:10383000B109B695A7959795879589831B830A83C8
:103840008C2F9D2F02C080E090E0DF91CF911F91DF
:103850000F91FF90EF90DF90CF90BF90AF900895C1
:103860008091BC0081700895FF920F931F93CF93B6
:10387000DF930097D1F14A30D0F5F42E8B01EC01A3
:10388000EFDF811136C08091820E9091830EC817B0
:10389000D90741F087DF89818093B800D093830EE8
:1038A000C093820E81E08F0D8093840E8881880FF3
:1038B0008093850EFF2089F0F801A6E8BEE04FEF67
:1038C0004F0D642F70E0CB010196B801680F791F8E
:1038D00081918D93E617F707D9F788EF809321023E
:1038E00085EA8093BC0084E005C086E003C087E0E1
:1038F00001C082E0DF91CF911F910F91FF90089559
:103900001F93CF93DF93009729F16B3028F5162F83
:10391000EC01A6DF811122C08091820E9091830E6E
:10392000C817D90741F03EDF89818093B800D09352
:10393000830EC093820E1093840E8881880F81605D
:103940008093850E88EF8093210285EA8093BC00E6
:1039500085E005C086E003C087E001C082E0DF911A
:10396000CF911F9108951F920F920FB60F921124BD
:103970000BB60F922F933F934F935F936F937F9369
:103980008F939F93AF93BF93EF93FF93E091B90011
:103990008E2F90E0FC013897E135F10508F075C0F5
:1039A0008827E458FF4F8F4FC8C21092810EE091D4
:1039B000810E8091840EE81770F481E08E0F809361
:1039C000810EF0E0EB57F14F80818093BB0085E8DA
:1039D0008093BC0072C084E98093BC008091820E09
:1039E0009091830EDC011296ED91FC911397309724
:1039F00009F463C020E040E050E064E019955DC048
:103A0000E091810E81E08E0F8093810E8091BB004A
:103A1000F0E0EB57F14F80838091B900803411F4CE
:103A20001092810E2091810E30E08091840E90E002
:103A300001972817390724F485EC8093BC003DC01A
:103A400085E88093BC0039C08091BB00E091810E75
:103A5000F0E0EB57F14F808384E98093BC008091C4
:103A6000820E9091830EDC011296ED91FC911397DA
:103A7000309719F12091840E45E85EE065E01995D4
:103A80001CC085EA8093BC0018C08091B900809367
:103A9000210284E08093BC008091820E9091830E7D
:103AA000DC011296ED91FC911397309731F020E0F4
:103AB00040E050E0609121021995FF91EF91BF9194
:103AC000AF919F918F917F916F915F914F913F91B6
:103AD0002F910F900BBE0F900FBE0F901F90189557
:103AE000FC01411101C06CD3842F90E09C01215056
:103AF000310982239323892B09F062D3413808F0DE
:103B00005FD3128213824483440F415045837183F3
:103B1000608380E090E008955058BB27AA270ED01C
:103B20004DC13ED130F043D120F031F49F3F11F42C
:103B30001EF433C10EF4E095E7FB29C1E92F4FD104
:103B400080F3BA17620773078407950718F071F4BA
:103B50009EF567C10EF4E0950B2EBA2FA02D0B0138
:103B6000B90190010C01CA01A0011124FF27591BC2
:103B700099F0593F50F4503E68F11A16F040A22FC8
:103B8000232F342F4427585FF3CF46953795279539
:103B9000A795F0405395C9F77EF41F16BA0B620B38
:103BA000730B840BBAF09150A1F0FF0FBB1F661F7F
:103BB000771F881FC2F70EC0BA0F621F731F841FC2
:103BC00048F4879577956795B795F7959E3F08F0E8
:103BD000B3CF9395880F08F09927EE0F97958795A7
:103BE00008950CD0EBC0E3D040F0DAD030F021F4EF
:103BF0005F3F19F0CCC0511115C1CFC0F0D098F380
:103C00009923C9F35523B1F3951B550BBB27AA275D
:103C100062177307840738F09F5F5F4F220F331FCF
:103C2000441FAA1FA9F333D00E2E3AF0E0E830D09B
:103C300091505040E695001CCAF729D0FE2F27D09E
:103C4000660F771F881FBB1F261737074807AB076C
:103C5000B0E809F0BB0B802DBF01FF2793585F4FE1
:103C60002AF09E3F510568F092C0DCC05F3FECF344
:103C7000983EDCF3869577956795B795F7959F5FA6
:103C8000C9F7880F911D9695879597F90895E1E0FA
:103C9000660F771F881FBB1F621773078407BA0759
:103CA00020F0621B730B840BBA0BEE1F88F7E095B4
:103CB000089504D06894B111B5C0089598D088F0E3
:103CC0009F5790F0B92F9927B751A0F0D1F0660F08
:103CD000771F881F991F1AF0BA95C9F712C0B13023
:103CE00081F09FD0B1E008959CC0672F782F88277E
:103CF000B85F39F0B93FCCF3869577956795B39562
:103D0000D9F73EF490958095709561957F4F8F4FD0
:103D10009F4F0895E89409C097FB3EF490958095D5
:103D2000709561957F4F8F4F9F4F9923A9F0F92F81
:103D300096E9BB279395F695879577956795B795FF
:103D4000F111F8CFFAF4BB0F11F460FF1BC06F5FE5
:103D50007F4F8F4F9F4F16C0882311F096E911C0F7
:103D6000772321F09EE8872F762F05C0662371F018
:103D700096E8862F70E060E02AF09A95660F771F2C
:103D8000881FDAF7880F9695879597F9089597F920
:103D90009F6780E870E060E008959FEF80EC0895F1
:103DA00000240A941616170618060906089500241A
:103DB0000A9412161306140605060895092E039494
:103DC000000C11F4882352F0BB0F40F4BF2B11F408
:103DD00060FF04C06F5F7F4F8F4F9F4F089557FD67
:103DE0009058440F551F59F05F3F71F04795880F69
:103DF00097FB991F61F09F3F79F087950895121600
:103E000013061406551FF2CF4695F1DF08C01616AB
:103E100017061806991FF1CF86957105610508945C
:103E20000895E894BB2766277727CB0197F9089573
:103E30000BD0C4CFB5DF28F0BADF18F0952309F016
:103E4000A6CFABCF1124EECFCADFA0F3959FD1F35D
:103E5000950F50E0551F629FF001729FBB27F00D38
:103E6000B11D639FAA27F00DB11DAA1F649F66278D
:103E7000B00DA11D661F829F2227B00DA11D621FDC
:103E8000739FB00DA11D621F839FA00D611D221F96
:103E9000749F3327A00D611D231F849F600D211D7A
:103EA000822F762F6A2F11249F5750408AF0E1F01D
:103EB00088234AF0EE0FFF1FBB1F661F771F881F66
:103EC00091505040A9F79E3F510570F060CFAACFA6
:103ED0005F3FECF3983EDCF3869577956795B79551
:103EE000F795E7959F5FC1F7FE2B880F911D96957B
:103EF000879597F90895A1E21A2EAA1BBB1BFD0115
:103F00000DC0AA1FBB1FEE1FFF1FA217B307E407B8
:103F1000F50720F0A21BB30BE40BF50B661F771F10
:103F2000881F991F1A9469F76095709580959095F0
:103F30009B01AC01BD01CF010895EE0FFF1F881F4B
:103F40008BBF0790F691E02D19940F931F93CF9399
:103F5000DF93869F8001879F100D969F100D11247F
:103F6000C8010DD0EC01009721F0A80160E070E0DD
:103F700034D1CE01DF91CF911F910F9108950F930E
:103F80001F93CF93DF938230910510F482E090E08D
:103F9000E0919F0EF091A00E20E030E0A0E0B0E0B4
:103FA000309719F1408151810281138148175907D7
:103FB000C8F08417950769F4109731F012960C93A6
:103FC000129713961C9327C000939F0E1093A00E78
:103FD00022C02115310519F04217530718F49A0130
:103FE000BD01EF01DF01F801DBCF21153105F9F04B
:103FF000281B390B2430310580F48A819B8161159F
:10400000710521F0FB019383828304C09093A00E7D
:1040100080939F0EFE01329644C0FE01E20FF31F13
:104020008193919322503109398328833AC020919A
:104030009D0E30919E0E232B41F42091020230916F
:10404000030230939E0E20939D0E2091000230912A
:1040500001022115310541F42DB73EB7409104020C
:1040600050910502241B350BE0919D0EF0919E0EA0
:10407000E217F307A0F42E1B3F0B2817390778F03F
:10408000AC014E5F5F4F2417350748F04E0F5F1F9E
:1040900050939E0E40939D0E8193919302C0E0E059
:1040A000F0E0CF01DF91CF911F910F910895CF9351
:1040B000DF93009709F481C0FC01329713821282CA
:1040C000A0919F0EB091A00E109781F420813181B4
:1040D000820F931F20919D0E30919E0E2817390755
:1040E00051F5F0939E0EE0939D0E67C0ED0120E028
:1040F00030E0CE17DF0740F44A815B819E01411515
:104100005105F1F0EA01F5CFD383C283408151819B
:10411000840F951FC817D90759F488819981840F96
:10412000951F0296918380838A819B8193838283EA
:104130002115310529F4F093A00EE0939F0E3DC0A8
:10414000E901FB83EA8349915991C40FD51FEC170C
:10415000FD0761F480819181840F951F0296E9012A
:1041600099838883828193819B838A83E0E0F0E056
:1041700012968D919C911397009719F0FD01DC0127
:10418000F7CF8D919C9111979D012E5F3F4F820F2C
:10419000931F20919D0E30919E0E2817390769F4C8
:1041A000309729F41092A00E10929F0E02C0138235
:1041B0001282B0939E0EA0939D0EDF91CF91089531
:1041C00081E090E0F89400C3FB01DC0102C00190A3
:1041D0000D9241505040D8F70895DC0101C06D9315
:1041E00041505040E0F70895CF93DF93CDB7DEB74D
:1041F000AE014A5F5F4FFA0161917191AF01809109
:10420000A30E9091A40E33D0DF91CF9108950F9318
:104210001F93CF93DF93E091A30EF091A40E23811F
:1042200021FF1BC08C01D0E0C0E0F80181918F011B
:104230006091A30E7091A40EDB011896ED91FC9194
:104240001997882331F01995892B79F3DFEFCFEF98
:10425000ECCF8AE01995892B19F08FEF9FEF02C000
:104260008D2F9C2FDF91CF911F910F9108952F9249
:104270003F924F925F926F927F928F929F92AF92F6
:10428000BF92CF92DF92EF92FF920F931F93CF9343
:10429000DF93CDB7DEB72B970FB6F894DEBF0FBE16
:1042A000CDBF6C017B018A01FC01178216828381DC
:1042B00081FFBFC1CE0101963C01F6019381F70158
:1042C00093FD859193FF81917F01882309F4ADC10E
:1042D000853239F493FD859193FF81917F01853279
:1042E00021F4B60190E0D6D1E8CF912C212C312CCD
:1042F000FFE1F315D8F08B3279F038F4803279F0A1
:104300008332A1F4232D20611DC08D3261F08033F2
:1043100069F4232D216016C0832D8260382EE32D91
:10432000E4603E2E2AC0F32DF8601DC037FC2DC07E
:1043300020ED280F2A3040F08E32B9F436FC75C1DA
:10434000232D2064322E19C036FE06C08AE0989EC6
:10435000200D1124922E11C0EAE02E9E200D112472
:10436000222EF32DF0623F2E08C08C3621F4832DCF
:104370008068382E02C0883641F4F70193FD85919C
:1043800093FF81917F018111B3CF982F9F7D955429
:10439000933028F40C5F1F4F9FE399830DC0833641
:1043A00031F0833771F0833509F055C020C0F80132
:1043B000808189830E5F1F4F88248394912C530141
:1043C00012C02801F2E04F0E511CF801A080B1800C
:1043D00036FE03C0692D70E002C06FEF7FEFC501AC
:1043E0004ED14C018201F32DFF773F2E15C02801DD
:1043F00022E0420E511CF801A080B18036FE03C0BD
:10440000692D70E002C06FEF7FEFC5012DD14C0127
:10441000F32DF0683F2E820133FC19C0822D90E00D
:1044200088169906A0F4B60180E290E033D12A9470
:10443000F5CFF50137FC859137FE81915F01B6011B
:1044400090E028D121102A9421E0821A9108811449
:10445000910479F7E1C0843611F0893639F5F80115
:1044600037FE07C060817181828193810C5F1F4F8D
:1044700008C060817181072E000C880B990B0E5FBC
:104480001F4FF32DFF763F2E97FF09C09095809523
:10449000709561957F4F8F4F9F4FF0683F2E2AE0B8
:1044A00030E0A30133D1882E861844C0853731F41B
:1044B000232D2F7EB22E2AE030E025C0932D997F48
:1044C000B92E8F36C1F018F4883579F0AEC0803738
:1044D00019F0883721F0A9C0E92FE061BE2EB4FEA3
:1044E0000DC0FB2DF460BF2E09C034FE0AC0292F79
:1044F0002660B22E06C028E030E005C020E130E0A2
:1045000002C020E132E0F801B7FE07C0608171818E
:10451000828193810C5F1F4F06C06081718180E0B2
:1045200090E00E5F1F4FA301F1D0882E8618FB2D5F
:10453000FF773F2E36FE0DC0232D2E7FA22E89142D
:1045400058F434FE0BC032FC09C0832D8E7EA82E99
:1045500005C0B82CA32C03C0B82C01C0B92CA4FEF4
:104560000FC0FE01E80DF11D8081803321F49A2DEA
:10457000997EA92E09C0A2FE06C0B394B39404C0CC
:104580008A2D867809F0B394A3FC10C0A0FE06C063
:10459000B21480F4280C922C9B180DC0B21458F45D
:1045A000B60180E290E076D0B394F8CFB21418F45C
:1045B0002B1802C0982C212CA4FE0FC0B60180E35A
:1045C00090E068D0A2FE16C0A1FC03C088E790E08E
:1045D00002C088E590E0B6010CC08A2D867851F0C3
:1045E000A1FE02C08BE201C080E2A7FC8DE2B60111
:1045F00090E050D0891430F4B60180E390E04AD0C6
:104600009A94F8CF8A94F301E80DF11D8081B601E8
:1046100090E040D08110F6CF222009F44ECEB601B2
:1046200080E290E037D02A94F7CFF6018681978117
:1046300002C08FEF9FEF2B960FB6F894DEBF0FBE30
:10464000CDBFDF91CF911F910F91FF90EF90DF9041
:10465000CF90BF90AF909F908F907F906F905F9022
:104660004F903F902F900895FC010590615070404D
:104670000110D8F7809590958E0F9F1F0895FC012B
:104680006150704001900110D8F7809590958E0F81
:104690009F1F08950F931F93CF93DF93FB012381F7
:1046A00021FD03C08FEF9FEF2CC022FF16C0468173
:1046B0005781248135814217530744F4A081B18189
:1046C0009D012F5F3F4F318320838C93268137815B
:1046D0002F5F3F4F3783268314C08B01EC01FB0112
:1046E0000084F185E02D1995892BE1F6D801169605
:1046F0008D919C911797019617969C938E93169780
:10470000CE01DF91CF911F910F910895FA01AA2751
:10471000283051F1203181F1E8946F936E7F6E5F04
:104720007F4F8F4F9F4FAF4FB1E03ED0B4E03CD0B2
:10473000670F781F891F9A1FA11D680F791F8A1F95
:10474000911DA11D6A0F711D811D911DA11D20D0FC
:1047500009F468943F912AE0269F11243019305DB6
:104760003193DEF6CF010895462F4770405D4193A7
:10477000B3E00FD0C9F7F6CF462F4F70405D4A33F4
:1047800018F0495D31FD4052419302D0A9F7EACFBC
:10479000B4E0A6959795879577956795BA95C9F7EB
:1047A00000976105710508959B01AC010A2E0694DE
:1047B0005795479537952795BA95C9F7620F731F97
:0C47C000841F951FA01D0895F894FFCFE2
:1047CC000000A70E20000900400040C600CE00D615
:1047DC000036010000000300000000A01B8B1B0032
:1047EC0000F8FF0186000000000079FF0179A000AD
:1047FC00000000E6FF0179000000000086FF018741
:10480C00000000000078FF01880000000000004359
:10481C004F322056616C75653A20256400434F3247
:10482C00204D6561737572652077656E74207772A3
:10483C006F6E6700434F32205461736B004E6F7480
:10484C00204D6561737572656400434F325461731A
:10485C006B0049444C4500546D72205376630054F0
:10486C00656D7020616E642048756D2044726976A8
:10487C00657220496E697469616C697A6564206F30
:10488C006B0054454D5020414E442048554D204F0F
:10489C005554204F462048454150200054454D501A
:1048AC0020414E442048554D2057414B45205550F2
:1048BC002057454E542057524F4E470054454D50AB
:1048CC0020414E442048554D204D454153555249A9
:1048DC004E472055502057454E542057524F4E4767
:1048EC000054656D70657261747572653A2025644B
:1048FC000A0048756D69646974793A2025640A0068
:10490C0054656D70206D6573757265640054656DCA
:10491C0070416E6448756D5461736B00416C6C2012
:10492C004461746120436F6C65637465643B00473C
:10493C004956452054454D502053454D5000444157
:10494C005441004170705461736B00446174612078
:10495C00496E697469616C697A65640050726F673D
:10496C0072616D2053747474747461727465642113
:02497C00210018
:00000001FF
