S011000053656D6573746572342E7372656397
S113000094C00000B3C00000B1C00000AFC0000045
S1130010ADC00000ABC00000A9C00000A7C0000034
S1130020A5C00000A3C00000A1C000009FC0000044
S11300308BC300009BC0000099C0000097C0000063
S113004095C0000093C0000091C000008FC0000064
S11300508DC000008BC0000089C0000087C0000074
S113006085C000000C94291E0C947B1E7FC00000E8
S11300707DC000007BC0000079C0000077C0000094
S113008075C0000073C0000071C000006FC00000A4
S11300900C94BF1E0C94111F69C0000067C00000BF
S11300A065C0000063C0000061C000005FC00000C4
S11300B05DC000005BC0000059C0000057C00000D4
S11300C055C0000053C0000051C000000C94551FDF
S11300D00C94A71F4BC000000C94EB1F0C943D2004
S11300E045C00000841684168416BB16C316D816A1
S11300F084168416BB16C3160E94D40A80910D116F
S1130100823008F05BD20E940117F6CFCF93DF93C1
S11301101F92CDB7DEB7CE0101960E94011449812A
S11301200E94F6150E944D16F6CF11241FBECFEF84
S1130130D1E2DEBFCDBF00E00CBF16E0A0E0B2E02C
S1130140E0E9F2E500E00BBF02C007900D92A83E83
S1130150B107D9F723E1A8EEB6E001C01D92A2369B
S1130160B207E1F70E947A180C94462949CFE4EFCC
S1130170F6E0A8EFB6E0B183A08313821282E8EB25
S1130180F0E1F093F306E093F206138212821182F7
S1130190108280EC99E013969C938E931297ED93C2
S11301A0FC939093EF068093EE069093F106809370
S11301B0F00680E090E89093E9068093E8060895BD
S11301C0CF93DF93EC01A4EFB6E001C0DF01ED9122
S11301D0FC911197EC17FD07C8F312968D919C9131
S11301E013979D01280F391FC217D30749F42A8199
S11301F03B81820F931F13969C938E931297ED016C
S11302008A819B819E01280F391FE217F307C1F4ED
S11302102091F2063091F306E217F30771F0228180
S11302203381820F931F9B838A83ED91FC911197F5
S1130230808191819983888305C03983288302C092
S1130240F983E883CA17DB0711F0CD93DC93DF91C0
S1130250CF910895EF92FF920F931F93CF93DF9363
S11302608C010E941F0C8091F2069091F306892B59
S113027009F47DDF8091E8069091E90680239123BB
S1130280892B09F076C00115110549F0C8010496BF
S11302900817190718F000E010E001C08C010115DF
S11302A0110509F469C08091F0069091F106801758
S11302B0910708F464C0C091F406D091F506E4EF08
S11302C0F6E002C0FE01EC018A819B818017910750
S11302D020F4888199810097A9F78091F206909182
S11302E0F306C817D90709F44DC0E080F18084E013
S11302F0E80EF11C88819981918380832A813B8156
S1130300201B310B2930310548F0CE01800F911F9D
S1130310FC01338322831B830A8352DF2A813B81BE
S11303208091F0069091F106821B930B9093F10655
S11303308093F0064091EE065091EF0684179507DE
S113034020F49093EF068093EE068091E806909156
S1130350E906282B392B3B832A8319821882809142
S1130360EC069091ED0601969093ED068093EC06D1
S11303700BC0E12CF12C08C0E12CF12C05C0E12CC0
S1130380F12C02C0E12CF12C0E945F0DE114F10468
S113039011F40E940D17C701DF91CF911F910F91A6
S11303A0FF90EF9008950F931F93CF93DF930097DF
S11303B091F1EC0124974A815B812091E806309108
S11303C0E906BA0162237323672B29F168817981D5
S11303D0672B09F520953095242335233B832A8305
S11303E00E941F0C8A819B812091F0063091F106B6
S11303F0820F931F9093F1068093F006CE01E0DE06
S11304008091EA069091EB0601969093EB06809317
S1130410EA060E945F0DDF91CF911F910F9108951D
S1130420FC010396928381834FEF5FEFBA0143830C
S1130430548365837683908787839287818710822C
S11304400895FC011386128608950F931F93CF938A
S1130450DF93EB01088119812A813B810F3F4FEF24
S113046014072407340721F4FC01A185B28511C0C7
S1130470DC01139601C0DF011496ED91FC911597F0
S1130480408151816281738104171507260737075C
S113049090F71496ED91FC911597FD83EC83D78327
S11304A0C683BF83AE831596DC93CE9314979B8744
S11304B08A87FC0120812F5F2083DF91CF911F91D8
S11304C00F910895CF93DF93FC01A285B385C48176
S11304D0D581868197819F838E83C681D7818481CC
S11304E095819D838C8311968D919C911297E81729
S11304F0F90731F48681978112969C938E93119714
S1130500138612868C9181508C938C91DF91CF91BC
S11305100895A89590EC88E10FB6F894A895809377
S113052060000FBE909360000895FC0160833197D2
S113053070833197108231971082319720E820839D
S113054031971082319710823197108277974083C8
S11305503197508386970895DCDFA0917B11B09189
S11305607C11CD91CDBFDD91DEBFFF91EF91DF9185
S1130570CF91BF91AF919F918F917F916F915F9137
S11305804F913F912F911F910F91FF90EF90DF902A
S1130590CF90BF90AF909F908F907F906F905F901F
S11305A04F903F902F901F900F900CBE0F900BBE5A
S11305B00F900FBE0F90089581E008950F920FB62B
S11305C0F8940F920BB60F920CB60F921F9211244F
S11305D02F923F924F925F926F927F928F929F924F
S11305E0AF92BF92CF92DF92EF92FF920F931F933D
S11305F02F933F934F935F936F937F938F939F9327
S1130600AF93BF93CF93DF93EF93FF93A0917B11AD
S1130610B0917C110DB60D920EB60D920E94BB0ED8
S1130620A0917B11B0917C11CD91CDBFDD91DEBF46
S1130630FF91EF91DF91CF91BF91AF919F918F91F6
S11306407F916F915F914F913F912F911F910F91E6
S1130650FF90EF90DF90CF90BF90AF909F908F90DE
S11306607F906F905F904F903F902F901F900F90CE
S11306700CBE0F900BBE0F900FBE0F9008950F92FB
S11306800FB6F8940F920BB60F920CB60F921F92FE
S113069011242F923F924F925F926F927F928F928A
S11306A09F92AF92BF92CF92DF92EF92FF920F93FD
S11306B01F932F933F934F935F936F937F938F93E6
S11306C09F93AF93BF93CF93DF93EF93FF93A09147
S11306D07B11B0917C110DB60D920EB60D9213BE26
S11306E00E94330C81110E94BB0EA0917B11B0912A
S11306F07C11CD91CDBFDD91DEBFFF91EF91DF91F4
S1130700CF91BF91AF919F918F917F916F915F91A5
S11307104F913F912F911F910F91FF90EF90DF9098
S1130720CF90BF90AF909F908F907F906F905F908D
S11307304F903F902F901F900F900CBE0F900BBEC8
S11307400F900FBE0F9008959ADF18950FB6F89486
S11307500F92FC01868D811102C081E001C080E00E
S11307600F900FBE08950FB6F8940F92FC01268DDA
S1130770878D281302C081E001C080E00F900FBE76
S113078008950F931F93CF93DF93EC01042F1E8DD5
S113079048A141110CC088819981892B09F042C07C
S11307A08C819D810E94CC101D821C8242C001114B
S11307B017C050E08A819B810E94C92528A18A81A3
S11307C09B81820F911D9B838A832C813D8182179B
S11307D0930750F1888199819B838A8380E029C0A3
S11307E050E08E819F810E94C92588A190E0919557
S11307F0819591092E813F81280F391F3F832E83D4
S1130800488159812417350730F42C813D81820FAA
S1130810931F9F838E83023049F4112349F01150B2
S113082080E007C080E005C080E003C080E001C034
S113083080E01F5F1E8FDF91CF911F910F9108956C
S1130840FC0140A14423A9F050E026813781240F04
S1130850351F37832683848195812817390720F033
S11308608081918197838683CB01668177810C9403
S1130870C92508951F93CF93DF93EC010FB6F89425
S11308800F921AA10BC08B89882351F0CE01439695
S11308900E94790F81110E94B510115011169CF31A
S11308A08FEF8AA30F900FBE0FB6F8940F9219A181
S11308B00BC08885882351F0CE0108960E94790FD9
S11308C081110E94B510115011169CF38FEF89A36A
S11308D00F900FBEDF91CF911F910895CF93DF93B7
S11308E0EC010FB6F8940F92E881F9818F8D28A15D
S11308F090E030E0829FA001839F500D929F500DA5
S113090011244E0F5F1F5D834C831E8EFB83EA838D
S11309100197289FA001299F500D389F500D112445
S1130920CF01840F951F9F838E838FEF89A38AA3A2
S113093061110BC08885882371F0CE0108960E944E
S1130940790F882341F03ADE06C0CE01089668DDAF
S1130950CE01439665DD0F900FBE81E0DF91CF910C
S113096008950F931F93F801611103C0118300834D
S113097002C051834083878F60A361E0CF01AEDF63
S11309801F910F910895DF92EF92FF920F931F939F
S1130990CF93DF93F82EE62ED42E869FC001112428
S11309A0839658DCEC01009741F08C012D2DAC01AD
S11309B04D5D5F4F6E2D8F2DD4DFCE01DF91CF9132
S11309C01F910F91FF90EF90DF900895CF92DF92E7
S11309D0EF92FF920F931F93CF93DF93CDB7DEB7C0
S11309E029970FB6F894DEBF0FBECDBF7C016B0113
S11309F02E833F834887598710E00FB6F8940F92EF
S1130A00F701968D878D981710F00230B1F4402FBE
S1130A10B601C701B6DEF7019389992341F0C701F6
S1130A2043960E94790F882321F0C8DD02C081110A
S1130A30C5DD0F900FBE81E04AC08E819F81A885DD
S1130A40B985892B8A2B8B2B21F40F900FBE80E064
S1130A503EC0111105C0CE0101960E943E1011E066
S1130A600F900FBEECD60FB6F8940F92F70181A148
S1130A708F3F09F411A2F70182A18F3F09F412A25A
S1130A800F900FBEBE016A5F7F4FCE0101960E9498
S1130A904F10811118C0C70166DE882381F04E8192
S1130AA05F8168857985C70108960E94200FC70178
S1130AB0E1DE0E945F0D8111A0CF80DD9ECFC701D2
S1130AC0D9DEFDD79ACFC701D5DEF9D780E02996C4
S1130AD00FB6F894DEBF0FBECDBFDF91CF911F914B
S1130AE00F91FF90EF90DF90CF900895EF92FF92D7
S1130AF00F931F93CF93DF938A01FC01568D378D9B
S1130B00531710F02230F9F4422F7801EC011AA1A6
S1130B108E8DCE0136DE1F3F81F48B898823A9F0A8
S1130B20CE0143960E94790F882389F0E114F104E1
S1130B3081F081E0F70180830DC0FF24F394F10E6E
S1130B40FAA281E007C080E005C081E003C081E033
S1130B5001C081E0DF91CF911F910F91FF90EF9041
S1130B600895CF92DF92EF92FF920F931F93CF934A
S1130B70DF93CDB7DEB729970FB6F894DEBF0FBE6B
S1130B80CDBF8C016B012E833F8348875987E12CAD
S1130B900FB6F8940F92F801F68CFF2099F0B60185
S1130BA0C8014EDEFA94F801F68E8085882331F070
S1130BB0C80108960E94790F811100DD0F900FBEC5
S1130BC081E04FC08E819F81A885B985892B8A2BAE
S1130BD08B2B21F40F900FBE80E043C0E11006C0C0
S1130BE0CE0101960E943E10EE24E3940F900FBEB6
S1130BF026D60FB6F8940F92F80181A18F3F09F41D
S1130C0011A2F80182A18F3F09F412A20F900FBE26
S1130C10BE016A5F7F4FCE0101960E944F10811181
S1130C2017C0C80193DD882379F04E815F81688500
S1130C307985C80143960E94200FC8011BDE3FD767
S1130C408111A6CFBBDCA4CFC80114DE38D7A0CF56
S1130C50C80110DE34D7C80179DD882309F498CFA0
S1130C6080E029960FB6F894DEBF0FBECDBFDF91AA
S1130C70CF911F910F91FF90EF90DF90CF90089547
S1130C80CF93DF93EC010FB6F8940F9289A18F3FB5
S1130C9009F419A28AA18F3F09F41AA20F900FBE7A
S1130CA08E8D811104C0CE0143960E94370FCE0170
S1130CB0E1DDDF91CF910895FC01448155812281CA
S1130CC03381240F351F80819181B901681B790B11
S1130CD0CB016417750710F0841B950B08950F93CF
S1130CE0FC018FE0DF011D928A95E9F7758764871F
S1130CF0558344833783268306870F910895AF92E3
S1130D00BF92CF92DF92EF92FF920F931F93CF93F4
S1130D10DF936C015B017A01FC01C281D381048100
S1130D2015810C1B1D0B4017510708F48A01F601AD
S1130D3084859585A801B5018C0F9D1F0E94C92546
S1130D400E151F0558F4A701401B510BB501600F88
S1130D50711FF601848595850E94C925CE018E0DEB
S1130D609F1DF601248135818217930710F0821BA1
S1130D70930BF60193838283C701DF91CF911F9177
S1130D800F91FF90EF90DF90CF90BF90AF900895B8
S1130D90CF92DF92EF92FF920F931F93CF93DF9343
S1130DA01F921F92CDB7DEB77C016B015A83498332
S1130DB021153105C1F0FC01868580FD08C042176C
S1130DC0530708F49A013A83298381E00FC020175E
S1130DD0310758F042E050E0BE016F5F7F4FC7011A
S1130DE08EDF81E003C080E001C080E0882331F021
S1130DF049815A81B601C70182DF02C080E090E0D8
S1130E000F900F90DF91CF911F910F91FF90EF9072
S1130E10DF90CF900895AF92BF92CF92DF92EF927E
S1130E20FF920F931F93CF93DF937C015B01E90142
S1130E304217530708F4EA01209781F1F701008172
S1130E40118184819581801B910B6E018C179D0704
S1130E5008F46C01F70164857585600F711FA601A4
S1130E60C5010E94C925CC16DD0658F4AE014C1903
S1130E705D09F70164857585C5018C0D9D1D0E9472
S1130E80C9250C0F1D1FF7018481958108171907C7
S1130E9010F0081B190BF70111830083CE01DF91B9
S1130EA0CF911F910F91FF90EF90DF90CF90BF9063
S1130EB0AF9008956F927F928F929F92AF92BF925C
S1130EC0CF92DF92EF92FF920F931F93CF93DF9312
S1130ED01F921F92CDB7DEB76C014B015A01790105
S1130EE001151105B1F0FC0160807180A801BE01FB
S1130EF06F5F7F4F90DF89819A81E01AF10AA8160B
S1130F00B90630F4F60171826082A12CB12C01C0C3
S1130F105C019701A501B401C6017DDF0F900F901C
S1130F20DF91CF911F910F91FF90EF90DF90CF90C1
S1130F30BF90AF909F908F907F906F900895CF92C5
S1130F40DF92EF92FF920F93CF93DF93EC016B014B
S1130F50413011F401E001C000E0C114D10419F4DE
S1130F60CC24C394D12CCE014096C817D90720F4C1
S1130F70219670D97C0102C0E12CF12CE114F1041A
S1130F8039F09601AE01B701615F7F4FC701A7DE5B
S1130F90C701DF91CF910F91FF90EF90DF90CF9039
S1130FA008950F930FB6F8940F92FC0120853185B4
S1130FB0232B71F422853385232B61F42681378119
S1130FC04481558164857585068589DE81E003C089
S1130FD080E001C080E00F900FBE0F910895FC01E6
S1130FE02481358180819181820F931F42815381B5
S1130FF0841B950B01978217930710F0821B930BA8
S113100008952F923F924F925F926F927F928F92A8
S11310109F92AF92BF92CF92DF92EF92FF920F9383
S11310201F93CF93DF93CDB7DEB72B970FB6F8940A
S1131030DEBF0FBECDBF4C017B876A871A010E83CA
S11310401F8328873987FC01848195810197268530
S113105020FF0CC02A01F2E04F0E511C84159505A7
S113106058F41E821F821886198606C084179507B5
S113107010F02A0101C02C018E819F81A885B985B9
S1131080892B8A2B8B2B09F436C0CE010196E0D72D
S11310900FB6F8940F92C401A2DF3C0184159505A4
S11310A038F560E080E090E00E94E7130E94B910F8
S11310B0F401938782870F900FBEAE80BF80C884EF
S11310C0D984E12CF12C00E010E0980140E050E0DC
S11310D0BA0180E00E942711F40113861286BE0132
S11310E06A5F7F4FCE010196DAD7882389F205C063
S11310F00F900FBE02C0612C712C6114710419F49D
S1131100C4016DDF3C0182019301A1016A857B85E5
S1131110C4013EDE6C01892BE9F0C401CDDDF4018C
S11311202681378182179307A8F089D3F40180853B
S11311309185892B71F080859185E12CF12C00E05B
S113114020E030E0A90160E00E94CE11F401118694
S11311501086B5D4C6012B960FB6F894DEBF0FBE29
S1131160CDBFDF91CF911F910F91FF90EF90DF9052
S1131170CF90BF90AF909F908F907F906F905F9033
S11311804F903F902F900895AF92BF92CF92DF92ED
S1131190EF92FF920F931F93CF93DF93EC017B01A8
S11311A05A0169018E8580FF04C08A010E5F1F4FBA
S11311B001C08A01CE0113DF9C01A501B701CE0154
S11311C0E7DD5C01892BC1F0CE0176DD2E813F8104
S11311D08217930788F088859985892B69F088851B
S11311E09985E12CF12C00E020E030E0A90160E0D9
S11311F00E94C51219861886C501DF91CF911F91EF
S11312000F91FF90EF90DF90CF90BF90AF90089533
S11312104F925F926F927F928F929F92AF92BF9202
S1131220CF92DF92EF92FF920F931F93CF93DF93AE
S1131230EC012B013A01580169018E8580FF05C03C
S11312406894882481F8912C02C0812C912CA114DB
S1131250B104C104D10431F10FB6F8940F92CE0158
S11312602BDD7C018816990640F060E080E090E078
S11312700E94E7137ED7998788870F900FBE8E143C
S11312809F0498F0E12CF12C00E010E0980140E07C
S113129050E0BA0180E0DBD719861886CE010CDD58
S11312A07C0103C0CE0108DD7C018E149F04E8F4A8
S11312B084019701A301B201CE01FCDD6C01892BED
S11312C0B1F0BDD28A859B85892B69F08A859B857F
S11312D0E12CF12C00E020E030E0A90160E00E9464
S11312E0CE111B861A86EBD302C0C12CD12CC601A9
S11312F0DF91CF911F910F91FF90EF90DF90CF90EE
S1131300BF90AF909F908F907F906F905F904F9021
S11313100895E091F510F091F610808181110CC0D0
S11313208FEF9FEFDC018093BF109093C010A093C8
S1131330C110B093C2100895E091F510F091F61029
S11313400780F085E02D80819181A281B381809313
S1131350BF109093C010A093C110B093C210089511
S1131360CF93DF93EC018B8D9C8D1DD8CE011BD8C0
S1131370DF91CF9108954F925F926F927F928F92F7
S11313809F92AF92BF92CF92DF92EF92FF920F9310
S1131390CF93DF932C015B014A013901E60165EA31
S11313A070E08B8D9C8D0E94D2258B8D9C8D21E0CD
S11313B0821A9108880E991EA114B10489F415C0EB
S11313C0822F90E0F501E80FF91F3081DE01A80FAC
S11313D0B91F5D963C938081882329F02F5F01C05B
S11313E020E0203168F31CA601C01D8E0A3008F0ED
S11313F009E00A8F0DA71EA6CE01029622D8CE01BF
S11314000E961FD8DB87CA878AE090E0A0E0B0E0A0
S1131410801B9109A109B1098E879F87A88BB98B7D
S1131420DF8BCE8B84E0FE01BF96DF011D928A958F
S1131430E9F71BAAA301B201C40177D89983888371
S1131440E114F10419F0F701D183C083DF91CF9146
S11314500F91FF90EF90DF90CF90BF90AF909F904F
S11314608F907F906F905F904F900895CF93C0E0DE
S113147009C02BE0C29FC0011124835F9E4E0E94CD
S11314801002CF5FCA30A8F382E091E10E941002FB
S113149087EF90E10E94100288EE90E10E94100212
S11314A08DED90E10E94100281ED90E10E94100206
S11314B082E091E19093F6108093F51087EF90E12C
S11314C09093F4108093F310CF910895CF93DF930A
S11314D0EC010FB6F8940F928091D0108F5F809337
S11314E0D01080917B1190917C11892B51F4D09371
S11314F07C11C0937B118091D010813091F4B6DFC0
S113150010C08091CA1081110CC0E0917B11F09140
S11315107C11928D8A8D891720F0D0937C11C09311
S11315207B118091C3108F5F8093C310EA8D8091EB
S1131530CB108E1710F4E093CB108BE08E9FF0014C
S11315401124E35FFE4E0180F281E02DFF83EE83E0
S11315502681378139872887A681B7819E012E5F2E
S11315603F4F15963C932E93149737832683EA8D29
S11315708E9FF0011124E35FFE4EFD87EC8780818E
S11315808F5F80830F900FBE8091CA10882349F02B
S1131590E0917B11F0917C11928D8A8D981708F45B
S11315A00DD8DF91CF910895CF93DF931BC00FB671
S11315B0F8940F92E091E410F091E510C085D18584
S11315C0CE0102960E9462028091D01081508093D5
S11315D0D0108091DC1081508093DC100F900FBEEE
S11315E0CE01BEDE8091DC108111E1CFDF91CF917D
S11315F008958F929F92AF92BF92CF92DF92EF9213
S1131600FF92CF93DF936B017C01C42F8090CC10A9
S11316109090CD10A090CE10B090CF1080917B11FF
S113162090917C1102960E9462028FEFC816D80630
S1131630E806F806B1F5CC23A1F1E1EDF0E1A181D2
S1131640B281C0917B11D0917C11BF83AE83C091D4
S11316507B11D0917C1116968D919C911797998747
S113166088871696CD91DC91179780917B11909184
S11316707C1102969D838C8380917B1190917C11C7
S1131680029617969C938E931697A0917B11B09116
S11316907C111D96FC93EE931C9780818F5F808351
S11316A03FC0C80CD91CEA1CFB1CE0917B11F091D3
S11316B07C11C282D382E482F582C814D904EA047C
S11316C0FB0468F460917B1170917C118091F3109C
S11316D09091F4106E5F7F4F0E94250221C06091AB
S11316E07B1170917C118091F5109091F6106E5FD2
S11316F07F4F0E9425028091BF109091C010A0914D
S1131700C110B091C210C816D906EA06FB0640F40F
S1131710C092BF10D092C010E092C110F092C210DB
S1131720DF91CF91FF90EF90DF90CF90BF90AF907B
S11317309F908F9008952F923F924F925F926F9255
S11317407F928F929F92AF92BF92CF92DF92EF924D
S1131750FF920F93CF93DF933C011B014A012901B0
S1131760CA010E942A016C01892B71F084E390E084
S11317700E942A01EC01892B19F0DC8ECB8E06C065
S1131780C6010E94D30102C0C0E0D0E0209761F0FE
S1131790A12CB12C6E019201A401B101C301EBDDB6
S11317A0CE0194DE81E001C08FEFDF91CF910F91E4
S11317B0FF90EF90DF90CF90BF90AF909F908F906D
S11317C07F906F905F904F903F902F900895EF928D
S11317D0FF920F930F2EFDEBEF2EF0E1FF2EF02D75
S11317E000E020E030E040EC50E06DE372E08CE794
S11317F090E0A1DF813011F40E948B148130C9F490
S1131800F8948FEF9FEFDC018093BF109093C0108A
S1131810A093C110B093C21081E08093CA101092BB
S1131820CC101092CD101092CE101092CF100E94B6
S1131830AC02809106020F91FF90EF900895809181
S1131840BC108F5F8093BC1008950FB6F8940F926C
S11318506091CC107091CD108091CE109091CF10EA
S11318600F900FBE0895CF92DF92EF92FF92CF9325
S1131870DF938091BC10811105C1C090CC10D09031
S1131880CD10E090CE10F090CF108FEFC81AD80A88
S1131890E80AF80AC092CC10D092CD10E092CE1093
S11318A0F092CF10C114D104E104F104B1F4809199
S11318B0F5109091F6102091F3103091F4103093BC
S11318C0F6102093F5109093F4108093F310809108
S11318D0C4108F5F8093C4101CDD8091BF10909161
S11318E0C010A091C110B091C210C816D906EA0662
S11318F0FB0620F480E0B2C081E001C080E0E0910A
S1131900F510F091F610908191110CC04FEF5FEF3C
S1131910BA014093BF105093C0106093C1107093EC
S1131920C2109CC0E091F510F091F6100780F0858C
S1131930E02D0084F185E02D42815381648175811D
S1131940C416D506E606F70648F44093BF10509334
S1131950C0106093C1107093C21080C0A485B58577
S1131960C681D781208531853F832E83C085D1856B
S1131970268137813D832C8311964D915C9112977A
S11319809F012E5F3F4F4217530731F44085518525
S113199012965C934E931197158614869C919150E0
S11319A09C93A08DB18D109709F1C289D389448984
S11319B055895F834E83C489D589428953895D8360
S11319C04C8311966D917C911297AF01425F5F4FEA
S11319D06417750731F44489558912965C934E93C4
S11319E01197118E108E9C9191509C93A28D909181
S11319F0CB109A1710F4A093CB109BE09A9FD001C0
S1131A001124A35FBE4E11960D90BC91A02DB783F7
S1131A10A68316964D915C91179751874087169629
S1131A20CD91DC9117973D832C8317963C932E938D
S1131A301697A28D9A9FD0011124A35FBE4EB5873D
S1131A40A4879C919F5F9C93228DE0917B11F091E0
S1131A507C11928D291708F04FCF51CFE0917B1163
S1131A60F0917C11E28D9BE0E99FF0011124E35F8A
S1131A70FE4E9081923008F081E09091C510911152
S1131A8016C016C08091C6109091C710A091C810BE
S1131A90B091C9100196A11DB11D8093C6109093F9
S1131AA0C710A093C810B093C91080E001C081E0B2
S1131AB0DF91CF91FF90EF90DF90CF900895CF9278
S1131AC0DF92EF92FF92CF93DF930FB6F8940F92C9
S1131AD08091BC1081508093BC108091BC10811106
S1131AE0BEC08091D010811188C0BCC0E091EF10BD
S1131AF0F091F0100084F185E02DA08DB18DC289A4
S1131B00D389848995899F838E83C489D589828961
S1131B1093899D838C8311962D913C911297CF01CB
S1131B200E962817390731F48489958912969C9367
S1131B308E931197118E108E8C9181508C93A48565
S1131B40B585C681D781808591859F838E83C08525
S1131B50D185868197819D838C8311968D919C91EB
S1131B6012979F012E5F3F4F8217930731F48085B0
S1131B70918512969C938E931197158614868C9159
S1131B8081508C93A28D8091CB108A1710F4A0936E
S1131B90CB108BE08A9FD0011124A35FBE4E119617
S1131BA00D90BC91A02DB783A68316964D915C91A0
S1131BB01797518740871696CD91DC9117973D83EF
S1131BC02C8317963C932E931697A28D8A9FD0014F
S1131BD01124A35FBE4EB587A4878C918F5F8C932D
S1131BE0928DA0917B11B0917C115A968C9198178B
S1131BF030F081E08093C51002C0E0E0F0E0809115
S1131C00E810811173CFEF2B09F083DBC090C6106D
S1131C10D090C710E090C810F090C910C114D1043E
S1131C20E104F104A1F01FDE882319F081E0809320
S1131C30C51081E0C81AD108E108F108A1F7109293
S1131C40C6101092C7101092C8101092C91080913B
S1131C50C510882331F00E94DE0281E003C080E0D9
S1131C6001C080E00F900FBEDF91CF91FF90EF9005
S1131C70DF90CF9008958F929F92AF92BF92CF92B0
S1131C80DF92EF92FF921F93CF93DF93EC016A01EF
S1131C907B01D5DD8090CC109090CD10A090CE101B
S1131CA0B090CF1088819981AA81BB81AC01BD011C
S1131CB04C0D5D1D6E1D7F1D88169906AA06BB0678
S1131CC060F4481759076A077B0798F48416950649
S1131CD0A606B70680F010E013C0481759076A0734
S1131CE07B0758F084169506A606B70640F010E068
S1131CF007C010E005C011E003C011E001C011E00D
S1131D00488359836A837B83112341F0CB01BA0151
S1131D10681979098A099B0940E06BDCD0DE8111DE
S1131D2002C00E94DE02812FDF91CF911F91FF90AC
S1131D30EF90DF90CF90BF90AF909F908F900895D9
S1131D40CF92DF92EF92FF926B017C01672B682B9D
S1131D50692B39F074DD40E0C701B6014ADCAFDE1F
S1131D6001C080E0811102C00E94DE02FF90EF906A
S1131D70DF90CF9008958091BC10882321F081E0FA
S1131D808093C51008951092C510E0917B11F091D5
S1131D907C1120813181E0917B11F0917C11838D44
S1131DA0948D8217930760F060917B1170917C1180
S1131DB0635E7F4F80917B1190917C110E94191773
S1131DC08091CB1001C08150282F30E09BE0929F7E
S1131DD0F001939FF00D1124E35FFE4E908199234F
S1131DE091F39BE0929FA001939F500D1124DF017A
S1131DF00180F281E02D0480F581E02D1296FC93A0
S1131E00EE931197405F5E4EE417F50729F4448181
S1131E105581FD01528341839BE0929FF001939F82
S1131E20F00D1124E35FFE4E0180F281E02D208548
S1131E30318530937C1120937B118093CB100895CE
S1131E40CF92DF92EF92FF926A017B0160917B1146
S1131E5070917C11625F7F4F0E94250241E0C701AF
S1131E60B601C7DBFF90EF90DF90CF900895CF933A
S1131E70DF93FC01CB01BA01A181B281C0917B1136
S1131E80D0917C11BB8BAA8BC0917B11D0917C111A
S1131E9016964D915C9117975D8B4C8B1696CD9150
S1131EA0DC91179740917B1150917C11425F5F4FF9
S1131EB05D834C8340917B1150917C11425F5F4F55
S1131EC017965C934E931697A0917B11B0917C1159
S1131ED05996FC93EE93589730813F5F30832223C9
S1131EE019F06FEF7FEFCB01422F83DBDF91CF91AE
S1131EF00895CF93DF93DC011796ED91FC91189729
S1131F000084F185E02DA08DB18DC289D3898489A7
S1131F1095899F838E83C489D589828993899D837A
S1131F208C8311968D919C9112979F01225F3F4F54
S1131F308217930731F48489958912969C938E9322
S1131F401197118E108E8C9181508C938091BC10BE
S1131F50811152C0A485B585C681D78180859185BC
S1131F609F838E83C085D185868197819D838C8351
S1131F7011968D919C9112979F012E5F3F4F82176E
S1131F80930731F48085918512969C938E931197D3
S1131F90158614868C9181508C93A28D8091CB10E0
S1131FA08A1710F4A093CB108BE08A9FD0011124E0
S1131FB0A35FBE4E11960D90BC91A02DB783A6834E
S1131FC016964D915C911797518740871696CD913F
S1131FD0DC9117973D832C8317963C932E93169789
S1131FE0A28D8A9FD0011124A35FBE4EB587A4871A
S1131FF08C918F5F8C931CC048EE50E1DA011196EE
S1132000CD91DC911297D38BC28B8E819F81958B5E
S1132010848B8E819F81DC0115963C932E931497BB
S11320203F832E83518F408FDA018C918F5F8C9385
S1132030928DE0917B11F0917C11828D891720F4AF
S113204081E08093C51001C080E0DF91CF910895B5
S11320500FB6F8940F922091C410FC012083409194
S1132060CC105091CD106091CE107091CF1041835F
S11320705283638374830F900FBE08952091C4101C
S1132080FC0120834091CC105091CD106091CE1072
S11320907091CF10418352836383748308958F9228
S11320A09F92AF92BF92CF92DF92EF92FF920F93E3
S11320B01F93CF93DF93FB010FB6F8940F92C09058
S11320C0CC10D090CD10E090CE10F090CF10DC0169
S11320D011960D911D912D913C9114974601570134
S11320E0801A910AA20AB30A4081518162817381E4
S11320F04F3FBFEF5B076B077B0739F1EC01B881FA
S1132100A091C410BA1759F0C016D106E206F3061E
S113211030F0108211821282138281E017C084167B
S11321209506A606B70658F4481959096A097B09A1
S11321304083518362837383A1DF80E007C01082F0
S113214011821282138281E001C080E00F900FBEE1
S1132150DF91CF911F910F91FF90EF90DF90CF907F
S1132160BF90AF909F908F90089581E08093C510A9
S1132170089580917B1190917C1108958091CA10EB
S1132180882331F08091BC10811104C082E008954D
S113219081E0089580E008950F931F93CF93DF9318
S11321A0FC01892B09F449C086A5815086A7228D9C
S11321B095A5291709F443C0811143C0EF018F018C
S11321C00E5F1F4FC8010E946202EDA5EA8F8AE0EC
S11321D090E0A0E0B0E08E1B9109A109B1098E87BF
S11321E09F87A88BB98B8091CB108E1710F4E09346
S11321F0CB108BE08E9FF0011124E35FFE4E018033
S1132200F281E02DFF83EE83268137813987288789
S1132210A681B78115961C930E9314971783068392
S1132220EA8D8E9FF0011124E35FFE4EFD87EC875B
S113223080818F5F808381E005C080E003C080E0FF
S113224001C080E0DF91CF911F910F9108954F92CB
S11322505F926F927F92AF92BF92CF92DF92EF9292
S1132260FF920F931F93CF93DF93280139010FB689
S1132270F8940F92E0917B11F0917C11C82FD0E07B
S1132280EC0FFD1F83A9823071F1E0917B11F09175
S11322907C11CE01880F991F880F991FE80FF91F31
S11322A087A590A9A1A9B2A940955095609570956C
S11322B0482359236A237B2347A750AB61AB72ABF6
S11322C0E0917B11F0917C11EC0FFD1F81E083AB59
S11322D0A114B104C104D10431F041E0C601B50137
S11322E088D90E94DE020F900FBE0FB6F8940F92A9
S11322F0E114F104A1F0E0917B11F0917C11CE0185
S1132300880F991F880F991FE80FF91F87A590A9B7
S1132310A1A9B2A9F70180839183A283B383E09139
S11323207B11F0917C11EC0FFD1F83A98230E9F43D
S1132330E0917B11F0917C11CE01880F991F880FD9
S1132340991FE80FF91F87A590A9A1A9B2A94094E4
S1132350509460947094482259226A227B2247A6A2
S113236050AA61AA72AA81E001C080E020917B1189
S113237030917C11C20FD31F1BAA0F900FBEDF91A7
S1132380CF911F910F91FF90EF90DF90CF90BF906E
S1132390AF907F906F905F904F9008958F929F922F
S11323A0AF92BF92EF92FF920F93CF93DF93DC0132
S11323B00FB6F8940F92E114F10489F0E62FF0E0DF
S11323C0EE0FFF1FEE0FFF1FE80FF91F87A490A861
S11323D0A1A8B2A8F70180829182A282B38270E0A0
S11323E0FD01E60FF71F83A992E093AB023001F1E0
S11323F018F4013031F04DC0033079F10430D1F1DB
S113240048C0660F771F660F771FFD01E60FF71FA1
S113241087A490A8A1A8B2A8BA01A901482959295A
S11324206A297B2947A750AB61AB72AB01E034C08A
S1132430660F771F660F771FFD01E60FF71F47A58D
S113244050A961A972A94F5F5F4F6F4F7F4F47A794
S113245050AB61AB72AB01E01FC0660F771F660F14
S1132460771FFD01E60FF71F27A730AB41AB52AB37
S113247001E012C0823079F0660F771F660F771F74
S1132480FD01E60FF71F27A730AB41AB52AB01E0CC
S113249003C001E001C000E0813009F069C01C966E
S11324A0ED91FC911D971696CD91DC911797189696
S11324B08D919C9119979F838E831896CD91DC9171
S11324C0199716968D919C9117979D838C83818182
S11324D092819D012E5F3F4F8217930731F4189626
S11324E08D919C911997928381831D961C921E92C3
S11324F01C978081815080835A96EC915A978091E1
S1132500CB108E1710F4E093CB108BE08E9FF0016C
S11325101124E35FFE4E0180F281E02D1796FC93B7
S1132520EE9316974681578119965C934E931897AC
S1132530C681D7813D832C83378326835A96EC91B9
S11325405A978E9FF0011124E35FFE4E1D96FC9373
S1132550EE931C9780818F5F80835A969C91E091C3
S11325607B11F0917C11828D891710F40E94DE0298
S11325700F900FBE802FDF91CF910F91FF90EF90BE
S1132580BF90AF909F908F9008958F929F92AF923B
S1132590BF92CF92DF92EF92FF920F93CF93DF938C
S11325A0DC01E114F10489F0E62FF0E0EE0FFF1FE7
S11325B0EE0FFF1FE80FF91F87A490A8A1A8B2A8E7
S11325C0F70180829182A282B38270E0FD01E60F5E
S11325D0F71F93A982E083AB023001F118F40130B4
S11325E031F04DC0033079F10430D1F148C0660FA9
S11325F0771F660F771FFD01E60FF71F87A490A8CA
S1132600A1A8B2A8BA01A901482959296A297B2994
S113261047A750AB61AB72AB81E034C0660F771F44
S1132620660F771FFD01E60FF71F47A550A961A9A3
S113263072A94F5F5F4F6F4F7F4F47A750AB61AB9E
S113264072AB81E01FC0660F771F660F771FFD0115
S1132650E60FF71F27A730AB41AB52AB81E012C0A6
S1132660923079F0660F771F660F771FFD01E60F32
S1132670F71F27A730AB41AB52AB81E003C081E029
S113268001C080E0913009F096C09091BC10911186
S11326905FC01C96ED91FC911D971696CD91DC912F
S11326A0179718962D913C9119973F832E8318966E
S11326B0CD91DC91199716962D913C9117973D83F6
S11326C02C83418152819D012E5F3F4F4217530756
S11326D031F418964D915C911997528341831D965C
S11326E01C921E921C979081915090835A96EC9163
S11326F05A979091CB109E1710F4E093CB109BE067
S11327009E9FF0011124E35FFE4E0180F281E02DD3
S11327101796FC93EE9316974681578119965C930E
S11327204E931897C681D7813D832C8337832683A4
S11327305A96EC915A979E9FF0011124E35FFE4E46
S11327401D96FC93EE931C9790819F5F908321C00C
S113275068EE70E1FB01C181D2815396DC93CE9384
S113276052972E813F8155963C932E9354974E81D8
S11327705F819D01225F3F4FFA01358324833F83AC
S11327802E8359967C936E935897FB0190819F5F9B
S113279090835A962C91E0917B11F0917C11928D4B
S11327A0921748F4C114D10419F091E0F601908312
S11327B091E09093C510DF91CF910F91FF90EF902E
S11327C0DF90CF90BF90AF909F908F900895009727
S11327D021F480917B1190917C110FB6F8940F92A3
S11327E070E0FC01E60FF71F23A9223031F4FC014D
S11327F0E60FF71F13AA81E001C080E00F900FBE1F
S11328000895DC01E0918711F0918811808191E0B5
S1132810811190E09C93911108C00780F085E02D10
S11328206081718182819381089560E070E0CB01C1
S11328300895CF92DF92EF92FF920F931F93FC01C2
S113284042835383648375839387828704171507B0
S113285026073707C0F00C191D092E093F09868584
S11328609785A089B189081719072A073B0700F53E
S1132870BF016E5F7F4F80918511909186110E94F8
S1132880250280E018C00C151D052E053F0528F40F
S11328904C155D056E057F0568F4BF016E5F7F4FC3
S11328A080918711909188110E94250280E003C0D5
S11328B081E001C081E01F910F91FF90EF90DF90C4
S11328C0CF9008950FB6F8940F9280918311909150
S11328D08411892BE9F484E991E10E94100289E8CA
S11328E091E10E94100284E991E190938811809310
S11328F0871189E891E1909386118093851140E0D6
S113290067E08AE00E94C30490938411809383114A
S11329100F900FBE0895EF92FF920F93D3DF809133
S1132920831190918411892B91F00F2EF1E8EF2EF1
S1132930F1E1FF2EF02D03E020E030E040EC50E028
S113294062E472E086E890E00E949B0B01C080E0A4
S11329500F91FF90EF9008958F929F92AF92BF9244
S1132960CF92DF92EF92FF920F931F93CF93DF9357
S1132970CDB7DEB727970FB6F894DEBF0FBECDBF35
S1132980E0918311F0918411309781F169832A8356
S11329903B834C835D839F838E836630F4F4EEDB4C
S11329A0823069F400E0A7019601BE016F5F7F4F9A
S11329B080918311909184110E94E60418C000E074
S11329C020E030E0A901BE016F5F7F4F8091831149
S11329D0909184110E94E6040AC020E0A801BE017F
S11329E06F5F7F4FCF010E94760501C080E027967C
S11329F00FB6F894DEBF0FBECDBFDF91CF911F910C
S1132A000F91FF90EF90DF90CF90BF90AF909F9089
S1132A108F9008958F929F92AF92BF92CF92DF9240
S1132A20EF92FF920F931F93CF93DF933BC00780E6
S1132A30F085E02D80809180A280B380C085D1850F
S1132A408E010E5F1F4FC8010E946202EC89FD894E
S1132A50CE0119958E8982FF25C08E859F85A88910
S1132A60B989880D991DAA1DBB1D88169906AA0649
S1132A70BB0670F48A839B83AC83BD83DB87CA87E0
S1132A80B80180918711909188110E9425020AC093
S1132A90C12CD12C760100E010E0A501940160E086
S1132AA0CE015ADFE0918711F09188118081811164
S1132AB0BECF809185119091861190938811809357
S1132AC08711F0938611E0938511DF91CF911F91C7
S1132AD00F91FF90EF90DF90CF90BF90AF909F90B9
S1132AE08F900895CF92DF92EF92FF92CF93DF936E
S1132AF0EC010E94250C6B017C0180917D11909169
S1132B007E11A0917F11B0918011C816D906EA06F2
S1132B10FB0620F47FDF81E0888301C01882C09225
S1132B207D11D0927E11E0927F11F0928011C70145
S1132B30B601DF91CF91FF90EF90DF90CF90089591
S1132B404F925F926F927F928F929F92AF92BF92B9
S1132B50CF92DF92EF92FF920F931F93CF93DF9365
S1132B604B015C0129013A01E0918711F091881130
S1132B700780F085E02DC085D185CE0102960E94A4
S1132B8062028E8982FF1BC04E855F8568897989C0
S1132B90480D591D6A1D7B1D750164019301820155
S1132BA0CE0147DE882369F0C12CD12C760100E0E8
S1132BB010E0A501940160E0CE01CEDE02C08E7F5C
S1132BC08E8BEC89FD89CE011995DF91CF911F91F0
S1132BD00F91FF90EF90DF90CF90BF90AF909F90B8
S1132BE08F907F906F905F904F9008958F929F92F7
S1132BF0AF92BF92CF92DF92EF92FF921F93CF9347
S1132C00DF931F92CDB7DEB76B017C01142F0E94B6
S1132C101F0CCE01019666DF4B015C018981811195
S1132C202DC011110DC08C149D04AE04BF0440F0DE
S1132C300E945F0DA5019401C701B60181DF20C088
S1132C40112341F0E0918511F0918611808111E00A
S1132C50811110E0B701A601481959096A097B09D5
S1132C60212F80918311909184110E9440060E942B
S1132C705F0D811105C00E94DE0202C00E945F0D3B
S1132C800F90DF91CF911F91FF90EF90DF90CF9045
S1132C90BF90AF909F908F900895AF92BF92CF92C4
S1132CA0DF92EF92FF920F931F93CF93DF93CDB7F1
S1132CB0DEB728970FB6F894DEBF0FBECDBF82C033
S1132CC0898188230CF47EC0AE80BF80D5011C9618
S1132CD08D919C911D97892B21F0C50102960E942C
S1132CE06202CE010896FEDE8B019C01E9810E2E64
S1132CF0000CFF0BEA30F10508F064C08827EE5899
S1132D00FF4F8F4F0C948224F50186898160868B56
S1132D10CA80DB80EC80FD80468557856089718997
S1132D204C0D5D1D6E1D7F1DC50183DD882309F4D7
S1132D3049C0D5015496ED91FC915597C50119955B
S1132D40F501868982FF3EC04A815B816C817D8169
S1132D5086859785A089B1899A01AB01280F391F0F
S1132D604A1F5B1FC12CD12C760100E010E060E00B
S1132D70C501F2DD27C0D50156968C9156978E7FFA
S1132D8056968C931FC0F50186898160868B4A8193
S1132D905B816C817D8146875787608B718B400F87
S1132DA0511F621F731F68017901C50142DD0AC00A
S1132DB0F501868981FD04C0C5010E94D30102C0CA
S1132DC08E7F868B20E030E0A901BE016F5F7F4FCC
S1132DD080918311909184110E94B105811170CF6B
S1132DE028960FB6F894DEBF0FBECDBFDF91CF910A
S1132DF01F910F91FF90EF90DF90CF90BF90AF9015
S1132E000895089584B1806884B985B1806885B9CE
S1132E10089583B1806883B90895F4DF2FEF80E7C4
S1132E2092E0215080409040E1F700C00000F1DFC3
S1132E30F5CFE8DF2FEF87EA91E6215080409040FC
S1132E40E1F700C00000E5DFF5CFCF93DF9381E029
S1132E500E94F421C4D240D59F938F938AE492E0D8
S1132E609F938F930E94282638D436D59F938F93AF
S1132E708DE592E09F938F930E94282685EB91E144
S1132E80C0D22AD5C5EBD1E1DF93CF939F938F9323
S1132E9086E792E09F938F930E942826CE01CDD29D
S1132EA01BD59F938F93DF93CF938AE892E09F93F0
S1132EB08F930E942826AE016FE972E080EC92E0C5
S1132EC0EAD40AD59F938F93DF93CF938FE992E04F
S1132ED09F938F9380EC92E09F938F9381ED92E088
S1132EE09F938F930E942826DBD2F6D49F938F93CF
S1132EF087E093E09F938F930E9428268DB79EB717
S1132F0082960FB6F8949EBF0FBE8DBF81E0C2D3E8
S1132F10E3D49F938F9386E193E09F938F930E94D2
S1132F20282684EF91E0C1D3D7D49F938F9381E077
S1132F308F9384EF8F9387E393E09F938F930E9403
S1132F4028268DB79EB70A960FB6F8949EBF0FBE7B
S1132F508DBFDAE080E0AAD2C82FBED4C83099F081
S1132F6080E00E94582287E593E09F938F930E940C
S1132F70282666E371E080E090E00E94A00ED15024
S1132F800F900F9039F7C83061F48DE593E09F936B
S1132F908F930E94282681E00E943A220F900F907E
S1132FA009C081E00E94492280E00E9417220E9409
S1132FB0DE02FDCFDF91CF910895CF93DF9300D050
S1132FC01F92CDB7DEB781E0FCD162E070E080E013
S1132FD090E00E94A00E80E0F4D166E970E080E009
S1132FE090E00E94A00EA6D185E693E09F938F9374
S1132FF00E9428262ADF86E793E09F938F930E94FE
S11330002826EFE9F1E186E0818382E0808381E88C
S113301093E09F938F930E9428260E94250C698336
S11330207A838B839C8386E993E09F938F930E949A
S113303028260FB6F894DEBF0FBECDBF8AEA93E010
S11330409F938F930E94282640E956ED62E070E03A
S1133050CE0101960E943B0E85EC93E09F938F93E3
S11330600E942826EFE9F1E180E3828389E38383E8
S113307082E0848383EA858384E086838AE187838C
S113308083E00E946A226FE971E180E038D224D49F
S11330909F938F938AED93E09F938F930E942826AA
S11330A00FB6F894DEBF0FBECDBFC8CFEF92FF922C
S11330B00F93E12CF12C082F20E030E048E851E098
S11330C06FEE73E08DED97E10E949B0B0F91FF90E3
S11330D0EF90089581B1816881B980E00E949F20BA
S11330E085E00E94A62160E070E081E02AD183E0BF
S11330F0DDCF0895EFDF82E094E00E943B260E943A
S1133100E70BFFCF0F931F93CF93DF931F921F9271
S1133110CDB7DEB78C0119822DC0E0917D12EC325F
S113312050F481E08E0F80937D12F0E0E155FD4E66
S11331308A81808302C010927D128A818A30D1F400
S113314040917D1250E0FA01E355FD4E108241504A
S113315051099E012F5F3F4F6FEA72E18091801207
S1133160909181120E94C408898181110E94DE021B
S113317010927D12BE016E5F7F4FC8014AD588232D
S113318061F20F900F90DF91CF911F910F910895ED
S11331900F931F93CF93DF938C01EB0180918012E7
S11331A0909181120E94D107B80189E192E10E94B5
S11331B00926209779F0E9E1F2E101900020E9F78E
S11331C0319780E290E091838083BE0189E192E1AE
S11331D00E94FE25E9E1F2E1DF010D900020E9F70C
S11331E011978DE09AE011969C938E9312961C92FF
S11331F001900020E9F73197E951F241AE2F89E1BE
S113320092E1AC016A2F8091821290918312ACD426
S1133210811111C008E215E020E030E04DE250E0F9
S113322069E073E180918012909181120E940809F3
S113323089E093E102C080E090E0DF91CF911F919B
S11332400F9108952F923F924F925F926F927F92C7
S11332508F929F92AF92BF92CF92DF92EF92FF92A2
S11332600F931F93CF93DF935C01FC010190002027
S1133270E9F731976F01C81AD90A5C2C0F2EFDEAC1
S11332808F2EF6E09F2EF02DE12CF12C4C2C3701E3
S1133290F40101811281E80109900020E9F72197E6
S11332A0C01BD10B3C2EF9E0CF16D10458F0F40129
S11332B02080FEE02F1206C0B801C5010E94D92566
S11332C0892B09F5442D351408F44C2F50E0B8012E
S11332D0C5010E941026892B49F4F301EE0FFF1F4C
S11332E0E60DF71DE355F94F20800DC08FEFE81A66
S11332F0F80AE3E08E0E911CF1E1EF16F10439F6C1
S11333006894222424F8822DDF91CF911F910F918C
S1133310FF90EF90DF90CF90BF90AF909F908F90F1
S11333207F906F905F904F903F902F90089530DF83
S113333089CF089580918012909181120C94D107C5
S113334008958F929F92AF92CF92EF920F931F9313
S1133350CF93C82F8B0141E060E070E088EC90E0EF
S11333600E949F07909381128093801210937F1282
S113337000937E120F2EF2E88F2EF8E19F2EF02D8F
S11333806894AA24A6F86894CC24C6F8E12C00E03A
S113339023E040E051EE60E070E08C2F1ED3909368
S11333A0831280938212E7E0F1E080818061808360
S11333B0CF911F910F91EF90CF90AF909F908F90EE
S11333C00895882331F0E8E0F1E080818F7E8083E6
S11333D00895E8E0F1E0808180618083089560E0F1
S11333E070E083E394E0D4DEE9E0F3E101900020AF
S11333F0E9F73197E950F34181E0759708F080E0EF
S11334000895CF93DF93EC0160E070E084E494E0EE
S1133410BFDEE9E0F3E101900020E9F7EA51F3416E
S113342039F469E073E1CE010E94092680E002C00C
S1133430188281E0DF91CF910895FC010190002072
S1133440E9F79F01215131092817390729F4BC01F3
S113345082E794E06CCF089589E00895FC0101901F
S11334600020E9F79F01215131092817390729F470
S1133470BC0181E894E05BCF089589E00895FC01E4
S113348001900020E9F79F012152310928173907DB
S113349029F4BC0180E994E04ACF089589E00895B5
S11334A060E070E08FEC94E042CF08950F931F9397
S11334B0E82FF0E0EE0FFF1FE755F94F60817181AF
S11334C088ED94E034DF811114C008E215E020E0B7
S11334D030E04DE250E069E073E180918012909118
S11334E081120E940809882321F089E093E1AADE71
S11334F003C089E093E1A6DE1F910F9108950F9315
S11335001F93CF93DF931F92CDB7DEB7DB011196E4
S11335109C911197953108F0B4C0992381F160E032
S113352070E0272F30E0462F50E0FD01E40FF51F37
S1133530928192959F709A3010F0995C01C0905DD1
S1133540F901E656FD4E90832F5F3F4FFD01E40FD6
S1133550F51F92819F70492F50E04A30510514F0B5
S1133560995C01C0905DF901E656FD4E90837E5F43
S11335706F5F11969C911197691798F201C070E0E2
S1133580E72FF0E0E656FD4E10824C91811103C006
S113359081EE94E002C083EE94E02AE932E13F93A5
S11335A02F931F924F939F938F9387EE94E09F9353
S11335B08F938CED92E19F938F930E946B2660E032
S11335C070E08CED92E1B3DE0FB6F894DEBF0FBE6F
S11335D0CDBF811159C008E215E020E030E04DE292
S11335E050E069E073E180918012909181120E9411
S11335F00809882309F447C089E093E123DE8E306B
S113360009F042C087E0898380917E1290917F12F5
S1133610892BA9F1BE016F5F7F4F89E093E168D1E7
S113362080938412E981F0E0E75FFC4EDF010D90A6
S11336300020E9F71197AE1BBF0BAA2391F0BB271B
S1133640CD0101979C0112F42F5F3F4F35952795CB
S113365020938512AF014F5F5F4F64E186E892E1EA
S113366073D101E010E020E030E046E150E064E88E
S113367072E180917E1290917F120E9401088EE087
S113368003C084E101C080E00F90DF91CF911F91CE
S11336900F910895813019F067EF74E002C060ED76
S11336A075E08BEF94E043CE08959F938F938CE263
S11336B095E09F938F938CED92E19F938F930E945B
S11336C06B2660E070E08CED92E131DE0F900F909C
S11336D00F900F900F900F9008952F923F924F925A
S11336E05F926F927F928F929F92AF92BF92CF928E
S11336F0DF92EF92FF920F931F93CF93DF93CDB797
S1133700DEB7A0970FB6F894DEBF0FBECDBF69E554
S113371075E085E695E03CDD95DD8111A3C080E28E
S1133720EDE1F2E0DE01119601900D928A95E1F748
S11337309E012F5F3F4F6901E12CF12C0F2EF1E721
S1133740AF2EF5E0BF2EF02D0CED12E10F2EFAE8AE
S11337504F2EF5E05F2EF02D0F2EF1EA8F2EF5E0BF
S11337609F2EF02D0F2EFBEB6F2EF5E07F2EF02D0C
S11337703E2C2F2CFF92EF92BF92AF921F930F9388
S11337800E946B2660E070E0C80102DD5BDD0F90F3
S11337900F900F900F900F900F90811163C032E043
S11337A03E15E8F4F60183818F9382818F938181A2
S11337B08F9380818F93FF92EF925F924F921F932A
S11337C00F930E946B2660E070E0C801E1DC3ADDF3
S11337D00FB6F894DEBF0FBECDBF811143C02F9248
S11337E03F929F928F921F930F930E946B2660E0EB
S11337F070E0C801CDDC26DD0F900F900F900F9084
S11338000F900F9081112EC02F923F927F926F9252
S11338101F930F930E946B2660E070E0C801B8DC30
S113382011DD0F900F900F900F900F900F9081115A
S113383019C03FEFE31AF30A84E0C80ED11C98E0E4
S1133840E916F10409F094CF60E070E083ED95E0AF
S11338509FDCF8DC811106C060E070E084EE95E046
S113386097DCF0DCA0960FB6F894DEBF0FBECDBF98
S1133870DF91CF911F910F91FF90EF90DF90CF9048
S1133880BF90AF909F908F907F906F905F904F907C
S11338903F902F900895EF92FF920F931F93CF9331
S11338A0DF93EC018B017A0181E0F4DE81110DC01C
S11338B0CE01D4DD811109C0C801E1DD811105C04B
S11338C0C701BBDD811101C0EBDDDF91CF911F91F9
S11338D00F91FF90EF90089590E0FC01EE0FFF1F11
S11338E08E0F9F1FFC01E355F94F8181928108954A
S11338F0DC01009729F1FB012081FC0101900020EB
S1133900E9F73197E81BF90B822F90E0E817F907E4
S1133910C8F080E008C0880F382F330F330F830FAF
S11339208053890F2F5FFD01E20FF11D908130ED6F
S1133930390F3A3010F49111EECFFB012083089532
S113394080E0089580E008950F931F93CF93DF9351
S1133950DC01EA012097E1F1FA0101900020E9F786
S11339603197E41BF50B329710F532C08D01040F2B
S1133970151F30E0AE01420F531FFA0190819134BC
S113398028F09753592F5295507F03C0592F5295C1
S1133990507F2C0F3D1FF9019181913410F0975302
S11339A001C09053950FF80190838F5F01C080E0B0
S11339B0282F220F482F50E0FE0101900020E9F744
S11339C03197EC1BFD0B4E175F0710F48613CECF17
S11339D0DF91CF911F910F9108952F923F924F92B3
S11339E05F926F927F928F929F92AF92CF92EF925B
S11339F0FF920F931F93CF93DF93CDB7DEB7F82ECB
S1133A002A013B0188E090E09FD78C018F2D90E044
S1133A10FC01EE0FFF1FEA5CFC4E118300830115CD
S1133A20110509F464C0880F991FFC01E95FFD4F7B
S1133A3080819181D8018D939C936C2D70E084E0FA
S1133A4090E068D71C0161E070E086E090E062D706
S1133A507C014C2DB10150D5F801F582E4826A2D28
S1133A6070E084E090E056D71C0161E070E086E0ED
S1133A7090E050D77C014A2DB1013ED5D801139670
S1133A80FC92EE92129717969C928E921697FFB61E
S1133A90F894ED91FC911197369780818260808330
S1133AA08D909C90C301B2013CD620E030E040E010
S1133AB051E4C5D69B01AC0160E074E284E79BE469
S1133AC09CD520E030E040E85FE332D5FED5F40138
S1133AD032976083D801ED91FC911197359788E96D
S1133AE08083ED91FC91349786E08083FFBEC8010A
S1133AF0DF91CF911F910F91FF90EF90CF90AF90F6
S1133B009F908F907F906F905F904F903F902F90F9
S1133B100895CF93DF93DC01892B01F11296ED9187
S1133B20FC911397938182812581981B9223848130
S1133B309817B1F0838126952823C081D181C20FC3
S1133B40D11D68838F5F958189238383ED91FC91D7
S1133B50359780818062808380E003C081E001C06A
S1133B6082E0DF91CF910895EF92FF920F931F931C
S1133B70CF93DF937C01009709F441C0DC011296D6
S1133B80ED91FC91139793818281981B85819823F1
S1133B908481891B8617A8F1662341F1842F952F10
S1133BA0DC016150462F50E04F5F5F4F480F591FB3
S1133BB0E701EA81FB81938182812581981B92230D
S1133BC08481981779F08C919381269529236081BB
S1133BD071818B01020F111DE80188839F5F85812C
S1133BE0982393831196A417B50711F7D701ED9184
S1133BF0FC91359780818062808380E003C081E0FE
S1133C0001C082E0DF91CF911F910F91FF90EF905F
S1133C1008950097D1F0DC011496ED91FC9115976D
S1133C2093818281981799F0928185818695892361
S1133C30A081B181A80FB11D8C91DB018C939F5F92
S1133C4085819823928380E0089581E0089583E03C
S1133C5008951F920F920FB60F9211240BB60F9274
S1133C602F933F934F935F936F937F938F939F9380
S1133C70AF93BF93CF93DF93EF93FF93A09136134A
S1133C80B0913713109711F16091C6001496ED911D
S1133C90FC911597938182812581981B92238481BD
S1133CA0981761F0838126952823C081D181C20FA2
S1133CB0D11D68838F5F9581892383831696ED9147
S1133CC0FC911797309711F0CD011995FF91EF9161
S1133CD0DF91CF91BF91AF919F918F917F916F9120
S1133CE05F914F913F912F910F900BBE0F900FBE9C
S1133CF00F901F9018951F920F920FB60F921124D8
S1133D000BB60F922F938F939F93AF93BF93EF9321
S1133D10FF93E0913613F09137133097B9F0028096
S1133D20F381E02D938182819817B1F0928185818E
S1133D30282F26952923A081B181A20FB11D2C9192
S1133D409F5F892382832093C6000BC0E1ECF0E0DF
S1133D5080818F7D808305C0E1ECF0E080818F7DE0
S1133D608083FF91EF91BF91AF919F918F912F919C
S1133D700F900BBE0F900FBE0F901F9018951F92BF
S1133D800F920FB60F9211240BB60F922F933F93FD
S1133D904F935F936F937F938F939F93AF93BF934F
S1133DA0CF93DF93EF93FF93A0913813B09139131E
S1133DB0109711F16091CE001496ED91FC91159736
S1133DC0938182812581981B92238481981761F0C5
S1133DD0838126952823C081D181C20FD11D688398
S1133DE08F5F9581892383831696ED91FC911797B4
S1133DF0309711F0CD011995FF91EF91DF91CF919B
S1133E00BF91AF919F918F917F916F915F914F91EE
S1133E103F912F910F900BBE0F900FBE0F901F90EC
S1133E2018951F920F920FB60F9211240BB60F9292
S1133E302F938F939F93AF93BF93EF93FF93E0914F
S1133E403813F09139133097B9F00280F381E02DE3
S1133E50938182819817B1F092818581282F2695CC
S1133E602923A081B181A20FB11D2C919F5F8923C9
S1133E7082832093CE000BC0E9ECF0E080818F7D3B
S1133E80808305C0E9ECF0E080818F7D8083FF9121
S1133E90EF91BF91AF919F918F912F910F900BBE96
S1133EA00F900FBE0F901F9018951F920F920FB690
S1133EB00F9211240BB60F922F933F934F935F935E
S1133EC06F937F938F939F93AF93BF93CF93DF931E
S1133ED0EF93FF93A0913A13B0913B13109711F114
S1133EE06091D6001496ED91FC911597938182818F
S1133EF02581981B92238481981761F083812695EC
S1133F002823C081D181C20FD11D68838F5F958121
S1133F10892383831696ED91FC911797309711F0BE
S1133F20CD011995FF91EF91DF91CF91BF91AF91A1
S1133F309F918F917F916F915F914F913F912F91BD
S1133F400F900BBE0F900FBE0F901F9018951F92ED
S1133F500F920FB60F9211240BB60F922F938F93DB
S1133F609F93AF93BF93EF93FF93E0913A13F09134
S1133F703B133097B9F00280F381E02D9381828165
S1133F809817B1F092818581282F26952923A08145
S1133F90B181A20FB11D2C919F5F8923828320934D
S1133FA0D6000BC0E1EDF0E080818F7D808305C0F9
S1133FB0E1EDF0E080818F7D8083FF91EF91BF91EF
S1133FC0AF919F918F912F910F900BBE0F900FBEC9
S1133FD00F901F9018951F920F920FB60F921124F5
S1133FE00BB60F922F933F934F935F936F937F93EF
S1133FF08F939F93AF93BF93CF93DF93EF93FF93ED
S1134000A0913C13B0913D13109711F160913601CA
S11340101496ED91FC911597938182812581981BCB
S113402092238481981761F0838126952823C08187
S1134030D181C20FD11D68838F5F958189238383CA
S11340401696ED91FC911797309711F0CD011995C3
S1134050FF91EF91DF91CF91BF91AF919F918F919C
S11340607F916F915F914F913F912F910F900BBE74
S11340700F900FBE0F901F9018951F920F920FB6BE
S11340800F9211240BB60F922F938F939F93AF939C
S1134090BF93EF93FF93E0913C13F0913D1330975E
S11340A0B9F00280F381E02D938182819817B1F0F9
S11340B092818581282F26952923A081B181A20F81
S11340C0B11D2C919F5F89238283209336010BC0FD
S11340D0E1E3F1E080818F7D808305C0E1E3F1E0DD
S11340E080818F7D8083FF91EF91BF91AF919F91EC
S11340F08F912F910F900BBE0F900FBE0F901F90BA
S11341001895CF93DF931F92CDB7DEB7BE016F5FD3
S11341107F4F80913E1390913F137BDD8111F6CF49
S1134120898190E00F90DF91CF910895682F80915D
S11341303E1390913F13EDDC80E090E008958F9260
S11341409F92AF92CF92EF920F93812C912C68940F
S1134150AA24A7F86894CC24C7F8E12C00E023E053
S113416040E051EE60E070E038DC90933F138093C0
S11341703E13ECE5F3E18FE092E091838083938337
S113418082830F91EF90CF90AF909F908F9008957E
S113419090E0FC01EE0FFF1FE80FF91FEE0FFF1F69
S11341A0E05CFC4E238121111FC09C01220F331FB0
S11341B0F901E80FF91FEE0FFF1FE05CFC4EA08130
S11341C0B1814C91F901E80FF91FEE0FFF1FE05C7C
S11341D0FC4E81E090E0028002C0880F991F0A948F
S11341E0E2F7842B8C930895FC01EE0FFF1FDF018F
S11341F0A80FB91FAA0FBB1FA05CBC4E0D90BC91A9
S1134200A02D2C91E80FF91FEE0FFF1FE05CFC4E70
S113421081E090E0028002C0880F991F0A94E2F7BF
S1134220809582238C93089590E0FC01EE0FFF1F8C
S1134230E80FF91FEE0FFF1FE05CFC4E23812111F4
S113424020C09C01220F331FF901E80FF91FEE0F64
S1134250FF1FE05CFC4EA081B1814C91F901E80F95
S1134260F91FEE0FFF1FE05CFC4E81E090E002803E
S113427002C0880F991F0A94E2F7809584238C93D7
S11342800895FC01EE0FFF1FDF01A80FB91FAA0F4D
S1134290BB1FA05CBC4E0D90BC91A02D2C91E80FCF
S11342A0F91FEE0FFF1FE05CFC4E81E090E00280FE
S11342B002C0880F991F0A94E2F7822B8C93089509
S11342C0CC24C394D12C6894BB24B2F8C0E4D3E1C9
S11342D010E08C81813081F018F1823061F5E88141
S11342E0F9812081C6010A8002C0880F991F0A94AF
S11342F0E2F7822780831FC08D818F5F8A3010F49C
S11343008D8319C01D82E881F9812081C6010A804C
S113431002C0880F991F0A94E2F7822780830BC09A
S11343200D81002329F0812F7FDF01500D8303C00D
S1134330BC82812F2DDF1F5F2696143051F665E075
S113434070E080E090E00E94A00EC0CFEF92FF9258
S11343500F931F93CF93DF93082F80E487B9C0E4B2
S1134360D3E10F2EF8E2EF2EF12CF02DF982E88242
S113437086E08A831B8214E01C8380E009DF80E8E6
S113438087B9FF82EE8287E0888719861A8781E0E1
S1134390FFDE80E283BB84E390E09D878C8785E029
S11343A08E871F86188B82E0F3DE80E18093010103
S11343B082E091E09B8B8A8B1C8B1D8A1E8B83E091
S11343C0E7DEE12CF12C20E030E040EC50E060EE40
S11343D076E080E691E20E949B0BDF91CF911F91E2
S11343E00F91FF90EF900895CF93DF9390E0FC013D
S11343F0EE0FFF1FDF01A80FB91FAA0FBB1FA05CA0
S1134400BC4ECD91DC911197488121E030E01296A9
S11344100C90129702C0220F331F0A94E2F724274C
S11344202883FD0181E08483DF91CF910895CF93A8
S1134430DF9390E0FC01EE0FFF1FDF01A80FB91F0F
S1134440AA0FBB1FA05CBC4ECD91DC911197488193
S113445021E030E012960C90129702C0220F331F15
S11344600A94E2F724272883FD0182E08483DF9104
S1134470CF910895282F30E0F901EE0FFF1FE20FCE
S1134480F31FEE0FFF1FE05CFC4E93E09483CCCE51
S11344900895282F30E0F901EE0FFF1FE20FF31FFC
S11344A0EE0FFF1FE05CFC4E94E0948371CE089500
S11344B090E0FC01EE0FFF1FDF01A80FB91FAA0F48
S11344C0BB1FA05CBC4E24E015962C931597FD01F0
S11344D01482089590E0FC01EE0FFF1FDF01A80F86
S11344E0B91FAA0FBB1FA05CBC4E21E015962C93EC
S11344F01597FD0114820895FC01411101C045D3B3
S1134500842F90E09C012150310982239323892B2D
S113451009F03BD3413808F038D312821382448324
S1134520440F415045837183608380E090E0089597
S11345305058BB27AA270ED048C139D130F03ED1FC
S113454020F031F49F3F11F41EF42EC10EF4E095D7
S1134550E7FB24C1E92F4AD180F3BA176207730736
S11345608407950718F071F49EF562C10EF4E09586
S11345700B2EBA2FA02D0B01B90190010C01CA0119
S1134580A0011124FF27591B99F0593F50F4503EC4
S113459068F11A16F040A22F232F342F4427585FB6
S11345A0F3CF469537952795A795F0405395C9F7CE
S11345B07EF41F16BA0B620B730B840BBAF0915086
S11345C0A1F0FF0FBB1F661F771F881FC2F70EC025
S11345D0BA0F621F731F841F48F4879577956795F8
S11345E0B795F7959E3F08F0B3CF9395880F08F0E1
S11345F09927EE0F9795879508950CD0E6C0DED0E5
S113460040F0D5D030F021F45F3F19F0C7C051110C
S113461010C1CAC0EBD098F39923C9F35523B1F361
S1134620951B550BBB27AA2762177307840738F01D
S11346309F5F5F4F220F331F441FAA1FA9F333D07C
S11346400E2E3AF0E0E830D091505040E695001C30
S1134650CAF729D0FE2F27D0660F771F881FBB1FEC
S1134660261737074807AB07B0E809F0BB0B802DC6
S1134670BF01FF2793585F4F2AF09E3F510568F012
S11346808DC0D7C05F3FECF3983EDCF386957795F9
S11346906795B795F7959F5FC9F7880F911D969514
S11346A0879597F90895E1E0660F771F881FBB1F70
S11346B0621773078407BA0720F0621B730B840B1D
S11346C0BA0BEE1F88F7E095089598D088F09F57AD
S11346D090F0B92F9927B751A0F0D1F0660F771F4A
S11346E0881F991F1AF0BA95C9F712C0B13081F02A
S11346F09FD0B1E008959CC0672F782F8827B85FBA
S113470039F0B93FCCF3869577956795B395D9F78A
S11347103EF490958095709561957F4F8F4F9F4F94
S11347200895E89409C097FB3EF4909580957095A0
S113473061957F4F8F4F9F4F9923A9F0F92F96E9E9
S1134740BB279395F695879577956795B795F1115E
S1134750F8CFFAF4BB0F11F460FF1BC06F5F7F4FFB
S11347608F4F9F4F16C0882311F096E911C077230D
S113477021F09EE8872F762F05C0662371F096E816
S1134780862F70E060E02AF09A95660F771F881FE5
S1134790DAF7880F9695879597F9089597F99F67A3
S11347A080E870E060E008959FEF80EC08950024B5
S11347B00A941616170618060906089500240A9482
S11347C012161306140605060895092E0394000C08
S11347D011F4882352F0BB0F40F4BF2B11F460FF97
S11347E004C06F5F7F4F8F4F9F4F089557FD9058C0
S11347F0440F551F59F05F3F71F04795880F97FBA1
S1134800991F61F09F3F79F087950895121613065A
S11348101406551FF2CF4695F1DF08C01616170689
S11348201806991FF1CF86957105610508940895BE
S1134830E894BB2766277727CB0197F908950BD017
S1134840C4CFB5DF28F0BADF18F0952309F0A6CF5E
S1134850ABCF1124EECFCADFA0F3959FD1F3950F10
S113486050E0551F629FF001729FBB27F00DB11DF0
S1134870639FAA27F00DB11DAA1F649F6627B00D80
S1134880A11D661F829F2227B00DA11D621F739F69
S1134890B00DA11D621F839FA00D611D221F749F77
S11348A03327A00D611D231F849F600D211D822FBE
S11348B0762F6A2F11249F5750408AF0E1F0882305
S11348C04AF0EE0FFF1FBB1F661F771F881F915012
S11348D05040A9F79E3F510570F060CFAACF5F3FCB
S11348E0ECF3983EDCF3869577956795B795F79545
S11348F0E7959F5FC1F7FE2B880F911D96958795CD
S113490097F90895EE0FFF1F881F8BBF0790F6914C
S1134910E02D19940F931F93CF93DF93869F80010B
S1134920879F100D969F100D1124C8010DD0EC0126
S1134930009721F0A80160E070E034D1CE01DF914E
S1134940CF911F910F9108950F931F93CF93DF93EE
S11349508230910510F482E090E0E0915A13F091D6
S11349605B1320E030E0A0E0B0E0309719F1408123
S113497051810281138148175907C8F0841795079C
S113498069F4109731F012960C93129713961C93B6
S113499027C000935A1310935B1322C021153105CD
S11349A019F04217530718F49A01BD01EF01DF0112
S11349B0F801DBCF21153105F9F0281B390B243020
S11349C0310580F48A819B816115710521F0FB0119
S11349D09383828304C090935B1380935A13FE01E4
S11349E0329644C0FE01E20FF31F8193919322504B
S11349F03109398328833AC02091581330915913CF
S1134A00232B41F420910202309103023093591375
S1134A102093581320910002309101022115310591
S1134A2041F42DB73EB74091040250910502241B76
S1134A30350BE0915813F0915913E217F307A0F4E2
S1134A402E1B3F0B2817390778F0AC014E5F5F4FE0
S1134A502417350748F04E0F5F1F509359134093A6
S1134A6058138193919302C0E0E0F0E0CF01DF910D
S1134A70CF911F910F910895CF93DF93009709F47D
S1134A8081C0FC01329713821282A0915A13B09113
S1134A905B13109781F420813181820F931F209141
S1134AA05813309159132817390751F5F0935913B6
S1134AB0E093581367C0ED0120E030E0CE17DF0724
S1134AC040F44A815B819E0141155105F1F0EA01F0
S1134AD0F5CFD383C28340815181840F951FC817BA
S1134AE0D90759F488819981840F951F029691837F
S1134AF080838A819B81938382832115310529F4E4
S1134B00F0935B13E0935A133DC0E901FB83EA83FE
S1134B1049915991C40FD51FEC17FD0761F48081A9
S1134B209181840F951F0296E9019983888382817C
S1134B3093819B838A83E0E0F0E012968D919C91AF
S1134B401397009719F0FD01DC01F7CF8D919C912B
S1134B5011979D012E5F3F4F820F931F2091581391
S1134B60309159132817390769F4309729F41092B2
S1134B705B1310925A1302C013821282B09359131A
S1134B80A0935813DF91CF91089581E090E0F894B9
S1134B907DC3FB01DC0102C001900D9241505040E5
S1134BA0D8F70895DC0101C06D9341505040E0F7FF
S1134BB00895FB0151915523B1F0BF01DC01052E8D
S1134BC04D91442369F010D0D9F7CD010190002014
S1134BD049F04D91411108D0C9F3FB014111EECFC9
S1134BE081E090E001970895402539F0403229F49E
S1134BF040294B57465E08F018940895FB01DC01E8
S1134C000D900020E9F7119701900D920020E1F733
S1134C100895FB01DC0101900D920020E1F7089555
S1134C20FB01DC014150504088F08D9181341CF02F
S1134C308B350CF4805E619161341CF06B350CF49F
S1134C40605E861B611171F3990B0895881BFCCF7C
S1134C50CF93DF93CDB7DEB7AE014A5F5F4FFA0162
S1134C6061917191AF0180915E1390915F1361D056
S1134C70DF91CF9108950F931F93CF93DF93E0912A
S1134C805E13F0915F13238121FF1BC08C01D0E0E0
S1134C90C0E0F80181918F0160915E1370915F1300
S1134CA0DB011896ED91FC911997882331F0199541
S1134CB0892B79F3DFEFCFEFECCF8AE01995892BBD
S1134CC019F08FEF9FEF02C08D2F9C2FDF91CF91B2
S1134CD01F910F9108950F931F93CF93DF93CDB737
S1134CE0DEB72E970FB6F894DEBF0FBECDBF0E8988
S1134CF01F8986E08C831A8309838FEF9FE79E8345
S1134D008D83AE01465E5F4F688D798DCE0101962D
S1134D1010D0EF81F885E00FF11F10822E960FB6A8
S1134D20F894DEBF0FBECDBFDF91CF911F910F91DD
S1134D3008952F923F924F925F926F927F928F923B
S1134D409F92AF92BF92CF92DF92EF92FF920F9316
S1134D501F93CF93DF93CDB7DEB72B970FB6F8949D
S1134D60DEBF0FBECDBF6C017B018A01FC0117823F
S1134D701682838181FFBFC1CE0101963C01F601F9
S1134D809381F70193FD859193FF81917F0188239E
S1134D9009F4ADC1853239F493FD859193FF819176
S1134DA07F01853221F4B60190E0D6D1E8CF912C71
S1134DB0212C312CFFE1F315D8F08B3279F038F443
S1134DC0803279F08332A1F4232D20611DC08D320D
S1134DD061F0803369F4232D216016C0832D826035
S1134DE0382EE32DE4603E2E2AC0F32DF8601DC05A
S1134DF037FC2DC020ED280F2A3040F08E32B9F454
S1134E0036FC75C1232D2064322E19C036FE06C02F
S1134E108AE0989E200D1124922E11C0EAE02E9E65
S1134E20200D1124222EF32DF0623F2E08C08C3663
S1134E3021F4832D8068382E02C0883641F4F701AE
S1134E4093FD859193FF81917F018111B3CF982FB9
S1134E509F7D9554933028F40C5F1F4F9FE39983F3
S1134E600DC0833631F0833771F0833509F055C0B6
S1134E7020C0F801808189830E5F1F4F88248394AA
S1134E80912C530112C02801F2E04F0E511CF8017D
S1134E90A080B18036FE03C0692D70E002C06FEFC0
S1134EA07FEFC5014ED14C018201F32DFF773F2ED8
S1134EB015C0280122E0420E511CF801A080B180E7
S1134EC036FE03C0692D70E002C06FEF7FEFC501AD
S1134ED02DD14C01F32DF0683F2E820133FC19C013
S1134EE0822D90E088169906A0F4B60180E290E045
S1134EF033D12A94F5CFF50137FC859137FE8191A2
S1134F005F01B60190E028D121102A9421E0821A91
S1134F1091088114910479F7E1C0843611F089363F
S1134F2039F5F80137FE07C0608171818281938170
S1134F300C5F1F4F08C060817181072E000C880B25
S1134F40990B0E5F1F4FF32DFF763F2E97FF09C07D
S1134F5090958095709561957F4F8F4F9F4FF06826
S1134F603F2E2AE030E0A30133D1882E861844C0B6
S1134F70853731F4232D2F7EB22E2AE030E025C070
S1134F80932D997FB92E8F36C1F018F4883579F0B6
S1134F90AEC0803719F0883721F0A9C0E92FE0614D
S1134FA0BE2EB4FE0DC0FB2DF460BF2E09C034FE2E
S1134FB00AC0292F2660B22E06C028E030E005C0C2
S1134FC020E130E002C020E132E0F801B7FE07C082
S1134FD060817181828193810C5F1F4F06C0608163
S1134FE0718180E090E00E5F1F4FA301F1D0882E05
S1134FF08618FB2DFF773F2E36FE0DC0232D2E7F06
S1135000A22E891458F434FE0BC032FC09C0832D3F
S11350108E7EA82E05C0B82CA32C03C0B82C01C0CA
S1135020B92CA4FE0FC0FE01E80DF11D8081803370
S113503021F49A2D997EA92E09C0A2FE06C0B3942C
S1135040B39404C08A2D867809F0B394A3FC10C0ED
S1135050A0FE06C0B21480F4280C922C9B180DC03C
S1135060B21458F4B60180E290E076D0B394F8CF4D
S1135070B21418F42B1802C0982C212CA4FE0FC0D3
S1135080B60180E390E068D0A2FE16C0A1FC03C084
S113509088E790E002C088E590E0B6010CC08A2D54
S11350A0867851F0A1FE02C08BE201C080E2A7FC29
S11350B08DE2B60190E050D0891430F4B60180E35B
S11350C090E04AD09A94F8CF8A94F301E80DF11D48
S11350D08081B60190E040D08110F6CF222009F4FF
S11350E04ECEB60180E290E037D02A94F7CFF60195
S11350F08681978102C08FEF9FEF2B960FB6F894AD
S1135100DEBF0FBECDBFDF91CF911F910F91FF90F6
S1135110EF90DF90CF90BF90AF909F908F907F9053
S11351206F905F904F903F902F900895FC010590F1
S1135130615070400110D8F7809590958E0F9F1F95
S11351400895FC016150704001900110D8F78095DA
S113515090958E0F9F1F08950F931F93CF93DF9306
S1135160FB01238121FD03C08FEF9FEF2CC022FFA1
S113517016C046815781248135814217530744F470
S1135180A081B1819D012F5F3F4F318320838C9398
S1135190268137812F5F3F4F3783268314C08B01CD
S11351A0EC01FB010084F185E02D1995892BE1F6D2
S11351B0D80116968D919C911797019617969C93FA
S11351C08E931697CE01DF91CF911F910F91089581
S11351D0FA01AA27283051F1203181F1E8946F9324
S11351E06E7F6E5F7F4F8F4F9F4FAF4FB1E03ED0CA
S11351F0B4E03CD0670F781F891F9A1FA11D680F68
S1135200791F8A1F911DA11D6A0F711D811D911D9A
S1135210A11D20D009F468943F912AE0269F11240F
S11352203019305D3193DEF6CF010895462F477073
S1135230405D4193B3E00FD0C9F7F6CF462F4F70CE
S1135240405D4A3318F0495D31FD4052419302D02C
S1135250A9F7EACFB4E0A6959795879577956795D2
S1135260BA95C9F700976105710508959B01AC01D2
S11352700A2E06945795479537952795BA95C9F7F9
S1135280620F731F841F951FA01D0895F894FFCF0C
S113529000006213200009C600CE00D600360100CB
S11352A000000300000000962081200000A027BE1B
S11352B033E034C1332042C43360E5AE33A0F2B1ED
S11352C033E0FFB433200DB833601ABB3349444C88
S11352D04500546D722053766300466163746F72A7
S11352E0795265736574203E25733C0A00436F6EE2
S11352F066696775726520746F20455538363820A5
S11353003E25733C0A00476574204857455549209B
S11353103E25733C3A2025730A0053657420446586
S1135320764555493A202573203E25733C0A0032C0
S113533036364632303944354431463135413241CE
S11353404638374630313344433030323932360010
S113535042444632323241344334323137424334A8
S113536000536574204F544141204964656E74694B
S11353707479206170704555493A257320617070C5
S11353804B45593A2573206465764555493A25734A
S1135390203E25733C0A0053617665206D616320CD
S11353A03E25733C0A00536574204164617074693E
S11353B07665204461746120526174653A204F4ED1
S11353C0203E25733C0A0053657420526563656969
S11353D07665722044656C61793A202564206D738A
S11353E0203E25733C0A006875697461007A61691E
S11353F06269736900696E61696E74652064652011
S1135400736574757000647570612073657475706C
S11354100061752074726563757420333020736580
S113542063756E64650064756F6120676574746983
S1135430636B6574636F756E7400696E61696E7415
S113544065206465207461736B64656C6179756E45
S113545074756C6C0064757061207461736B646541
S11354606C6179756E74756C6C0055706C6F6164E9
S1135470204D657373616765203E25733C0A004CBB
S11354805248616E64005461736B31005461736BF4
S1135490320050726F6772616D205374617274656B
S11354A064212100737973207265736574006D61E2
S11354B063207061757365006D6163207265737537
S11354C06D650073797320666163746F72795245F8
S11354D05345540073797320676574206877657544
S11354E069006D6163206765742067776E62006D83
S11354F0616320736574206C696E6B63686B20252F
S113550064006D61632073657420646576657569F4
S1135510006D616320736574206170706575690046
S11355206D616320736574206170706B6579006DC3
S1135530616320736574206E776B736B6579006D9E
S113554061632073657420617070736B6579006D9D
S11355506163207365742064657661646472006DB0
S113556061632073617665006D6163206A6F696EA3
S113557000756E636E66006D616320747820257318
S1135580202564202573006F6666006D61632073B7
S1135590657420616472006D6163206765742061C5
S11355A06472006D616320736574206472202564E5
S11355B0006D616320676574206472006D6163200F
S11355C073657420727864656C6179312025640098
S11355D06D616320736574206172202573006D61B1
S11355E063206765742061720033203836393532A0
S11355F035303030006D6163207365742072783209
S1135600006D61632073657420636820646379634B
S11356106C6520256420373939006D61632073651A
S113562074206368206672657120256420256C757A
S1135630006D616320736574206368206472726115
S11356406E676520256420302037006D6163207308
S113565065742063682073746174757320256420F5
S11356606F6E006D61632073657420707772696476
S1135670782031006D6163207365742072657478DD
S11356802037006F74616100616270004B455953AB
S11356905F4E4F545F494E4954004E4F5F4652454A
S11356A0455F43480053494C454E540042555359B5
S11356B0004D41435F5041555345440044454E49D4
S11356C0454400414343455054454400494E5641E6
S11356D04C49445F504152414D004E4F545F4A4F34
S11356E0494E454400494E56414C49445F44415457
S11356F0415F4C454E004652414D455F434F554E28
S11357005445525F4552525F52454A4F494E5F4E8F
S11357104545444544004D41435F54585F4F4B0059
S11357204D41435F5258004D41435F4552524F52E1
S113573000554E4B4E4F574E00F305F805008D06AD
S1135740019B0602FC05030A06041506051C060651
S11357502106072C06083306093C060A4A060B559F
S1135760060C66060D86060E90060F970610A10617
S10B577048414C5F4C45440024
S9030000FC
