:10000000E5C0000004C1000002C1000000C1000002
:10001000FEC00000FCC00000FAC00000F8C00000F4
:10002000F6C00000F4C00000F2C00000F0C0000004
:1000300077C60000ECC00000EAC00000E8C0000085
:10004000E6C00000E4C00000E2C00000E0C0000024
:10005000DEC00000DCC00000DAC00000D8C0000034
:10006000D6C000000C94A7270C94F927D0C000003C
:10007000CEC00000CCC00000CAC00000C8C0000054
:10008000C6C00000C4C00000C2C00000C0C0000064
:100090000C943D280C948F28BAC000000C94472C77
:1000A000B6C00000B4C00000B2C00000B0C0000084
:1000B000AEC00000ACC00000AAC00000A8C0000094
:1000C000A6C00000A4C00000A2C000000C94D32869
:1000D0000C9425299CC000000C9469290C94BB2920
:1000E00096C00000641C641C641C9B1CA31CB81CF0
:1000F000641C641C9B1CA31C692CD92CD92CD92CE6
:10010000D92CD92CD92CD92C692CD92CD92CD92C37
:10011000D92CD92CD92CD92C6B2CD92CD92CD92C25
:10012000D92CD92CD92CD92CD92CD92CD92CD92CA7
:10013000D92CD92CD92CD92C6B2CD92CD92CD92C05
:10014000D92CD92CD92CD92CD92CD92CD92CD92C87
:10015000D92CD92CD92CD92CD52CD92CD92CD92C7B
:10016000D92CD92CD92CD92CA02CD92CD92CD92CA0
:10017000D92CD92CD92CD92CD92CD92CD92CD92C57
:10018000D92CD92CD92CD92C942CD92CD92CD92C8C
:10019000D92CD92CD92CD92CB82C0E94A50E809101
:1001A0002316823008F0F6D40E94E11CF6CFCF93DC
:1001B000DF931F92CDB7DEB7CE0101960E94E11901
:1001C00049810E94D61B0E942D1CF6CF11241FBE10
:1001D000CFEFD1E2DEBFCDBF00E00CBF19E0A0E061
:1001E000B2E0EEEEF7E600E00BBF02C007900D9222
:1001F000A234B107D9F728E1A2E4B9E001C01D9209
:10020000AD3AB207E1F70E945A200C94F533F8CECC
:100210000F931F93CF93DF9300D000D0CDB7DEB7FD
:1002200000E010E013C0B801660F771F81E090E096
:100230008C0F9D1F680F791F2FEF3FEFA901809151
:100240009718909198188BD70F5F1F4F03301105A7
:1002500054F389819A810E94EB1E8B819C810E94BC
:10026000F01E8D819E810E94E61E60E080919718AD
:10027000909198182FD626960FB6F894DEBF0FBE31
:10028000CDBFDF91CF911F910F910895CC24CA94D7
:10029000DC2C760101E021E043E050E060E070E01A
:1002A00080919F189091A01820D1DC01CB01837020
:1002B0009927AA27BB270397A105B105B1F48FE6BB
:1002C00092E00E94EA30A4DF6AEB70E080E090E008
:1002D0000E94711200E020E030E0A90160E070E0CF
:1002E00080919B1890919C186DD663E070E080E03F
:1002F00090E00E947112CACFEF92FF920F93E12C0F
:10030000F12C01E020E030E040EC50E062E872E0E7
:1003100086E491E00E946C0F0F91FF90EF9008959A
:100320000F93CF93DF931F921F92CDB7DEB79A83BF
:10033000898300E02FEF3FEFA901BE016F5F7F4F80
:1003400080919718909198183DD641E050E060E078
:1003500070E080919F189091A01867D10F900F9036
:10036000DF91CF910F91089583E00C94D9250895E2
:100370000E94032680937518882321F08AE892E072
:100380000C94EA300895CC24CA94DC2C760101E068
:1003900020E042E050E060E070E080919F18909192
:1003A000A018A3D061FDE4DF6EE170E080E090E092
:1003B0000E947112E8CFEF92FF920F93D5DF80E990
:1003C00091E00E94FE25E12CF12C01E020E030E0DC
:1003D00040EC50E061EA72E083EC91E00E946C0F27
:1003E0000F91FF90EF9008950F938CE98093781808
:1003F00043E060E081E0C3D590937718809376184E
:1004000000E020E030E0A90160E070E0DBD50F9172
:1004100008950F93CF93C82F4FEF5FEFBA018091EC
:100420007618909177182DD7813069F4C093781899
:1004300000E020E030E0A90160E070E080917618F3
:1004400090917718BFD5CF910F9108950F934FEFEB
:100450005FEFBA01809176189091771812D78130AA
:1004600071F400E020E030E0A90160E070E08091EC
:10047000761890917718A6D58091781800C00F91C2
:1004800008950F9301110CC0DC01CB01822393234B
:10049000A423B523892B8A2B8B2B79F480E010C001
:1004A000DC01CB0182239323A423B523281739072A
:1004B0004A075B0721F080E003C081E001C081E0D2
:1004C0000F910895CF93DF938FE090E0AFD1EC01CF
:1004D000009739F0FC011192119211921192CF0103
:1004E0008BD2CE01DF91CF9108952F923F924F9200
:1004F0005F926F927F928F929F92AF92BF92CF92B4
:10050000DF92EF92FF920F931F93CF93DF93EC0153
:100510004A015B01622E702E0E94F00F2880398004
:100520004A805B80A5019401C201B101AADF882342
:10053000A1F0662089F1D501C40180959095A09520
:10054000B09582219321A421B52188839983AA8320
:10055000BB83C12CD12C760122C0C114D104E1048B
:10056000F104E9F0611004C040E050E0BA0104C0B9
:1005700040E050E060E071E0711074604829592952
:100580006A297B2997018601CE0104960E940813EF
:10059000212C312C210103C0C12CD12C76010E94C9
:1005A0003011CD28CE28CF2859F1811101C0F2D2C7
:1005B0000E94CA166B017C0191FD1FC00FB6F89412
:1005C0000F92C880D980EA80FB80072DA501940195
:1005D000C701B60156DF882371F0662061F0809470
:1005E0009094A094B0948C209D20AE20BF2088824F
:1005F0009982AA82BB820F900FBE16012701552453
:10060000C201B101DF91CF911F910F91FF90EF9047
:10061000DF90CF90BF90AF909F908F907F906F9022
:100620005F904F903F902F9008954F925F926F92FE
:100630007F92AF92BF92CF92DF92EF92FF920F9391
:100640001F93CF93DF93EC016A017B018C01095F5B
:100650001F4F0E94F00FEB85FC8588819981AA814C
:10066000BB81C82AD92AEA2AFB2AC882D982EA820F
:10067000FB82C12CD12C76013DC0A480B580808145
:100680009181A281B381AC01BD017727B2FD0EC07B
:10069000488059806A807B804422552266227722D6
:1006A00045284628472889F420E012C04880598010
:1006B0006A807B80442255226622772244155505A4
:1006C0006605770521F020E003C021E001C021E0AC
:1006D000222371F0B0FF04C0C42AD52AE62AF72AE3
:1006E000488159816A817B817260CF010E944314E5
:1006F000EA2DFB2DE017F10709F0BFCFC094D0948D
:10070000E094F09488819981AA81BB81C822D92282
:10071000EA22FB22C882D982EA82FB820E9430113F
:10072000688179818A819B81DF91CF911F910F919F
:10073000FF90EF90DF90CF90BF90AF907F906F9041
:100740005F904F900895EEE4F9E0A2E5B9E0B1833F
:10075000A08313821282EEECF5E1F0934D09E09351
:100760004C0913821282118210828CE79CE013964E
:100770009C938E931297ED93FC93909349098093E9
:10078000480990934B0980934A0980E090E8909340
:100790004309809342090895CF93DF93EC01AEE4BF
:1007A000B9E001C0DF01ED91FC911197EC17FD0755
:1007B000C8F312968D919C9113979D01280F391FB4
:1007C000C217D30749F42A813B81820F931F1396E6
:1007D0009C938E931297ED018A819B819E01280F35
:1007E000391FE217F307C1F420914C0930914D09EC
:1007F000E217F30771F022813381820F931F9B83ED
:100800008A83ED91FC9111978081918199838883EE
:1008100005C03983288302C0F983E883CA17DB0740
:1008200011F0CD93DC93DF91CF910895EF92FF9279
:100830000F931F93CF93DF938C010E94F00F809151
:100840004C0990914D09892B09F47DDF8091420973
:100850009091430980239123892B09F076C00115DB
:10086000110549F0C80104960817190718F000E0AF
:1008700010E001C08C010115110509F469C08091D7
:100880004A0990914B098017910708F464C0C09100
:100890004E09D0914F09EEE4F9E002C0FE01EC01EF
:1008A0008A819B818017910720F488819981009724
:1008B000A9F780914C0990914D09C817D90709F4FF
:1008C0004DC0E080F18084E0E80EF11C88819981C0
:1008D000918380832A813B81201B310B2930310594
:1008E00048F0CE01800F911FFC01338322831B83CC
:1008F0000A8352DF2A813B8180914A0990914B09FA
:10090000821B930B90934B0980934A0940914809AD
:10091000509149098417950720F4909349098093D1
:1009200048098091420990914309282B392B3B8338
:100930002A8319821882809146099091470901966D
:1009400090934709809346090BC0E12CF12C08C015
:10095000E12CF12C05C0E12CF12C02C0E12CF12C92
:100960000E943011E114F10411F40E94ED1CC70142
:10097000DF91CF911F910F91FF90EF9008950F930A
:100980001F93CF93DF93009791F1EC0124974A8155
:100990005B812091420930914309BA01622373239C
:1009A000672B29F168817981672B09F520953095AE
:1009B000242335233B832A830E94F00F8A819B8165
:1009C00020914A0930914B09820F931F90934B0954
:1009D00080934A09CE01E0DE809144099091450957
:1009E000019690934509809344090E943011DF914C
:1009F000CF911F910F910895FC01039692838183FB
:100A00004FEF5FEFBA01438354836583768390870A
:100A100087839287818710820895FC01138612864E
:100A200008950F931F93CF93DF93EB0108811981F2
:100A30002A813B810F3F4FEF14072407340721F42D
:100A4000FC01A185B28511C0DC01139601C0DF0154
:100A50001496ED91FC9115974081518162817381CB
:100A6000041715072607370790F71496ED91FC91A8
:100A70001597FD83EC83D783C683BF83AE8315961A
:100A8000DC93CE9314979B878A87FC0120812F5F8C
:100A90002083DF91CF911F910F910895CF93DF9322
:100AA000FC01A285B385C481D581868197819F830E
:100AB0008E83C681D781848195819D838C83119695
:100AC0008D919C911297E817F90731F486819781EF
:100AD00012969C938E931197138612868C91815057
:100AE0008C938C91DF91CF910895A89590EC88E13B
:100AF0000FB6F894A895809360000FBE90936000A5
:100B00000895FC016083319770833197108231978B
:100B10001082319720E8208331971082319710821C
:100B20003197108277974083319750838697089545
:100B3000DCDFA0919116B0919216CD91CDBFDD91E1
:100B4000DEBFFF91EF91DF91CF91BF91AF919F9168
:100B50008F917F916F915F914F913F912F911F9155
:100B60000F91FF90EF90DF90CF90BF90AF909F904C
:100B70008F907F906F905F904F903F902F901F903D
:100B80000F900CBE0F900BBE0F900FBE0F900895EC
:100B900081E008950F920FB6F8940F920BB60F9262
:100BA0000CB60F921F9211242F923F924F925F9298
:100BB0006F927F928F929F92AF92BF92CF92DF926D
:100BC000EF92FF920F931F932F933F934F935F9357
:100BD0006F937F938F939F93AF93BF93CF93DF9345
:100BE000EF93FF93A0919116B09192160DB60D92CE
:100BF0000EB60D920E948C12A0919116B091921691
:100C0000CD91CDBFDD91DEBFFF91EF91DF91CF910F
:100C1000BF91AF919F918F917F916F915F914F9114
:100C20003F912F911F910F91FF90EF90DF90CF9008
:100C3000BF90AF909F908F907F906F905F904F90FC
:100C40003F902F901F900F900CBE0F900BBE0F90F7
:100C50000FBE0F9008950F920FB6F8940F920BB637
:100C60000F920CB60F921F9211242F923F924F9227
:100C70005F926F927F928F929F92AF92BF92CF922C
:100C8000DF92EF92FF920F931F932F933F934F9317
:100C90005F936F937F938F939F93AF93BF93CF9304
:100CA000DF93EF93FF93A0919116B09192160DB63A
:100CB0000D920EB60D9213BE0E94041081110E9477
:100CC0008C12A0919116B0919216CD91CDBFDD916D
:100CD000DEBFFF91EF91DF91CF91BF91AF919F91D7
:100CE0008F917F916F915F914F913F912F911F91C4
:100CF0000F91FF90EF90DF90CF90BF90AF909F90BB
:100D00008F907F906F905F904F903F902F901F90AB
:100D10000F900CBE0F900BBE0F900FBE0F9008955A
:100D20009ADF1895DC0153962C915397222341F0BA
:100D30005A96ED91FC915B9790818AE0891B08950A
:100D400080E008950FB6F8940F92FC01868D811112
:100D500002C081E001C080E00F900FBE08950FB681
:100D6000F8940F92FC01268D878D281302C081E034
:100D700001C080E00F900FBE08950F931F93CF9393
:100D8000DF93EC01042F1E8D48A141110CC0888116
:100D90009981892B09F042C08C819D810E9408169F
:100DA0001D821C8242C0011117C050E08A819B81C4
:100DB0000E94783028A18A819B81820F911D9B839C
:100DC0008A832C813D818217930750F18881998114
:100DD0009B838A8380E029C050E08E819F810E949E
:100DE000783088A190E09195819591092E813F817D
:100DF000280F391F3F832E834881598124173507D7
:100E000030F42C813D81820F931F9F838E830230AB
:100E100049F4112349F0115080E007C080E005C07B
:100E200080E003C080E001C080E01F5F1E8FDF9183
:100E3000CF911F910F910895FC0140A14423A9F087
:100E400050E026813781240F351F37832683848124
:100E500095812817390720F08081918197838683B7
:100E6000CB01668177810C94783008951F93CF93DE
:100E7000DF93EC010FB6F8940F921AA10BC08B8987
:100E8000882351F0CE0143960E94941381110E9451
:100E90006A15115011169CF38FEF8AA30F900FBEA5
:100EA0000FB6F8940F9219A10BC08885882351F0D2
:100EB000CE0108960E94941381110E946A15115068
:100EC00011169CF38FEF89A30F900FBEDF91CF9186
:100ED0001F910895CF93DF93EC010FB6F8940F9212
:100EE000E881F9818F8D28A190E030E0829FA001F8
:100EF000839F500D929F500D11244E0F5F1F5D83F5
:100F00004C831E8EFB83EA830197289FA001299FB3
:100F1000500D389F500D1124CF01840F951F9F83D2
:100F20008E838FEF89A38AA361110BC088858823E4
:100F300071F0CE0108960E949413882341F02ADEB6
:100F400006C0CE01089658DDCE01439655DD0F90C0
:100F50000FBE81E0DF91CF9108950F931F93F801A9
:100F6000611103C01183008302C051834083878FC6
:100F700060A361E0CF01AEDF1F910F910895DF9272
:100F8000EF92FF920F931F93CF93DF93F82EE62EED
:100F9000D42E869FC0011124839648DCEC01009773
:100FA00041F08C012D2DAC014D5D5F4F6E2D8F2DCD
:100FB000D4DFCE01DF91CF911F910F91FF90EF9081
:100FC000DF900895CF92DF92EF92FF920F931F93DD
:100FD000CF93DF93CDB7DEB729970FB6F894DEBF76
:100FE0000FBECDBF7C016B012E833F83488759879D
:100FF00010E00FB6F8940F92F701968D878D981731
:1010000010F00230B1F4402FB601C701B6DEF7018F
:101010009389992341F0C70143960E949413882332
:1010200021F0B8DD02C08111B5DD0F900FBE81E067
:101030004CC08E819F81A885B985892B8A2B8B2BEB
:1010400021F40F900FBE80E040C0111105C0CE0109
:1010500001960E94F31411E00F900FBEC1D70FB696
:10106000F8940F92F70181A18F3F09F411A2F701C3
:1010700082A18F3F09F412A20F900FBEBE016A5FDA
:101080007F4FCE0101960E940415811119C0C7013E
:1010900066DE882381F04E815F8168857985C7018E
:1010A00008960E94F112C701E1DE0E943011811101
:1010B000A0CF70DD9ECFC701D9DE0E94301199CF3D
:1010C000C701D4DE0E94301180E029960FB6F89453
:1010D000DEBF0FBECDBFDF91CF911F910F91FF906B
:1010E000EF90DF90CF900895EF92FF920F931F93B0
:1010F000CF93DF938A01FC01568D378D531710F083
:101100002230F9F4422F7801EC011AA18E8DCE0124
:1011100034DE1F3F81F48B898823A9F0CE014396EA
:101120000E949413882389F0E114F10481F081E096
:10113000F70180830DC0FF24F394F10EFAA281E041
:1011400007C080E005C081E003C081E001C081E00C
:10115000DF91CF911F910F91FF90EF900895CF9263
:10116000DF92EF92FF920F931F93CF93DF93CDB750
:10117000DEB729970FB6F894DEBF0FBECDBF8C0146
:101180006B012E833F8348875987E12C0FB6F89473
:101190000F92F801F68CFF2099F0B601C8014CDEE1
:1011A000FA94F801F68E8085882331F0C8010896FC
:1011B0000E9494138111EEDC0F900FBE81E052C0AB
:1011C0008E819F81A885B985892B8A2B8B2B21F451
:1011D0000F900FBE80E046C0E11006C0CE01019620
:1011E0000E94F314EE24E3940F900FBEF9D60FB6CD
:1011F000F8940F92F80181A18F3F09F411A2F80130
:1012000082A18F3F09F412A20F900FBEBE016A5F48
:101210007F4FCE0101960E940415811119C0C801AB
:1012200091DD882381F04E815F8168857985C801D1
:1012300043960E94F112C80119DE0E9430118111FB
:10124000A5CFA8DCA3CFC80111DE0E9430119ECF2C
:10125000C8010CDE0E943011C80174DD882309F436
:1012600095CF80E029960FB6F894DEBF0FBECDBFB4
:10127000DF91CF911F910F91FF90EF90DF90CF9072
:101280000895EF92FF920F931F93CF93DF93CDB703
:10129000DEB729970FB6F894DEBF0FBECDBF8C0125
:1012A0004E835F8368877987E12CF12C0FB6F89421
:1012B0000F92F801868D8823C9F08150868F808136
:1012C0009181892B29F40E94F416F8019583848377
:1012D000F8018085882331F0C80108960E94941394
:1012E000811158DC0F900FBE81E06FC08E819F810D
:1012F000A885B985892B8A2B8B2B21F40F900FBEE3
:1013000080E063C0F11006C0CE0101960E94F31484
:10131000FF24F3940F900FBE63D60FB6F8940F928C
:10132000F80181A18F3F09F411A2F80182A18F3F3A
:1013300009F412A20F900FBEBE016A5F7F4FCE016B
:1013400001960E940415811126C0C801FBDC882388
:10135000F1F0F80180819181892B51F40FB6F89456
:101360000F92848195810E948115E82E0F900FBE07
:101370004E815F8168857985C80143960E94F1128C
:10138000C80174DD6DD7811191CF04DC8FCFC80106
:101390006DDD66D78BCFC80169DD62D7C801D2DCAD
:1013A000882309F483CFEE2079F00FB6F8940F92DA
:1013B000C801B8DC682FF801848195810E9463160A
:1013C0000F900FBE80E001C080E029960FB6F89420
:1013D000DEBF0FBECDBFDF91CF911F910F91FF9068
:1013E000EF900895CF93DF93EC010FB6F8940F922E
:1013F00089A18F3F09F419A28AA18F3F09F41AA28B
:101400000F900FBE8E8D811104C0CE0143960E94B5
:101410005213CE012BDDDF91CF910895FC01448161
:10142000558122813381240F351F80819181B9013B
:10143000681B790BCB016417750710F0841B950BA3
:1014400008950F93FC018FE0DF011D928A95E9F763
:1014500075876487558344833783268306870F9176
:101460000895AF92BF92CF92DF92EF92FF920F93C7
:101470001F93CF93DF936C015B017A01FC01C28162
:10148000D381048115810C1B1D0B4017510708F4F3
:101490008A01F60184859585A801B5018C0F9D1FF1
:1014A0000E9478300E151F0558F4A701401B510B00
:1014B000B501600F711FF601848595850E94783013
:1014C000CE018E0D9F1DF601248135818217930771
:1014D00010F0821B930BF60193838283C701DF9187
:1014E000CF911F910F91FF90EF90DF90CF90BF9021
:1014F000AF900895CF92DF92EF92FF920F931F93D8
:10150000CF93DF931F921F92CDB7DEB77C016B01A3
:101510005A83498321153105C1F0FC01868580FD80
:1015200008C04217530708F49A013A83298381E0DF
:101530000FC02017310758F042E050E0BE016F5F46
:101540007F4FC7018EDF81E003C080E001C080E0F3
:10155000882331F049815A81B601C70182DF02C078
:1015600080E090E00F900F90DF91CF911F910F914D
:10157000FF90EF90DF90CF900895AF92BF92CF92FF
:10158000DF92EF92FF920F931F93CF93DF937C0133
:101590005B01E9014217530708F4EA01209781F142
:1015A000F7010081118184819581801B910B6E016F
:1015B0008C179D0708F46C01F70164857585600F31
:1015C000711FA601C5010E947830CC16DD0658F4C3
:1015D000AE014C195D09F70164857585C5018C0D57
:1015E0009D1D0E9478300C0F1D1FF701848195818D
:1015F0000817190710F0081B190BF7011183008356
:10160000CE01DF91CF911F910F91FF90EF90DF906E
:10161000CF90BF90AF9008956F927F928F929F92DC
:10162000AF92BF92CF92DF92EF92FF920F931F93F0
:10163000CF93DF931F921F92CDB7DEB76C014B01A2
:101640005A01790101151105B1F0FC01608071802A
:10165000A801BE016F5F7F4F90DF89819A81E01AF8
:10166000F10AA816B90630F4F60171826082A12C45
:10167000B12C01C05C019701A501B401C6017DDF59
:101680000F900F90DF91CF911F910F91FF90EF90EE
:10169000DF90CF90BF90AF909F908F907F906F9092
:1016A0000895CF92DF92EF92FF920F93CF93DF9343
:1016B000EC016B01413011F401E001C000E0C11404
:1016C000D10419F4CC24C394D12CCE014096C81770
:1016D000D90720F42196AAD87C0102C0E12CF12C74
:1016E000E114F10439F09601AE01B701615F7F4F5B
:1016F000C701A7DEC701DF91CF910F91FF90EF9057
:10170000DF90CF9008950F930FB6F8940F92FC01DD
:1017100020853185232B71F422853385232B61F4B9
:10172000268137814481558164857585068589DEEA
:1017300081E003C080E001C080E00F900FBE0F91F8
:101740000895FC012481358180819181820F931F4E
:1017500042815381841B950B01978217930710F0E8
:10176000821B930B08952F923F924F925F926F923C
:101770007F928F929F92AF92BF92CF92DF92EF9221
:10178000FF920F931F93CF93DF93CDB7DEB72B97C5
:101790000FB6F894DEBF0FBECDBF4C017B876A87C2
:1017A0001A010E831F8328873987FC018481958164
:1017B0000197268520FF0CC02A01F2E04F0E511C34
:1017C0008415950558F41E821F821886198606C056
:1017D0008417950710F02A0101C02C018E819F818A
:1017E000A885B985892B8A2B8B2B09F438C0CE01AB
:1017F00001960E94DD140FB6F8940F92C401A1DF88
:101800003C018415950540F560E080E090E00E9481
:10181000C7190E946E15F401938782870F900FBE3F
:10182000AE80BF80C884D984E12CF12C00E010E0A8
:10183000980140E050E0BA0180E00E940617F401F0
:1018400013861286BE016A5F7F4FCE0101960E9409
:101850000415882381F205C00F900FBE02C0612CD1
:10186000712C6114710419F4C4016BDF3C01820115
:101870009301A1016A857B85C4013CDE6C01892B43
:10188000E9F0C401CBDDF40126813781821793078B
:10189000A8F0A6D3F40180859185892B71F080850D
:1018A0009185E12CF12C00E020E030E0A90160E01E
:1018B0000E94AE17F40111861086D2D4C6012B9671
:1018C0000FB6F894DEBF0FBECDBFDF91CF911F9151
:1018D0000F91FF90EF90DF90CF90BF90AF909F90CF
:1018E0008F907F906F905F904F903F902F900895D2
:1018F000AF92BF92CF92DF92EF92FF920F931F931E
:10190000CF93DF93EC017B015A0169018E8580FF43
:1019100004C08A010E5F1F4F01C08A01CE0111DF92
:101920009C01A501B701CE01E5DD5C01892BC1F069
:10193000CE0174DD2E813F818217930788F0888560
:101940009985892B69F088859985E12CF12C00E037
:1019500020E030E0A90160E00E94A51819861886F1
:10196000C501DF91CF911F910F91FF90EF90DF9014
:10197000CF90BF90AF9008954F925F926F927F92F9
:101980008F929F92AF92BF92CF92DF92EF92FF928F
:101990000F931F93CF93DF93EC012B013A01580172
:1019A00069018E8580FF05C06894882481F8912C98
:1019B00002C0812C912CA114B104C104D10441F1C5
:1019C0000FB6F8940F92CE0129DD7C018816990696
:1019D00048F060E080E090E00E94C7190E946E1518
:1019E000998788870F900FBE8E149F04A0F0E12C7A
:1019F000F12C00E010E0980140E050E0BA0180E0F6
:101A00000E94061719861886CE0108DD7C0103C0E6
:101A1000CE0104DD7C018E149F04E8F4840197015B
:101A2000A301B201CE01F8DD6C01892BB1F0D8D24F
:101A30008A859B85892B69F08A859B85E12CF12C11
:101A400000E020E030E0A90160E00E94AE171B86B4
:101A50001A8606D402C0C12CD12CC601DF91CF91C9
:101A60001F910F91FF90EF90DF90CF90BF90AF90BC
:101A70009F908F907F906F905F904F900895CF933D
:101A8000DF93FC01268520FF03C0C2E0D0E002C046
:101A9000C0E0D0E056DEC817D90710F081E001C0E1
:101AA00080E0DF91CF910895E0910B16F0910C1634
:101AB000808181110CC08FEF9FEFDC018093D515E1
:101AC0009093D615A093D715B093D8150895E091AB
:101AD0000B16F0910C160780F085E02D8081918126
:101AE000A281B3818093D5159093D615A093D71575
:101AF000B093D8150895CF93DF93EC018B8D9C8D17
:101B00000E94BF04CE010E94BF04DF91CF910895CF
:101B10004F925F926F927F928F929F92AF92BF92FD
:101B2000CF92DF92EF92FF920F93CF93DF932C012E
:101B30005B014A013901E60165EA70E08B8D9C8DFD
:101B40000E9481308B8D9C8D21E0821A9108880E35
:101B5000991EA114B10489F415C0822F90E0F501FB
:101B6000E80FF91F3081DE01A80FB91F5D963C9385
:101B70008081882329F02F5F01C020E0203168F3A5
:101B80001CA601C01D8E0A3008F009E00A8F0DA7BF
:101B90001EA6CE0102960E940D05CE010E960E9451
:101BA0000D05DB87CA878AE090E0A0E0B0E0801BEB
:101BB0009109A109B1098E879F87A88BB98BDF8B0B
:101BC000CE8B84E0FE01BF96DF011D928A95E9F776
:101BD0001BAAA301B201C4010E94810599838883D5
:101BE000E114F10419F0F701D183C083DF91CF91A3
:101BF0000F91FF90EF90DF90CF90BF90AF909F90AC
:101C00008F907F906F905F904F900895CF93C0E03A
:101C100009C02BE0C29FC00111248D5D994E0E9426
:101C2000FC04CF5FCA30A8F388E196E10E94FC046F
:101C30008DE096E10E94FC048EEF95E10E94FC0489
:101C400083EF95E10E94FC0487EE95E10E94FC047D
:101C500088E196E190930C1680930B168DE096E147
:101C600090930A1680930916CF910895CF93DF932E
:101C7000EC010FB6F8940F928091E6158F5F809378
:101C8000E6158091911690919216892B51F4D0937C
:101C90009216C09391168091E615813091F4B6DFCB
:101CA00010C08091E01581110CC0E0919116F09167
:101CB0009216928D8A8D891720F0D0939216C09338
:101CC00091168091D9158F5F8093D915EA8D8091F7
:101CD000E1158E1710F4E093E1158BE08E9FF00173
:101CE0001124ED5DF94E0180F281E02DFF83EE833A
:101CF0002681378139872887A681B7819E012E5F8B
:101D00003F4F15963C932E93149737832683EA8D85
:101D10008E9FF0011124ED5DF94EFD87EC878081E7
:101D20008F5F80830F900FBE8091E015882351F064
:101D3000E0919116F0919216928D8A8D981710F479
:101D40000E94CA05DF91CF910895CF93DF931BC006
:101D50000FB6F8940F92E091FA15F091FB15C0853B
:101D6000D185CE0102960E944E058091E6158150E4
:101D70008093E6158091F21581508093F2150F90B3
:101D80000FBECE01B8DE8091F2158111E1CFDF9157
:101D9000CF9108958F929F92AF92BF92CF92DF9290
:101DA000EF92FF92CF93DF936B017C01C42F809061
:101DB000E2159090E315A090E415B090E5158091A0
:101DC00091169091921602960E944E058FEFC816BA
:101DD000D806E806F806B1F5CC23A1F1E7EEF5E167
:101DE000A181B281C0919116D0919216BF83AE832A
:101DF000C0919116D091921616968D919C9117973D
:101E0000998788871696CD91DC91179780919116C6
:101E10009091921602969D838C8380919116909159
:101E20009216029617969C938E931697A0919116F0
:101E3000B09192161D96FC93EE931C9780818F5F54
:101E400080833FC0C80CD91CEA1CFB1CE091911692
:101E5000F0919216C282D382E482F582C814D9042A
:101E6000EA04FB0468F460919116709192168091D7
:101E7000091690910A166E5F7F4F0E94110521C0CE
:101E8000609191167091921680910B1690910C169C
:101E90006E5F7F4F0E9411058091D5159091D615E8
:101EA000A091D715B091D815C816D906EA06FB0639
:101EB00040F4C092D515D092D615E092D715F09285
:101EC000D815DF91CF91FF90EF90DF90CF90BF902A
:101ED000AF909F908F9008952F923F924F925F9274
:101EE0006F927F928F929F92AF92BF92CF92DF922A
:101EF000EF92FF920F93CF93DF933C011B014A01B6
:101F00002901CA010E9416046C01892B71F084E337
:101F100090E00E941604EC01892B19F0DC8ECB8E28
:101F200006C0C6010E94BF0402C0C0E0D0E02097F6
:101F300061F0A12CB12C6E019201A401B101C30189
:101F4000E7DDCE0193DE81E001C08FEFDF91CF911D
:101F50000F91FF90EF90DF90CF90BF90AF909F9048
:101F60008F907F906F905F904F903F902F9008954B
:101F7000EF92FF920F930F2EF3EDEF2EF5E1FF2E70
:101F8000F02D00E020E030E040EC50E069EA72E043
:101F90008DEC90E0A1DF813011F40E946B1A81304A
:101FA000C9F4F8948FEF9FEFDC018093D5159093DF
:101FB000D615A093D715B093D81581E08093E0157E
:101FC0001092E2151092E3151092E4151092E515A7
:101FD0000E949805809106020F91FF90EF9008955E
:101FE0008091D2158F5F8093D21508950FB6F89423
:101FF0000F926091E2157091E3158091E415909134
:10200000E5150F900FBE0895CF92DF92EF92FF92E9
:10201000CF93DF938091D215811105C1C090E21555
:10202000D090E315E090E415F090E5158FEFC81A15
:10203000D80AE80AF80AC092E215D092E315E092B5
:10204000E415F092E515C114D104E104F104B1F4F2
:1020500080910B1690910C162091091630910A165A
:1020600030930C1620930B1690930A168093091642
:102070008091DA158F5F8093DA1516DD8091D51582
:102080009091D615A091D715B091D815C816D9063C
:10209000EA06FB0620F480E0B2C081E001C080E0E7
:1020A000E0910B16F0910C16908191110CC04FEF3E
:1020B0005FEFBA014093D5155093D6156093D715AD
:1020C0007093D8159CC0E0910B16F0910C16078008
:1020D000F085E02D0084F185E02D428153816481FB
:1020E0007581C416D506E606F70648F44093D51563
:1020F0005093D6156093D7157093D81580C0A485DA
:10210000B585C681D781208531853F832E83C085E3
:10211000D185268137813D832C8311964D915C9129
:1021200012979F012E5F3F4F4217530731F44085AE
:10213000518512965C934E931197158614869C9147
:1021400091509C93A08DB18D109709F1C289D389CC
:10215000448955895F834E83C489D58942895389CF
:102160005D834C8311966D917C911297AF01425F14
:102170005F4F6417750731F44489558912965C9353
:102180004E931197118E108E9C9191509C93A28D1D
:102190009091E1159A1710F4A093E1159BE09A9F96
:1021A000D0011124AD5DB94E11960D90BC91A02DBA
:1021B000B783A68316964D915C91179751874087F8
:1021C0001696CD91DC9117973D832C8317963C93FF
:1021D0002E931697A28D9A9FD0011124AD5DB94E12
:1021E000B587A4879C919F5F9C93228DE091911667
:1021F000F0919216928D291708F04FCF51CFE091B0
:102200009116F0919216E28D9BE0E99FF001112466
:10221000ED5DF94E9081923008F081E09091DB15F0
:10222000911116C016C08091DC159091DD15A0911A
:10223000DE15B091DF150196A11DB11D8093DC154F
:102240009093DD15A093DE15B093DF1580E001C0FB
:1022500081E0DF91CF91FF90EF90DF90CF900895D4
:10226000CF92DF92EF92FF92CF93DF930FB6F89465
:102270000F928091D21581508093D2158091D21502
:102280008111BEC08091E615811188C0BCC0E0916B
:102290000516F09106160084F185E02DA08DB18D14
:1022A000C289D389848995899F838E83C489D5897E
:1022B000828993899D838C8311962D913C911297ED
:1022C000CF010E962817390731F484899589129623
:1022D0009C938E931197118E108E8C9181508C93BC
:1022E000A485B585C681D781808591859F838E839E
:1022F000C085D185868197819D838C8311968D9130
:102300009C9112979F012E5F3F4F8217930731F4E4
:102310008085918512969C938E93119715861486CD
:102320008C9181508C93A28D8091E1158A1710F4C5
:10233000A093E1158BE08A9FD0011124AD5DB94EC9
:1023400011960D90BC91A02DB783A68316964D9142
:102350005C911797518740871696CD91DC9117971E
:102360003D832C8317963C932E931697A28D8A9FBC
:10237000D0011124AD5DB94EB587A4878C918F5FD4
:102380008C93928DA0919116B09192165A968C9141
:10239000981730F081E08093DB1502C0E0E0F0E0B8
:1023A0008091FE15811173CFEF2B09F07DDBC0907A
:1023B000DC15D090DD15E090DE15F090DF15C1142E
:1023C000D104E104F104A1F01FDE882319F081E0BB
:1023D0008093DB1581E0C81AD108E108F108A1F764
:1023E0001092DC151092DD151092DE151092DF159B
:1023F0008091DB15882331F00E94CA0581E003C07B
:1024000080E001C080E00F900FBEDF91CF91FF9080
:10241000EF90DF90CF9008958F929F92AF92BF92EE
:10242000CF92DF92EF92FF921F93CF93DF93EC0155
:102430006A017B01D5DD8090E2159090E315A090B4
:10244000E415B090E51588819981AA81BB81AC0122
:10245000BD014C0D5D1D6E1D7F1D88169906AA06D7
:10246000BB0660F4481759076A077B0798F484167F
:102470009506A606B70680F010E013C04817590766
:102480006A077B0758F084169506A606B70640F043
:1024900010E007C010E005C011E003C011E001C06A
:1024A00011E0488359836A837B83112341F0CB0178
:1024B000BA01681979098A099B0940E06BDCD0DE12
:1024C000811102C00E94CA05812FDF91CF911F9117
:1024D000FF90EF90DF90CF90BF90AF909F908F9044
:1024E0000895CF92DF92EF92FF926B017C01672BF0
:1024F000682B692B39F074DD40E0C701B6014ADC76
:10250000AFDE01C080E0811102C00E94CA05FF90C9
:10251000EF90DF90CF9008958091D215882321F01D
:1025200081E08093DB1508951092DB15E091911600
:10253000F091921620813181E0919116F0919216DE
:10254000838D948D8217930760F06091911670913E
:102550009216635E7F4F80919116909192160E9421
:10256000F91C8091E11501C08150282F30E09BE0DB
:10257000929FF001939FF00D1124ED5DF94E908133
:10258000992391F39BE0929FA001939F500D1124FA
:10259000DF010180F281E02D0480F581E02D1296AB
:1025A000FC93EE9311974A5D594EE417F50729F411
:1025B00044815581FD01528341839BE0929FF0014C
:1025C000939FF00D1124ED5DF94E0180F281E02D15
:1025D0002085318530939216209391168093E115D2
:1025E0000895CF92DF92EF92FF926A017B01609192
:1025F000911670919216625F7F4F0E94110541E023
:10260000C701B601C7DBFF90EF90DF90CF90089530
:102610000F931F93CF93DF93FC01A0919116B0917C
:10262000921670681E964D935D936D937C935197AF
:10263000A181B281C0919116D0919216BB8BAA8BC9
:10264000C0919116D091921616968D919C911797E4
:102650009D8B8C8B1696CD91DC911797809191165E
:10266000909192160E969D838C83809191169091F5
:1026700092160E9617969C938E931697A09191168C
:10268000B09192165996FC93EE93589780818F5F84
:10269000808341E0C901B8017DDBDF91CF911F91BB
:1026A0000F910895CF93DF93FC01CB01BA01A18173
:1026B000B281C0919116D0919216BB8BAA8BC0911A
:1026C0009116D091921616964D915C9117975D8B4D
:1026D0004C8B1696CD91DC911797409191165091A5
:1026E0009216425F5F4F5D834C83409191165091EB
:1026F0009216425F5F4F17965C934E931697A09188
:102700009116B09192165996FC93EE93589730819A
:102710003F5F3083222319F06FEF7FEFCB01422F11
:1027200039DBDF91CF910895CF93DF93DC011796CA
:10273000ED91FC9118970084F185E02DA08DB18D6D
:10274000C289D389848995899F838E83C489D589D9
:10275000828993899D838C8311968D919C91129788
:102760009F01225F3F4F8217930731F48489958937
:1027700012969C938E931197118E108E8C9181508E
:102780008C938091D215811152C0A485B585C681E4
:10279000D781808591859F838E83C085D1858681F1
:1027A00097819D838C8311968D919C9112979F01A7
:1027B0002E5F3F4F8217930731F4808591851296E3
:1027C0009C938E931197158614868C9181508C93CF
:1027D000A28D8091E1158A1710F4A093E1158BE08A
:1027E0008A9FD0011124AD5DB94E11960D90BC9118
:1027F000A02DB783A68316964D915C9117975187AC
:1028000040871696CD91DC9117973D832C831796C0
:102810003C932E931697A28D8A9FD0011124AD5D13
:10282000B94EB587A4878C918F5F8C931CC04EEFF7
:1028300055E1DA011196CD91DC911297D38BC28BC1
:102840008E819F81958B848B8E819F81DC01159673
:102850003C932E9314973F832E83518F408FDA0140
:102860008C918F5F8C93928DE0919116F0919216DE
:10287000828D891720F481E08093DB1501C080E010
:10288000DF91CF910895CF93DF93DC0170684D9372
:102890005D936D937C9313971896ED91FC91199726
:1028A0001A964D915C911B9714968D919C9115975A
:1028B00016962D913C911797EC013F832E83169627
:1028C0008D919C91179714962D913C911597EC0141
:1028D0003D832C83EA0189819A81A817B90731F4D5
:1028E00016968D919C9117979A8389831B961C92BB
:1028F0001E921A97DA018C9181508C93A485B5852C
:10290000C681D781808591859F838E83C085D1853F
:10291000868197819D838C8311968D919C911297CE
:102920009F012E5F3F4F8217930731F48085918579
:1029300012969C938E931197158614868C918150D4
:102940008C93A28D8091E1158A1710F4A093E11564
:102950008BE08A9FD0011124AD5DB94E11960D9088
:10296000BC91A02DB783A68316964D915C911797C5
:10297000518740871696CD91DC9117973D832C8324
:1029800017963C932E931697A28D8A9FD0011124FF
:10299000AD5DB94EB587A4878C918F5F8C93928D76
:1029A000E0919116F0919216828D891718F481E0CA
:1029B0008093DB15DF91CF9108950FB6F8940F92B5
:1029C0002091DA15FC0120834091E2155091E31526
:1029D0006091E4157091E51541835283638374839C
:1029E0000F900FBE08952091DA15FC0120834091CD
:1029F000E2155091E3156091E4157091E51541835E
:102A000052836383748308958F929F92AF92BF9293
:102A1000CF92DF92EF92FF920F931F93CF93DF93AA
:102A2000FB010FB6F8940F92C090E215D090E31519
:102A3000E090E415F090E515DC0111960D911D91E3
:102A40002D913C91149746015701801A910AA20AD0
:102A5000B30A40815181628173814F3FBFEF5B07B1
:102A60006B077B0739F1EC01B881A091DA15BA1731
:102A700059F0C016D106E206F30630F0108211823A
:102A80001282138281E017C084169506A606B70647
:102A900058F4481959096A097B09408351836283B4
:102AA0007383A1DF80E007C010821182128213823B
:102AB00081E001C080E00F900FBEDF91CF911F91A8
:102AC0000F91FF90EF90DF90CF90BF90AF909F90CD
:102AD0008F90089581E08093DB1508958091911681
:102AE0009091921608958091E015882331F080919D
:102AF000D215811104C082E0089581E0089580E03C
:102B000008950F931F93CF93DF93FC01892B09F452
:102B100077C0828DA0919116B09192165A969C9191
:102B2000891708F063C046855785608971897723C6
:102B300094F0A0919116B09192165A969C914AE009
:102B400050E060E070E0491B510961097109468756
:102B50005787608B718B248535854BE0849FC0013E
:102B600011248D5D994E28173907B9F5EF018F01B2
:102B70000E5F1F4FC8010E944E05E0919116F09123
:102B80009216E28DEA8F8091E1158E1710F4E09392
:102B9000E1158BE08E9FF0011124ED5DF94E01806F
:102BA000F281E02DFF83EE832681378139872887E4
:102BB000A681B78115961C930E93149717830683ED
:102BC000EA8D8E9FF0011124ED5DF94EFD87EC87B3
:102BD00080818F5F808381E016C0A0919116B091B3
:102BE00092165A968C91828F81E00DC095A5E09146
:102BF0009116F0919216828D981720F080E003C014
:102C000080E001C081E0DF91CF911F910F91089585
:102C10000F931F93CF93DF93FC01892B09F449C0D5
:102C200086A5815086A7228D95A5291709F443C052
:102C3000811143C0EF018F010E5F1F4FC8010E9439
:102C40004E05EDA5EA8F8AE090E0A0E0B0E08E1B93
:102C50009109A109B1098E879F87A88BB98B8091B3
:102C6000E1158E1710F4E093E1158BE08E9FF001D3
:102C70001124ED5DF94E0180F281E02DFF83EE839A
:102C80002681378139872887A681B78115961C93BD
:102C90000E93149717830683EA8D8E9FF0011124FB
:102CA000ED5DF94EFD87EC8780818F5F808381E049
:102CB00005C080E003C080E001C080E0DF91CF91DB
:102CC0001F910F9108950F931F93CF93DF93FC01F2
:102CD000892B09F45AC085A5861708F4862F928D92
:102CE000891709F452C026A5213009F04EC0828F01
:102CF0004685578560897189772364F04AE050E002
:102D000060E070E0481B51096109710946875787E7
:102D1000608B718B248535854BE0949FC001112415
:102D20008D5D994E2817390781F5EF018F010E5FF0
:102D30001F4FC8010E944E05EA8D8091E1158E1744
:102D400010F4E093E1158BE08E9FF0011124ED5D0E
:102D5000F94E0180F281E02DFF83EE8326813781D9
:102D600039872887A681B78115961C930E931497EF
:102D700017830683EA8D8E9FF0011124ED5DF94ED5
:102D8000FD87EC8780818F5F8083DF91CF911F91DA
:102D90000F910895CF92DF92EF92FF92E0919116FA
:102DA000F09192166685778580899189E0919116D8
:102DB000F0919216A0919116B09192165A962C917C
:102DC0000F2EFAE0CF2ED12CE12CF12CF02DC21ACF
:102DD000D108E108F108C686D786E08AF18AFF901B
:102DE000EF90DF90CF900895809191169091921678
:102DF000892B39F0E0919116F091921686A58F5F9C
:102E000086A7809191169091921608954F925F92A5
:102E10006F927F92AF92BF92CF92DF92EF92FF922A
:102E20000F931F93CF93DF93280139010FB6F894C6
:102E30000F92E0919116F0919216C82FD0E0EC0F0E
:102E4000FD1F83A9823079F1E0919116F0919216DD
:102E5000CE01880F991F880F991FE80FF91F87A5CA
:102E600090A9A1A9B2A94095509560957095482365
:102E700059236A237B2347A750AB61AB72ABE09128
:102E80009116F0919216EC0FFD1F81E083ABA11417
:102E9000B104C104D10439F041E0C601B5010E947A
:102EA000CA0E0E94CA050F900FBE0FB6F8940F927B
:102EB000E114F104A1F0E0919116F0919216CE0187
:102EC000880F991F880F991FE80FF91F87A590A9F0
:102ED000A1A9B2A9F70180839183A283B383E09172
:102EE0009116F0919216EC0FFD1F83A98230E9F440
:102EF000E0919116F0919216CE01880F991F880FDC
:102F0000991FE80FF91F87A590A9A1A9B2A940941C
:102F1000509460947094482259226A227B2247A6DA
:102F200050AA61AA72AA81E001C080E020919116A6
:102F300030919216C20FD31F1BAA0F900FBEDF91C4
:102F4000CF911F910F91FF90EF90DF90CF90BF90A6
:102F5000AF907F906F905F904F9008958F929F9267
:102F6000AF92BF92EF92FF920F93CF93DF93DC016A
:102F70000FB6F8940F92E114F10489F0E62FF0E017
:102F8000EE0FFF1FEE0FFF1FE80FF91F87A490A899
:102F9000A1A8B2A8F70180829182A282B38270E0D8
:102FA000FD01E60FF71F83A992E093AB023001F118
:102FB00018F4013031F04DC0033079F10430D1F113
:102FC00048C0660F771F660F771FFD01E60FF71FDA
:102FD00087A490A8A1A8B2A8BA01A9014829592993
:102FE0006A297B2947A750AB61AB72AB01E034C0C3
:102FF000660F771F660F771FFD01E60FF71F47A5C6
:1030000050A961A972A94F5F5F4F6F4F7F4F47A7CC
:1030100050AB61AB72AB01E01FC0660F771F660F4C
:10302000771FFD01E60FF71F27A730AB41AB52AB6F
:1030300001E012C0823079F0660F771F660F771FAC
:10304000FD01E60FF71F27A730AB41AB52AB01E004
:1030500003C001E001C000E0813009F069C01C96A6
:10306000ED91FC911D971696CD91DC9117971896CE
:103070008D919C9119979F838E831896CD91DC91A9
:10308000199716968D919C9117979D838C838181BA
:1030900092819D012E5F3F4F8217930731F418965E
:1030A0008D919C911997928381831D961C921E92FB
:1030B0001C978081815080835A96EC915A97809119
:1030C000E1158E1710F4E093E1158BE08E9FF0016F
:1030D0001124ED5DF94E0180F281E02D1796FC93ED
:1030E000EE9316974681578119965C934E931897E5
:1030F000C681D7813D832C83378326835A96EC91F2
:103100005A978E9FF0011124ED5DF94E1D96FC93A8
:10311000EE931C9780818F5F80835A969C91E091FB
:103120009116F0919216828D891710F40E94CA05AB
:103130000F900FBE802FDF91CF910F91FF90EF90F6
:10314000BF90AF909F908F9008958F929F92AF9273
:10315000BF92CF92DF92EF92FF920F93CF93DF93C4
:10316000DC01E114F10489F0E62FF0E0EE0FFF1F1F
:10317000EE0FFF1FE80FF91F87A490A8A1A8B2A81F
:10318000F70180829182A282B38270E0FD01E60F96
:10319000F71F93A982E083AB023001F118F40130EC
:1031A00031F04DC0033079F10430D1F148C0660FE1
:1031B000771F660F771FFD01E60FF71F87A490A802
:1031C000A1A8B2A8BA01A901482959296A297B29CD
:1031D00047A750AB61AB72AB81E034C0660F771F7D
:1031E000660F771FFD01E60FF71F47A550A961A9DC
:1031F00072A94F5F5F4F6F4F7F4F47A750AB61ABD7
:1032000072AB81E01FC0660F771F660F771FFD014D
:10321000E60FF71F27A730AB41AB52AB81E012C0DE
:10322000923079F0660F771F660F771FFD01E60F6A
:10323000F71F27A730AB41AB52AB81E003C081E061
:1032400001C080E0913009F096C09091D2159111A3
:103250005FC01C96ED91FC911D971696CD91DC9167
:10326000179718962D913C9119973F832E831896A6
:10327000CD91DC91199716962D913C9117973D832E
:103280002C83418152819D012E5F3F4F421753078E
:1032900031F418964D915C911997528341831D9694
:1032A0001C921E921C979081915090835A96EC919B
:1032B0005A979091E1159E1710F4E093E1159BE069
:1032C0009E9FF0011124ED5DF94E0180F281E02D09
:1032D0001796FC93EE9316974681578119965C9347
:1032E0004E931897C681D7813D832C8337832683DD
:1032F0005A96EC915A979E9FF0011124ED5DF94E7C
:103300001D96FC93EE931C9790819F5F908321C044
:103310006EEF75E1FB01C181D2815396DC93CE93B0
:1033200052972E813F8155963C932E9354974E8110
:103330005F819D01225F3F4FFA01358324833F83E4
:103340002E8359967C936E935897FB0190819F5FD3
:1033500090835A962C91E0919116F0919216928D4D
:10336000921748F4C114D10419F091E0F60190834A
:1033700091E09093DB15DF91CF910F91FF90EF904B
:10338000DF90CF90BF90AF909F908F90089500975F
:1033900021F480919116909192160FB6F8940F92A5
:1033A00070E0FC01E60FF71F23A9223031F4FC0185
:1033B000E60FF71F13AA81E001C080E00F900FBE57
:1033C0000895DC01E0919D16F0919E16808191E0B8
:1033D000811190E09C93911108C00780F085E02D49
:1033E0006081718182819381089560E070E0CB01FA
:1033F0000895CF92DF92EF92FF920F931F93FC01FB
:1034000042835383648375839387828704171507E8
:1034100026073707C0F00C191D092E093F098685BC
:103420009785A089B189081719072A073B0700F576
:10343000BF016E5F7F4F80919B1690919C160E94FA
:10344000110580E018C00C151D052E053F0528F458
:103450004C155D056E057F0568F4BF016E5F7F4FFB
:1034600080919D1690919E160E94110580E003C0E8
:1034700081E001C081E01F910F91FF90EF90DF90FC
:10348000CF9008950FB6F8940F928091991690916D
:103490009A16892BE9F48AEA96E10E94FC048FE9E6
:1034A00096E10E94FC048AEA96E190939E1680932E
:1034B0009D168FE996E190939C1680939B1640E0B1
:1034C00067E08AE00E94BF0790939A16809399164E
:1034D0000F900FBE0895EF92FF920F93D3DF80916C
:1034E000991690919A16892B91F00F2EF7E9EF2EED
:1034F000F6E1FF2EF02D03E020E030E040EC50E05C
:103500006EEA72E087ED90E00E946C0F01C080E0EF
:103510000F91FF90EF9008958F929F92AF92BF927C
:10352000CF92DF92EF92FF920F931F93CF93DF938F
:10353000CDB7DEB727970FB6F894DEBF0FBECDBF6D
:10354000E0919916F0919A16309781F169832A8358
:103550003B834C835D839F838E836630F4F4C3DAB0
:10356000823069F400E0A7019601BE016F5F7F4FD2
:103570008091991690919A160E94E20718C000E077
:1035800020E030E0A901BE016F5F7F4F8091991666
:1035900090919A160E94E2070AC020E0A801BE019D
:1035A0006F5F7F4FCF010E94740801C080E02796B3
:1035B0000FB6F894DEBF0FBECDBFDF91CF911F9144
:1035C0000F91FF90EF90DF90CF90BF90AF909F90C2
:1035D0008F9008958F929F92AF92BF92CF92DF9279
:1035E000EF92FF920F931F93CF93DF933BC007801F
:1035F000F085E02D80809180A280B380C085D18548
:103600008E010E5F1F4FC8010E944E05EC89FD8997
:10361000CE0119958E8982FF25C08E859F85A88948
:10362000B989880D991DAA1DBB1D88169906AA0681
:10363000BB0670F48A839B83AC83BD83DB87CA8718
:10364000B80180919D1690919E160E9411050AC0A6
:10365000C12CD12C760100E010E0A501940160E0BE
:10366000CE015ADFE0919D16F0919E168081811166
:10367000BECF80919B1690919C1690939E1680933E
:103680009D16F0939C16E0939B16DF91CF911F91AE
:103690000F91FF90EF90DF90CF90BF90AF909F90F1
:1036A0008F900895CF92DF92EF92FF92CF93DF93A6
:1036B000EC010E94F60F6B017C01809193169091B2
:1036C0009416A0919516B0919616C816D906EA06DA
:1036D000FB0620F47FDF81E0888301C01882C0925E
:1036E0009316D0929416E0929516F0929616C70112
:1036F000B601DF91CF91FF90EF90DF90CF900895CA
:103700004F925F926F927F928F929F92AF92BF92F1
:10371000CF92DF92EF92FF920F931F93CF93DF939D
:103720004B015C0129013A01E0919D16F0919E1632
:103730000780F085E02DC085D185CE0102960E94DC
:103740004E058E8982FF1BC04E855F856889798909
:10375000480D591D6A1D7B1D75016401930182018D
:10376000CE0147DE882369F0C12CD12C760100E020
:1037700010E0A501940160E0CE01CEDE02C08E7F94
:103780008E8BEC89FD89CE011995DF91CF911F9128
:103790000F91FF90EF90DF90CF90BF90AF909F90F0
:1037A0008F907F906F905F904F9008958F929F922F
:1037B000AF92BF92CF92DF92EF92FF921F93CF937F
:1037C000DF931F92CDB7DEB76B017C01142F0E94EF
:1037D000F00FCE01019666DF4B015C0189818111FA
:1037E0002DC011110DC08C149D04AE04BF0440F017
:1037F0000E943011A5019401C701B60181DF20C0EC
:10380000112341F0E0919B16F0919C16808111E00C
:10381000811110E0B701A601481959096A097B090D
:10382000212F8091991690919A160E94F2090E9478
:103830003011811105C00E94CA0502C00E943011DA
:103840000F90DF91CF911F91FF90EF90DF90CF907D
:10385000BF90AF909F908F900895AF92BF92CF92FC
:10386000DF92EF92FF920F931F93CF93DF93CDB729
:10387000DEB728970FB6F894DEBF0FBECDBF82C06B
:10388000898188230CF47EC0AE80BF80D5011C9650
:103890008D919C911D97892B21F0C50102960E9464
:1038A0004E05CE010896FEDE8B019C01E9810E2EAD
:1038B000000CFF0BEA30F10508F064C08827EE58D1
:1038C000FF4F8F4F0C94312FF50186898160868BD5
:1038D000CA80DB80EC80FD804685578560897189D0
:1038E0004C0D5D1D6E1D7F1DC50183DD882309F410
:1038F00049C0D5015496ED91FC915597C501199594
:10390000F501868982FF3EC04A815B816C817D81A1
:1039100086859785A089B1899A01AB01280F391F47
:103920004A1F5B1FC12CD12C760100E010E060E043
:10393000C501F2DD27C0D50156968C9156978E7F32
:1039400056968C931FC0F50186898160868B4A81CB
:103950005B816C817D8146875787608B718B400FBF
:10396000511F621F731F68017901C50142DD0AC042
:10397000F501868981FD04C0C5010E94BF0402C013
:103980008E7F868B20E030E0A901BE016F5F7F4F04
:103990008091991690919A160E94AF08811170CF6C
:1039A00028960FB6F894DEBF0FBECDBFDF91CF9142
:1039B0001F910F91FF90EF90DF90CF90BF90AF904D
:1039C0000895089584B1806884B985B1806885B907
:1039D000089583B1806883B90895F4DF2FEF80E7FD
:1039E00092E0215080409040E1F700C00000F1DFFC
:1039F000F5CFE8DF2FEF87EA91E621508040904035
:103A0000E1F700C00000E5DFF5CF86EB92E00E9411
:103A1000EA300FEF1FEF980146E150E069E778E1E7
:103A200080919D1890919E180E94BC0CC9E7D8E126
:103A3000998188811F929F931F928F9385ED92E0C9
:103A40009F938F930E94D73089810F900F900F9092
:103A50000F900F900F90813099F5C0917B181F92B5
:103A6000CF938BE093E09F938F930E94D730809108
:103A70009D1890919E180E943F0D91E020E08111C9
:103A800090E02F939F9384E193E09F938F930E9404
:103A9000D7308C2F0E94090200E020E030E0A9011D
:103AA00060E070E08091991890919A180E94E20766
:103AB0008DB79EB708960FB6F8949EBF0FBE8DBF08
:103AC00064E670E080E090E00E9471129ECFEF9279
:103AD000FF920F93E12CF12C082F20E030E040EC16
:103AE00050E068E173E085E09DE10E946C0F0F916A
:103AF000FF90EF900895CF93DF9381E00E94DE2A3C
:103B0000FFD47BD79F938F9386E293E09F938F930D
:103B10000E94D73073D671D79F938F9389E393E038
:103B20009F938F930E94D73085EB96E1FBD465D7A6
:103B3000C5EBD6E1DF93CF939F938F9382E593E01C
:103B40009F938F930E94D730CE0108D556D79F936D
:103B50008F93DF93CF9386E693E09F938F930E949A
:103B6000D730AE016BE773E08CE993E025D745D7FA
:103B70009F938F93DF93CF938BE793E09F938F93E4
:103B80008CE993E09F938F938DEA93E09F938F93BB
:103B90000E94D73016D531D79F938F9383EE93E051
:103BA0009F938F930E94D7308DB79EB782960FB6A2
:103BB000F8949EBF0FBE8DBF81E0FDD51ED79F93A9
:103BC0008F9382EF93E09F938F930E94D73084EF7F
:103BD00091E0FCD512D79F938F9381E08F9384EF70
:103BE0008F9383E194E09F938F930E94D7308DB79A
:103BF0009EB70A960FB6F8949EBF0FBE8DBFCAE05F
:103C000080E0E5D4D82FF9D69F938F931F92CF935E
:103C100083E394E09F938F930E94D7300F900F908F
:103C20000F900F900F900F90D83059F080E00E94C5
:103C3000422B66E371E080E090E00E947112C15077
:103C4000F9F6D83021F481E00E94242B09C081E0EC
:103C50000E94332B80E00E94012B0E94CA05FDCFF9
:103C6000DF91CF910895CF93DF93CDB7DEB76A97F9
:103C70000FB6F894DEBF0FBECDBF81E033D462E053
:103C800070E080E090E00E94711280E02BD466E941
:103C900070E080E090E00E947112DDD32CDF83E5BC
:103CA00094E00E94EA300E94F60F69837A838B8346
:103CB0009C8386E088D062E0CE01059696D081E6AE
:103CC00094E00E94EA3081E894E00E94EA3048E8FB
:103CD0005EE060E070E0CE0101960E940C128EE87A
:103CE00094E00E94EA308E811F928F938FEA94E0D5
:103CF0009F938F930E94D73083E00E94542B8F8133
:103D00001F928F938BEB94E09F938F930E94D730F9
:103D100088851F928F9384EC94E09F938F930E94E9
:103D2000D73089851F928F938DEC94E09F938F936A
:103D30000E94D7308A851F928F9386ED94E09F93DF
:103D40008F930E94D7308B851F928F938FED94E0D5
:103D50009F938F930E94D7308C851F928F9388EE0C
:103D600094E09F938F930E94D730BE016B5F7F4F8B
:103D700080E056D442D69F938F9381EF94E09F9337
:103D80008F930E94D7300FB6F894DEBF0FBECDBF21
:103D900064E670E080E090E00E9471128CCFEF92B8
:103DA000FF920F93E12CF12C082F20E030E040EC43
:103DB00050E06AE175E083E39EE10E946C0F0F9191
:103DC000FF90EF900895809396180895909395181A
:103DD0008093941808959093901880938F18089565
:103DE000909393188093921808951F93CF93DF9325
:103DF000EC01162F86E190E00E941604FC01892B4D
:103E0000B1F01083809196188183809194189091DD
:103E1000951892838383809192189091931894833C
:103E2000858380918F18909190189683878386E17F
:103E3000DE0101900D928A95E1F7CE01DF91CF91DD
:103E40001F9108950F9343E060E081E00E94BF0757
:103E500090939C1880939B1800E020E030E0A9012B
:103E600060E070E00E94E2070F9108950F9343E035
:103E700060E081E00E94BF0790939A1880939918A0
:103E800000E020E030E0A90160E070E00E94E2077D
:103E90000F91089540E062E083E00E94BF07909395
:103EA00098188093971808950E9462029093A01822
:103EB00080939F18089541E060E070E084E690E010
:103EC0000E94510B9093A2188093A118089541E08D
:103ED00060E070E08CE290E00E94510B90939E189D
:103EE00080939D1808951BD1811105C087E295E04C
:103EF0000C94EA3008958AE495E00C94EA30089531
:103F000026D1882321F084E695E00E94EA3063E020
:103F100070E080E090E00E9471122ED1882321F0A1
:103F200084E895E00E94EA3061E070E080E090E093
:103F30000C9471120895CF93DF9300D01F92CDB7E8
:103F4000DEB71C821B821A8219824FEF5FEFBA0123
:103F500080919B1890919C180E944109813051F5E5
:103F6000CFDF56D19C838B832DD19A83898300E048
:103F70002FEF3FEFA901BE016D5F7F4F8091971832
:103F8000909198180E94E2072FEF3FEFA901BE0120
:103F90006F5F7F4F80919718909198180E94E20769
:103FA00042E050E060E070E080919F189091A0188E
:103FB0000E9415036AE070E080E090E00E947112B8
:103FC000C0CFEF92FF920F938EDFE12CF12C01E036
:103FD00020E030E040EC50E069EA75E08BE99FE1D9
:103FE0000E946C0F0F91FF90EF90089588EB95E081
:103FF0000E94EA3086ED95E00E94EA304FEF5FEFD5
:10400000BA018091991890919A180E9441098130C3
:1040100029F40E942602682F81E024D666E070E031
:1040200080E090E00E947112E5CFEF92FF920F9333
:1040300031D689EF95E00E94EA30E12CF12C03E0C3
:1040400020E030E040EC50E066E176E086EF9FE172
:104050000E946C0F0F91FF90EF90089525DF1ADFFB
:10406000F1DE04DF0E94F40126DF31CF0895A9DFDD
:104070000E94DB010C947C01089580E00E941D2ABF
:10408000EDDFF5DF60919D1870919E1881E0EAD117
:1040900084E085DE82E296E00E94EA3083E017DD6C
:1040A00089E396E00E94EA30C0DF8DE496E00C944C
:1040B000EA300895E2DF8FE596E00E94EA300E9440
:1040C000B80FFFCF6530F1F4FA0180818F7390E073
:1040D000982F88272181822B90930A0280930902CE
:1040E0008281F0E48F9FC0011124FA01238126957B
:1040F0002695822B909308028093070281E080939B
:1041000019170895643051F080E090E4909308020C
:104110008093070290930A028093090208950F93F7
:104120001F9302E610E220E034E244EF50E060E04A
:1041300087E20E94772B90931B1780931A1721E038
:10414000892B09F020E0822F1F910F910895809113
:104150001A1790911B17009759F040E060E070E04B
:104160000E94C82B843031F41092191780E0089512
:1041700082E0089583E0089580911A1790911B17AB
:10418000009739F064E00E94142C853021F083E020
:10419000089582E0089580E0089560910902709189
:1041A0000A0280E090E00E941E2E20E030E048EC01
:1041B00052E40E94AC2E20E038EF4FE756E40C9416
:1041C000852D0895EADF20E030E040E251E40E94CE
:1041D000AC2E0E94F22DCB010895609107027091E0
:1041E000080280E090E00E941E2E20E030E045E2D0
:1041F00053E40E94AC2E20E038EF4FE756E40E94D3
:10420000852D20E030E040E252E40C94202D08950A
:10421000E4DF20E030E040E251E40E94AC2E0E9456
:10422000ED2DCB0108950F931F93CF93DF931F9232
:104230001F92CDB7DEB78C0119822DC0E091801797
:10424000EC3250F481E08E0F80938017F0E0EE5452
:10425000F84E8A81808302C0109280178A818A304A
:10426000D1F44091801750E0FA01E055F84E1082E9
:10427000415051099E012F5F3F4F62EB77E18091E2
:104280008317909184170E94780C898181110E9474
:10429000CA0510928017BE016E5F7F4FC80137D6E6
:1042A000882361F20F900F90DF91CF911F910F91B2
:1042B00008950F931F93CF93DF938C01EB018091AF
:1042C0008317909184170E94830BB8018CE197E1CA
:1042D0000E94B830209779F0ECE1F7E101900020DE
:1042E000E9F7319780E290E091838083BE018CE111
:1042F00097E10E94AD30ECE1F7E1DF010D90002085
:10430000E9F711978DE09AE011969C938E9312969F
:104310001C9201900020E9F73197EC51F741AE2F44
:104320008CE197E1AC016A2F8091851790918617F7
:1043300099D5811111C008E215E020E030E04DE28E
:1043400050E06CE078E180918317909184170E948F
:10435000BC0C8CE098E102C080E090E0DF91CF914E
:104360001F910F9108952F923F924F925F926F92FB
:104370007F928F929F92AF92BF92CF92DF92EF92F5
:10438000FF920F931F93CF93DF935C01FC01019089
:104390000020E9F731976F01C81AD90A5C2C0F2E5B
:1043A000FEE08F2EF9E09F2EF02DE12CF12C4C2C0D
:1043B0003701F40101811281E80109900020E9F739
:1043C0002197C01BD10B3C2EF9E0CF16D10458F039
:1043D000F4012080FEE02F1206C0B801C5010E9442
:1043E0008830892B09F5442D351408F44C2F50E002
:1043F000B801C5010E94BF30892B49F4F301EE0FCB
:10440000FF1FE60DF71DE25FF64F20800DC08FEF16
:10441000E81AF80AE3E08E0E911CF1E1EF16F104C0
:1044200039F66894222424F8822DDF91CF911F91D0
:104430000F91FF90EF90DF90CF90BF90AF909F9043
:104440008F907F906F905F904F903F902F90089546
:1044500030DF89CF089580918317909184170C9451
:10446000830B08958F929F92AF92CF92EF920F930A
:104470001F93CF93C82F8B0141E060E070E088EC80
:1044800090E00E94510B90938417809383171093B0
:104490008217009381170F2EF3E18F2EF1E29F2EEA
:1044A000F02D6894AA24A6F86894CC24C6F8E12CD0
:1044B00000E023E040E051EE60E070E08C2F06D495
:1044C0009093861780938517E7E0F1E08081806103
:1044D0008083CF911F910F91EF90CF90AF909F90DD
:1044E0008F900895882331F0E8E0F1E080818F7E9D
:1044F00080830895E8E0F1E0808180618083089501
:1045000060E070E084E996E0D4DEECE0F8E1019050
:104510000020E9F73197EC50F84181E0759708F0F9
:1045200080E00895CF93DF93EC0160E070E085EACE
:1045300096E0BFDEECE0F8E101900020E9F7ED51F4
:10454000F84139F46CE078E1CE010E94B83080E0A7
:1045500002C0188281E0DF91CF910895FC010190A3
:104560000020E9F79F01215131092817390729F463
:10457000BC0183ED96E06CCF089589E00895FC01BD
:1045800001900020E9F79F012151310928173907CF
:1045900029F4BC0182EE96E05BCF089589E008958E
:1045A000FC0101900020E9F79F01215231092817F1
:1045B000390729F4BC0181EF96E04ACF089589E0DC
:1045C000089560E070E080E397E042CF08950F9394
:1045D0001F93E82FF0E0EE0FFF1FE65FF64F6081BC
:1045E000718189E397E034DF811114C008E215E09E
:1045F00020E030E04DE250E06CE078E180918317FC
:10460000909184170E94BC0C882321F08CE098E1E3
:10461000AADE03C08CE098E1A6DE1F910F910895F9
:104620000F931F93CF93DF931F92CDB7DEB7DB01BC
:1046300011969C911197953108F0B4C0992381F19E
:1046400060E070E0272F30E0462F50E0FD01E40FDE
:10465000F51F928192959F709A3010F0995C01C07D
:10466000905DF901E356F84E90832F5F3F4FFD01B7
:10467000E40FF51F92819F70492F50E04A30510599
:1046800014F0995C01C0905DF901E356F84E9083F7
:104690007E5F6F5F11969C911197691798F201C028
:1046A00070E0E72FF0E0E356F84E10824C91811154
:1046B00003C082E497E002C084E497E02DE937E18B
:1046C0003F932F931F924F939F938F9388E497E08C
:1046D0009F938F938FED97E19F938F930E941A3151
:1046E00060E070E08FED97E1B3DE0FB6F894DEBFC7
:1046F0000FBECDBF811159C008E215E020E030E0C7
:104700004DE250E06CE078E180918317909184173E
:104710000E94BC0C882309F447C08CE098E123DE9A
:104720008E3009F042C087E0898380918117909193
:104730008217892BA9F1BE016F5F7F4F8CE098E152
:1047400068D180938717E981F0E0E45FF74EDF01DD
:104750000D900020E9F71197AE1BBF0BAA2391F033
:10476000BB27CD0101979C0112F42F5F3F4F359578
:10477000279520938817AF014F5F5F4F64E189E869
:1047800097E173D101E010E020E030E046E150E035
:1047900067E877E180918117909182170E94B30BAF
:1047A0008EE003C084E101C080E00F90DF91CF91E3
:1047B0001F910F910895813019F068E577E002C0EC
:1047C00061E378E08CE597E043CE08959F938F9363
:1047D0008DE897E09F938F938FED97E19F938F9351
:1047E0000E941A3160E070E08FED97E131DE0F90AA
:1047F0000F900F900F900F900F9008952F923F926F
:104800004F925F926F927F928F929F92AF92BF92E0
:10481000CF92DF92EF92FF920F931F93CF93DF938C
:10482000CDB7DEB7A0970FB6F894DEBF0FBECDBFF1
:104830006AEB77E086EC97E03CDD95DD8111A3C063
:1048400080E2E2E2F2E0DE01119601900D928A959B
:10485000E1F79E012F5F3F4F6901E12CF12C0F2EF4
:10486000F2EDAF2EF7E0BF2EF02D0FED17E10F2E7A
:10487000FBEE4F2EF7E05F2EF02D0F2EF2E08F2E85
:10488000F8E09F2EF02D0F2EFCE16F2EF8E07F2E2A
:10489000F02D3E2C2F2CFF92EF92BF92AF921F93E0
:1048A0000F930E941A3160E070E0C80102DD5BDD09
:1048B0000F900F900F900F900F900F90811163C089
:1048C00032E03E15E8F4F60183818F9382818F9365
:1048D00081818F9380818F93FF92EF925F924F92AD
:1048E0001F930F930E941A3160E070E0C801E1DC71
:1048F0003ADD0FB6F894DEBF0FBECDBF811143C0C5
:104900002F923F929F928F921F930F930E941A3182
:1049100060E070E0C801CDDC26DD0F900F900F90B5
:104920000F900F900F9081112EC02F923F927F9287
:104930006F921F930F930E941A3160E070E0C801DC
:10494000B8DC11DD0F900F900F900F900F900F902B
:10495000811119C03FEFE31AF30A84E0C80ED11C9D
:1049600098E0E916F10409F094CF60E070E084E388
:1049700098E09FDCF8DC811106C060E070E085E41F
:1049800098E097DCF0DCA0960FB6F894DEBF0FBE7F
:10499000CDBFDF91CF911F910F91FF90EF90DF90EE
:1049A000CF90BF90AF909F908F907F906F905F90CF
:1049B0004F903F902F900895EF92FF920F931F9387
:1049C000CF93DF93EC018B017A0181E0F4DE81115A
:1049D0000DC0CE01D4DD811109C0C801E1DD811116
:1049E00005C0C701BBDD811101C0EBDDDF91CF91B7
:1049F0001F910F91FF90EF90089590E0FC01EE0F52
:104A0000FF1F8E0F9F1FFC01E25FF64F8181928195
:104A10000895DC01009729F1FB012081FC01019040
:104A20000020E9F73197E81BF90B822F90E0E81797
:104A3000F907C8F080E008C0880F382F330F330F14
:104A4000830F8053890F2F5FFD01E20FF11D9081CD
:104A500030ED390F3A3010F49111EECFFB01208385
:104A6000089580E0089580E008950F931F93CF93F9
:104A7000DF93DC01EA012097E1F1FA0101900020C7
:104A8000E9F73197E41BF50B329710F532C08D0131
:104A9000040F151F30E0AE01420F531FFA01908141
:104AA000913428F09753592F5295507F03C0592FB6
:104AB0005295507F2C0F3D1FF9019181913410F0D8
:104AC000975301C09053950FF80190838F5F01C0F9
:104AD00080E0282F220F482F50E0FE010190002097
:104AE000E9F73197EC1BFD0B4E175F0710F48613A7
:104AF000CECFDF91CF911F910F91089580913C18F7
:104B0000860F80933C1890913F18913079F028F0EF
:104B10009230A9F0933019F108956F3F09F048C021
:104B200010923C1881E080933F180895663809F090
:104B30003FC010923B1882E080933F180895E091A7
:104B40003B1881E08E0F80933B18F0E0E75CF74E56
:104B50006083823069F583E080933F1808959091D7
:104B60003B1821E0290F20933B18963009F581115D
:104B70000EC0E9E3F8E1808190E0982F8827218139
:104B8000820F911D909341188093401804C0109299
:104B900041181092401810923F18E0913D18F09182
:104BA0003E18309729F0809140189091411819953E
:104BB00008958F929F92AF92CF92EF920F930F2E04
:104BC000FEE78F2EF5E29F2EF02D6894AA24A4F81C
:104BD0006894CC24C4F8E12C00E023E040E855E2DE
:104BE00060E070E073D090934318809342180F9167
:104BF000EF90CF90AF909F908F90089590933E1834
:104C000080933D180895CF93DF93CDB7DEB72997F2
:104C10000FB6F894DEBF0FBECDBF89E0E2E4F2E04C
:104C20009E012F5F3F4FD90101900D928A95E1F7C8
:104C30001092411810924018809142189091431898
:104C4000009731F0422F532F69E00CD180E001C072
:104C500082E029960FB6F894DEBF0FBECDBFDF917C
:104C6000CF91089565360CF064E66C390CF46CE96C
:104C700096EF6902B00111246854744F811105C088
:104C80007093290160932801089570932B0160931C
:104C90002A010895EAE0F1E08081886180838FE352
:104CA0009CE9909327018093260160E080E0DADFA1
:104CB00060E081E0D7DFE0E2F1E08081826A80831A
:104CC000E1E2F1E080818A61808308952F923F9232
:104CD0004F925F926F927F928F929F92AF92CF92FC
:104CE000EF92FF920F931F93CF93DF93CDB7DEB771
:104CF000F82E2A013B0188E090E00E94532F8C019E
:104D00008F2D90E0FC01EE0FFF1FEC5BF74E11833F
:104D100000830115110509F468C0880F991FFC0173
:104D2000E55FFD4F80819181D8018D939C936C2D1F
:104D300070E084E090E00E94392F1C0161E070E097
:104D400086E090E00E94392F7C014C2DB1015CD6A9
:104D5000F801F582E4826A2D70E084E090E00E9420
:104D6000392F1C0161E070E086E090E00E94392F4D
:104D70007C014A2DB10148D6D8011396FC92EE92DF
:104D8000129717969C928E921697FFB6F894ED9113
:104D9000FC91119736978081826080838D909C90E2
:104DA000C301B2014BD720E030E040E051E4D4D75A
:104DB0009B01AC0160E074E284E79BE4A6D620E0AE
:104DC00030E040E85FE33CD60DD7F40132976083D2
:104DD000D801ED91FC911197359788E98083ED9189
:104DE000FC91349786E08083FFBEC801DF91CF91AC
:104DF0001F910F91FF90EF90CF90AF909F908F9069
:104E00007F906F905F904F903F902F900895CF9339
:104E1000DF93DC01892B01F11296ED91FC91139740
:104E2000938182812581981B922384819817B1F008
:104E3000838126952823C081D181C20FD11D68832B
:104E40008F5F958189238383ED91FC9135978081D4
:104E50008062808380E003C081E001C082E0DF9156
:104E6000CF910895EF92FF920F931F93CF93DF930B
:104E70007C01009709F441C0DC011296ED91FC9190
:104E8000139793818281981B858198238481891B44
:104E90008617A8F1662341F1842F952FDC0161501C
:104EA000462F50E04F5F5F4F480F591FE701EA81DF
:104EB000FB81938182812581981B9223848198179D
:104EC00079F08C91938126952923608171818B01E2
:104ED000020F111DE80188839F5F858198239383CA
:104EE0001196A417B50711F7D701ED91FC913597ED
:104EF00080818062808380E003C081E001C082E025
:104F0000DF91CF911F910F91FF90EF90089500973F
:104F1000D1F0DC011496ED91FC911597938182817B
:104F2000981799F09281858186958923A081B18116
:104F3000A80FB11D8C91DB018C939F5F8581982315
:104F4000928380E0089581E0089583E008951F92A0
:104F50000F920FB60F9211240BB60F922F933F931F
:104F60004F935F936F937F938F939F93AF93BF9371
:104F7000CF93DF93EF93FF93A0914418B09145181E
:104F8000109711F16091C6001496ED91FC91159760
:104F9000938182812581981B92238481981761F0E7
:104FA000838126952823C081D181C20FD11D6883BA
:104FB0008F5F9581892383831696ED91FC911797D6
:104FC000309711F0CD011995FF91EF91DF91CF91BD
:104FD000BF91AF919F918F917F916F915F914F9111
:104FE0003F912F910F900BBE0F900FBE0F901F900F
:104FF00018951F920F920FB60F9211240BB60F92B5
:105000002F938F939F93AF93BF93EF93FF93E09171
:105010004418F09145183097B9F00280F381E02DE3
:10502000938182819817B1F092818581282F2695EE
:105030002923A081B181A20FB11D2C919F5F8923EB
:1050400082832093C6000BC0E1ECF0E080818F7D6D
:10505000808305C0E1ECF0E080818F7D8083FF914B
:10506000EF91BF91AF919F918F912F910F900BBEB8
:105070000F900FBE0F901F9018951F920F920FB6B2
:105080000F9211240BB60F922F933F934F935F9380
:105090006F937F938F939F93AF93BF93CF93DF9340
:1050A000EF93FF93A0914618B0914718109711F114
:1050B0006091CE001496ED91FC91159793818281B9
:1050C0002581981B92238481981761F0838126950E
:1050D0002823C081D181C20FD11D68838F5F958144
:1050E000892383831696ED91FC911797309711F0E1
:1050F000CD011995FF91EF91DF91CF91BF91AF91C4
:105100009F918F917F916F915F914F913F912F91DF
:105110000F900BBE0F900FBE0F901F9018951F920F
:105120000F920FB60F9211240BB60F922F938F93FD
:105130009F93AF93BF93EF93FF93E0914618F09145
:1051400047183097B9F00280F381E02D9381828176
:105150009817B1F092818581282F26952923A08167
:10516000B181A20FB11D2C919F5F8923828320936F
:10517000CE000BC0E9ECF0E080818F7D808305C01C
:10518000E9ECF0E080818F7D8083FF91EF91BF910A
:10519000AF919F918F912F910F900BBE0F900FBEEB
:1051A0000F901F9018951F920F920FB60F92112417
:1051B0000BB60F922F933F934F935F936F937F9311
:1051C0008F939F93AF93BF93CF93DF93EF93FF930F
:1051D000A0914818B0914918109711F16091D6002C
:1051E0001496ED91FC911597938182812581981BEE
:1051F00092238481981761F0838126952823C081AA
:10520000D181C20FD11D68838F5F958189238383EC
:105210001696ED91FC911797309711F0CD011995E5
:10522000FF91EF91DF91CF91BF91AF919F918F91BE
:105230007F916F915F914F913F912F910F900BBE96
:105240000F900FBE0F901F9018951F920F920FB6E0
:105250000F9211240BB60F922F938F939F93AF93BE
:10526000BF93EF93FF93E0914818F091491830975E
:10527000B9F00280F381E02D938182819817B1F01B
:1052800092818581282F26952923A081B181A20FA3
:10529000B11D2C919F5F892382832093D6000BC080
:1052A000E1EDF0E080818F7D808305C0E1EDF0E0ED
:1052B00080818F7D8083FF91EF91BF91AF919F910E
:1052C0008F912F910F900BBE0F900FBE0F901F90DC
:1052D00018951F920F920FB60F9211240BB60F92D2
:1052E0002F933F934F935F936F937F938F939F93EE
:1052F000AF93BF93CF93DF93EF93FF93A0914A189F
:10530000B0914B18109711F1609136011496ED9100
:10531000FC911597938182812581981B922384812A
:10532000981761F0838126952823C081D181C20F0F
:10533000D11D68838F5F9581892383831696ED91B4
:10534000FC911797309711F0CD011995FF91EF91CE
:10535000DF91CF91BF91AF919F918F917F916F918D
:105360005F914F913F912F910F900BBE0F900FBE09
:105370000F901F9018951F920F920FB60F92112445
:105380000BB60F922F938F939F93AF93BF93EF938F
:10539000FF93E0914A18F0914B183097B9F00280D2
:1053A000F381E02D938182819817B1F092818581FC
:1053B000282F26952923A081B181A20FB11D2C9100
:1053C0009F5F89238283209336010BC0E1E3F1E0E4
:1053D00080818F7D808305C0E1E3F1E080818F7D56
:1053E0008083FF91EF91BF91AF919F918F912F910A
:1053F0000F900BBE0F900FBE0F901F901895CF937C
:10540000DF931F92CDB7DEB7BE016F5F7F4F8091F4
:105410004C1890914D187BDD8111F6CF898190E079
:105420000F90DF91CF910895682F80914C18909143
:105430004D18EDDC80E090E008958F929F92AF923E
:10544000CF92EF920F93812C912C6894AA24A7F805
:105450006894CC24C7F8E12C00E023E040E051EE52
:1054600060E070E033DC90934D1880934C18E7EACD
:10547000F8E183E192E091838083938382830F91AB
:10548000EF90CF90AF909F908F90089590E0FC01A7
:10549000EE0FFF1FE80FF91FEE0FFF1FE25BF74E45
:1054A000238121111FC09C01220F331FF901E80F36
:1054B000F91FEE0FFF1FE25BF74EA081B1814C9107
:1054C000F901E80FF91FEE0FFF1FE25BF74E81E0D5
:1054D00090E0028002C0880F991F0A94E2F7842BA3
:1054E0008C930895FC01EE0FFF1FDF01A80FB91F79
:1054F000AA0FBB1FA25BB74E0D90BC91A02D2C91A3
:10550000E80FF91FEE0FFF1FE25BF74E81E090E01E
:10551000028002C0880F991F0A94E2F780958223C7
:105520008C93089590E0FC01EE0FFF1FE80FF91F28
:10553000EE0FFF1FE25BF74E2381211120C09C017B
:10554000220F331FF901E80FF91FEE0FFF1FE25B77
:10555000F74EA081B1814C91F901E80FF91FEE0FD0
:10556000FF1FE25BF74E81E090E0028002C0880FEF
:10557000991F0A94E2F7809584238C930895FC0187
:10558000EE0FFF1FDF01A80FB91FAA0FBB1FA25B01
:10559000B74E0D90BC91A02D2C91E80FF91FEE0F86
:1055A000FF1FE25BF74E81E090E0028002C0880FAF
:1055B000991F0A94E2F7822B8C930895CF93DF937F
:1055C00090E0FC01EE0FFF1FDF01A80FB91FAA0F2B
:1055D000BB1FA25BB74ECD91DC911197488121E0B2
:1055E00030E012960C90129702C0220F331F0A94DB
:1055F000E2F724272883FD0181E08483DF91CF91A6
:105600000895CF93DF9390E0FC01EE0FFF1FDF01C1
:10561000A80FB91FAA0FBB1FA25BB74ECD91DC919B
:105620001197488121E030E012960C90129702C049
:10563000220F331F0A94E2F724272883FD0182E01A
:105640008483DF91CF910895282F30E0F901EE0F88
:10565000FF1FE20FF31FEE0FFF1FE25BF74E93E019
:10566000948360CF0895282F30E0F901EE0FFF1FDB
:10567000E20FF31FEE0FFF1FE25BF74E94E09483FF
:1056800005CF089590E0FC01EE0FFF1FDF01A80F8A
:10569000B91FAA0FBB1FA25BB74E24E015962C932F
:1056A0001597FD011482089590E0FC01EE0FFF1F95
:1056B000DF01A80FB91FAA0FBB1FA25BB74E21E0E5
:1056C00015962C931597FD011482089580917418F6
:1056D00081110CC08CE08093B8008FEF8093BB00E9
:1056E00084E08093BC0081E0809374180895AF92A9
:1056F000BF92CF92DF92EF92FF920F931F93CF93BF
:10570000DF93A82EB62E69017A0184E090E0CBD316
:10571000EC01892B61F1A88281E0B81212C0C701A7
:10572000B60120EA36E841E050E079D3DA01C90158
:105730004097A109B109B695A79597958795898353
:1057400011C0C701B60120E83AE146E050E067D356
:10575000DA01C9014097A109B109B695A7959795B6
:10576000879589831B830A838C2F9D2F02C080E03D
:1057700090E0DF91CF911F910F91FF90EF90DF901C
:10578000CF90BF90AF9008958091BC008170089534
:10579000FF920F931F93CF93DF930097D1F14A307D
:1057A000D0F5F42E8B01EC01EFDF811136C0809132
:1057B000671890916818C817D90741F087DF898169
:1057C0008093B800D0936818C093671881E08F0D5C
:1057D000809369188881880F80936A18FF2089F068
:1057E000F801ABE6B8E14FEF4F0D642F70E0CB014D
:1057F0000196B801680F791F81918D93E617F7071D
:10580000D9F788EF8093210285EA8093BC0084E079
:1058100005C086E003C087E001C082E0DF91CF9140
:105820001F910F91FF9008951F93CF93DF930097DF
:1058300029F16B3028F5162FEC01A6DF811122C06B
:105840008091671890916818C817D90741F03EDF1A
:1058500089818093B800D0936818C093671810931B
:1058600069188881880F816080936A1888EF809317
:10587000210285EA8093BC0085E005C086E003C074
:1058800087E001C082E0DF91CF911F9108951F92C0
:105890000F920FB60F9211240BB60F922F933F93D6
:1058A0004F935F936F937F938F939F93AF93BF9328
:1058B000EF93FF93E091B9008E2F90E0FC013897B1
:1058C000E135F10508F075C08827E458FF4F8F4F88
:1058D000C8C210926618E091661880916918E8179E
:1058E00070F481E08E0F80936618F0E0E659F74E71
:1058F00080818093BB0085E88093BC0072C084E9FE
:105900008093BC008091671890916818DC01129612
:10591000ED91FC911397309709F463C020E040E0CB
:1059200050E064E019955DC0E091661881E08E0F4B
:10593000809366188091BB00F0E0E659F74E8083B3
:105940008091B900803411F4109266182091661885
:1059500030E08091691890E001972817390724F406
:1059600085EC8093BC003DC085E88093BC0039C0C5
:105970008091BB00E0916618F0E0E659F74E808315
:1059800084E98093BC008091671890916818DC01CD
:105990001296ED91FC911397309719F120916918A7
:1059A0004AE658E165E019951CC085EA8093BC0081
:1059B00018C08091B9008093210284E08093BC00DC
:1059C0008091671890916818DC011296ED91FC9116
:1059D0001397309731F020E040E050E060912102D1
:1059E0001995FF91EF91BF91AF919F918F917F9109
:1059F0006F915F914F913F912F910F900BBE0F9040
:105A00000FBE0F901F901895FC01411101C06CD37F
:105A1000842F90E09C012150310982239323892B0C
:105A200009F062D3413808F05FD3128213824483B5
:105A3000440F415045837183608380E090E0089576
:105A40005058BB27AA270ED04DC13ED130F043D1CC
:105A500020F031F49F3F11F41EF433C10EF4E095B1
:105A6000E7FB29C1E92F4FD180F3BA17620773070B
:105A70008407950718F071F49EF567C10EF4E09560
:105A80000B2EBA2FA02D0B01B90190010C01CA01F8
:105A9000A0011124FF27591B99F0593F50F4503EA3
:105AA00068F11A16F040A22F232F342F4427585F95
:105AB000F3CF469537952795A795F0405395C9F7AD
:105AC0007EF41F16BA0B620B730B840BBAF0915065
:105AD000A1F0FF0FBB1F661F771F881FC2F70EC004
