:10000000E4C0000003C1000001C10000FFC0000007
:10001000FDC00000FBC00000F9C00000F7C00000F8
:10002000F5C00000F3C00000F1C00000EFC0000008
:10003000D6C30000EBC00000E9C00000E7C000002C
:10004000E5C00000E3C00000E1C00000DFC0000028
:10005000DDC00000DBC00000D9C00000D7C0000038
:10006000D5C000000C9498120C94EA12CFC0000086
:10007000CDC00000CBC00000C9C00000C7C0000058
:10008000C5C00000C3C00000C1C00000BFC0000068
:100090000C942E130C948013B9C000000C94181605
:1000A000B5C00000B3C00000B1C00000AFC0000088
:1000B000ADC00000ABC00000A9C00000A7C0000098
:1000C000A5C00000A3C00000A1C000000C94C41390
:1000D0000C9416149BC000000C945A140C94AC148D
:1000E00095C000002410241024105B1063107810B9
:1000F000241024105B1063103A16AA16AA16AA162A
:10010000AA16AA16AA16AA163A16AA16AA16AA165F
:10011000AA16AA16AA16AA163C16AA16AA16AA164D
:10012000AA16AA16AA16AA16AA16AA16AA16AA16CF
:10013000AA16AA16AA16AA163C16AA16AA16AA162D
:10014000AA16AA16AA16AA16AA16AA16AA16AA16AF
:10015000AA16AA16AA16AA16A616AA16AA16AA16A3
:10016000AA16AA16AA16AA167116AA16AA16AA16C8
:10017000AA16AA16AA16AA16AA16AA16AA16AA167F
:10018000AA16AA16AA16AA166516AA16AA16AA16B4
:10019000AA16AA16AA16AA16891610D78091B318FD
:1001A000823008F059D20E94A110F7CFCF93DF938D
:1001B0001F92CDB7DEB7CE0101960E94A70D4981EF
:1001C0000E949A0F0E94ED0FF6CF11241FBECFEFB1
:1001D000D1E2DEBFCDBF00E00CBF12E0A0E0B2E094
:1001E000ECE8FAE300E00BBF02C007900D92A63DD9
:1001F000B107D9F729E1A6EDB2E001C01D92AB36F7
:10020000B207E1F70E942A110C94441DF9CEE2EEE8
:10021000F2E0A6EEB2E0B183A08313821282EEE593
:10022000F8E1F093E102E093E0021382128211827E
:10023000108288E795E113969C938E931297ED9325
:10024000FC939093DD028093DC029093DF02809315
:10025000DE0280E090E89093D7028093D602089562
:10026000CF93DF93EC01A2EEB2E001C0DF01ED918C
:10027000FC911197EC17FD07C8F312968D919C9194
:1002800013979D01280F391FC217D30749F42A81FC
:100290003B81820F931F13969C938E931297ED01CF
:1002A0008A819B819E01280F391FE217F307C1F451
:1002B0002091E0023091E102E217F30771F0228110
:1002C0003381820F931F9B838A83ED91FC91119759
:1002D000808191819983888305C03983288302C0F6
:1002E000F983E883CA17DB0711F0CD93DC93DF9124
:1002F000CF910895EF92FF920F931F93CF93DF93C7
:100300008C019ED78091E0029091E102892B09F443
:100310007EDF8091D6029091D70280239123892B92
:1003200009F076C00115110549F0C80104960817B7
:10033000190718F000E010E001C08C01011511054B
:1003400009F469C08091DE029091DF028017910765
:1003500008F464C0C091E202D091E302E2EEF2E060
:1003600002C0FE01EC018A819B818017910720F475
:10037000888199810097A9F78091E0029091E1022C
:10038000C817D90709F44DC0E080F18084E0E80E79
:10039000F11C88819981918380832A813B81201B74
:1003A000310B2930310548F0CE01800F911FFC013F
:1003B000338322831B830A8353DF2A813B8180910D
:1003C000DE029091DF02821B930B9093DF028093F9
:1003D000DE024091DC025091DD028417950720F483
:1003E0009093DD028093DC028091D6029091D70237
:1003F000282B392B3B832A83198218828091DA02B9
:100400009091DB0201969093DB028093DA020BC09D
:10041000E12CF12C08C0E12CF12C05C0E12CF12CD1
:1004200002C0E12CF12C0E94600AE114F10411F4E5
:100430000E94AD10C701DF91CF911F910F91FF90E6
:10044000EF9008950F931F93CF93DF93009789F157
:10045000EC0124974A815B812091D6023091D7022A
:10046000BA0162237323672B21F168817981672B9D
:1004700001F520953095242335233B832A83E0D64C
:100480008A819B812091DE023091DF02820F931FCF
:100490009093DF028093DE02CE01E2DE8091D802EB
:1004A0009091D90201969093D9028093D8020E942C
:1004B000600ADF91CF911F910F910895FC0103967F
:1004C000928381834FEF5FEFBA0143835483658347
:1004D0007683908787839287818710820895FC01B5
:1004E0001386128608950F931F93CF93DF93EB012A
:1004F000088119812A813B810F3F4FEF14072407A0
:10050000340721F4FC01A185B28511C0DC011396EA
:1005100001C0DF011496ED91FC9115974081518146
:1005200062817381041715072607370790F7149621
:10053000ED91FC911597FD83EC83D783C683BF8330
:10054000AE831596DC93CE9314979B878A87FC0124
:1005500020812F5F2083DF91CF911F910F9108950C
:10056000CF93DF93FC01A285B385C481D5818681B9
:1005700097819F838E83C681D781848195819D8356
:100580008C8311968D919C911297E817F90731F49D
:100590008681978112969C938E931197138612866B
:1005A0008C9181508C938C91DF91CF910895A89577
:1005B00090EC88E10FB6F894A895809360000FBE88
:1005C000909360000895FC016083319770833197A8
:1005D000108231971082319720E820833197108262
:1005E00031971082319710827797408331975083EB
:1005F00086970895DCDFA0912119B0912219CD9141
:10060000CDBFDD91DEBFFF91EF91DF91CF91BF9123
:10061000AF919F918F917F916F915F914F913F919A
:100620002F911F910F91FF90EF90DF90CF90BF908F
:10063000AF909F908F907F906F905F904F903F9082
:100640002F901F900F900CBE0F900BBE0F900FBEFF
:100650000F90089581E008950F920FB6F8940F92CD
:100660000BB60F920CB60F921F9211242F923F924D
:100670004F925F926F927F928F929F92AF92BF92B2
:10068000CF92DF92EF92FF920F931F932F933F939E
:100690004F935F936F937F938F939F93AF93BF938A
:1006A000CF93DF93EF93FF93A0912119B09122197B
:1006B0000DB60D920EB60D92FAD7A0912119B091F8
:1006C0002219CD91CDBFDD91DEBFFF91EF91DF917A
:1006D000CF91BF91AF919F918F917F916F915F91DA
:1006E0004F913F912F911F910F91FF90EF90DF90CD
:1006F000CF90BF90AF909F908F907F906F905F90C2
:100700004F903F902F901F900F900CBE0F900BBEFC
:100710000F900FBE0F9008950F920FB6F8940F929E
:100720000BB60F920CB60F921F9211242F923F928C
:100730004F925F926F927F928F929F92AF92BF92F1
:10074000CF92DF92EF92FF920F931F932F933F93DD
:100750004F935F936F937F938F939F93AF93BF93C9
:10076000CF93DF93EF93FF93A0912119B0912219BA
:100770000DB60D920EB60D9213BE76D5811197D798
:10078000A0912119B0912219CD91CDBFDD91DEBF8D
:10079000FF91EF91DF91CF91BF91AF919F918F9199
:1007A0007F916F915F914F913F912F911F910F9189
:1007B000FF90EF90DF90CF90BF90AF909F908F9081
:1007C0007F906F905F904F903F902F901F900F9071
:1007D0000CBE0F900BBE0F900FBE0F9008959CDFC4
:1007E00018950FB6F8940F92FC01868D811102C006
:1007F00081E001C080E00F900FBE08950FB6F8941D
:100800000F92FC01268D878D281302C081E001C064
:1008100080E00F900FBE08950F931F93CF93DF9347
:10082000EC01042F1E8D48A141110CC088819981D3
:10083000892B09F042C08C819D810E944C0D1D8244
:100840001C8242C0011117C050E08A819B810E9426
:10085000441A28A18A819B81820F911D9B838A83E0
:100860002C813D818217930750F1888199819B8368
:100870008A8380E029C050E08E819F810E94441AC3
:1008800088A190E09195819591092E813F81280F53
:10089000391F3F832E83488159812417350730F44F
:1008A0002C813D81820F931F9F838E83023049F4F8
:1008B000112349F0115080E007C080E005C080E0BE
:1008C00003C080E001C080E01F5F1E8FDF91CF91E9
:1008D0001F910F910895FC0140A14423A9F050E01D
:1008E00026813781240F351F3783268384819581A4
:1008F0002817390720F08081918197838683CB0167
:10090000668177810C94441A08951F93CF93DF93E7
:10091000EC010FB6F8940F921AA10AC08B898823B4
:1009200049F0CE01439680D781110E943A0D1150B3
:100930001116A4F38FEF8AA30F900FBE0FB6F89491
:100940000F9219A10AC08885882349F0CE01089624
:100950006BD781110E943A0D11501116A4F38FEF3D
:1009600089A30F900FBEDF91CF911F910895CF9370
:10097000DF93EC010FB6F8940F92E881F9818F8D27
:1009800028A190E030E0829FA001839F500D929FAC
:10099000500D11244E0F5F1F5D834C831E8EFB8311
:1009A000EA830197289FA001299F500D389F500D81
:1009B0001124CF01840F951F9F838E838FEF89A30E
:1009C0008AA361110AC08885882369F0CE01089640
:1009D0002BD7882341F040DE06C0CE0108966EDD9D
:1009E000CE0143966BDD0F900FBE81E0DF91CF917A
:1009F00008950F931F93F801611103C011830083C1
:100A000002C051834083878F60A361E0CF01AFDFD5
:100A10001F910F910895DF92EF92FF920F931F9312
:100A2000CF93DF93F82EE62ED42E869FC00111249B
:100A3000839660DCEC01009741F08C012D2DAC0118
:100A40004D5D5F4F6E2D8F2DD4DFCE01DF91CF91A5
:100A50001F910F91FF90EF90DF900895CF92DF925A
:100A6000EF92FF920F931F93CF93DF93CDB7DEB733
:100A700029970FB6F894DEBF0FBECDBF7C016B0186
:100A80002E833F834887598710E00FB6F8940F9262
:100A9000F701968D878D981710F00230A9F4402F3A
:100AA000B601C701B9DEF7019389992339F0C7016F
:100AB0004396BAD6882321F0CFDD02C08111CCDD68
:100AC0000F900FBE81E046C08E819F81A885B985B9
:100AD000892B8A2B8B2B21F40F900FBE80E03AC01C
:100AE000111104C0CE0101964ED711E00F900FBE38
:100AF000A7D30FB6F8940F92F70181A18F3F09F4A5
:100B000011A2F70182A18F3F09F412A20F900FBE2C
:100B1000BE016A5F7F4FCE01019646D7811116C094
:100B2000C7016CDE882371F04E815F81688579850D
:100B3000C701089620D6C701E8DEC2D48111A5CF2F
:100B40008BDDA3CFC701E1DEBBD49FCFC701DDDEC4
:100B5000B7D480E029960FB6F894DEBF0FBECDBFA4
:100B6000DF91CF911F910F91FF90EF90DF90CF9089
:100B70000895EF92FF920F931F93CF93DF938A0113
:100B8000FC01568D378D531710F02230F1F4422FAF
:100B90007801EC011AA18E8DCE013EDE1F3F79F463
:100BA0008B898823A1F0CE0143963ED6882389F015
:100BB000E114F10481F081E0F70180830DC0FF248E
:100BC000F394F10EFAA281E007C080E005C081E055
:100BD00003C081E001C081E0DF91CF911F910F91AF
:100BE000FF90EF900895CF92DF92EF92FF920F93D4
:100BF0001F93CF93DF93CDB7DEB729970FB6F89445
:100C0000DEBF0FBECDBF8C016B012E833F834887B3
:100C10005987E12C0FB6F8940F92F801F68CFF205B
:100C200091F0B601C80157DEFA94F801F68E80857E
:100C3000882329F0C8010896F7D581110DDD0F90A2
:100C40000FBE81E04CC08E819F81A885B985892B1C
:100C50008A2B8B2B21F40F900FBE80E040C0E11057
:100C600005C0CE0101968FD6EE24E3940F900FBEFF
:100C7000E7D20FB6F8940F92F80181A18F3F09F4E3
:100C800011A2F80182A18F3F09F412A20F900FBEAA
:100C9000BE016A5F7F4FCE01019686D6811116C0D4
:100CA000C8019FDD882371F04E815F816885798559
:100CB000C801439660D5C80128DE02D48111AACFAD
:100CC000CBDCA8CFC80121DEFBD3A4CFC8011DDE39
:100CD000F7D3C80186DD882309F49CCF80E02996EC
:100CE0000FB6F894DEBF0FBECDBFDF91CF911F913D
:100CF0000F91FF90EF90DF90CF900895CF93DF9307
:100D0000EC010FB6F8940F9289A18F3F09F419A254
:100D10008AA18F3F09F41AA20F900FBE8E8D811108
:100D200003C0CE0143963ED5CE01EFDDDF91CF91DA
:100D30000895E0919B18F0919C18808181110CC05E
:100D40008FEF9FEFDC018093651890936618A09356
:100D50006718B09368180895E0919B18F0919C185B
:100D60000780F085E02D80819181A281B3818093FD
:100D7000651890936618A0936718B0936818089543
:100D8000CF93DF93EC018B8D9C8D5CDBCE015ADB26
:100D9000DF91CF9108954F925F926F927F928F92E1
:100DA0009F92AF92BF92CF92DF92EF92FF920F93FA
:100DB000CF93DF932C015B014A013901E60165EA1B
:100DC00070E08B8D9C8D0E944D1A8B8D9C8D21E047
:100DD000821A9108880E991EA114B10489F415C0D5
:100DE000822F90E0F501E80FF91F3081DE01A80F96
:100DF000B91F5D963C938081882329F02F5F01C045
:100E000020E0203168F31CA601C01D8E0A3008F0D6
:100E100009E00A8F0DA71EA6CE01029660DBCE0167
:100E20000E965DDBDB87CA878AE090E0A0E0B0E049
:100E3000801B9109A109B1098E879F87A88BB98B67
:100E4000DF8BCE8B84E0FE01BF96DF011D928A9579
:100E5000E9F71BAAA301B201C401B5DB998388831A
:100E6000E114F10419F0F701D183C083DF91CF9130
:100E70000F91FF90EF90DF90CF90BF90AF909F9039
:100E80008F907F906F905F904F900895CF93C0E0C8
:100E900008C02BE0C29FC00111248D54974E0EDB79
:100EA000CF5FCA30B0F388EA98E108DB8DE998E1BA
:100EB00005DB8EE898E102DB83E898E1FFDA87E75B
:100EC00098E1FCDA88EA98E190939C1880939B184B
:100ED0008DE998E190939A1880939918CF9108958D
:100EE000CF93DF93EC010FB6F8940F9280917618B0
:100EF0008F5F809376188091211990912219892B08
:100F000051F4D0932219C093211980917618813021
:100F100091F4BCDF10C08091701881110CC0E09179
:100F20002119F0912219928D8A8D891720F0D09382
:100F30002219C0932119809169188F5F80936918D5
:100F4000EA8D809171188E1710F4E09371188BE080
:100F50008E9FF0011124ED54F74E0180F281E02DB7
:100F6000FF83EE832681378139872887A681B78161
:100F70009E012E5F3F4F15963C932E931497378317
:100F80002683EA8D8E9FF0011124ED54F74EFD87E4
:100F9000EC8780818F5F80830F900FBE80917018E7
:100FA000882349F0E0912119F0912219928D8A8DC0
:100FB000981708F451DBDF91CF910895CF93DF9319
:100FC0001AC00FB6F8940F92E0918A18F0918B181E
:100FD000C085D185CE010296C3DA80917618815002
:100FE00080937618809182188150809382180F9098
:100FF0000FBECE01C5DE809182188111E2CFDF9154
:10100000CF9108958F929F92AF92BF92CF92DF922D
:10101000EF92FF92CF93DF936B017C01C42F8090FE
:10102000721890907318A0907418B09075188091F1
:10103000211990912219029693DA8FEFC816D806DB
:10104000E806F806B1F5CC23A1F1E7E7F8E1A181C4
:10105000B281C0912119D0912219BF83AE83C09172
:101060002119D091221916968D919C9117979987E5
:1010700088871696CD91DC911797809121199091D0
:10108000221902969D838C838091211990912219B7
:10109000029617969C938E931697A0912119B09162
:1010A00022191D96FC93EE931C9780818F5F80839D
:1010B0003DC0C80CD91CEA1CFB1CE0912119F09121
:1010C0002219C282D382E482F582C814D904EA04C8
:1010D000FB0460F460912119709122198091991894
:1010E00090919A186E5F7F4FFED920C060912119B0
:1010F0007091221980919B1890919C186E5F7F4F80
:10110000F2D98091651890916618A0916718B091F6
:101110006818C816D906EA06FB0640F4C09265189E
:10112000D0926618E0926718F0926818DF91CF911C
:10113000FF90EF90DF90CF90BF90AF909F908F90F7
:1011400008952F923F924F925F926F927F928F926B
:101150009F92AF92BF92CF92DF92EF92FF920F9346
:10116000CF93DF933C011B014A012901CA01C2D878
:101170006C01892B61F084E390E0BCD8EC01892BF1
:1011800019F0DC8ECB8E05C0C6015CD902C0C0E070
:10119000D0E0209761F0A12CB12C6E019201A40146
:1011A000B101C301F8DDCE019BDE81E001C08FEF0C
:1011B000DF91CF910F91FF90EF90DF90CF90BF9094
:1011C000AF909F908F907F906F905F904F903F90E7
:1011D0002F900895EF92FF920F930F2EF3E6EF2ECC
:1011E000F8E1FF2EF02D00E020E030E040EC50E090
:1011F00062E272E08DEC90E0A4DF813009F431D539
:101200008130C1F4F8948FEF9FEFDC018093651873
:1012100090936618A0936718B093681881E0809344
:10122000701810927218109273181092741810920D
:101230007518E0D9809106020F91FF90EF90089504
:10124000809162188F5F8093621808950FB6F894AA
:101250000F92609172187091731880917418909128
:1012600075180F900FBE0895CF92DF92EF92FF9204
:10127000CF93DF9380916218811105C1C0907218DD
:10128000D0907318E0907418F09075188FEFC81A0A
:10129000D80AE80AF80AC0927218D0927318E0923D
:1012A0007418F0927518C114D104E104F104B1F47A
:1012B00080919B1890919C182091991830919A18C0
:1012C00030939C1820939B1890939A1880939918A8
:1012D00080916A188F5F80936A182BDD8091651862
:1012E00090916618A0916718B0916818C816D90631
:1012F000EA06FB0620F480E0B2C081E001C080E095
:10130000E0919B18F0919C18908191110CC04FEFC7
:101310005FEFBA01409365185093661860936718A1
:10132000709368189CC0E0919B18F0919C180780FE
:10133000F085E02D0084F185E02D428153816481A8
:101340007581C416D506E606F70648F4409365187D
:1013500050936618609367187093681880C0A485CE
:10136000B585C681D781208531853F832E83C08591
:10137000D185268137813D832C8311964D915C91D7
:1013800012979F012E5F3F4F4217530731F440855C
:10139000518512965C934E931197158614869C91F5
:1013A00091509C93A08DB18D109709F1C289D3897A
:1013B000448955895F834E83C489D589428953897D
:1013C0005D834C8311966D917C911297AF01425FC2
:1013D0005F4F6417750731F44489558912965C9301
:1013E0004E931197118E108E9C9191509C93A28DCB
:1013F000909171189A1710F4A09371189BE09A9F1E
:10140000D0011124AD54B74E11960D90BC91A02D72
:10141000B783A68316964D915C91179751874087A5
:101420001696CD91DC9117973D832C8317963C93AC
:101430002E931697A28D9A9FD0011124AD54B74ECA
:10144000B587A4879C919F5F9C93228DE091211981
:10145000F0912219928D291708F04FCF51CFE091CA
:101460002119F0912219E28D9BE0E99FF0011124EE
:10147000ED54F74E9081923008F081E090916B1816
:10148000911116C016C080916C1890916D18A091A2
:101490006E18B0916F180196A11DB11D80936C1844
:1014A00090936D18A0936E18B0936F1880E001C0F0
:1014B00081E0DF91CF91FF90EF90DF90CF90089582
:1014C000CF92DF92EF92FF92CF93DF930FB6F89413
:1014D0000F928091621881508093621880916218F7
:1014E0008111BEC080917618811188C0BCC0E09186
:1014F0009518F09196180084F185E02DA08DB18D9E
:10150000C289D389848995899F838E83C489D5892B
:10151000828993899D838C8311962D913C9112979A
:10152000CF010E962817390731F4848995891296D0
:101530009C938E931197118E108E8C9181508C9369
:10154000A485B585C681D781808591859F838E834B
:10155000C085D185868197819D838C8311968D91DD
:101560009C9112979F012E5F3F4F8217930731F492
:101570008085918512969C938E931197158614867B
:101580008C9181508C93A28D809171188A1710F4E0
:10159000A09371188BE08A9FD0011124AD54B74EEF
:1015A00011960D90BC91A02DB783A68316964D91F0
:1015B0005C911797518740871696CD91DC911797CC
:1015C0003D832C8317963C932E931697A28D8A9F6A
:1015D000D0011124AD54B74EB587A4878C918F5F8D
:1015E0008C93928DA0912119B09122195A968C91C9
:1015F000981730F081E080936B1802C0E0E0F0E0D3
:1016000080918E18811173CFEF2B09F092DBC0907F
:101610006C18D0906D18E0906E18F0906F18C1148F
:10162000D104E104F104A1F01FDE882319F081E068
:1016300080936B1881E0C81AD108E108F108A1F77E
:1016400010926C1810926D1810926E1810926F18FC
:1016500080916B18882331F00E942C0381E003C035
:1016600080E001C080E00F900FBEDF91CF91FF902E
:10167000EF90DF90CF900895CF92DF92EF92FF929C
:101680006B017C01672B682B692B39F0D9DD40E0B9
:10169000C701B601B7DC14DF01C080E0811102C0D0
:1016A0000E942C03FF90EF90DF90CF9008958091DF
:1016B0006218882321F081E080936B1808951092BE
:1016C0006B18E0912119F091221920813181E0916C
:1016D0002119F0912219838D948D8217930758F068
:1016E0006091211970912219635E7F4F80912119B9
:1016F000909122193ED58091711801C08150282FF8
:1017000030E09BE0929FF001939FF00D1124ED5487
:10171000F74E9081992391F39BE0929FA001939FB4
:10172000500D1124DF010180F281E02D0480F5814C
:10173000E02D1296FC93EE9311974A54574EE417FE
:10174000F50729F444815581FD01528341839BE0D3
:10175000929FF001939FF00D1124ED54F74E0180FC
:10176000F281E02D208531853093221920932119B3
:10177000809371180895CF92DF92EF92FF926A01E1
:101780007B016091211970912219625F7F4F0E9445
:10179000730241E0C701B60135DCFF90EF90DF90A6
:1017A000CF900895CF93DF93FC01CB01BA01A181C3
:1017B000B281C0912119D0912219BB8BAA8BC09103
:1017C0002119D091221916964D915C9117975D8B36
:1017D0004C8B1696CD91DC91179740912119509121
:1017E0002219425F5F4F5D834C83409121195091D4
:1017F0002219425F5F4F17965C934E931697A09104
:101800002119B09122195996FC93EE935897308183
:101810003F5F3083222319F06FEF7FEFCB01422F20
:10182000F1DBDF91CF910895CF93DF93DC01179621
:10183000ED91FC9118970084F185E02DA08DB18D7C
:10184000C289D389848995899F838E83C489D589E8
:10185000828993899D838C8311968D919C91129797
:101860009F01225F3F4F8217930731F48489958946
:1018700012969C938E931197118E108E8C9181509D
:101880008C9380916218811152C0A485B585C68160
:10189000D781808591859F838E83C085D185868100
:1018A00097819D838C8311968D919C9112979F01B6
:1018B0002E5F3F4F8217930731F4808591851296F2
:1018C0009C938E931197158614868C9181508C93DE
:1018D000A28D809171188A1710F4A09371188BE073
:1018E0008A9FD0011124AD54B74E11960D90BC9132
:1018F000A02DB783A68316964D915C9117975187BB
:1019000040871696CD91DC9117973D832C831796CF
:101910003C932E931697A28D8A9FD0011124AD542B
:10192000B74EB587A4878C918F5F8C931CC04EE80F
:1019300058E1DA011196CD91DC911297D38BC28BCD
:101940008E819F81958B848B8E819F81DC01159682
:101950003C932E9314973F832E83518F408FDA014F
:101960008C918F5F8C93928DE0912119F0912219C7
:10197000828D891720F481E080936B1801C080E08C
:10198000DF91CF91089520916A18FC012083409146
:101990007218509173186091741870917518418382
:1019A00052836383748308958F929F92AF92BF9204
:1019B000CF92DF92EF92FF920F931F93CF93DF931B
:1019C000FB010FB6F8940F92C0907218D090731864
:1019D000E0907418F0907518DC0111960D911D912E
:1019E0002D913C91149746015701801A910AA20A41
:1019F000B30A40815181628173814F3FBFEF5B0722
:101A00006B077B0739F1EC01B881A0916A18BA170E
:101A100059F0C016D106E206F30630F010821182AA
:101A20001282138281E017C084169506A606B706B7
:101A300058F4481959096A097B0940835183628324
:101A40007383A1DF80E007C01082118212821382AB
:101A500081E001C080E00F900FBEDF91CF911F9118
:101A60000F91FF90EF90DF90CF90BF90AF909F903D
:101A70008F90089581E080936B180895809170187D
:101A8000882331F080916218811104C082E00895AA
:101A900081E0089580E008950F931F93CF93DF9323
:101AA000FC01892B09F449C086A5815086A7228DA7
:101AB00095A5291709F443C0811143C0EF018F0197
:101AC0000E5F1F4FC8010E94B002EDA5EA8F8AE0A9
:101AD00090E0A0E0B0E08E1B9109A109B1098E87CA
:101AE0009F87A88BB98B809171188E1710F4E093A3
:101AF00071188BE08E9FF0011124ED54F74E018098
:101B0000F281E02DFF83EE83268137813987288794
:101B1000A681B78115961C930E931497178306839D
:101B2000EA8D8E9FF0011124ED54F74EFD87EC876E
:101B300080818F5F808381E005C080E003C080E00A
:101B400001C080E0DF91CF911F910F910895DC01DA
:101B5000E0912D19F0912E19808191E0811190E092
:101B60009C93911108C00780F085E02D6081718100
:101B700082819381089560E070E0CB010895CF9257
:101B8000DF92EF92FF920F931F93FC0142835383E6
:101B900064837583938782870417150726073707A1
:101BA000C0F00C191D092E093F0986859785A0896B
:101BB000B189081719072A073B0700F5BF016E5FB7
:101BC0007F4F80912B1990912C190E94730280E015
:101BD00018C00C151D052E053F0528F44C155D0594
:101BE0006E057F0568F4BF016E5F7F4F80912D19F0
:101BF00090912E190E94730280E003C081E001C021
:101C000081E01F910F91FF90EF90DF90CF900895AA
:101C10000FB6F8940F928091291990912A19892B67
:101C2000E9F48AE399E10E945E028FE299E10E9461
:101C30005E028AE399E190932E1980932D198FE229
:101C400099E190932C1980932B1940E067E08AE08A
:101C50000E940B0590932A19809329190F900FBEAB
:101C60000895EF92FF920F93D3DF809129199091FD
:101C70002A19892B89F00F2EF7E2EF2EF9E1FF2EBA
:101C8000F02D03E020E030E040EC50E067E272E04D
:101C900086ED90E056DA01C080E00F91FF90EF9062
:101CA00008958F929F92AF92BF92CF92DF92EF9260
:101CB000FF920F931F93CF93DF93CDB7DEB7279794
:101CC0000FB6F894DEBF0FBECDBFE0912919F09199
:101CD0002A19309781F169832A833B834C835D8382
:101CE0009F838E836630F4F4C9DE823069F400E0AD
:101CF000A7019601BE016F5F7F4F809129199091D6
:101D00002A190E942E0518C000E020E030E0A90149
:101D1000BE016F5F7F4F8091291990912A190E940F
:101D20002E050AC020E0A801BE016F5F7F4FCF01E2
:101D30000E94B90501C080E027960FB6F894DEBF77
:101D40000FBECDBFDF91CF911F910F91FF90EF900C
:101D5000DF90CF90BF90AF909F908F9008958F921B
:101D60009F92AF92BF92CF92DF92EF92FF920F932A
:101D70001F93CF93DF933BC00780F085E02D8080D9
:101D80009180A280B380C085D1858E010E5F1F4FE8
:101D9000C8010E94B002EC89FD89CE0119958E8997
:101DA00082FF25C08E859F85A889B989880D991DD8
:101DB000AA1DBB1D88169906AA06BB0670F48A8365
:101DC0009B83AC83BD83DB87CA87B80180912D19C3
:101DD00090912E190E9473020AC0C12CD12C760159
:101DE00000E010E0A501940160E0CE015ADFE0912F
:101DF0002D19F0912E1980818111BECF80912B1960
:101E000090912C1990932E1980932D19F0932C19E1
:101E1000E0932B19DF91CF911F910F91FF90EF90DD
:101E2000DF90CF90BF90AF909F908F900895CF920A
:101E3000DF92EF92FF92CF93DF93EC0107DA6B0111
:101E40007C018091231990912419A0912519B091BA
:101E50002619C816D906EA06FB0620F480DF81E0C1
:101E6000888301C01882C0922319D0922419E0926D
:101E70002519F0922619C701B601DF91CF91FF9085
:101E8000EF90DF90CF9008954F925F926F927F9284
:101E90008F929F92AF92BF92CF92DF92EF92FF927A
:101EA0000F931F93CF93DF934B015C0129013A01FC
:101EB000E0912D19F0912E190780F085E02DC08555
:101EC000D185CE0102960E94B0028E8982FF1BC08E
:101ED0004E855F8568897989480D591D6A1D7B1D6E
:101EE0007501640193018201CE0149DE882369F006
:101EF000C12CD12C760100E010E0A501940160E036
:101F0000CE01CFDE02C08E7F8E8BEC89FD89CE01A3
:101F10001995DF91CF911F910F91FF90EF90DF9076
:101F2000CF90BF90AF909F908F907F906F905F9079
:101F30004F9008958F929F92AF92BF92CF92DF926F
:101F4000EF92FF921F93CF93DF931F92CDB7DEB72F
:101F50006B017C01142F74D9CE01019668DF4B010F
:101F60005C01898181112BC011110CC08C149D045E
:101F7000AE04BF0438F0A4DAA5019401C701B6018C
:101F800083DF1EC0112341F0E0912B19F0912C1931
:101F9000808111E0811110E0B701A60148195909AB
:101FA0006A097B09212F8091291990912A190E9491
:101FB0007E0686DA811104C00E942C0301C080DAFB
:101FC0000F90DF91CF911F91FF90EF90DF90CF9016
:101FD000BF90AF909F908F900895AF92BF92CF9295
:101FE000DF92EF92FF920F931F93CF93DF93CDB7C2
:101FF000DEB728970FB6F894DEBF0FBECDBF82C004
:10200000898188230CF47EC0AE80BF80D5011C96E8
:102010008D919C911D97892B21F0C50102960E94FC
:10202000B002CE01089603DF8B019C01E9810E2EE0
:10203000000CFF0BEA30F10508F064C08827EE5869
:10204000FF4F8F4F0C94FD18F50186898160868BB8
:10205000CA80DB80EC80FD80468557856089718968
:102060004C0D5D1D6E1D7F1DC50189DD882309F4A2
:1020700049C0D5015496ED91FC915597C50119952C
:10208000F501868982FF3EC04A815B816C817D813A
:1020900086859785A089B1899A01AB01280F391FE0
:1020A0004A1F5B1FC12CD12C760100E010E060E0DC
:1020B000C501F7DD27C0D50156968C9156978E7FC6
:1020C00056968C931FC0F50186898160868B4A8164
:1020D0005B816C817D8146875787608B718B400F58
:1020E000511F621F731F68017901C50148DD0AC0D5
:1020F000F501868981FD04C0C5010E94220202C04B
:102100008E7F868B20E030E0A901BE016F5F7F4F9C
:102110008091291990912A190E94F305811170CF9D
:1021200028960FB6F894DEBF0FBECDBFDF91CF91DA
:102130001F910F91FF90EF90DF90CF90BF90AF90E5
:102140000895089584B1806884B985B1806885B99F
:10215000089583B1806883B90895F4DF2FEF80E795
:1021600092E0215080409040E1F700C00000F1DF94
:10217000F5CFE8DF2FEF87EA91E6215080409040CD
:10218000E1F700C00000E5DFF5CFEF92FF920F937B
:10219000E12CF12C02E020E030E040EC50E06FE276
:1021A00072E08EE091E10E94A1080F91FF90EF9004
:1021B000089585D0811105C085E392E00E94671AD9
:1021C00014C0823029F48EE592E00E94671A0DC097
:1021D000833029F486E792E00E94671A06C08130B6
:1021E00021F48FE792E00E94671A8BE892E09F93B8
:1021F0008F930E94541A7AD062E370E080E090E0FE
:102200003BDA88D061E070E080E090E035DA87E981
:1022100092E00E94671A0F900F900895CADF64E65B
:1022200070E080E090E028DA85D09F938F937F93D1
:102230006F9387EA92E09F938F930E94541A0F90B6
:102240000F900F900F900F900F90E9CF80E0E6D3A2
:102250009CCF0895FBDF8FEB92E00E94671A0E94EB
:10226000EA08FFCF6530F1F4FA0180818F7390E0C6
:10227000982F88272181822B90930A02809309024C
:102280008281F0E48F9FC0011124FA0123812695F9
:102290002695822B909308028093070281E0809319
:1022A00045190895643051F080E090E4909308025D
:1022B0008093070290930A028093090208950F9376
:1022C0001F9302E311E120E034E244EF50E060E0CC
:1022D00087E2DED3909347198093461921E0892B3A
:1022E00009F020E0822F1F910F91089580914619E7
:1022F00090914719009751F040E060E070E019D4E8
:10230000843031F41092451980E0089582E00895F8
:1023100083E008958091461990914719009731F014
:1023200064E053D4853021F083E0089582E008957D
:1023300080E00895609107027091080280E090E0CB
:1023400049D620E030E045E253E4D2D620E038EF31
:102350004FE756E4ABD520E030E040E252E441C51F
:1023600008952F923F924F925F926F927F928F9239
:102370009F92AF92CF92EF92FF920F931F93CF93C2
:10238000DF93CDB7DEB7F82E2A013B0188E090E05D
:1023900056D78C018F2D90E0FC01EE0FFF1FE85BFC
:1023A000F64E118300830115110509F464C0880FEE
:1023B000991FFC01E55FFD4F80819181D8018D93CC
:1023C0009C936C2D70E084E090E01FD71C0161E0CD
:1023D00070E086E090E019D77C014C2DB101E5D486
:1023E000F801F582E4826A2D70E084E090E00DD778
:1023F0001C0161E070E086E090E007D77C014A2D87
:10240000B101D3D4D8011396FC92EE92129717968D
:102410009C928E921697FFB6F894ED91FC911197CD
:1024200036978081826080838D909C90C301B20139
:10243000D1D520E030E040E051E45AD69B01AC0118
:1024400060E074E284E79BE431D520E030E040E8CE
:102450005FE3C7D493D5F40132976083D801ED913F
:10246000FC911197359788E98083ED91FC91349721
:1024700086E08083FFBEC801DF91CF911F910F914D
:10248000FF90EF90CF90AF909F908F907F906F9044
:102490005F904F903F902F900895CF93DF93DC0192
:1024A000892B01F11296ED91FC9113979381828112
:1024B0002581981B922384819817B1F083812695FA
:1024C0002823C081D181C20FD11D68838F5F958180
:1024D00089238383ED91FC9135978081806280838D
:1024E00080E003C081E001C082E0DF91CF910895D8
:1024F0000097D1F0DC011496ED91FC911597938132
:102500008281981799F09281858186958923A0818F
:10251000B181A80FB11D8C91DB018C939F5F8581E8
:102520009823928380E0089581E0089583E00895E0
:102530001F920F920FB60F9211240BB60F922F938A
:102540003F934F935F936F937F938F939F93AF933B
:10255000BF93CF93DF93EF93FF93A0914819B0916E
:102560004919109711F16091C6001496ED91FC91F4
:102570001597938182812581981B922384819817D6
:1025800061F0838126952823C081D181C20FD11D9E
:1025900068838F5F9581892383831696ED91FC91E3
:1025A0001797309711F0CD011995FF91EF91DF91B9
:1025B000CF91BF91AF919F918F917F916F915F91DB
:1025C0004F913F912F910F900BBE0F900FBE0F9028
:1025D0001F9018951F920F920FB60F9211240BB6F1
:1025E0000F922F938F939F93AF93BF93EF93FF938C
:1025F000E0914819F09149193097B9F00280F381C0
:10260000E02D938182819817B1F092818581282FE6
:1026100026952923A081B181A20FB11D2C919F5F26
:10262000892382832093C6000BC0E1ECF0E0808117
:102630008F7D808305C0E1ECF0E080818F7D808319
:10264000FF91EF91BF91AF919F918F912F910F903B
:102650000BBE0F900FBE0F901F9018951F920F92F8
:102660000FB60F9211240BB60F922F933F934F93F7
:102670005F936F937F938F939F93AF93BF93CF930A
:10268000DF93EF93FF93A0914A19B0914B191097E4
:1026900011F16091CE001496ED91FC911597938104
:1026A00082812581981B92238481981761F0838110
:1026B00026952823C081D181C20FD11D68838F5FE9
:1026C0009581892383831696ED91FC911797309716
:1026D00011F0CD011995FF91EF91DF91CF91BF914D
:1026E000AF919F918F917F916F915F914F913F91AA
:1026F0002F910F900BBE0F900FBE0F901F9018954B
:102700001F920F920FB60F9211240BB60F922F93B8
:102710008F939F93AF93BF93EF93FF93E0914A19E9
:10272000F0914B193097B9F00280F381E02D93813D
:1027300082819817B1F092818581282F26952923CF
:10274000A081B181A20FB11D2C919F5F892382834B
:102750002093CE000BC0E9ECF0E080818F7D808378
:1027600005C0E9ECF0E080818F7D8083FF91EF91DF
:10277000BF91AF919F918F912F910F900BBE0F90B2
:102780000FBE0F901F9018951F920F920FB60F92C9
:1027900011240BB60F922F933F934F935F936F9338
:1027A0007F938F939F93AF93BF93CF93DF93EF93D9
:1027B000FF93A0914C19B0914D19109711F16091B0
:1027C000D6001496ED91FC91159793818281258115
:1027D000981B92238481981761F083812695282382
:1027E000C081D181C20FD11D68838F5F95818923FC
:1027F00083831696ED91FC911797309711F0CD01D8
:102800001995FF91EF91DF91CF91BF91AF919F917A
:102810008F917F916F915F914F913F912F910F9089
:102820000BBE0F900FBE0F901F9018951F920F9226
:102830000FB60F9211240BB60F922F938F939F9385
:10284000AF93BF93EF93FF93E0914C19F0914D1923
:102850003097B9F00280F381E02D9381828198173F
:10286000B1F092818581282F26952923A081B181FD
:10287000A20FB11D2C919F5F892382832093D600E4
:102880000BC0E1EDF0E080818F7D808305C0E1ED3C
:10289000F0E080818F7D8083FF91EF91BF91AF91B8
:1028A0009F918F912F910F900BBE0F900FBE0F90A5
:1028B0001F9018951F920F920FB60F9211240BB60E
:1028C0000F922F933F934F935F936F937F938F93C9
:1028D0009F93AF93BF93CF93DF93EF93FF93A09119
:1028E0004E19B0914F19109711F16091360114965D
:1028F000ED91FC911597938182812581981B9223FC
:102900008481981761F0838126952823C081D18125
:10291000C20FD11D68838F5F9581892383831696AB
:10292000ED91FC911797309711F0CD011995FF911A
:10293000EF91DF91CF91BF91AF919F918F917F9157
:102940006F915F914F913F912F910F900BBE0F9020
:102950000FBE0F901F9018951F920F920FB60F92F7
:1029600011240BB60F922F938F939F93AF93BF9326
:10297000EF93FF93E0914E19F0914F193097B9F012
:102980000280F381E02D938182819817B1F09281CA
:102990008581282F26952923A081B181A20FB11D01
:1029A0002C919F5F89238283209336010BC0E1E342
:1029B000F1E080818F7D808305C0E1E3F1E08081DB
:1029C0008F7D8083FF91EF91BF91AF919F918F9108
:1029D0002F910F900BBE0F900FBE0F901F90189568
:1029E000CF93DF931F92CDB7DEB7BE016F5F7F4FEE
:1029F00080915019909151197BDD8111F6CF898119
:102A000090E00F90DF91CF910895682F8091501939
:102A10009091511942DD80E090E008958F929F924D
:102A2000AF92CF92EF920F93812C912C6894AA24AD
:102A3000A7F86894CC24C7F8E12C00E023E040E03C
:102A400051EE60E070E08DDC909351198093501945
:102A5000E5E6F9E183E192E09183808393838283C9
:102A60000F91EF90CF90AF909F908F9008958091AD
:102A7000601981110CC08CE08093B8008FEF8093B7
:102A8000BB0084E08093BC0081E0809360190895CE
:102A9000AF92BF92CF92DF92EF92FF920F931F936C
:102AA000CF93DF93A82EB62E69017A0184E090E0DF
:102AB000C6D3EC01892B61F1A88281E0B81212C063
:102AC000C701B60120EA36E841E050E074D3DA01EC
:102AD000C9014097A109B109B695A7959795879522
:102AE000898311C0C701B60120E83AE146E050E011
:102AF00062D3DA01C9014097A109B109B695A7953A
:102B00009795879589831B830A838C2F9D2F02C0FD
:102B100080E090E0DF91CF911F910F91FF90EF90B7
:102B2000DF90CF90BF90AF9008958091BC008170EE
:102B30000895FF920F931F93CF93DF930097D1F1E6
:102B40004A30D0F5F42E8B01EC01EFDF811136C055
:102B50008091531990915419C817D90741F087DF14
:102B600089818093B800D0935419C093531981E0A0
:102B70008F0D809355198881880F80935619FF20F7
:102B800089F0F801A7E5B9E14FEF4F0D642F70E030
:102B9000CB010196B801680F791F81918D93E617DB
:102BA000F707D9F788EF8093210285EA8093BC006C
:102BB00084E005C086E003C087E001C082E0DF91C9
:102BC000CF911F910F91FF9008951F93CF93DF93A3
:102BD000009729F16B3028F5162FEC01A6DF811143
:102BE00022C08091531990915419C817D90741F008
:102BF0003EDF89818093B800D0935419C093531954
:102C0000109355198881880F81608093561988EF39
:102C10008093210285EA8093BC0085E005C086E0B0
:102C200003C087E001C082E0DF91CF911F9108953A
:102C30001F920F920FB60F9211240BB60F922F9383
:102C40003F934F935F936F937F938F939F93AF9334
:102C5000BF93EF93FF93E091B9008E2F90E0FC01BA
:102C60003897E135F10508F075C08827E458FF4F23
:102C70008F4FC3C210925219E09152198091551989
:102C8000E81770F481E08E0F80935219F0E0EA5A51
:102C9000F64E80818093BB0085E88093BC0072C0B3
:102CA00084E98093BC008091531990915419DC0100
:102CB0001296ED91FC911397309709F463C020E0D0
:102CC00040E050E064E019955DC0E091521981E068
:102CD0008E0F809352198091BB00F0E0EA5AF64EB5
:102CE00080838091B900803411F4109252192091A0
:102CF000521930E08091551990E001972817390753
:102D000024F485EC8093BC003DC085E88093BC0032
:102D100039C08091BB00E0915219F0E0EA5AF64EBA
:102D2000808384E98093BC00809153199091541959
:102D3000DC011296ED91FC911397309719F12091D7
:102D4000551946E559E165E019951CC085EA80935F
:102D5000BC0018C08091B9008093210284E0809368
:102D6000BC008091531990915419DC011296ED9199
:102D7000FC911397309731F020E040E050E06091F3
:102D800021021995FF91EF91BF91AF919F918F9182
:102D90007F916F915F914F913F912F910F900BBE5B
:102DA0000F900FBE0F901F901895FC01411101C0AC
:102DB00067D3842F90E09C01215031098223932313
:102DC000892B09F05DD3413808F05AD3128213825F
:102DD0004483440F415045837183608380E090E0D9
:102DE00008955058BB27AA270ED048C139D130F0DA
:102DF0003ED120F031F49F3F11F41EF42EC10EF4A9
:102E0000E095E7FB24C1E92F4AD180F3BA176207A6
:102E100073078407950718F071F49EF562C10EF4EC
:102E2000E0950B2EBA2FA02D0B01B90190010C01DA
:102E3000CA01A0011124FF27591B99F0593F50F4F2
:102E4000503E68F11A16F040A22F232F342F44274A
:102E5000585FF3CF469537952795A795F040539542
:102E6000C9F77EF41F16BA0B620B730B840BBAF012
:102E70009150A1F0FF0FBB1F661F771F881FC2F77D
:102E80000EC0BA0F621F731F841F48F48795779591
:102E90006795B795F7959E3F08F0B3CF9395880F48
:102EA00008F09927EE0F9795879508950CD0E6C006
:102EB000DED040F0D5D030F021F45F3F19F0C7C02C
:102EC000511110C1CAC0EBD098F39923C9F355230F
:102ED000B1F3951B550BBB27AA276217730784070D
:102EE00038F09F5F5F4F220F331F441FAA1FA9F3C3
:102EF00033D00E2E3AF0E0E830D091505040E695B5
:102F0000001CCAF729D0FE2F27D0660F771F881F15
:102F1000BB1F261737074807AB07B0E809F0BB0B04
:102F2000802DBF01FF2793585F4F2AF09E3F510528
:102F300068F08DC0D7C05F3FECF3983EDCF3869518
:102F400077956795B795F7959F5FC9F7880F911D9E
:102F50009695879597F90895E1E0660F771F881F8A
:102F6000BB1F621773078407BA0720F0621B730B3D
:102F7000840BBA0BEE1F88F7E095089598D088F07F
:102F80009F5790F0B92F9927B751A0F0D1F0660F55
:102F9000771F881F991F1AF0BA95C9F712C0B13070
:102FA00081F09FD0B1E008959CC0672F782F8827CB
:102FB000B85F39F0B93FCCF3869577956795B395AF
:102FC000D9F73EF490958095709561957F4F8F4F1E
:102FD0009F4F0895E89409C097FB3EF49095809523
:102FE000709561957F4F8F4F9F4F9923A9F0F92FCF
:102FF00096E9BB279395F695879577956795B7954D
:10300000F111F8CFFAF4BB0F11F460FF1BC06F5F32
:103010007F4F8F4F9F4F16C0882311F096E911C044
:10302000772321F09EE8872F762F05C0662371F065
:1030300096E8862F70E060E02AF09A95660F771F79
:10304000881FDAF7880F9695879597F9089597F96D
:103050009F6780E870E060E008959FEF80EC08953E
:1030600000240A9416161706180609060895002467
:103070000A9412161306140605060895092E0394E1
:10308000000C11F4882352F0BB0F40F4BF2B11F455
:1030900060FF04C06F5F7F4F8F4F9F4F089557FDB4
:1030A0009058440F551F59F05F3F71F04795880FB6
:1030B00097FB991F61F09F3F79F08795089512164D
:1030C00013061406551FF2CF4695F1DF08C01616F9
:1030D00017061806991FF1CF8695710561050894AA
:1030E0000895E894BB2766277727CB0197F90895C1
:1030F0000BD0C4CFB5DF28F0BADF18F0952309F064
:10310000A6CFABCF1124EECFCADFA0F3959FD1F3AA
:10311000950F50E0551F629FF001729FBB27F00D85
:10312000B11D639FAA27F00DB11DAA1F649F6627DA
:10313000B00DA11D661F829F2227B00DA11D621F29
:10314000739FB00DA11D621F839FA00D611D221FE3
:10315000749F3327A00D611D231F849F600D211DC7
:10316000822F762F6A2F11249F5750408AF0E1F06A
:1031700088234AF0EE0FFF1FBB1F661F771F881FB3
:1031800091505040A9F79E3F510570F060CFAACFF3
:103190005F3FECF3983EDCF3869577956795B7959E
:1031A000F795E7959F5FC1F7FE2B880F911D9695C8
:1031B000879597F90895A1E21A2EAA1BBB1BFD0162
:1031C0000DC0AA1FBB1FEE1FFF1FA217B307E40706
:1031D000F50720F0A21BB30BE40BF50B661F771F5E
:1031E000881F991F1A9469F760957095809590953E
:1031F0009B01AC01BD01CF010895EE0FFF1F881F99
:103200008BBF0790F691E02D19940F931F93CF93E6
:10321000DF93869F8001879F100D969F100D1124CC
:10322000C8010DD0EC01009721F0A80160E070E02A
:1032300034D1CE01DF91CF911F910F9108950F935B
:103240001F93CF93DF938230910510F482E090E0DA
:10325000E0916319F091641920E030E0A0E0B0E063
:10326000309719F140815181028113814817590724
:10327000C8F08417950769F4109731F012960C93F3
:10328000129713961C9327C0009363191093641927
:1032900022C02115310519F04217530718F49A017D
:1032A000BD01EF01DF01F801DBCF21153105F9F098
:1032B000281B390B2430310580F48A819B816115EC
:1032C000710521F0FB019383828304C090936419FC
:1032D00080936319FE01329644C0FE01E20FF31F92
:1032E0008193919322503109398328833AC02091E8
:1032F000611930916219232B41F42091020230911F
:1033000003023093621920936119209100023091D9
:1033100001022115310541F42DB73EB74091040259
:1033200050910502241B350BE0916119F09162194F
:10333000E217F307A0F42E1B3F0B2817390778F08C
:10334000AC014E5F5F4F2417350748F04E0F5F1FEB
:1033500050936219409361198193919302C0E0E008
:10336000F0E0CF01DF91CF911F910F910895CF939E
:10337000DF93009709F481C0FC0132971382128217
:10338000A0916319B0916419109781F42081318163
:10339000820F931F20916119309162192817390704
:1033A00051F5F0936219E093611967C0ED0120E0D7
:1033B00030E0CE17DF0740F44A815B819E01411562
:1033C0005105F1F0EA01F5CFD383C28340815181E9
:1033D000840F951FC817D90759F488819981840FE4
:1033E000951F0296918380838A819B819383828338
:1033F0002115310529F4F0936419E09363193DC058
:10340000E901FB83EA8349915991C40FD51FEC1759
:10341000FD0761F480819181840F951F0296E90177
:1034200099838883828193819B838A83E0E0F0E0A3
:1034300012968D919C911397009719F0FD01DC0174
:10344000F7CF8D919C9111979D012E5F3F4F820F79
:10345000931F20916119309162192817390769F477
:10346000309729F4109264191092631902C01382E4
:103470001282B0936219A0936119DF91CF910895E0
:1034800081E090E0F89400C3FB01DC0102C00190F0
:103490000D9241505040D8F70895DC0101C06D9362
:1034A00041505040E0F70895CF93DF93CDB7DEB79A
:1034B000AE014A5F5F4FFA0161917191AF01809156
:1034C00067199091681933D0DF91CF9108950F93C8
:1034D0001F93CF93DF93E0916719F09168192381CF
:1034E00021FF1BC08C01D0E0C0E0F80181918F0169
:1034F0006091671970916819DB011896ED91FC9144
:103500001997882331F01995892B79F3DFEFCFEFE5
:10351000ECCF8AE01995892B19F08FEF9FEF02C04D
:103520008D2F9C2FDF91CF911F910F9108952F9296
:103530003F924F925F926F927F928F929F92AF9243
:10354000BF92CF92DF92EF92FF920F931F93CF9390
:10355000DF93CDB7DEB72B970FB6F894DEBF0FBE63
:10356000CDBF6C017B018A01FC0117821682838129
:1035700081FFBFC1CE0101963C01F6019381F701A5
:1035800093FD859193FF81917F01882309F4ADC15B
:10359000853239F493FD859193FF81917F018532C6
:1035A00021F4B60190E0D6D1E8CF912C212C312C1A
:1035B000FFE1F315D8F08B3279F038F4803279F0EE
:1035C0008332A1F4232D20611DC08D3261F0803340
:1035D00069F4232D216016C0832D8260382EE32DDF
:1035E000E4603E2E2AC0F32DF8601DC037FC2DC0CC
:1035F00020ED280F2A3040F08E32B9F436FC75C128
:10360000232D2064322E19C036FE06C08AE0989E13
:10361000200D1124922E11C0EAE02E9E200D1124BF
:10362000222EF32DF0623F2E08C08C3621F4832D1C
:103630008068382E02C0883641F4F70193FD8591E9
:1036400093FF81917F018111B3CF982F9F7D955476
:10365000933028F40C5F1F4F9FE399830DC083368E
:1036600031F0833771F0833509F055C020C0F8017F
:10367000808189830E5F1F4F88248394912C53018E
:1036800012C02801F2E04F0E511CF801A080B18059
:1036900036FE03C0692D70E002C06FEF7FEFC501F9
:1036A0004ED14C018201F32DFF773F2E15C028012A
:1036B00022E0420E511CF801A080B18036FE03C00A
:1036C000692D70E002C06FEF7FEFC5012DD14C0175
:1036D000F32DF0683F2E820133FC19C0822D90E05B
:1036E00088169906A0F4B60180E290E033D12A94BE
:1036F000F5CFF50137FC859137FE81915F01B60169
:1037000090E028D121102A9421E0821A9108811496
:10371000910479F7E1C0843611F0893639F5F80162
:1037200037FE07C060817181828193810C5F1F4FDA
:1037300008C060817181072E000C880B990B0E5F09
:103740001F4FF32DFF763F2E97FF09C09095809570
:10375000709561957F4F8F4F9F4FF0683F2E2AE005
:1037600030E0A30133D1882E861844C0853731F468
:10377000232D2F7EB22E2AE030E025C0932D997F95
:10378000B92E8F36C1F018F4883579F0AEC0803785
:1037900019F0883721F0A9C0E92FE061BE2EB4FEF0
:1037A0000DC0FB2DF460BF2E09C034FE0AC0292FC6
:1037B0002660B22E06C028E030E005C020E130E0EF
:1037C00002C020E132E0F801B7FE07C060817181DC
:1037D000828193810C5F1F4F06C06081718180E000
:1037E00090E00E5F1F4FA301F1D0882E8618FB2DAD
:1037F000FF773F2E36FE0DC0232D2E7FA22E89147B
:1038000058F434FE0BC032FC09C0832D8E7EA82EE6
:1038100005C0B82CA32C03C0B82C01C0B92CA4FE41
:103820000FC0FE01E80DF11D8081803321F49A2D37
:10383000997EA92E09C0A2FE06C0B394B39404C019
:103840008A2D867809F0B394A3FC10C0A0FE06C0B0
:10385000B21480F4280C922C9B180DC0B21458F4AA
:10386000B60180E290E076D0B394F8CFB21418F4A9
:103870002B1802C0982C212CA4FE0FC0B60180E3A7
:1038800090E068D0A2FE16C0A1FC03C088E790E0DB
:1038900002C088E590E0B6010CC08A2D867851F010
:1038A000A1FE02C08BE201C080E2A7FC8DE2B6015E
:1038B00090E050D0891430F4B60180E390E04AD013
:1038C0009A94F8CF8A94F301E80DF11D8081B60136
:1038D00090E040D08110F6CF222009F44ECEB60100
:1038E00080E290E037D02A94F7CFF6018681978165
:1038F00002C08FEF9FEF2B960FB6F894DEBF0FBE7E
:10390000CDBFDF91CF911F910F91FF90EF90DF908E
:10391000CF90BF90AF909F908F907F906F905F906F
:103920004F903F902F900895FC010590615070409A
:103930000110D8F7809590958E0F9F1F0895FC0178
:103940006150704001900110D8F7809590958E0FCE
:103950009F1F08950F931F93CF93DF93FB01238144
:1039600021FD03C08FEF9FEF2CC022FF16C04681C0
:103970005781248135814217530744F4A081B181D6
:103980009D012F5F3F4F318320838C9326813781A8
:103990002F5F3F4F3783268314C08B01EC01FB015F
:1039A0000084F185E02D1995892BE1F6D801169652
:1039B0008D919C911797019617969C938E931697CD
:1039C000CE01DF91CF911F910F910895FA01AA279F
:1039D000283051F1203181F1E8946F936E7F6E5F52
:1039E0007F4F8F4F9F4FAF4FB1E03ED0B4E03CD000
:1039F000670F781F891F9A1FA11D680F791F8A1FE3
:103A0000911DA11D6A0F711D811D911DA11D20D049
:103A100009F468943F912AE0269F11243019305D03
:103A20003193DEF6CF010895462F4770405D4193F4
:103A3000B3E00FD0C9F7F6CF462F4F70405D4A3341
:103A400018F0495D31FD4052419302D0A9F7EACF09
:103A5000B4E0A6959795879577956795BA95C9F738
:103A600000976105710508959B01AC010A2E06942B
:103A70005795479537952795BA95C9F7620F731FE4
:0C3A8000841F951FA01D0895F894FFCF2F
:103A8C0000006B1920000900400040C600CE00D693
:103A9C0000360100000003000000000515F01400C2
:103AAC0000F849444C4500546D7220537663005421
:103ABC0061736B310054656D7020616E64204875C4
:103ACC006D69646974792044726976657220696ED7
:103ADC00697469616C697A6564204F4B200044728B
:103AEC0069766572206E6F7420696E697469616C99
:103AFC00697A656420005457492042555359004F48
:103B0C007574204F662048656170004152524956C9
:103B1C0045204845524500447269766572204372CF
:103B2C006561746564200074656D7065726174758F
:103B3C007265203A2025660A005461736B3200507E
:103B4C00726F6772616D20537474747474617274E3
:063B5C0065642121000058
:00000001FF
