:10000000E5C0000004C1000002C1000000C1000002
:10001000FEC00000FCC00000FAC00000F8C00000F4
:10002000F6C00000F4C00000F2C00000F0C0000004
:100030003AC60000ECC00000EAC00000E8C00000C2
:10004000E6C00000E4C00000E2C00000E0C0000024
:10005000DEC00000DCC00000DAC00000D8C0000034
:10006000D6C000000C94CC190C941E1AD0C000000D
:10007000CEC00000CCC00000CAC00000C8C0000054
:10008000C6C00000C4C00000C2C00000C0C0000064
:100090000C94621A0C94B41ABAC000000C944C1D53
:1000A000B6C00000B4C00000B2C00000B0C0000084
:1000B000AEC00000ACC00000AAC00000A8C0000094
:1000C000A6C00000A4C00000A2C000000C94F81A52
:1000D0000C944A1B9CC000000C948E1B0C94E01BDB
:1000E00096C00000A015A015A015D715DF15F415B2
:1000F000A015A015D715DF156E1DDE1DDE1DDE1D3A
:10010000DE1DDE1DDE1DDE1D6E1DDE1DDE1DDE1D87
:10011000DE1DDE1DDE1DDE1D701DDE1DDE1DDE1D75
:10012000DE1DDE1DDE1DDE1DDE1DDE1DDE1DDE1DF7
:10013000DE1DDE1DDE1DDE1D701DDE1DDE1DDE1D55
:10014000DE1DDE1DDE1DDE1DDE1DDE1DDE1DDE1DD7
:10015000DE1DDE1DDE1DDE1DDA1DDE1DDE1DDE1DCB
:10016000DE1DDE1DDE1DDE1DA51DDE1DDE1DDE1DF0
:10017000DE1DDE1DDE1DDE1DDE1DDE1DDE1DDE1DA7
:10018000DE1DDE1DDE1DDE1D991DDE1DDE1DDE1DDC
:10019000DE1DDE1DDE1DDE1DBD1D0E94480B809193
:1001A000A50D823008F0BAD40E941D16F6CFCF9369
:1001B000DF931F92CDB7DEB7CE0101960E942113C7
:1001C00049810E9415150E946915F6CF11241FBEA2
:1001D000CFEFD1E2DEBFCDBF00E00CBF13E0A0E067
:1001E000B2E0EEEFF8E400E00BBF02C007900D9222
:1001F000A038B107D9F72EE0A0E8B3E001C01D9206
:10020000AB37B207E1F70E9430170C947D24F8CE8B
:100210000F931F93CF93DF9300D000D0CDB7DEB7FD
:1002200000E010E013C0B801660F771F81E090E096
:100230008C0F9D1F680F791F2FEF3FEFA901809151
:10024000670E9091680E48D70F5F1F4F033011055E
:1002500054F389819A810E9446168B819C810E9469
:100260004B168D819E810E94411660E08091670E41
:100270009091680EF2D526960FB6F894DEBF0FBEA9
:10028000CDBFDF91CF911F910F910895CC24CA94D7
:10029000DC2C760101E021E043E050E060E070E01A
:1002A00080916D0E90916E0EE5D0DC01CB018370D4
:1002B0009927AA27BB270397A105B105B1F48FE4BD
:1002C00092E00E94A021A4DF60E17DE180E090E067
:1002D0000E94A80E00E020E030E0A90160E070E09C
:1002E0008091690E90916A0E30D663E070E080E0F4
:1002F00090E00E94A80ECACFEF92FF920F93E12CDC
:10030000F12C01E020E030E040EC50E062E672E0E9
:1003100086E491E00E940B0C0F91FF90EF900895FE
:100320000F93CF93DF931F921F92CDB7DEB79A83BF
:1003300089838A818F9389818F938AE692E09F9344
:100340008F930E948D2100E02FEF3FEFA901BE01A6
:100350006F5F7F4F8091670E9091680EF6D541E0F8
:1003600050E060E070E080916D0E90916E0E22D1B1
:100370000F900F900F900F900F900F90DF91CF91F3
:100380000F91089583E00C94371808950E94611826
:1003900080935E0E882321F089E792E00C94A021DF
:1003A000089580E992E00E94A021CC24CA94DC2C1C
:1003B000760101E020E042E050E060E070E08091F2
:1003C0006D0E90916E0E56D061FDE0DF6EE170E033
:1003D00080E090E00E94A80EE4CFEF92FF920F938E
:1003E000D1DF80E991E00E945C18E12CF12C01E062
:1003F00020E030E040EC50E069E972E081ED91E00E
:100400000E940B0C0F91FF90EF9008950F93011134
:100410000CC0DC01CB0182239323A423B523892BB9
:100420008A2B8B2B79F480E010C0DC01CB01822376
:100430009323A423B523281739074A075B0721F024
:1004400080E003C081E001C081E00F910895CF9367
:10045000DF938FE090E0AFD1EC01009739F0FC0121
:100460001192119211921192CF018AD2CE01DF9195
:10047000CF9108952F923F924F925F926F927F9209
:100480008F929F92AF92BF92CF92DF92EF92FF92A4
:100490000F931F93CF93DF93EC014A015B01622E10
:1004A000702E0E948C0C288039804A805B80A501C8
:1004B0009401C201B101AADF8823A1F0662089F16D
:1004C000D501C40180959095A095B0958221932186
:1004D000A421B52188839983AA83BB83C12CD12C05
:1004E000760122C0C114D104E104F104E9F06110E5
:1004F00004C040E050E0BA0104C040E050E060E0D9
:1005000071E071107460482959296A297B29970183
:100510008601CE0104960E943E0F212C312C210130
:1005200003C0C12CD12C76010E94CC0DCD28CE2841
:10053000CF2859F1811101C0F1D20E94E5126B015F
:100540007C0191FD1FC00FB6F8940F92C880D9802E
:10055000EA80FB80072DA5019401C701B60156DF93
:10056000882371F0662061F080949094A094B094F8
:100570008C209D20AE20BF2088829982AA82BB82D7
:100580000F900FBE160127015524C201B101DF9162
:10059000CF911F910F91FF90EF90DF90CF90BF9080
:1005A000AF909F908F907F906F905F904F903F9013
:1005B0002F9008954F925F926F927F92AF92BF9269
:1005C000CF92DF92EF92FF920F931F93CF93DF931F
:1005D000EC016A017B018C01095F1F4F0E948C0CAA
:1005E000EB85FC8588819981AA81BB81C82AD92A9B
:1005F000EA2AFB2AC882D982EA82FB82C12CD12C4A
:1006000076013DC0A480B58080819181A281B381B3
:10061000AC01BD017727B2FD0EC0488059806A80C9
:100620007B80442255226622772245284628472887
:1006300089F420E012C0488059806A807B8044227F
:10064000552266227722441555056605770521F067
:1006500020E003C021E001C021E0222371F0B0FFBF
:1006600004C0C42AD52AE62AF72A488159816A811A
:100670007B817260CF010E947910EA2DFB2DE0177B
:10068000F10709F0BFCFC094D094E094F094888132
:100690009981AA81BB81C822D922EA22FB22C88281
:1006A000D982EA82FB820E94CC0D688179818A819D
:1006B0009B81DF91CF911F910F91FF90EF90DF9081
:1006C000CF90BF90AF907F906F905F904F900895C4
:1006D000ECE8F3E0A0E9B3E0B183A08313821282D7
:1006E000E0E5FDE0F0938B03E0938A03138212822E
:1006F0001182108280EC99E013969C938E9312974E
:10070000ED93FC93909387038093860390938903E2
:100710008093880380E090E8909381038093800326
:100720000895CF93DF93EC01ACE8B3E001C0DF01A3
:10073000ED91FC911197EC17FD07C8F312968D917E
:100740009C9113979D01280F391FC217D30749F4B5
:100750002A813B81820F931F13969C938E9312974D
:10076000ED018A819B819E01280F391FE217F30753
:10077000C1F420918A0330918B03E217F30771F0E3
:1007800022813381820F931F9B838A83ED91FC9199
:100790001197808191819983888305C0398328834B
:1007A00002C0F983E883CA17DB0711F0CD93DC930D
:1007B000DF91CF910895EF92FF920F931F93CF9304
:1007C000DF938C010E948C0C80918A0390918B03A3
:1007D000892B09F47DDF8091800390918103802330
:1007E0009123892B09F076C00115110549F0C80144
:1007F00004960817190718F000E010E001C08C01FA
:100800000115110509F469C080918803909189034D
:100810008017910708F464C0C0918C03D0918D03B8
:10082000ECE8F3E002C0FE01EC018A819B818017B5
:10083000910720F4888199810097A9F780918A0314
:1008400090918B03C817D90709F44DC0E080F1805F
:1008500084E0E80EF11C88819981918380832A814C
:100860003B81201B310B2930310548F0CE01800F30
:10087000911FFC01338322831B830A8352DF2A8169
:100880003B818091880390918903821B930B909305
:1008900089038093880340918603509187038417CE
:1008A000950720F4909387038093860380918003BB
:1008B00090918103282B392B3B832A83198218823C
:1008C0008091840390918503019690938503809392
:1008D00084030BC0E12CF12C08C0E12CF12C05C0E5
:1008E000E12CF12C02C0E12CF12C0E94CC0DE11482
:1008F000F10411F40E942916C701DF91CF911F91D5
:100900000F91FF90EF9008950F931F93CF93DF9374
:10091000009789F1EC0124974A815B812091800343
:1009200030918103BA0162237323672B21F168811F
:100930007981672B01F520953095242335233B835E
:100940002A83EAD78A819B81209188033091890389
:10095000820F931F9093890380938803CE01E1DE79
:1009600080918203909183030196909383038093F7
:1009700082030E94CC0DDF91CF911F910F910895BA
:10098000FC010396928381834FEF5FEFBA014383AB
:1009900054836583768390878783928781871082CB
:1009A0000895FC011386128608950F931F93CF9329
:1009B000DF93EB01088119812A813B810F3F4FEFC3
:1009C00014072407340721F4FC01A185B28511C066
:1009D000DC01139601C0DF011496ED91FC9115978F
:1009E00040815181628173810417150726073707FB
:1009F00090F71496ED91FC911597FD83EC83D783C6
:100A0000C683BF83AE831596DC93CE9314979B87E2
:100A10008A87FC0120812F5F2083DF91CF911F9176
:100A20000F910895CF93DF93FC01A285B385C48114
:100A3000D581868197819F838E83C681D78184816A
:100A400095819D838C8311968D919C911297E817C7
:100A5000F90731F48681978112969C938E931197B2
:100A6000138612868C9181508C938C91DF91CF915B
:100A70000895A89590EC88E10FB6F894A895809316
:100A800060000FBE909360000895FC016083319771
:100A900070833197108231971082319720E820833C
:100AA0003197108231971082319710827797408367
:100AB0003197508386970895DCDFA091130EB09193
:100AC000140ECD91CDBFDD91DEBFFF91EF91DF918F
:100AD000CF91BF91AF919F918F917F916F915F91D6
:100AE0004F913F912F911F910F91FF90EF90DF90C9
:100AF000CF90BF90AF909F908F907F906F905F90BE
:100B00004F903F902F901F900F900CBE0F900BBEF8
:100B10000F900FBE0F90089581E008950F920FB6C9
:100B2000F8940F920BB60F920CB60F921F921124ED
:100B30002F923F924F925F926F927F928F929F92ED
:100B4000AF92BF92CF92DF92EF92FF920F931F93DB
:100B50002F933F934F935F936F937F938F939F93C5
:100B6000AF93BF93CF93DF93EF93FF93A091130EB7
:100B7000B091140E0DB60D920EB60D920E94C30EDA
:100B8000A091130EB091140ECD91CDBFDD91DEBFBB
:100B9000FF91EF91DF91CF91BF91AF919F918F9195
:100BA0007F916F915F914F913F912F911F910F9185
:100BB000FF90EF90DF90CF90BF90AF909F908F907D
:100BC0007F906F905F904F903F902F901F900F906D
:100BD0000CBE0F900BBE0F900FBE0F9008950F929A
:100BE0000FB6F8940F920BB60F920CB60F921F929D
:100BF00011242F923F924F925F926F927F928F9229
:100C00009F92AF92BF92CF92DF92EF92FF920F939B
:100C10001F932F933F934F935F936F937F938F9384
:100C20009F93AF93BF93CF93DF93EF93FF93A091E5
:100C3000130EB091140E0DB60D920EB60D9213BE9A
:100C40007FD681110E94C30EA091130EB091140E95
:100C5000CD91CDBFDD91DEBFFF91EF91DF91CF91BF
:100C6000BF91AF919F918F917F916F915F914F91C4
:100C70003F912F911F910F91FF90EF90DF90CF90B8
:100C8000BF90AF909F908F907F906F905F904F90AC
:100C90003F902F901F900F900CBE0F900BBE0F90A7
:100CA0000FBE0F9008959BDF1895DC0153962C9191
:100CB0005397222341F05A96ED91FC915B979081D6
:100CC0008AE0891B089580E008950FB6F8940F928A
:100CD000FC01868D811102C081E001C080E00F908F
:100CE0000FBE08950FB6F8940F92FC01268D878DE4
:100CF000281302C081E001C080E00F900FBE08956C
:100D00000F931F93CF93DF93EC01042F1E8D48A107
:100D100041110CC088819981892B09F042C08C81D6
:100D20009D810E9423121D821C8242C0011117C0A6
:100D300050E08A819B810E947D2128A18A819B812C
:100D4000820F911D9B838A832C813D81821793079B
:100D500050F1888199819B838A8380E029C050E08B
:100D60008E819F810E947D2188A190E0919581953F
:100D700091092E813F81280F391F3F832E8348819F
:100D800059812417350730F42C813D81820F931F40
:100D90009F838E83023049F4112349F0115080E083
:100DA00007C080E005C080E003C080E001C080E0B3
:100DB0001F5F1E8FDF91CF911F910F910895FC014E
:100DC00040A14423A9F050E026813781240F351F2C
:100DD00037832683848195812817390720F0808105
:100DE000918197838683CB01668177810C947D21E5
:100DF00008951F93CF93DF93EC010FB6F8940F92F1
:100E00001AA10BC08B89882351F0CE0143960E9412
:100E1000CA0F81110E948A11115011169CF38FEF95
:100E20008AA30F900FBE0FB6F8940F9219A10BC0B2
:100E30008885882351F0CE0108960E94CA0F81113F
:100E40000E948A11115011169CF38FEF89A30F9005
:100E50000FBEDF91CF911F910895CF93DF93EC01E7
:100E60000FB6F8940F92E881F9818F8D28A190E058
:100E700030E0829FA001839F500D929F500D11245E
:100E80004E0F5F1F5D834C831E8EFB83EA830197A9
:100E9000289FA001299F500D389F500D1124CF018C
:100EA000840F951F9F838E838FEF89A38AA361117F
:100EB0000BC08885882371F0CE0108960E94CA0F66
:100EC000882341F02BDE06C0CE01089659DDCE0105
:100ED000439656DD0F900FBE81E0DF91CF910895CC
:100EE0000F931F93F801611103C01183008302C0A7
:100EF00051834083878F60A361E0CF01AEDF1F91F4
:100F00000F910895DF92EF92FF920F931F93CF936B
:100F1000DF93F82EE62ED42E869FC00111248396EF
:100F20004ADCEC01009741F08C012D2DAC014D5DA8
:100F30005F4F6E2D8F2DD4DFCE01DF91CF911F91AA
:100F40000F91FF90EF90DF900895CF92DF92EF9294
:100F5000FF920F931F93CF93DF93CDB7DEB72997FF
:100F60000FB6F894DEBF0FBECDBF7C016B012E83A0
:100F70003F834887598710E00FB6F8940F92F70126
:100F8000968D878D981710F00230A9F4402FB60186
:100F9000C701B6DEF7019389992339F0C70143965B
:100FA000F9D7882321F0BADD02C08111B7DD0F9097
:100FB0000FBE81E048C08E819F81A885B985892BAD
:100FC0008A2B8B2B21F40F900FBE80E03CC01111B7
:100FD00005C0CE0101960E94131111E00F900FBEC3
:100FE0009BD40FB6F8940F92F70181A18F3F09F4BB
:100FF00011A2F70182A18F3F09F412A20F900FBE38
:10100000BE016A5F7F4FCE0101960E9424118111BB
:1010100016C0C70167DE882371F04E815F81688545
:101020007985C701089613D7C701E3DEB5D58111CD
:10103000A3CF74DDA1CFC701DCDEAED59DCFC70144
:10104000D8DEAAD580E029960FB6F894DEBF0FBE91
:10105000CDBFDF91CF911F910F91FF90EF90DF9067
:10106000CF900895EF92FF920F931F93CF93DF934A
:101070008A01FC01568D378D531710F02230F1F4A0
:10108000422F7801EC011AA18E8DCE0139DE1F3F6F
:1010900079F48B898823A1F0CE0143967BD78823EE
:1010A00089F0E114F10481F081E0F70180830DC043
:1010B000FF24F394F10EFAA281E007C080E005C09E
:1010C00081E003C081E001C081E0DF91CF911F91F9
:1010D0000F91FF90EF900895CF92DF92EF92FF92E1
:1010E0000F931F93CF93DF93CDB7DEB729970FB63A
:1010F000F894DEBF0FBECDBF8C016B012E833F8302
:1011000048875987E12C0FB6F8940F92F801F68CB6
:10111000FF2091F0B601C80152DEFA94F801F68E74
:101120008085882329F0C801089634D78111F6DC20
:101130000F900FBE81E04EC08E819F81A885B9853A
:10114000892B8A2B8B2B21F40F900FBE80E042C09D
:10115000E11006C0CE0101960E941311EE24E39423
:101160000F900FBED9D30FB6F8940F92F80181A15A
:101170008F3F09F411A2F80182A18F3F09F412A256
:101180000F900FBEBE016A5F7F4FCE0101960E9495
:101190002411811116C0C80198DD882371F04E8199
:1011A0005F8168857985C801439651D6C80121DEE3
:1011B000F3D48111A8CFB2DCA6CFC8011ADEECD4DB
:1011C000A2CFC80116DEE8D4C8017FDD882309F468
:1011D0009ACF80E029960FB6F894DEBF0FBECDBF40
:1011E000DF91CF911F910F91FF90EF90DF90CF9003
:1011F0000895EF92FF920F931F93CF93DF93CDB794
:10120000DEB729970FB6F894DEBF0FBECDBF8C01B5
:101210004E835F8368877987E12CF12C0FB6F894B1
:101220000F92F801868D8823C1F08150868F8081CE
:101230009181892B29F40E940F13F80195838483EF
:10124000F8018085882329F0C8010896A3D681116A
:1012500065DC0F900FBE81E06CC08E819F81A885F8
:10126000B985892B8A2B8B2B21F40F900FBE80E040
:1012700060C0F11005C0CE010196D5D7FF24F394CC
:101280000F900FBE49D30FB6F8940F92F80181A1C9
:101290008F3F09F411A2F80182A18F3F09F412A235
:1012A0000F900FBEBE016A5F7F4FCE010196CCD773
:1012B000811125C0C80109DD8823E9F0F80180818A
:1012C0009181892B51F40FB6F8940F928481958106
:1012D0000E949C11E82E0F900FBE4E815F816885A1
:1012E0007985C8014396B3D5C80183DD55D48111F2
:1012F00095CF14DC93CFC8017CDD4ED48FCFC801CD
:1013000078DD4AD4C801E1DC882309F487CFEE20D8
:1013100079F00FB6F8940F92C801C7DC682FF80176
:10132000848195810E947E120F900FBE80E001C0E3
:1013300080E029960FB6F894DEBF0FBECDBFDF91D7
:10134000CF911F910F91FF90EF900895CF93DF936E
:10135000EC010FB6F8940F9289A18F3F09F419A2FE
:101360008AA18F3F09F41AA20F900FBE8E8D8111B2
:1013700003C0CE014396CCD5CE013BDDDF91CF91AA
:1013800008950F93FC018FE0DF011D928A95E9F724
:1013900075876487558344833783268306870F9137
:1013A0000895CF92DF92EF92FF920F93CF93DF9346
:1013B000EC016B01413011F401E001C000E0C11407
:1013C000D10419F4CC24C394D12CCE014096C81773
:1013D000D90720F42196EFD97C0102C0E12CF12C31
:1013E000E114F10439F09601AE01B701615F7F4F5E
:1013F000C701C7DFC701DF91CF910F91FF90EF9039
:10140000DF90CF900895E0918D0DF0918E0D808149
:1014100081110CC08FEF9FEFDC018093570D9093EB
:10142000580DA093590DB0935A0D0895E0918D0D6C
:10143000F0918E0D0780F085E02D80819181A28151
:10144000B3818093570D9093580DA093590DB0938D
:101450005A0D0895CF93DF93EC018B8D9C8D54DA58
:10146000CE0152DADF91CF9108954F925F926F9241
:101470007F928F929F92AF92BF92CF92DF92EF9224
:10148000FF920F93CF93DF932C015B014A01390147
:10149000E60165EA70E08B8D9C8D0E9486218B8D24
:1014A0009C8D21E0821A9108880E991EA114B10426
:1014B00089F415C0822F90E0F501E80FF91F308103
:1014C000DE01A80FB91F5D963C938081882329F027
:1014D0002F5F01C020E0203168F31CA601C01D8EE3
:1014E0000A3008F009E00A8F0DA71EA6CE01029669
:1014F00058DACE010E9655DADB87CA878AE090E08B
:10150000A0E0B0E0801B9109A109B1098E879F87F7
:10151000A88BB98BDF8BCE8B84E0FE01BF96DF01F9
:101520001D928A95E9F71BAAA301B201C401ADDAA5
:1015300099838883E114F10419F0F701D183C08302
:10154000DF91CF910F91FF90EF90DF90CF90BF9000
:10155000AF909F908F907F906F905F904F90089585
:10156000CF93C0E008C02BE0C29FC00111248B556F
:10157000924F06DACF5FCA30B0F38AE99DE000DA15
:101580008FE89DE0FDD980E89DE0FAD985E79DE0F0
:10159000F7D989E69DE0F4D98AE99DE090938E0D14
:1015A00080938D0D8FE89DE090938C0D80938B0D33
:1015B000CF910895CF93DF93EC010FB6F8940F927B
:1015C0008091680D8F5F8093680D8091130E9091CC
:1015D000140E892B51F4D093140EC093130E8091E6
:1015E000680D813091F4BCDF10C08091620D8111D3
:1015F0000CC0E091130EF091140E928D8A8D891714
:1016000020F0D093140EC093130E80915B0D8F5F6A
:1016100080935B0DEA8D8091630D8E1710F4E0933B
:10162000630D8BE08E9FF0011124EB55F24F01808A
:10163000F281E02DFF83EE83268137813987288769
:10164000A681B7819E012E5F3F4F15963C932E9346
:10165000149737832683EA8D8E9FF0011124EB5572
:10166000F24FFD87EC8780818F5F80830F900FBEE4
:101670008091620D882349F0E091130EF091140ED1
:10168000928D8A8D981708F449DADF91CF910895E9
:10169000CF93DF931AC00FB6F8940F92E0917C0DB0
:1016A000F0917D0DC085D185CE010296BBD9809188
:1016B000680D81508093680D8091740D81508093E6
:1016C000740D0F900FBECE01C5DE8091740D811197
:1016D000E2CFDF91CF9108958F929F92AF92BF9208
:1016E000CF92DF92EF92FF92CF93DF936B017C0159
:1016F000C42F8090640D9090650DA090660DB09001
:10170000670D8091130E9091140E02968BD98FEF76
:10171000C816D806E806F806B1F5CC23A1F1E9E62B
:10172000FDE0A181B281C091130ED091140EBF8350
:10173000AE83C091130ED091140E16968D919C918C
:101740001797998788871696CD91DC911797809186
:10175000130E9091140E02969D838C838091130E2C
:101760009091140E029617969C938E931697A091C3
:10177000130EB091140E1D96FC93EE931C9780816E
:101780008F5F80833DC0C80CD91CEA1CFB1CE09114
:10179000130EF091140EC282D382E482F582C81433
:1017A000D904EA04FB0460F46091130E7091140EE6
:1017B00080918B0D90918C0D6E5F7F4FF6D820C07D
:1017C0006091130E7091140E80918D0D90918E0D7D
:1017D0006E5F7F4FEAD88091570D9091580DA09180
:1017E000590DB0915A0DC816D906EA06FB0640F409
:1017F000C092570DD092580DE092590DF0925A0DAB
:10180000DF91CF91FF90EF90DF90CF90BF90AF909E
:101810009F908F9008952F923F924F925F926F9278
:101820007F928F929F92AF92BF92CF92DF92EF9270
:10183000FF920F93CF93DF933C011B014A012901D3
:10184000CA010E94DB036C01892B69F084E390E0FC
:101850000E94DB03EC01892B19F0DC8ECB8E05C0D6
:10186000C60152D802C0C0E0D0E0209761F0A12CA0
:10187000B12C6E019201A401B101C301F6DDCE01CC
:1018800099DE81E001C08FEFDF91CF910F91FF9042
:10189000EF90DF90CF90BF90AF909F908F907F9010
:1018A0006F905F904F903F902F900895EF92FF922E
:1018B0000F930F2EF5E5EF2EFDE0FF2EF02D00E04B
:1018C00020E030E040EC50E061EA72E08DEC90E026
:1018D000A2DF813009F43FD78130C1F4F8948FEF53
:1018E0009FEFDC018093570D9093580DA093590DF5
:1018F000B0935A0D81E08093620D1092640D1092A6
:10190000650D1092660D1092670DD6D88091060273
:101910000F91FF90EF9008958091540D8F5F809309
:10192000540D08950FB6F8940F926091640D709164
:10193000650D8091660D9091670D0F900FBE089513
:10194000CF92DF92EF92FF92CF93DF938091540D6D
:10195000811105C1C090640DD090650DE090660DB9
:10196000F090670D8FEFC81AD80AE80AF80AC092FB
:10197000640DD092650DE092660DF092670DC11472
:10198000D104E104F104B1F480918D0D90918E0D9C
:1019900020918B0D30918C0D30938E0D20938D0DF9
:1019A00090938C0D80938B0D80915C0D8F5F809355
:1019B0005C0D29DD8091570D9091580DA091590D26
:1019C000B0915A0DC816D906EA06FB0620F480E04D
:1019D000B2C081E001C080E0E0918D0DF0918E0DEC
:1019E000908191110CC04FEF5FEFBA014093570DFA
:1019F0005093580D6093590D70935A0D9CC0E0910F
:101A00008D0DF0918E0D0780F085E02D0084F1851D
:101A1000E02D4281538164817581C416D506E606A6
:101A2000F70648F44093570D5093580D6093590DA5
:101A300070935A0D80C0A485B585C681D781208555
:101A400031853F832E83C085D185268137813D83B3
:101A50002C8311964D915C9112979F012E5F3F4F01
:101A60004217530731F44085518512965C934E938B
:101A70001197158614869C9191509C93A08DB18DE1
:101A8000109709F1C289D389448955895F834E83B0
:101A9000C489D589428953895D834C8311966D91A0
:101AA0007C911297AF01425F5F4F6417750731F465
:101AB0004489558912965C934E931197118E108E1E
:101AC0009C9191509C93A28D9091630D9A1710F464
:101AD000A093630D9BE09A9FD0011124AB55B24FA8
:101AE00011960D90BC91A02DB783A68316964D91AB
:101AF0005C911797518740871696CD91DC91179787
:101B00003D832C8317963C932E931697A28D9A9F14
:101B1000D0011124AB55B24FB587A4879C919F5F2C
:101B20009C93228DE091130EF091140E928D291743
:101B300008F04FCF51CFE091130EF091140EE28DCB
:101B40009BE0E99FF0011124EB55F24F9081923018
:101B500008F081E090915D0D911116C016C0809142
:101B60005E0D90915F0DA091600DB091610D019699
:101B7000A11DB11D80935E0D90935F0DA093600D2C
:101B8000B093610D80E001C081E0DF91CF91FF90C3
:101B9000EF90DF90CF900895CF92DF92EF92FF9277
:101BA000CF93DF930FB6F8940F928091540D81502C
:101BB0008093540D8091540D8111BEC08091680DA9
:101BC000811188C0BCC0E091870DF091880D008420
:101BD000F185E02DA08DB18DC289D3898489958945
:101BE0009F838E83C489D589828993899D838C83C1
:101BF00011962D913C911297CF010E962817390717
:101C000031F48489958912969C938E931197118E45
:101C1000108E8C9181508C93A485B585C681D78117
:101C2000808591859F838E83C085D18586819781AC
:101C30009D838C8311968D919C9112979F012E5FAD
:101C40003F4F8217930731F48085918512969C93BC
:101C50008E931197158614868C9181508C93A28D4A
:101C60008091630D8A1710F4A093630D8BE08A9F17
:101C7000D0011124AB55B24F11960D90BC91A02DFF
:101C8000B783A68316964D915C911797518740872D
:101C90001696CD91DC9117973D832C8317963C9334
:101CA0002E931697A28D8A9FD0011124AB55B24F67
:101CB000B587A4878C918F5F8C93928DA091130E22
:101CC000B091140E5A968C91981730F081E0809361
:101CD0005D0D02C0E0E0F0E08091800D811173CFD6
:101CE000EF2B09F090DBC0905E0DD0905F0DE0907F
:101CF000600DF090610DC114D104E104F104A1F074
:101D00001FDE882319F081E080935D0D81E0C81A01
:101D1000D108E108F108A1F710925E0D10925F0D55
:101D20001092600D1092610D80915D0D882331F04D
:101D30000E948E0581E003C080E001C080E00F902A
:101D40000FBEDF91CF91FF90EF90DF90CF9008957D
:101D5000CF92DF92EF92FF926B017C01672B682B91
:101D6000692B39F0D9DD40E0C701B601B5DC14DFDD
:101D700001C080E0811102C00E948E05FF90EF90AB
:101D8000DF90CF9008958091540D882321F081E059
:101D900080935D0D089510925D0DE091130EF0910A
:101DA000140E20813181E091130EF091140E838D79
:101DB000948D8217930758F06091130E7091140E52
:101DC000635E7F4F8091130E9091140E4ED78091D9
:101DD000630D01C08150282F30E09BE0929FF001FD
:101DE000939FF00D1124EB55F24F9081992391F3BD
:101DF0009BE0929FA001939F500D1124DF01018071
:101E0000F281E02D0480F581E02D1296FC93EE9393
:101E100011974855524FE417F50729F4448155812D
:101E2000FD01528341839BE0929FF001939FF00D4F
:101E30001124EB55F24F0180F281E02D2085318590
:101E40003093140E2093130E8093630D0895CF9258
:101E5000DF92EF92FF926A017B016091130E709105
:101E6000140E625F7F4F0E94D50441E0C701B601A6
:101E700033DCFF90EF90DF90CF9008950F931F9386
:101E8000CF93DF93FC01A091130EB091140E7068F4
:101E90001E964D935D936D937C935197A181B28172
:101EA000C091130ED091140EBB8BAA8BC091130E50
:101EB000D091140E16968D919C9117979D8B8C8BBB
:101EC0001696CD91DC9117978091130E9091140E78
:101ED0000E969D838C838091130E9091140E0E9616
:101EE00017969C938E931697A091130EB091140E93
:101EF0005996FC93EE93589780818F5F808341E0E1
:101F0000C901B801E9DBDF91CF911F910F910895CD
:101F1000CF93DF93FC01CB01BA01A181B281C091C3
:101F2000130ED091140EBB8BAA8BC091130ED091BF
:101F3000140E16964D915C9117975D8B4C8B1696EF
:101F4000CD91DC9117974091130E5091140E425F82
:101F50005F4F5D834C834091130E5091140E425F8E
:101F60005F4F17965C934E931697A091130EB09106
:101F7000140E5996FC93EE93589730813F5F30834F
:101F8000222319F06FEF7FEFCB01422FA5DBDF910A
:101F9000CF910895CF93DF93DC011796ED91FC91DB
:101FA00018970084F185E02DA08DB18DC289D38969
:101FB000848995899F838E83C489D58982899389F1
:101FC0009D838C8311968D919C9112979F01225F26
:101FD0003F4F8217930731F48489958912969C9319
:101FE0008E931197118E108E8C9181508C938091CD
:101FF000540D811152C0A485B585C681D7818085D5
:1020000091859F838E83C085D185868197819D83AD
:102010008C8311968D919C9112979F012E5F3F4F5B
:102020008217930731F48085918512969C938E9345
:102030001197158614868C9181508C93A28D809176
:10204000630D8A1710F4A093630D8BE08A9FD00173
:102050001124AB55B24F11960D90BC91A02DB783B2
:10206000A68316964D915C911797518740871696D7
:10207000CD91DC9117973D832C8317963C932E933B
:102080001697A28D8A9FD0011124AB55B24FB58708
:10209000A4878C918F5F8C931CC040E85DE0DA01CF
:1020A0001196CD91DC911297D38BC28B8E819F813B
:1020B000958B848B8E819F81DC0115963C932E93AA
:1020C00014973F832E83518F408FDA018C918F5F5D
:1020D0008C93928DE091130EF091140E828D8917DE
:1020E00020F481E080935D0D01C080E0DF91CF910D
:1020F0000895CF93DF93DC0170684D935D936D93EA
:102100007C9313971896ED91FC9119971A964D911F
:102110005C911B9714968D919C91159716962D9115
:102120003C911797EC013F832E8316968D919C91DD
:10213000179714962D913C911597EC013D832C83B4
:10214000EA0189819A81A817B90731F416968D9111
:102150009C9117979A8389831B961C921E921A97BB
:10216000DA018C9181508C93A485B585C681D78185
:10217000808591859F838E83C085D1858681978157
:102180009D838C8311968D919C9112979F012E5F58
:102190003F4F8217930731F48085918512969C9367
:1021A0008E931197158614868C9181508C93A28DF5
:1021B0008091630D8A1710F4A093630D8BE08A9FC2
:1021C000D0011124AB55B24F11960D90BC91A02DAA
:1021D000B783A68316964D915C91179751874087D8
:1021E0001696CD91DC9117973D832C8317963C93DF
:1021F0002E931697A28D8A9FD0011124AB55B24F12
:10220000B587A4878C918F5F8C93928DE091130E8C
:10221000F091140E828D891718F481E080935D0D82
:10222000DF91CF91089520915C0DFC0120834091B6
:10223000640D5091650D6091660D7091670D41833D
:1022400052836383748308958F929F92AF92BF925B
:10225000CF92DF92EF92FF920F931F93CF93DF9372
:10226000FB010FB6F8940F92C090640DD090650DED
:10227000E090660DF090670DDC0111960D911D91B7
:102280002D913C91149746015701801A910AA20A98
:10229000B30A40815181628173814F3FBFEF5B0779
:1022A0006B077B0739F1EC01B881A0915C0DBA177F
:1022B00059F0C016D106E206F30630F01082118202
:1022C0001282138281E017C084169506A606B7060F
:1022D00058F4481959096A097B094083518362837C
:1022E0007383A1DF80E007C0108211821282138203
:1022F00081E001C080E00F900FBEDF91CF911F9170
:102300000F91FF90EF90DF90CF90BF90AF909F9094
:102310008F90089581E080935D0D08958091620D06
:10232000882331F08091540D811104C082E008951A
:1023300081E0089580E008950F931F93CF93DF937A
:10234000FC01892B09F477C0828DA091130EB09106
:10235000140E5A969C91891708F063C046855785DC
:1023600060897189772394F0A091130EB091140EB7
:102370005A969C914AE050E060E070E0491B510998
:102380006109710946875787608B718B2485358574
:102390004BE0849FC00111248B55924F28173907B9
:1023A000B9F5EF018F010E5F1F4FC8010E941205A2
:1023B000E091130EF091140EE28DEA8F8091630D7F
:1023C0008E1710F4E093630D8BE08E9FF0011124C3
:1023D000EB55F24F0180F281E02DFF83EE832681E1
:1023E000378139872887A681B78115961C930E936C
:1023F000149717830683EA8D8E9FF0011124EB5505
:10240000F24FFD87EC8780818F5F808381E016C06B
:10241000A091130EB091140E5A968C91828F81E088
:102420000DC095A5E091130EF091140E828D9817B2
:1024300020F080E003C080E001C081E0DF91CF9117
:102440001F910F9108950F931F93CF93DF93FC017A
:10245000892B09F449C086A5815086A7228D95A5B0
:10246000291709F443C0811143C0EF018F010E5FAA
:102470001F4FC8010E941205EDA5EA8F8AE090E087
:10248000A0E0B0E08E1B9109A109B1098E879F875A
:10249000A88BB98B8091630D8E1710F4E093630DB8
:1024A0008BE08E9FF0011124EB55F24F0180F281F9
:1024B000E02DFF83EE832681378139872887A68127
:1024C000B78115961C930E93149717830683EA8D94
:1024D0008E9FF0011124EB55F24FFD87EC87808130
:1024E0008F5F808381E005C080E003C080E001C091
:1024F00080E0DF91CF911F910F9108950F931F936B
:10250000CF93DF93FC01892B09F45AC085A5861768
:1025100008F4862F928D891709F452C026A5213020
:1025200009F04EC0828F468557856089718977236F
:1025300064F04AE050E060E070E0481B5109610936
:10254000710946875787608B718B248535854BE0F1
:10255000949FC00111248B55924F2817390781F59C
:10256000EF018F010E5F1F4FC8010E941205EA8D17
:102570008091630D8E1710F4E093630D8BE08E9FB6
:10258000F0011124EB55F24F0180F281E02DFF8321
:10259000EE832681378139872887A681B7811596F2
:1025A0001C930E93149717830683EA8D8E9FF00178
:1025B0001124EB55F24FFD87EC8780818F5F80837C
:1025C000DF91CF911F910F910895CF92DF92EF92FB
:1025D000FF92E091130EF091140E66857785808945
:1025E0009189E091130EF091140EA091130EB09109
:1025F000140E5A962C910F2EFAE0CF2ED12CE12CEE
:10260000F12CF02DC21AD108E108F108C686D78650
:10261000E08AF18AFF90EF90DF90CF90089580914B
:10262000130E9091140E892B39F0E091130EF09156
:10263000140E86A58F5F86A78091130E9091140EBD
:102640000895DC01E0911F0EF091200E808191E051
:10265000811190E09C93911108C00780F085E02DD6
:102660006081718182819381089560E070E0CB0187
:102670000895CF92DF92EF92FF920F931F93FC0188
:102680004283538364837583938782870417150776
:1026900026073707C0F00C191D092E093F0986854A
:1026A0009785A089B189081719072A073B0700F504
:1026B000BF016E5F7F4F80911D0E90911E0E0E9494
:1026C000D50480E018C00C151D052E053F0528F423
:1026D0004C155D056E057F0568F4BF016E5F7F4F89
:1026E00080911F0E9091200E0E94D50480E003C0BF
:1026F00081E001C081E01F910F91FF90EF90DF908A
:10270000CF9008950FB6F8940F9280911B0E909180
:102710001C0E892BE9F48CE29EE00E94C00481E249
:102720009EE00E94C0048CE29EE09093200E809375
:102730001F0E81E29EE090931E0E80931D0E40E0DE
:1027400067E08AE00E94820790931C0E80931B0E24
:102750000F900FBE0895EF92FF920F93D3DF8091F9
:102760001B0E90911C0E892B89F00F2EF9E1EF2E94
:10277000FEE0FF2EF02D03E020E030E040EC50E0E2
:1027800066EA72E087ED90E046D801C080E00F91E4
:10279000FF90EF9008958F929F92AF92BF92CF9249
:1027A000DF92EF92FF920F931F93CF93DF93CDB7FA
:1027B000DEB727970FB6F894DEBF0FBECDBFE0910E
:1027C0001B0EF0911C0E309781F169832A833B83A5
:1027D0004C835D839F838E836630F4F49FDD82306B
:1027E00069F400E0A7019601BE016F5F7F4F809101
:1027F0001B0E90911C0E0E94A50718C000E020E05F
:1028000030E0A901BE016F5F7F4F80911B0E909158
:102810001C0E0E94A5070AC020E0A801BE016F5F40
:102820007F4FCF010E94320801C080E027960FB68B
:10283000F894DEBF0FBECDBFDF91CF911F910F91F6
:10284000FF90EF90DF90CF90BF90AF909F908F90D0
:1028500008958F929F92AF92BF92CF92DF92EF92A4
:10286000FF920F931F93CF93DF933BC00780F085B8
:10287000E02D80809180A280B380C085D1858E01BB
:102880000E5F1F4FC8010E941205EC89FD89CE0121
:1028900019958E8982FF25C08E859F85A889B98963
:1028A000880D991DAA1DBB1D88169906AA06BB0690
:1028B00070F48A839B83AC83BD83DB87CA87B801AE
:1028C00080911F0E9091200E0E94D5040AC0C12C49
:1028D000D12C760100E010E0A501940160E0CE016A
:1028E0005ADFE0911F0EF091200E80818111BECF42
:1028F00080911D0E90911E0E9093200E80931F0EBE
:10290000F0931E0EE0931D0EDF91CF911F910F915A
:10291000FF90EF90DF90CF90BF90AF909F908F90FF
:102920000895CF92DF92EF92FF92CF93DF93EC0165
:102930000E94920C6B017C018091150E9091160EF5
:10294000A091170EB091180EC816D906EA06FB061C
:1029500020F47FDF81E0888301C01882C092150EC9
:10296000D092160EE092170EF092180EC701B60123
:10297000DF91CF91FF90EF90DF90CF9008954F922D
:102980005F926F927F928F929F92AF92BF92CF92FF
:10299000DF92EF92FF920F931F93CF93DF934B0140
:1029A0005C0129013A01E0911F0EF091200E078091
:1029B000F085E02DC085D185CE0102960E941205DA
:1029C0008E8982FF1BC04E855F8568897989480D95
:1029D000591D6A1D7B1D7501640193018201CE01A1
:1029E00048DE882369F0C12CD12C760100E010E08C
:1029F000A501940160E0CE01CEDE02C08E7F8E8BF9
:102A0000EC89FD89CE011995DF91CF911F910F912E
:102A1000FF90EF90DF90CF90BF90AF909F908F90FE
:102A20007F906F905F904F9008958F929F92AF929A
:102A3000BF92CF92DF92EF92FF921F93CF93DF93DB
:102A40001F92CDB7DEB76B017C01142F0E948C0C56
:102A5000CE01019666DF4B015C01898181112BC09B
:102A600011110CC08C149D04AE04BF0438F094D82E
:102A7000A5019401C701B60182DF1EC0112341F0F8
:102A8000E0911D0EF0911E0E808111E0811110E089
:102A9000B701A601481959096A097B09212F8091BC
:102AA0001B0E90911C0E0E94A60976D8811104C0BD
:102AB0000E948E0501C070D80F90DF91CF911F91B9
:102AC000FF90EF90DF90CF90BF90AF909F908F904E
:102AD0000895AF92BF92CF92DF92EF92FF920F9341
:102AE0001F93CF93DF93CDB7DEB728970FB6F89437
:102AF000DEBF0FBECDBF82C0898188230CF47EC0AB
:102B0000AE80BF80D5011C968D919C911D97892B1D
:102B100021F0C50102960E941205CE01089601DF40
:102B20008B019C01E9810E2E000CFF0BEA30F105B0
:102B300008F064C08827EE58FF4F8F4F0C94362062
:102B4000F50186898160868BCA80DB80EC80FD8000
:102B500046855785608971894C0D5D1D6E1D7F1DF1
:102B6000C50187DD882309F449C0D5015496ED914C
:102B7000FC915597C5011995F501868982FF3EC0E4
:102B80004A815B816C817D8186859785A089B18929
:102B90009A01AB01280F391F4A1F5B1FC12CD12C92
:102BA000760100E010E060E0C501F5DD27C0D50149
:102BB00056968C9156978E7F56968C931FC0F50132
:102BC00086898160868B4A815B816C817D814687A5
:102BD0005787608B718B400F511F621F731F6801F5
:102BE0007901C50146DD0AC0F501868981FD04C071
:102BF000C5010E94840402C08E7F868B20E030E0F5
:102C0000A901BE016F5F7F4F80911B0E90911C0E3A
:102C10000E946C08811170CF28960FB6F894DEBF21
:102C20000FBECDBFDF91CF911F910F91FF90EF901D
:102C3000DF90CF90BF90AF900895089584B18068E1
:102C400084B985B1806885B9089583B1806883B9F6
:102C50000895F4DF2FEF80E792E02150804090400C
:102C6000E1F700C00000F1DFF5CFE8DF2FEF87EAE2
:102C700091E6215080409040E1F700C00000E5DF80
:102C8000F5CF9093650E8093640E08959093600E37
:102C900080935F0E08959093630E8093620E089563
:102CA0000F9343E060E081E00E94820790936A0EF8
:102CB0008093690E00E020E030E0A90160E070E060
:102CC0000E94A5070F91089540E062E083E00E9412
:102CD00082079093680E8093670E08950E942702E2
:102CE00090936E0E80936D0E089541E060E070E069
:102CF00084E690E00E94D1099093700E80936F0E4D
:102D00000895E3D0811105C08EEA92E00C94A021D1
:102D1000089581ED92E00C94A0210895EDD08823D0
:102D200021F08BEE92E00E94A02163E070E080E051
:102D300090E00ED8F5D0882321F08BE093E00E943C
:102D4000A02161E070E080E090E002C80895CF9398
:102D5000DF9300D01F92CDB7DEB71C821B821A8290
:102D6000198280E393E00E94A0214FEF5FEFBA0148
:102D70008091690E90916A0E0E94F908813009F0E5
:102D800043C0CCDF10D19C838B83EDD09A838983A1
:102D90008C818F938B818F938BE393E09F938F93A1
:102DA0000E948D218A818F9389818F938CE493E097
:102DB0009F938F930E948D2100E02FEF3FEFA90199
:102DC000BE016D5F7F4F8091670E9091680E0E94EB
:102DD000A5072FEF3FEFA901BE016F5F7F4F8091E5
:102DE000670E9091680E0E94A50742E050E060E0F7
:102DF00070E080916D0E90916E0E0E94DA020FB617
:102E0000F894DEBF0FBECDBF6AE070E080E090E0D6
:102E10000E94A80EA2CFEF92FF920F9372DFE12CD7
:102E2000F12C01E020E030E040EC50E06AE573E096
:102E300087EA96E10E940B0C0F91FF90EF900895A6
:102E40004DDF42DF2DDF51CF0895E5DF0E94ED0118
:102E50000C947C01089580E015D5F2DFF6CF08953B
:102E6000FADF89E693E00E94A0210E94560CFFCF72
:102E70006530F1F4FA0180818F7390E0982F8827F4
:102E80002181822B90930A02809309028281F0E4CF
:102E90008F9FC0011124FA01238126952695822B4C
:102EA000909308028093070281E08093370E089583
:102EB000643051F080E090E4909308028093070220
:102EC00090930A028093090208950F931F9308E3D9
:102ED00017E120E034E244EF50E060E087E20CD5F7
:102EE0009093390E8093380E21E0892B09F020E071
:102EF000822F1F910F9108958091380E9091390E75
:102F0000009751F040E060E070E047D5843031F444
:102F10001092370E80E0089582E0089583E00895CE
:102F20008091380E9091390E009731F064E081D590
:102F3000853021F083E0089582E0089580E00895CF
:102F40006091090270910A0280E090E07CD720E055
:102F500030E048EC52E40E94B11F20E038EF4FE728
:102F600056E4D8C60895ECDF20E030E040E251E4BA
:102F7000F8D73DD7CB010895609107027091080200
:102F800080E090E060D720E030E045E253E4E9D70C
:102F900020E038EF4FE756E4BDD620E030E040E2D5
:102FA00052E453C60895E8DF20E030E040E251E407
:102FB000D8D718D7CB01089580913D0E860F809306
:102FC0003D0E9091400E913079F028F09230A9F0AA
:102FD000933019F108956F3F09F048C010923D0EEB
:102FE00081E08093400E0895663809F03FC010924A
:102FF0003C0E82E08093400E0895E0913C0E81E00B
:103000008E0F80933C0EF0E0E65CF14F60838230DF
:1030100069F583E08093400E089590913C0E21E085
:10302000290F20933C0E963009F581110EC0EAE37A
:10303000FEE0808190E0982F88272181820F911DEA
:103040009093420E8093410E04C01092420E109253
:10305000410E1092400EE0913E0EF0913F0E3097DF
:1030600029F08091410E9091420E199508958F920A
:103070009F92AF92CF92EF920F930F2EFCED8F2E77
:10308000F7E19F2EF02D6894AA24A4F86894CC242C
:10309000C4F8E12C00E023E040E855E260E070E095
:1030A0003FD09093440E8093430E0F91EF90CF90BA
:1030B000AF909F908F90089590933F0E80933E0E17
:1030C0000895CF93DF93CDB7DEB729970FB6F89465
:1030D000DEBF0FBECDBF89E0E2E2F2E09E012F5FCE
:1030E0003F4FD90101900D928A95E1F71092420E5F
:1030F0001092410E8091430E9091440E009731F052
:10310000422F532F69E0D3D080E001C082E029969E
:103110000FB6F894DEBF0FBECDBFDF91CF910895FB
:103120002F923F924F925F926F927F928F929F92D7
:10313000AF92CF92EF92FF920F931F93CF93DF93B3
:10314000CDB7DEB7F82E2A013B0188E090E0B0D77A
:103150008C018F2D90E0FC01EE0FFF1FEB5BF14F18
:10316000118300830115110509F464C0880F991FAC
:10317000FC01E55FFD4F80819181D8018D939C9387
:103180006C2D70E084E090E079D71C0161E070E084
:1031900086E090E073D77C014C2DB1013AD5F8015F
:1031A000F582E4826A2D70E084E090E067D71C012C
:1031B00061E070E086E090E061D77C014A2DB101CA
:1031C00028D5D8011396FC92EE92129717969C92EE
:1031D0008E921697FFB6F894ED91FC911197369761
:1031E0008081826080838D909C90C301B2012BD638
:1031F00020E030E040E051E4B4D69B01AC0160E057
:1032000074E284E79BE486D520E030E040E85FE3A9
:103210001CD5EDD5F40132976083D801ED91FC9176
:103220001197359788E98083ED91FC91349786E07A
:103230008083FFBEC801DF91CF911F910F91FF9056
:10324000EF90CF90AF909F908F907F906F905F9016
:103250004F903F902F900895CF93DF93DC01892BFF
:1032600001F11296ED91FC91139793818281258152
:10327000981B922384819817B1F083812695282387
:10328000C081D181C20FD11D68838F5F9581892351
:103290008383ED91FC91359780818062808380E00B
:1032A00003C081E001C082E0DF91CF910895EF92E9
:1032B000FF920F931F93CF93DF937C01009709F444
:1032C00041C0DC011296ED91FC91139793818281AC
:1032D000981B858198238481891B8617A8F1662312
:1032E00041F1842F952FDC016150462F50E04F5F54
:1032F0005F4F480F591FE701EA81FB81938182816B
:103300002581981B92238481981779F08C91938161
:1033100026952923608171818B01020F111DE8011F
:1033200088839F5F8581982393831196A417B5079F
:1033300011F7D701ED91FC913597808180628083F0
:1033400080E003C081E001C082E0DF91CF911F9156
:103350000F91FF90EF9008950097D1F0DC01149643
:10336000ED91FC91159793818281981799F0928144
:10337000858186958923A081B181A80FB11D8C918B
:10338000DB018C939F5F85819823928380E0089571
:1033900081E0089583E008951F920F920FB60F9277
:1033A00011240BB60F922F933F934F935F936F931C
:1033B0007F938F939F93AF93BF93CF93DF93EF93BD
:1033C000FF93A091450EB091460E109711F16091B8
:1033D000C6001496ED91FC91159793818281258109
:1033E000981B92238481981761F083812695282366
:1033F000C081D181C20FD11D68838F5F95818923E0
:1034000083831696ED91FC911797309711F0CD01BB
:103410001995FF91EF91DF91CF91BF91AF919F915E
:103420008F917F916F915F914F913F912F910F906D
:103430000BBE0F900FBE0F901F9018951F920F920A
:103440000FB60F9211240BB60F922F938F939F9369
:10345000AF93BF93EF93FF93E091450EF091460E2B
:103460003097B9F00280F381E02D93818281981723
:10347000B1F092818581282F26952923A081B181E1
:10348000A20FB11D2C919F5F892382832093C600D8
:103490000BC0E1ECF0E080818F7D808305C0E1EC22
:1034A000F0E080818F7D8083FF91EF91BF91AF919C
:1034B0009F918F912F910F900BBE0F900FBE0F9089
:1034C0001F9018951F920F920FB60F9211240BB6F2
:1034D0000F922F933F934F935F936F937F938F93AD
:1034E0009F93AF93BF93CF93DF93EF93FF93A091FD
:1034F000470EB091480E109711F16091CE001496CE
:10350000ED91FC911597938182812581981B9223DF
:103510008481981761F0838126952823C081D18109
:10352000C20FD11D68838F5F95818923838316968F
:10353000ED91FC911797309711F0CD011995FF91FE
:10354000EF91DF91CF91BF91AF919F918F917F913B
:103550006F915F914F913F912F910F900BBE0F9004
:103560000FBE0F901F9018951F920F920FB60F92DB
:1035700011240BB60F922F938F939F93AF93BF930A
:10358000EF93FF93E091470EF091480E3097B9F01A
:103590000280F381E02D938182819817B1F09281AE
:1035A0008581282F26952923A081B181A20FB11DE5
:1035B0002C919F5F892382832093CE000BC0E9EC7E
:1035C000F0E080818F7D808305C0E9ECF0E08081B0
:1035D0008F7D8083FF91EF91BF91AF919F918F91EC
:1035E0002F910F900BBE0F900FBE0F901F9018954C
:1035F0001F920F920FB60F9211240BB60F922F93BA
:103600003F934F935F936F937F938F939F93AF936A
:10361000BF93CF93DF93EF93FF93A091490EB091A7
:103620004A0E109711F16091D6001496ED91FC911D
:103630001597938182812581981B92238481981705
:1036400061F0838126952823C081D181C20FD11DCD
:1036500068838F5F9581892383831696ED91FC9112
:103660001797309711F0CD011995FF91EF91DF91E8
:10367000CF91BF91AF919F918F917F916F915F910A
:103680004F913F912F910F900BBE0F900FBE0F9057
:103690001F9018951F920F920FB60F9211240BB620
:1036A0000F922F938F939F93AF93BF93EF93FF93BB
:1036B000E091490EF0914A0E3097B9F00280F38103
:1036C000E02D938182819817B1F092818581282F16
:1036D00026952923A081B181A20FB11D2C919F5F56
:1036E000892382832093D6000BC0E1EDF0E0808136
:1036F0008F7D808305C0E1EDF0E080818F7D808348
:10370000FF91EF91BF91AF919F918F912F910F906A
:103710000BBE0F900FBE0F901F9018951F920F9227
:103720000FB60F9211240BB60F922F933F934F9326
:103730005F936F937F938F939F93AF93BF93CF9339
:10374000DF93EF93FF93A0914B0EB0914C0E109727
:1037500011F1609136011496ED91FC9115979381CA
:1037600082812581981B92238481981761F083813F
:1037700026952823C081D181C20FD11D68838F5F18
:103780009581892383831696ED91FC911797309745
:1037900011F0CD011995FF91EF91DF91CF91BF917C
:1037A000AF919F918F917F916F915F914F913F91D9
:1037B0002F910F900BBE0F900FBE0F901F9018957A
:1037C0001F920F920FB60F9211240BB60F922F93E8
:1037D0008F939F93AF93BF93EF93FF93E0914B0E23
:1037E000F0914C0E3097B9F00280F381E02D938177
:1037F00082819817B1F092818581282F26952923FF
:10380000A081B181A20FB11D2C919F5F892382837A
:10381000209336010BC0E1E3F1E080818F7D80834E
:1038200005C0E1E3F1E080818F7D8083FF91EF911E
:10383000BF91AF919F918F912F910F900BBE0F90E1
:103840000FBE0F901F901895CF93DF931F92CDB7A7
:10385000DEB7BE016F5F7F4F80914D0E90914E0E8F
:103860007BDD8111F6CF898190E00F90DF91CF91C0
:103870000895682F80914D0E90914E0EEDDC80E002
:1038800090E008958F929F92AF92CF92EF920F9314
:10389000812C912C6894AA24A7F86894CC24C7F8AA
:1038A000E12C00E023E040E051EE60E070E038DC25
:1038B00090934E0E80934D0EE5E7FEE083E192E09B
:1038C00091838083938382830F91EF90CF90AF9009
:1038D0009F908F90089580915D0E81110CC08CE0B7
:1038E0008093B8008FEF8093BB0084E08093BC008E
:1038F00081E080935D0E0895AF92BF92CF92DF92E8
:10390000EF92FF920F931F93CF93DF93A82EB62EC3
:1039100069017A0184E090E0CBD3EC01892B61F15D
:10392000A88281E0B81212C0C701B60120EA36E8C9
:1039300041E050E079D3DA01C9014097A109B1090A
:10394000B695A79597958795898311C0C701B6014C
:1039500020E83AE146E050E067D3DA01C901409738
:10396000A109B109B695A7959795879589831B837A
:103970000A838C2F9D2F02C080E090E0DF91CF91D1
:103980001F910F91FF90EF90DF90CF90BF90AF907D
:1039900008958091BC0081700895FF920F931F934A
:1039A000CF93DF930097D1F14A30D0F5F42E8B01FD
:1039B000EC01EFDF811136C08091500E9091510ED5
:1039C000C817D90741F087DF89818093B800D09369
:1039D000510EC093500E81E08F0D8093520E88815E
:1039E000880F8093530EFF2089F0F801A4E5BEE014
:1039F0004FEF4F0D642F70E0CB010196B801680FB7
:103A0000791F81918D93E617F707D9F788EF809397
:103A1000210285EA8093BC0084E005C086E003C0F3
:103A200087E001C082E0DF91CF911F910F91FF905D
:103A300008951F93CF93DF93009729F16B3028F5FA
:103A4000162FEC01A6DF811122C08091500E9091BB
:103A5000510EC817D90741F03EDF89818093B80025
:103A6000D093510EC093500E1093520E8881880F40
:103A700081608093530E88EF8093210285EA8093C2
:103A8000BC0085E005C086E003C087E001C082E09D
:103A9000DF91CF911F9108951F920F920FB60F9251
:103AA00011240BB60F922F933F934F935F936F9315
:103AB0007F938F939F93AF93BF93EF93FF93E09187
:103AC000B9008E2F90E0FC013897E135F10508F040
:103AD00075C08827E458FF4F8F4FC8C210924F0E11
:103AE000E0914F0E8091520EE81770F481E08E0F36
:103AF00080934F0EF0E0ED5AF14F80818093BB0030
:103B000085E88093BC0072C084E98093BC008091FA
:103B1000500E9091510EDC011296ED91FC9113978D
:103B2000309709F463C020E040E050E064E019956C
:103B30005DC0E0914F0E81E08E0F80934F0E80911B
:103B4000BB00F0E0ED5AF14F80838091B9008034E2
:103B500011F410924F0E20914F0E30E08091520ED2
:103B600090E001972817390724F485EC8093BC0076
:103B70003DC085E88093BC0039C08091BB00E091D6
:103B80004F0EF0E0ED5AF14F808384E98093BC0042
:103B90008091500E9091510EDC011296ED91FC91A6
:103BA0001397309719F12091520E43E55EE065E0DE
:103BB00019951CC085EA8093BC0018C08091B9009B
:103BC0008093210284E08093BC008091500E9091FC
:103BD000510EDC011296ED91FC911397309731F064
:103BE00020E040E050E0609121021995FF91EF91B3
:103BF000BF91AF919F918F917F916F915F914F9105
:103C00003F912F910F900BBE0F900FBE0F901F9002
:103C10001895FC01411101C06CD3842F90E09C01E8
:103C20002150310982239323892B09F062D3413833
:103C300008F05FD3128213824483440F41504583BE
:103C40007183608380E090E008955058BB27AA27D5
:103C50000ED04DC13ED130F043D120F031F49F3F22
:103C600011F41EF433C10EF4E095E7FB29C1E92FEE
:103C70004FD180F3BA17620773078407950718F0CE
:103C800071F49EF567C10EF4E0950B2EBA2FA02DAE
:103C90000B01B90190010C01CA01A0011124FF27F9
:103CA000591B99F0593F50F4503E68F11A16F040F4
:103CB000A22F232F342F4427585FF3CF46953795F3
:103CC0002795A795F0405395C9F77EF41F16BA0BB8
:103CD000620B730B840BBAF09150A1F0FF0FBB1F66
:103CE000661F771F881FC2F70EC0BA0F621F731FAF
:103CF000841F48F4879577956795B795F7959E3F0C
:103D000008F0B3CF9395880F08F09927EE0F979599
:103D1000879508950CD0EBC0E3D040F0DAD030F0B6
:103D200021F45F3F19F0CCC0511115C1CFC0F0D0C4
:103D300098F39923C9F35523B1F3951B550BBB2772
:103D4000AA2762177307840738F09F5F5F4F220F1F
:103D5000331F441FAA1FA9F333D00E2E3AF0E0E818
:103D600030D091505040E695001CCAF729D0FE2F64
:103D700027D0660F771F881FBB1F261737074807F6
:103D8000AB07B0E809F0BB0B802DBF01FF279358AC
:103D90005F4F2AF09E3F510568F092C0DCC05F3F44
:103DA000ECF3983EDCF3869577956795B795F79594
:103DB0009F5FC9F7880F911D9695879597F908958C
:103DC000E1E0660F771F881FBB1F62177307840728
:103DD000BA0720F0621B730B840BBA0BEE1F88F737
:103DE000E095089504D06894B111B5C0089598D0B5
:103DF00088F09F5790F0B92F9927B751A0F0D1F0D4
:103E0000660F771F881F991F1AF0BA95C9F712C05D
:103E1000B13081F09FD0B1E008959CC0672F782F1A
:103E20008827B85F39F0B93FCCF3869577956795C9
:103E3000B395D9F73EF490958095709561957F4F35
:103E40008F4F9F4F0895E89409C097FB3EF49095DB
:103E50008095709561957F4F8F4F9F4F9923A9F063
:103E6000F92F96E9BB279395F695879577956795F2
:103E7000B795F111F8CFFAF4BB0F11F460FF1BC036
:103E80006F5F7F4F8F4F9F4F16C0882311F096E9C9
:103E900011C0772321F09EE8872F762F05C0662377
:103EA00071F096E8862F70E060E02AF09A95660F30
:103EB000771F881FDAF7880F9695879597F90895E9
:103EC00097F99F6780E870E060E008959FEF80ECCD
:103ED000089500240A941616170618060906089570
:103EE00000240A9412161306140605060895092ED6
:103EF0000394000C11F4882352F0BB0F40F4BF2B45
:103F000011F460FF04C06F5F7F4F8F4F9F4F089584
:103F100057FD9058440F551F59F05F3F71F047957A
:103F2000880F97FB991F61F09F3F79F0879508955F
:103F3000121613061406551FF2CF4695F1DF08C07E
:103F4000161617061806991FF1CF8695710561059B
:103F500008940895E894BB2766277727CB0197F943
:103F600008950BD0C4CFB5DF28F0BADF18F0952341
:103F700009F0A6CFABCF1124EECFCADFA0F3959FF7
:103F8000D1F3950F50E0551F629FF001729FBB2740
:103F9000F00DB11D639FAA27F00DB11DAA1F649FEC
:103FA0006627B00DA11D661F829F2227B00DA11D9F
:103FB000621F739FB00DA11D621F839FA00D611D25
:103FC000221F749F3327A00D611D231F849F600D46
:103FD000211D822F762F6A2F11249F5750408AF07F
:103FE000E1F088234AF0EE0FFF1FBB1F661F771F0B
:103FF000881F91505040A9F79E3F510570F060CF47
:10400000AACF5F3FECF3983EDCF3869577956795F2
:10401000B795F795E7959F5FC1F7FE2B880F911D28
:104020009695879597F90895A1E21A2EAA1BBB1BB6
:10403000FD010DC0AA1FBB1FEE1FFF1FA217B30774
:10404000E407F50720F0A21BB30BE40BF50B661F8A
:10405000771F881F991F1A9469F76095709580954E
:1040600090959B01AC01BD01CF010895EE0FFF1F9C
:10407000881F8BBF0790F691E02D19940F931F9323
:10408000CF93DF93869F8001879F100D969F100D21
:104090001124C8010DD0EC01009721F0A80160E0C7
:1040A00070E034D1CE01DF91CF911F910F9108952F
:1040B0000F931F93CF93DF938230910510F482E02A
:1040C00090E0E091730EF091740E20E030E0A0E0FB
:1040D000B0E0309719F14081518102811381481776
:1040E0005907C8F08417950769F4109731F01296B4
:1040F0000C93129713961C9327C00093730E109382
:10410000740E22C02115310519F04217530718F417
:104110009A01BD01EF01DF01F801DBCF2115310567
:10412000F9F0281B390B2430310580F48A819B81FA
:104130006115710521F0FB019383828304C0909384
:10414000740E8093730EFE01329644C0FE01E20F9E
:10415000F31F8193919322503109398328833AC008
:104160002091710E3091720E232B41F420910202A6
:10417000309103023093720E2093710E2091000251
:10418000309101022115310541F42DB73EB7409120
:10419000040250910502241B350BE091710EF09141
:1041A000720EE217F307A0F42E1B3F0B28173907F6
:1041B00078F0AC014E5F5F4F2417350748F04E0F83
:1041C0005F1F5093720E4093710E8193919302C0C2
:1041D000E0E0F0E0CF01DF91CF911F910F910895C2
:1041E000CF93DF93009709F481C0FC0132971382CB
:1041F0001282A091730EB091740E109781F42081F9
:104200003181820F931F2091710E3091720E281709
:10421000390751F5F093720EE093710E67C0ED010E
:1042200020E030E0CE17DF0740F44A815B819E0139
:1042300041155105F1F0EA01F5CFD383C2834081E6
:104240005181840F951FC817D90759F48881998126
:10425000840F951F0296918380838A819B8193832B
:1042600082832115310529F4F093740EE093730EC7
:104270003DC0E901FB83EA8349915991C40FD51FE1
:10428000EC17FD0761F480819181840F951F0296E0
:10429000E90199838883828193819B838A83E0E00B
:1042A000F0E012968D919C911397009719F0FD0103
:1042B000DC01F7CF8D919C9111979D012E5F3F4FAF
:1042C000820F931F2091710E3091720E28173907BB
:1042D00069F4309729F41092740E1092730E02C094
:1042E00013821282B093720EA093710EDF91CF9160
:1042F000089581E090E0F89400C3FB01DC0102C066
:1043000001900D9241505040D8F70895DC0101C052
:104310006D9341505040E0F70895CF93DF93CDB7B0
:10432000DEB7AE014A5F5F4FFA0161917191AF0153
:104330008091770E9091780E33D0DF91CF910895D0
:104340000F931F93CF93DF93E091770EF091780E48
:10435000238121FF1BC08C01D0E0C0E0F8018191D6
:104360008F016091770E7091780EDB011896ED91B8
:10437000FC911997882331F01995892B79F3DFEF98
:10438000CFEFECCF8AE01995892B19F08FEF9FEFD3
:1043900002C08D2F9C2FDF91CF911F910F91089517
:1043A0002F923F924F925F926F927F928F929F9245
:1043B000AF92BF92CF92DF92EF92FF920F931F9333
:1043C000CF93DF93CDB7DEB72B970FB6F894DEBF50
:1043D0000FBECDBF6C017B018A01FC0117821682E2
:1043E000838181FFBFC1CE0101963C01F60193811B
:1043F000F70193FD859193FF81917F01882309F453
:10440000ADC1853239F493FD859193FF81917F0190
:10441000853221F4B60190E0D6D1E8CF912C212C41
:10442000312CFFE1F315D8F08B3279F038F480327B
:1044300079F08332A1F4232D20611DC08D3261F00B
:10444000803369F4232D216016C0832D8260382EBD
:10445000E32DE4603E2E2AC0F32DF8601DC037FC2A
:104460002DC020ED280F2A3040F08E32B9F436FCF2
:1044700075C1232D2064322E19C036FE06C08AE095
:10448000989E200D1124922E11C0EAE02E9E200D40
:104490001124222EF32DF0623F2E08C08C3621F419
:1044A000832D8068382E02C0883641F4F70193FDD1
:1044B000859193FF81917F018111B3CF982F9F7DCB
:1044C0009554933028F40C5F1F4F9FE399830DC0E0
:1044D000833631F0833771F0833509F055C020C041
:1044E000F801808189830E5F1F4F88248394912C6B
:1044F000530112C02801F2E04F0E511CF801A080B8
:10450000B18036FE03C0692D70E002C06FEF7FEF0F
:10451000C5014ED14C018201F32DFF773F2E15C00E
:10452000280122E0420E511CF801A080B18036FE25
:1045300003C0692D70E002C06FEF7FEFC5012DD180
:104540004C01F32DF0683F2E820133FC19C0822DFF
:1045500090E088169906A0F4B60180E290E033D18D
:104560002A94F5CFF50137FC859137FE81915F01E3
:10457000B60190E028D121102A9421E0821A9108F6
:104580008114910479F7E1C0843611F0893639F548
:10459000F80137FE07C060817181828193810C5FD1
:1045A0001F4F08C060817181072E000C880B990B8A
:1045B0000E5F1F4FF32DFF763F2E97FF09C090959A
:1045C0008095709561957F4F8F4F9F4FF0683F2E7C
:1045D0002AE030E0A30133D1882E861844C0853705
:1045E00031F4232D2F7EB22E2AE030E025C0932D0A
:1045F000997FB92E8F36C1F018F4883579F0AEC0A6
:10460000803719F0883721F0A9C0E92FE061BE2E6C
:10461000B4FE0DC0FB2DF460BF2E09C034FE0AC0ED
:10462000292F2660B22E06C028E030E005C020E128
:1046300030E002C020E132E0F801B7FE07C060813F
:104640007181828193810C5F1F4F06C060817181EF
:1046500080E090E00E5F1F4FA301F1D0882E8618F6
:10466000FB2DFF773F2E36FE0DC0232D2E7FA22E71
:10467000891458F434FE0BC032FC09C0832D8E7EA1
:10468000A82E05C0B82CA32C03C0B82C01C0B92C8F
:10469000A4FE0FC0FE01E80DF11D8081803321F4DE
:1046A0009A2D997EA92E09C0A2FE06C0B394B39498
:1046B00004C08A2D867809F0B394A3FC10C0A0FE34
:1046C00006C0B21480F4280C922C9B180DC0B214B2
:1046D00058F4B60180E290E076D0B394F8CFB214EB
:1046E00018F42B1802C0982C212CA4FE0FC0B60180
:1046F00080E390E068D0A2FE16C0A1FC03C088E76A
:1047000090E002C088E590E0B6010CC08A2D867862
:1047100051F0A1FE02C08BE201C080E2A7FC8DE255
:10472000B60190E050D0891430F4B60180E390E0F7
:104730004AD09A94F8CF8A94F301E80DF11D808154
:10474000B60190E040D08110F6CF222009F44ECE81
:10475000B60180E290E037D02A94F7CFF601868147
:10476000978102C08FEF9FEF2B960FB6F894DEBFB4
:104770000FBECDBFDF91CF911F910F91FF90EF90B2
:10478000DF90CF90BF90AF909F908F907F906F9071
:104790005F904F903F902F900895FC0105906150DD
:1047A00070400110D8F7809590958E0F9F1F089547
:1047B000FC016150704001900110D8F780959095F0
:1047C0008E0F9F1F08950F931F93CF93DF93FB01CD
:1047D000238121FD03C08FEF9FEF2CC022FF16C065
:1047E00046815781248135814217530744F4A081C3
:1047F000B1819D012F5F3F4F318320838C932681B0
:1048000037812F5F3F4F3783268314C08B01EC0124
:10481000FB010084F185E02D1995892BE1F6D80183
:1048200016968D919C911797019617969C938E934F
:104830001697CE01DF91CF911F910F910895FA0144
:10484000AA27283051F1203181F1E8946F936E7FCF
:104850006E5F7F4F8F4F9F4FAF4FB1E03ED0B4E0C0
:104860003CD0670F781F891F9A1FA11D680F791F01
:104870008A1F911DA11D6A0F711D811D911DA11D12
:1048800020D009F468943F912AE0269F1124301922
:10489000305D3193DEF6CF010895462F4770405DBD
:1048A0004193B3E00FD0C9F7F6CF462F4F70405D6C
:1048B0004A3318F0495D31FD4052419302D0A9F7C7
:1048C000EACFB4E0A6959795879577956795BA95C1
:1048D000C9F700976105710508959B01AC010A2E87
:1048E00006945795479537952795BA95C9F7620F5E
:0E48F000731F841F951FA01D0895F894FFCF1D
:1048FE0000007B0E20000900400040C600CE00D60E
:10490E000036010000000300000000391C241C00CA
:10491E0000F8FF0186000000000079FF0179A00079
:10492E00000000E6FF0179000000000086FF01870D
:10493E00000000000078FF01880000000000004128
:10494E004C4C204441544120434F4C4C454354451C
:10495E0044004170705461736B00434F32205661B6
:10496E006C75653A2025640A00434F32204D65610F
:10497E00737572652077656E742077726F6E67003F
:10498E00434F32205461736B00434F325461736B4B
:10499E000049444C4500546D7220537663005465B3
:1049AE006D7020616E642048756D20447269766565
:1049BE007220496E697469616C697A6564206F6BE7
:1049CE000054454D5020414E442048554D204F55E2
:1049DE0054204F462048454150200054454D50200C
:1049EE00414E442048554D2057414B4520555020AF
:1049FE0057454E542057524F4E470054454D502068
:104A0E00414E442048554D204D4541535552494E37
:104A1E00472055502057454E542057524F4E470071
:104A2E0054454D50205441534B200054656D7065D4
:104A3E007261747572653A2025640A0048756D6955
:104A4E00646974793A2025640A0054656D70416E6C
:104A5E006448756D5461736B0050726F6772616D4F
:104A6E00205374747474746172746564212100002F
:00000001FF
