S011000053656D6573746572342E7372656397
S1130000E5C0000004C1000002C1000000C10000FE
S1130010FEC00000FCC00000FAC00000F8C00000F0
S1130020F6C00000F4C00000F2C00000F0C0000000
S11300304DC60000ECC00000EAC00000E8C00000AB
S1130040E6C00000E4C00000E2C00000E0C0000020
S1130050DEC00000DCC00000DAC00000D8C0000030
S1130060D6C000000C948B190C94DD19D0C000008C
S1130070CEC00000CCC00000CAC00000C8C0000050
S1130080C6C00000C4C00000C2C00000C0C0000060
S11300900C94211A0C94731ABAC000000C940B1D12
S11300A0B6C00000B4C00000B2C00000B0C0000080
S11300B0AEC00000ACC00000AAC00000A8C0000090
S11300C0A6C00000A4C00000A2C000000C94B71A8F
S11300D00C94091B9CC000000C944D1B0C949F1B9A
S11300E096C00000701570157015A715AF15C415CE
S11300F070157015A715AF152D1D9D1D9D1D9D1DFA
S11301009D1D9D1D9D1D9D1D2D1D9D1D9D1D9D1D8B
S11301109D1D9D1D9D1D9D1D2F1D9D1D9D1D9D1D79
S11301209D1D9D1D9D1D9D1D9D1D9D1D9D1D9D1DFB
S11301309D1D9D1D9D1D9D1D2F1D9D1D9D1D9D1D59
S11301409D1D9D1D9D1D9D1D9D1D9D1D9D1D9D1DDB
S11301509D1D9D1D9D1D9D1D991D9D1D9D1D9D1DCF
S11301609D1D9D1D9D1D9D1D641D9D1D9D1D9D1DF4
S11301709D1D9D1D9D1D9D1D9D1D9D1D9D1D9D1DAB
S11301809D1D9D1D9D1D9D1D581D9D1D9D1D9D1DE0
S11301909D1D9D1D9D1D9D1D7C1D0E94180B809104
S11301A0A90D823008F0CDD40E94ED15F6CFCF937F
S11301B0DF931F92CDB7DEB7CE0101960E94F112F4
S11301C049810E94E5140E943915F6CF11241FBEFF
S11301D0CFEFD1E2DEBFCDBF00E00CBF13E0A0E063
S11301E0B2E0ECE7F8E400E00BBF02C007900D9228
S11301F0A438B107D9F72EE0A4E8B3E001C01D92FA
S1130200AF37B207E1F70E94EF160C943C24F8CE06
S11302100F931F93CF93DF9300D000D0CDB7DEB7F9
S113022000E010E02CC0B801660F771F81E090E079
S11302308C0F9D1F680F791F2FEF3FEFA90180914D
S11302406B0E90916C0E5BD78130B9F4F801EE0F10
S1130250FF1F81E090E08C0F9D1FE80FF91F818143
S11302608F9380818F938FE492E09F938F930E946A
S11302704C210F900F900F900F900F5F1F4F033082
S113028011058CF289819A810E9416168B819C81BA
S11302900E941B168D819E810E94111660E0809140
S11302A06B0E90916C0EECD526960FB6F894DEBFCB
S11302B00FBECDBFDF91CF911F910F910895CC2434
S11302C0CA94DC2C760101E021E043E050E060E0D8
S11302D070E08091710E9091720EDFD0DC01CB0141
S11302E083709927AA27BB270397A105B10529F491
S11302F08FE592E00E945F218BDF63E070E080E095
S113030090E00E94780EDBCFEF92FF920F93E12CE6
S1130310F12C01E020E030E040EC50E062E772E0D4
S11303208FE591E00E94DB0B0F91FF90EF90089511
S11303300F93CF93DF931F921F92CDB7DEB79A83AB
S113034089838A818F9389818F938AE792E09F932F
S11303508F930E944C2100E02FEF3FEFA901BE01D3
S11303606F5F7F4F80916B0E90916C0E01D641E0D0
S113037050E060E070E08091710E9091720E2DD18A
S113038020E030E0A90160E070E080916D0E909172
S11303906E0EEED50F900F900F900F900F900F9060
S11303A0DF91CF910F91089583E00C94F61708958F
S11303B00E9420188093620E882321F089E892E03D
S11303C00C945F210895CC24CA94DC2C760101E0BE
S11303D020E042E050E060E070E08091710E909186
S11303E0720E5BD061FF05C080EA92E00E945F213B
S11303F0DFDF6EE170E080E090E00E94780EE3CFF2
S1130400EF92FF920F93D0DF88E991E00E941B18CE
S1130410E12CF12C01E020E030E040EC50E069EA0E
S113042072E083EE91E00E94DB0B0F91FF90EF905E
S113043008950F9301110CC0DC01CB018223932397
S1130440A423B523892B8A2B8B2B79F480E010C04D
S1130450DC01CB0182239323A423B5232817390776
S11304604A075B0721F080E003C081E001C081E01E
S11304700F910895CF93DF938FE090E0AFD1EC011B
S1130480009739F0FC011192119211921192CF014F
S11304908AD2CE01DF91CF9108952F923F924F924D
S11304A05F926F927F928F929F92AF92BF92CF9200
S11304B0DF92EF92FF920F931F93CF93DF93EC01A0
S11304C04A015B01622E702E0E945C0C28803980E8
S11304D04A805B80A5019401C201B101AADF88238F
S11304E0A1F0662089F1D501C40180959095A0956D
S11304F0B09582219321A421B52188839983AA836D
S1130500BB83C12CD12C760122C0C114D104E104D7
S1130510F104E9F0611004C040E050E0BA0104C005
S113052040E050E060E071E071107460482959299E
S11305306A297B2997018601CE0104960E940E0F39
S1130540212C312C210103C0C12CD12C76010E9415
S11305509C0DCD28CE28CF2859F1811101C0F1D2AC
S11305600E94B5126B017C0191FD1FC00FB6F89477
S11305700F92C880D980EA80FB80072DA5019401E1
S1130580C701B60156DF882371F0662061F08094BC
S11305909094A094B0948C209D20AE20BF2088829B
S11305A09982AA82BB820F900FBE1601270155249F
S11305B0C201B101DF91CF911F910F91FF90EF9094
S11305C0DF90CF90BF90AF909F908F907F906F906F
S11305D05F904F903F902F9008954F925F926F924B
S11305E07F92AF92BF92CF92DF92EF92FF920F93DE
S11305F01F93CF93DF93EC016A017B018C01095FA8
S11306001F4F0E945C0CEB85FC8588819981AA812F
S1130610BB81C82AD92AEA2AFB2AC882D982EA825B
S1130620FB82C12CD12C76013DC0A480B580808191
S11306309181A281B381AC01BD017727B2FD0EC0C7
S1130640488059806A807B80442255226622772222
S113065045284628472889F420E012C0488059805C
S11306606A807B80442255226622772244155505F0
S11306706605770521F020E003C021E001C021E0F8
S1130680222371F0B0FF04C0C42AD52AE62AF72A2F
S1130690488159816A817B817260CF010E9449102F
S11306A0EA2DFB2DE017F10709F0BFCFC094D094D9
S11306B0E094F09488819981AA81BB81C822D922CF
S11306C0EA22FB22C882D982EA82FB820E949C0D24
S11306D0688179818A819B81DF91CF911F910F91EC
S11306E0FF90EF90DF90CF90BF90AF907F906F908E
S11306F05F904F900895E0E9F3E0A4E9B3E0B1839B
S1130700A08313821282E4E5FDE0F0938F03E0936B
S11307108E03138212821182108280EC99E0139668
S11307209C938E931297ED93FC9390938B038093F9
S11307308A0390938D0380938C0380E090E89093D8
S11307408503809384030895CF93DF93EC01A0E99C
S1130750B3E001C0DF01ED91FC911197EC17FD07A7
S1130760C8F312968D919C9113979D01280F391F00
S1130770C217D30749F42A813B81820F931F139632
S11307809C938E931297ED018A819B819E01280F81
S1130790391FE217F307C1F420918E0330918F03C0
S11307A0E217F30771F022813381820F931F9B8339
S11307B08A83ED91FC91119780819181998388833B
S11307C005C03983288302C0F983E883CA17DB078D
S11307D011F0CD93DC93DF91CF910895EF92FF92C6
S11307E00F931F93CF93DF938C010E945C0C809135
S11307F08E0390918F03892B09F47DDF809184030C
S11308009091850380239123892B09F076C00115EB
S1130810110549F0C80104960817190718F000E0FB
S113082010E001C08C010115110509F469C0809123
S11308308C0390918D038017910708F464C0C091D4
S11308409003D0919103E0E9F3E002C0FE01EC01D2
S11308508A819B818017910720F488819981009770
S1130860A9F780918E0390918F03C817D90709F4D3
S11308704DC0E080F18084E0E80EF11C888199810C
S1130880918380832A813B81201B310B29303105E0
S113089048F0CE01800F911FFC01338322831B8318
S11308A00A8352DF2A813B8180918C0390918D03CE
S11308B0821B930B90938D0380938C0340918A0346
S11308C050918B038417950720F490938B038093A6
S11308D08A038091840390918503282B392B3B83D1
S11308E02A83198218828091880390918903019642
S11308F090938903809388030BC0E12CF12C08C0EA
S1130900E12CF12C05C0E12CF12C02C0E12CF12CDE
S11309100E949C0DE114F10411F40E94F915C70121
S1130920DF91CF911F910F91FF90EF9008950F9356
S11309301F93CF93DF93009789F1EC0124974A81A9
S11309405B812091840330918503BA016223732370
S1130950672B21F168817981672B01F5209530950A
S1130960242335233B832A83A7D78A819B81209123
S11309708C0330918D03820F931F90938D0380938A
S11309808C03CE01E1DE809186039091870301966A
S113099090938703809386030E949C0DDF91CF91EF
S11309A01F910F910895FC010396928381834FEF69
S11309B05FEFBA014383548365837683908787838B
S11309C09287818710820895FC0113861286089508
S11309D00F931F93CF93DF93EB01088119812A8131
S11309E03B810F3F4FEF14072407340721F4FC0128
S11309F0A185B28511C0DC01139601C0DF011496F4
S1130A00ED91FC91159740815181628173810417A6
S1130A1015072607370790F71496ED91FC91159763
S1130A20FD83EC83D783C683BF83AE831596DC93A3
S1130A30CE9314979B878A87FC0120812F5F2083A4
S1130A40DF91CF911F910F910895CF93DF93FC0114
S1130A50A285B385C481D581868197819F838E8346
S1130A60C681D781848195819D838C8311968D91D4
S1130A709C911297E817F90731F4868197811296B1
S1130A809C938E931197138612868C9181508C932C
S1130A908C91DF91CF910895A89590EC88E10FB6E1
S1130AA0F894A895809360000FBE90936000089519
S1130AB0FC016083319770833197108231971082E3
S1130AC0319720E820833197108231971082319733
S1130AD01082779740833197508386970895DCDF9F
S1130AE0A091170EB091180ECD91CDBFDD91DEBF50
S1130AF0FF91EF91DF91CF91BF91AF919F918F9132
S1130B007F916F915F914F913F912F911F910F9121
S1130B10FF90EF90DF90CF90BF90AF909F908F9019
S1130B207F906F905F904F903F902F901F900F9009
S1130B300CBE0F900BBE0F900FBE0F90089581E076
S1130B4008950F920FB6F8940F920BB60F920CB64D
S1130B500F921F9211242F923F924F925F926F92A5
S1130B607F928F929F92AF92BF92CF92DF92EF9239
S1130B70FF920F931F932F933F934F935F936F9322
S1130B807F938F939F93AF93BF93CF93DF93EF9311
S1130B90FF93A091170EB091180E0DB60D920EB6DC
S1130BA00D920E94930EA091170EB091180ECD9144
S1130BB0CDBFDD91DEBFFF91EF91DF91CF91BF916A
S1130BC0AF919F918F917F916F915F914F913F91E1
S1130BD02F911F910F91FF90EF90DF90CF90BF90D6
S1130BE0AF909F908F907F906F905F904F903F90C9
S1130BF02F901F900F900CBE0F900BBE0F900FBE46
S1130C000F9008950F920FB6F8940F920BB60F92AF
S1130C100CB60F921F9211242F923F924F925F9223
S1130C206F927F928F929F92AF92BF92CF92DF92F8
S1130C30EF92FF920F931F932F933F934F935F93E2
S1130C406F937F938F939F93AF93BF93CF93DF93D0
S1130C50EF93FF93A091170EB091180E0DB60D925D
S1130C600EB60D9213BE3CD681110E94930EA09134
S1130C70170EB091180ECD91CDBFDD91DEBFFF915F
S1130C80EF91DF91CF91BF91AF919F918F917F9120
S1130C906F915F914F913F912F911F910F91FF9011
S1130CA0EF90DF90CF90BF90AF909F908F907F9008
S1130CB06F905F904F903F902F901F900F900CBEBD
S1130CC00F900BBE0F900FBE0F9008959BDF1895E9
S1130CD0DC0153962C915397222341F05A96ED91BF
S1130CE0FC915B9790818AE0891B089580E00895C8
S1130CF00FB6F8940F92FC01868D811102C081E039
S1130D0001C080E00F900FBE08950FB6F8940F92C3
S1130D10FC01268D878D281302C081E001C080E08C
S1130D200F900FBE08950F931F93CF93DF93EC01A1
S1130D30042F1E8D48A141110CC088819981892BF3
S1130D4009F042C08C819D810E94F3111D821C8296
S1130D5042C0011117C050E08A819B810E943C214E
S1130D6028A18A819B81820F911D9B838A832C8178
S1130D703D818217930750F1888199819B838A83EF
S1130D8080E029C050E08E819F810E943C2188A18F
S1130D9090E09195819591092E813F81280F391F0B
S1130DA03F832E83488159812417350730F42C81E1
S1130DB03D81820F931F9F838E83023049F4112358
S1130DC049F0115080E007C080E005C080E003C016
S1130DD080E001C080E01F5F1E8FDF91CF911F91E3
S1130DE00F910895FC0140A14423A9F050E026810D
S1130DF03781240F351F37832683848195812817F3
S1130E00390720F08081918197838683CB016681A5
S1130E1077810C943C2108951F93CF93DF93EC01C9
S1130E200FB6F8940F921AA10BC08B89882351F046
S1130E30CE0143960E949A0F81110E945A111150BB
S1130E4011169CF38FEF8AA30F900FBE0FB6F89480
S1130E500F9219A10BC08885882351F0CE01089602
S1130E600E949A0F81110E945A11115011169CF37D
S1130E708FEF89A30F900FBEDF91CF911F9108953B
S1130E80CF93DF93EC010FB6F8940F92E881F981C8
S1130E908F8D28A190E030E0829FA001839F500DA8
S1130EA0929F500D11244E0F5F1F5D834C831E8E45
S1130EB0FB83EA830197289FA001299F500D389F47
S1130EC0500D1124CF01840F951F9F838E838FEFC4
S1130ED089A38AA361110BC08885882371F0CE0190
S1130EE008960E949A0F882341F02BDE06C0CE019B
S1130EF0089659DDCE01439656DD0F900FBE81E072
S1130F00DF91CF9108950F931F93F801611103C0EE
S1130F101183008302C051834083878F60A361E003
S1130F20CF01AEDF1F910F910895DF92EF92FF92F0
S1130F300F931F93CF93DF93F82EE62ED42E869F24
S1130F40C001112483964ADCEC01009741F08C0126
S1130F502D2DAC014D5D5F4F6E2D8F2DD4DFCE0155
S1130F60DF91CF911F910F91FF90EF90DF90089543
S1130F70CF92DF92EF92FF920F931F93CF93DF9361
S1130F80CDB7DEB729970FB6F894DEBF0FBECDBF3D
S1130F907C016B012E833F834887598710E00FB68D
S1130FA0F8940F92F701968D878D981710F0023000
S1130FB0A9F4402FB601C701B6DEF701938999233E
S1130FC039F0C7014396B6D7882321F0BADD02C0B1
S1130FD08111B7DD0F900FBE81E048C08E819F81E3
S1130FE0A885B985892B8A2B8B2B21F40F900FBEF2
S1130FF080E03CC0111105C0CE0101960E94E310AF
S113100011E00F900FBE58D40FB6F8940F92F70169
S113101081A18F3F09F411A2F70182A18F3F09F446
S113102012A20F900FBEBE016A5F7F4FCE010196E0
S11310300E94F410811116C0C70167DE882371F085
S11310404E815F8168857985C7010896D0D6C7012E
S1131050E3DE72D58111A3CF74DDA1CFC701DCDE3D
S11310606BD59DCFC701D8DE67D580E029960FB632
S1131070F894DEBF0FBECDBFDF91CF911F910F91CA
S1131080FF90EF90DF90CF900895EF92FF920F932F
S11310901F93CF93DF938A01FC01568D378D53172D
S11310A010F02230F1F4422F7801EC011AA18E8D58
S11310B0CE0139DE1F3F79F48B898823A1F0CE015C
S11310C0439638D7882389F0E114F10481F081E054
S11310D0F70180830DC0FF24F394F10EFAA281E09E
S11310E007C080E005C081E003C081E001C081E069
S11310F0DF91CF911F910F91FF90EF900895CF92C0
S1131100DF92EF92FF920F931F93CF93DF93CDB7AC
S1131110DEB729970FB6F894DEBF0FBECDBF8C01A2
S11311206B012E833F8348875987E12C0FB6F894CF
S11311300F92F801F68CFF2091F0B601C80152DE3F
S1131140FA94F801F68E8085882329F0C801089660
S1131150F1D68111F6DC0F900FBE81E04EC08E8176
S11311609F81A885B985892B8A2B8B2B21F40F901D
S11311700FBE80E042C0E11006C0CE0101960E947D
S1131180E310EE24E3940F900FBE96D30FB6F894B9
S11311900F92F80181A18F3F09F411A2F80182A1F5
S11311A08F3F09F412A20F900FBEBE016A5F7F4FFA
S11311B0CE0101960E94F410811116C0C80198DD79
S11311C0882371F04E815F8168857985C8014396D3
S11311D00ED6C80121DEB0D48111A8CFB2DCA6CFCF
S11311E0C8011ADEA9D4A2CFC80116DEA5D4C8014D
S11311F07FDD882309F49ACF80E029960FB6F8940E
S1131200DEBF0FBECDBFDF91CF911F910F91FF9035
S1131210EF90DF90CF900895EF92FF920F931F937A
S1131220CF93DF93CDB7DEB729970FB6F894DEBF1F
S11312300FBECDBF8C014E835F8368877987E12C15
S1131240F12C0FB6F8940F92F801868D8823C1F023
S11312508150868F80819181892B29F40E94DF122D
S1131260F80195838483F8018085882329F0C801D7
S1131270089660D6811165DC0F900FBE81E06BC0CB
S11312808E819F81A885B985892B8A2B8B2B21F48C
S11312900F900FBE80E05FC0F11005C0CE01019633
S11312A092D7FF24F3940F900FBE06D30FB6F89491
S11312B00F92F80181A18F3F09F411A2F80182A1D4
S11312C08F3F09F412A20F900FBEBE016A5F7F4FD9
S11312D0CE01019689D7811124C0C80109DD882374
S11312E0E1F0F80180819181892B49F40FB6F894DB
S11312F00F9284819581F0D7E82E0F900FBE4E8116
S11313005F8168857985C801439671D5C80184DDFC
S113131013D4811196CF15DC94CFC8017DDD0CD494
S113132090CFC80179DD08D4C801E2DC882309F430
S113133088CFEE2079F00FB6F8940F92C801C8DC7C
S1131340682FF801848195810E944E120F900FBE80
S113135080E001C080E029960FB6F894DEBF0FBE8E
S1131360CDBFDF91CF911F910F91FF90EF90089522
S1131370CF93DF93EC010FB6F8940F9289A18F3FBE
S113138009F419A28AA18F3F09F41AA20F900FBE83
S11313908E8D811103C0CE0143968AD5CE013CDDEA
S11313A0DF91CF910895E091910DF091920D80819C
S11313B081110CC08FEF9FEFDC0180935B0D909344
S11313C05C0DA0935D0DB0935E0D0895E091910DB9
S11313D0F091920D0780F085E02D80819181A281AA
S11313E0B38180935B0D90935C0DA0935D0DB093DE
S11313F05E0D0895CF93DF93EC018B8D9C8D97DA6E
S1131400CE0195DADF91CF9108954F925F926F925A
S11314107F928F929F92AF92BF92CF92DF92EF9280
S1131420FF920F93CF93DF932C015B014A013901A3
S1131430E60165EA70E08B8D9C8D0E9445218B8DC1
S11314409C8D21E0821A9108880E991EA114B10482
S113145089F415C0822F90E0F501E80FF91F30815F
S1131460DE01A80FB91F5D963C938081882329F083
S11314702F5F01C020E0203168F31CA601C01D8E3F
S11314800A3008F009E00A8F0DA71EA6CE010296C5
S11314909BDACE010E9698DADB87CA878AE090E061
S11314A0A0E0B0E0801B9109A109B1098E879F8754
S11314B0A88BB98BDF8BCE8B84E0FE01BF96DF0156
S11314C01D928A95E9F71BAAA301B201C401F0DABF
S11314D099838883E114F10419F0F701D183C0835F
S11314E0DF91CF910F91FF90EF90DF90CF90BF905D
S11314F0AF909F908F907F906F905F904F900895E2
S1131500CF93C0E008C02BE0C29FC00111248755CF
S1131510924F49DACF5FCA30B0F38EE99DE043DAE7
S113152083E99DE040DA84E89DE03DDA89E79DE0C7
S11315303ADA8DE69DE037DA8EE99DE09093920DDC
S11315408093910D83E99DE09093900D80938F0D8E
S1131550CF910895CF93DF93EC010FB6F8940F92D7
S113156080916C0D8F5F80936C0D8091170E90911C
S1131570180E892B51F4D093180EC093170E809136
S11315806C0D813091F4BCDF10C08091660D811127
S11315900CC0E091170EF091180E928D8A8D891768
S11315A020F0D093180EC093170E80915F0D8F5FBB
S11315B080935F0DEA8D8091670D8E1710F4E09390
S11315C0670D8BE08E9FF0011124E755F24F0180E7
S11315D0F281E02DFF83EE832681378139872887C6
S11315E0A681B7819E012E5F3F4F15963C932E93A3
S11315F0149737832683EA8D8E9FF0011124E755D3
S1131600F24FFD87EC8780818F5F80830F900FBE40
S11316108091660D882349F0E091170EF091180E21
S1131620928D8A8D981708F48CDADF91CF91089502
S1131630CF93DF931AC00FB6F8940F92E091800D08
S1131640F091810DC085D185CE010296FED980919D
S11316506C0D815080936C0D8091780D8150809336
S1131660780D0F900FBECE01C5DE8091780D8111EB
S1131670E2CFDF91CF9108958F929F92AF92BF9264
S1131680CF92DF92EF92FF92CF93DF936B017C01B5
S1131690C42F8090680D9090690DA0906A0DB09051
S11316A06B0D8091170E9091180E0296CED98FEF84
S11316B0C816D806E806F806B1F5CC23A1F1EDE684
S11316C0FDE0A181B281C091170ED091180EBF83A5
S11316D0AE83C091170ED091180E16968D919C91E1
S11316E01797998788871696CD91DC9117978091E3
S11316F0170E9091180E02969D838C838091170E7D
S11317009091180E029617969C938E931697A0911B
S1131710170EB091180E1D96FC93EE931C978081C2
S11317208F5F80833DC0C80CD91CEA1CFB1CE09170
S1131730170EF091180EC282D382E482F582C81487
S1131740D904EA04FB0460F46091170E7091180E3A
S113175080918F0D9091900D6E5F7F4F39D920C08D
S11317606091170E7091180E8091910D9091920DC9
S11317706E5F7F4F2DD980915B0D90915C0DA09190
S11317805D0DB0915E0DC816D906EA06FB0640F45D
S1131790C0925B0DD0925C0DE0925D0DF0925E0DF7
S11317A0DF91CF91FF90EF90DF90CF90BF90AF90FB
S11317B09F908F9008952F923F924F925F926F92D5
S11317C07F928F929F92AF92BF92CF92DF92EF92CD
S11317D0FF920F93CF93DF933C011B014A01290130
S11317E0CA010E94EE036C01892B69F084E390E046
S11317F00E94EE03EC01892B19F0DC8ECB8E05C020
S1131800C60195D802C0C0E0D0E0209761F0A12CB9
S1131810B12C6E019201A401B101C301F6DDCE0128
S113182099DE81E001C08FEFDF91CF910F91FF909E
S1131830EF90DF90CF90BF90AF909F908F907F906C
S11318406F905F904F903F902F900895EF92FF928A
S11318500F930F2EF9E5EF2EFDE0FF2EF02D00E0A3
S113186020E030E040EC50E061EB72E08DEC90E081
S1131870A2DF813009F43FD78130C1F4F8948FEFAF
S11318809FEFDC0180935B0D90935C0DA0935D0D45
S1131890B0935E0D81E08093660D1092680D1092F6
S11318A0690D10926A0D10926B0D19D98091060280
S11318B00F91FF90EF9008958091580D8F5F809362
S11318C0580D08950FB6F8940F926091680D7091B9
S11318D0690D80916A0D90916B0D0F900FBE089564
S11318E0CF92DF92EF92FF92CF93DF938091580DC6
S11318F0811105C1C090680DD090690DE0906A0D0A
S1131900F0906B0D8FEFC81AD80AE80AF80AC09253
S1131910680DD092690DE0926A0DF0926B0DC114BE
S1131920D104E104F104B1F48091910D9091920DF0
S113193020918F0D3091900D3093920D2093910D45
S11319409093900D80938F0D8091600D8F5F8093A5
S1131950600D29DD80915B0D90915C0DA0915D0D72
S1131960B0915E0DC816D906EA06FB0620F480E0A5
S1131970B2C081E001C080E0E091910DF091920D40
S1131980908191110CC04FEF5FEFBA0140935B0D52
S113199050935C0D60935D0D70935E0D9CC0E0915F
S11319A0910DF091920D0780F085E02D0084F18572
S11319B0E02D4281538164817581C416D506E60603
S11319C0F70648F440935B0D50935C0D60935D0DF6
S11319D070935E0D80C0A485B585C681D7812085AE
S11319E031853F832E83C085D185268137813D8310
S11319F02C8311964D915C9112979F012E5F3F4F5E
S1131A004217530731F44085518512965C934E93E7
S1131A101197158614869C9191509C93A08DB18D3D
S1131A20109709F1C289D389448955895F834E830C
S1131A30C489D589428953895D834C8311966D91FC
S1131A407C911297AF01425F5F4F6417750731F4C1
S1131A504489558912965C934E931197118E108E7A
S1131A609C9191509C93A28D9091670D9A1710F4BC
S1131A70A093670D9BE09A9FD0011124A755B24F04
S1131A8011960D90BC91A02DB783A68316964D9107
S1131A905C911797518740871696CD91DC911797E3
S1131AA03D832C8317963C932E931697A28D9A9F71
S1131AB0D0011124A755B24FB587A4879C919F5F8D
S1131AC09C93228DE091170EF091180E928D291798
S1131AD008F04FCF51CFE091170EF091180EE28D20
S1131AE09BE0E99FF0011124E755F24F9081923079
S1131AF008F081E09091610D911116C016C080919B
S1131B00620D9091630DA091640DB091650D0196E5
S1131B10A11DB11D8093620D9093630DA093640D7C
S1131B20B093650D80E001C081E0DF91CF91FF901B
S1131B30EF90DF90CF900895CF92DF92EF92FF92D3
S1131B40CF93DF930FB6F8940F928091580D815084
S1131B508093580D8091580D8111BEC080916C0DF9
S1131B60811188C0BCC0E0918B0DF0918C0D008474
S1131B70F185E02DA08DB18DC289D38984899589A1
S1131B809F838E83C489D589828993899D838C831D
S1131B9011962D913C911297CF010E962817390773
S1131BA031F48489958912969C938E931197118EA2
S1131BB0108E8C9181508C93A485B585C681D78174
S1131BC0808591859F838E83C085D1858681978109
S1131BD09D838C8311968D919C9112979F012E5F0A
S1131BE03F4F8217930731F48085918512969C9319
S1131BF08E931197158614868C9181508C93A28DA7
S1131C008091670D8A1710F4A093670D8BE08A9F6B
S1131C10D0011124A755B24F11960D90BC91A02D5F
S1131C20B783A68316964D915C9117975187408789
S1131C301696CD91DC9117973D832C8317963C9390
S1131C402E931697A28D8A9FD0011124A755B24FC7
S1131C50B587A4878C918F5F8C93928DA091170E7A
S1131C60B091180E5A968C91981730F081E08093B9
S1131C70610D02C0E0E0F0E08091840D811173CF2A
S1131C80EF2B09F090DBC090620DD090630DE090D3
S1131C90640DF090650DC114D104E104F104A1F0C8
S1131CA01FDE882319F081E08093610D81E0C81A5A
S1131CB0D108E108F108A1F71092620D1092630DAA
S1131CC01092640D1092650D8091610D882331F09E
S1131CD00E94A10581E003C080E001C080E00F9074
S1131CE00FBEDF91CF91FF90EF90DF90CF900895DA
S1131CF0CF92DF92EF92FF926B017C01672B682BEE
S1131D00692B39F0D9DD40E0C701B601B5DC14DF39
S1131D1001C080E0811102C00E94A105FF90EF90F4
S1131D20DF90CF9008958091580D882321F081E0B1
S1131D308093610D08951092610DE091170EF0915A
S1131D40180E20813181E091170EF091180E838DC9
S1131D50948D8217930758F06091170E7091180EA6
S1131D60635E7F4F8091170E9091180E4ED780912D
S1131D70670D01C08150282F30E09BE0929FF00155
S1131D80939FF00D1124E755F24F9081992391F31D
S1131D909BE0929FA001939F500D1124DF010180CD
S1131DA0F281E02D0480F581E02D1296FC93EE93F0
S1131DB011974455524FE417F50729F4448155818E
S1131DC0FD01528341839BE0929FF001939FF00DAC
S1131DD01124E755F24F0180F281E02D20853185F1
S1131DE03093180E2093170E8093670D0895CF92A9
S1131DF0DF92EF92FF926A017B016091170E70915E
S1131E00180E625F7F4F0E94E80441E0C701B601EB
S1131E1033DCFF90EF90DF90CF9008950F931F93E2
S1131E20CF93DF93FC01A091170EB091180E706848
S1131E301E964D935D936D937C935197A181B281CE
S1131E40C091170ED091180EBB8BAA8BC091170EA0
S1131E50D091180E16968D919C9117979D8B8C8B13
S1131E601696CD91DC9117978091170E9091180ECC
S1131E700E969D838C838091170E9091180E0E966A
S1131E8017969C938E931697A091170EB091180EE7
S1131E905996FC93EE93589780818F5F808341E03D
S1131EA0C901B801E9DBDF91CF911F910F9108952A
S1131EB0CF93DF93FC01CB01BA01A181B281C09120
S1131EC0170ED091180EBB8BAA8BC091170ED09110
S1131ED0180E16964D915C9117975D8B4C8B169648
S1131EE0CD91DC9117974091170E5091180E425FD7
S1131EF05F4F5D834C834091170E5091180E425FE3
S1131F005F4F17965C934E931697A091170EB0915E
S1131F10180E5996FC93EE93589730813F5F3083A7
S1131F20222319F06FEF7FEFCB01422FA5DBDF9166
S1131F30CF910895CF93DF93DC011796ED91FC9137
S1131F4018970084F185E02DA08DB18DC289D389C5
S1131F50848995899F838E83C489D589828993894D
S1131F609D838C8311968D919C9112979F01225F82
S1131F703F4F8217930731F48489958912969C9375
S1131F808E931197118E108E8C9181508C93809129
S1131F90580D811152C0A485B585C681D78180852D
S1131FA091859F838E83C085D185868197819D830A
S1131FB08C8311968D919C9112979F012E5F3F4FB8
S1131FC08217930731F48085918512969C938E93A2
S1131FD01197158614868C9181508C93A28D8091D3
S1131FE0670D8A1710F4A093670D8BE08A9FD001C8
S1131FF01124A755B24F11960D90BC91A02DB78313
S1132000A68316964D915C91179751874087169633
S1132010CD91DC9117973D832C8317963C932E9397
S11320201697A28D8A9FD0011124A755B24FB58768
S1132030A4878C918F5F8C931CC044E85DE0DA0127
S11320401196CD91DC911297D38BC28B8E819F8197
S1132050958B848B8E819F81DC0115963C932E9306
S113206014973F832E83518F408FDA018C918F5FB9
S11320708C93928DE091170EF091180E828D891732
S113208020F481E08093610D01C080E0DF91CF9165
S11320900895CF93DF93DC0170684D935D936D9346
S11320A07C9313971896ED91FC9119971A964D917C
S11320B05C911B9714968D919C91159716962D9172
S11320C03C911797EC013F832E8316968D919C913A
S11320D0179714962D913C911597EC013D832C8311
S11320E0EA0189819A81A817B90731F416968D916E
S11320F09C9117979A8389831B961C921E921A9718
S1132100DA018C9181508C93A485B585C681D781E1
S1132110808591859F838E83C085D18586819781B3
S11321209D838C8311968D919C9112979F012E5FB4
S11321303F4F8217930731F48085918512969C93C3
S11321408E931197158614868C9181508C93A28D51
S11321508091670D8A1710F4A093670D8BE08A9F16
S1132160D0011124A755B24F11960D90BC91A02D0A
S1132170B783A68316964D915C9117975187408734
S11321801696CD91DC9117973D832C8317963C933B
S11321902E931697A28D8A9FD0011124A755B24F72
S11321A0B587A4878C918F5F8C93928DE091170EE5
S11321B0F091180E828D891718F481E08093610DD7
S11321C0DF91CF9108952091600DFC01208340910F
S11321D0680D5091690D60916A0D70916B0D41838A
S11321E052836383748308958F929F92AF92BF92B8
S11321F0CF92DF92EF92FF920F931F93CF93DF93CF
S1132200FB010FB6F8940F92C090680DD090690D41
S1132210E0906A0DF0906B0DDC0111960D911D910B
S11322202D913C91149746015701801A910AA20AF4
S1132230B30A40815181628173814F3FBFEF5B07D5
S11322406B077B0739F1EC01B881A091600DBA17D7
S113225059F0C016D106E206F30630F0108211825E
S11322601282138281E017C084169506A606B7066B
S113227058F4481959096A097B09408351836283D8
S11322807383A1DF80E007C010821182128213825F
S113229081E001C080E00F900FBEDF91CF911F91CC
S11322A00F91FF90EF90DF90CF90BF90AF909F90F1
S11322B08F90089581E08093610D08958091660D5B
S11322C0882331F08091580D811104C082E0089573
S11322D081E0089580E008950F931F93CF93DF93D7
S11322E0FC01892B09F477C0828DA091170EB0915F
S11322F0180E5A969C91891708F063C04685578535
S113230060897189772394F0A091170EB091180E0B
S11323105A969C914AE050E060E070E0491B5109F4
S11323206109710946875787608B718B24853585D0
S11323304BE0849FC00111248755924F2817390719
S1132340B9F5EF018F010E5F1F4FC8010E942505EB
S1132350E091170EF091180EE28DEA8F8091670DCF
S11323608E1710F4E093670D8BE08E9FF00111241B
S1132370E755F24F0180F281E02DFF83EE83268141
S1132380378139872887A681B78115961C930E93C8
S1132390149717830683EA8D8E9FF0011124E75565
S11323A0F24FFD87EC8780818F5F808381E016C0C8
S11323B0A091170EB091180E5A968C91828F81E0DD
S11323C00DC095A5E091170EF091180E828D981707
S11323D020F080E003C080E001C081E0DF91CF9174
S11323E01F910F9108950F931F93CF93DF93FC01D7
S11323F0892B09F449C086A5815086A7228D95A50D
S1132400291709F443C0811143C0EF018F010E5F06
S11324101F4FC8010E942505EDA5EA8F8AE090E0D0
S1132420A0E0B0E08E1B9109A109B1098E879F87B6
S1132430A88BB98B8091670D8E1710F4E093670D0C
S11324408BE08E9FF0011124E755F24F0180F28159
S1132450E02DFF83EE832681378139872887A68183
S1132460B78115961C930E93149717830683EA8DF0
S11324708E9FF0011124E755F24FFD87EC87808190
S11324808F5F808381E005C080E003C080E001C0ED
S113249080E0DF91CF911F910F9108950F931F93C7
S11324A0CF93DF93FC01892B09F45AC085A58617C5
S11324B008F4862F928D891709F452C026A521307D
S11324C009F04EC0828F46855785608971897723CC
S11324D064F04AE050E060E070E0481B5109610993
S11324E0710946875787608B718B248535854BE04E
S11324F0949FC00111248755924F2817390781F5FD
S1132500EF018F010E5F1F4FC8010E942505EA8D60
S11325108091670D8E1710F4E093670D8BE08E9F0A
S1132520F0011124E755F24F0180F281E02DFF8381
S1132530EE832681378139872887A681B78115964E
S11325401C930E93149717830683EA8D8E9FF001D4
S11325501124E755F24FFD87EC8780818F5F8083DC
S1132560DF91CF911F910F910895CF92DF92EF9257
S1132570FF92E091170EF091180E66857785808999
S11325809189E091170EF091180EA091170EB09159
S1132590180E5A962C910F2EFAE0CF2ED12CE12C46
S11325A0F12CF02DC21AD108E108F108C686D786AD
S11325B0E08AF18AFF90EF90DF90CF9008958091A8
S11325C0170E9091180E892B39F0E091170EF091A7
S11325D0180E86A58F5F86A78091170E9091180E0E
S11325E00895DC01E091230EF091240E808191E0A6
S11325F0811190E09C93911108C00780F085E02D33
S11326006081718182819381089560E070E0CB01E3
S11326100895CF92DF92EF92FF920F931F93FC01E4
S113262042835383648375839387828704171507D2
S113263026073707C0F00C191D092E093F098685A6
S11326409785A089B189081719072A073B0700F560
S1132650BF016E5F7F4F8091210E9091220E0E94E8
S1132660E80480E018C00C151D052E053F0528F46C
S11326704C155D056E057F0568F4BF016E5F7F4FE5
S11326808091230E9091240E0E94E80480E003C000
S113269081E001C081E01F910F91FF90EF90DF90E6
S11326A0CF9008950FB6F8940F9280911F0E9091D9
S11326B0200E892BE9F480E39EE00E94D30485E296
S11326C09EE00E94D30480E39EE09093240E8093C6
S11326D0230E85E29EE09093220E8093210E40E02B
S11326E067E08AE00E9495079093200E80931F0E66
S11326F00F900FBE0895EF92FF920F93D3DF809156
S11327001F0E9091200E892B89F00F2EFDE1EF2EE4
S1132710FEE0FF2EF02D03E020E030E040EC50E03E
S113272066EB72E087ED90E046D801C080E00F913F
S1132730FF90EF9008958F929F92AF92BF92CF92A5
S1132740DF92EF92FF920F931F93CF93DF93CDB756
S1132750DEB727970FB6F894DEBF0FBECDBFE0916A
S11327601F0EF091200E309781F169832A833B83F9
S11327704C835D839F838E836630F4F49FDD8230C7
S113278069F400E0A7019601BE016F5F7F4F80915D
S11327901F0E9091200E0E94B80718C000E020E0A0
S11327A030E0A901BE016F5F7F4F80911F0E9091B1
S11327B0200E0E94B8070AC020E0A801BE016F5F86
S11327C07F4FCF010E94450801C080E027960FB6D5
S11327D0F894DEBF0FBECDBFDF91CF911F910F9153
S11327E0FF90EF90DF90CF90BF90AF909F908F902D
S11327F008958F929F92AF92BF92CF92DF92EF9201
S1132800FF920F931F93CF93DF933BC00780F08514
S1132810E02D80809180A280B380C085D1858E0117
S11328200E5F1F4FC8010E942505EC89FD89CE016A
S113283019958E8982FF25C08E859F85A889B989BF
S1132840880D991DAA1DBB1D88169906AA06BB06EC
S113285070F48A839B83AC83BD83DB87CA87B8010A
S11328608091230E9091240E0E94E8040AC0C12C8A
S1132870D12C760100E010E0A501940160E0CE01C6
S11328805ADFE091230EF091240E80818111BECF96
S11328908091210E9091220E9093240E8093230E0A
S11328A0F093220EE093210EDF91CF911F910F91AF
S11328B0FF90EF90DF90CF90BF90AF909F908F905C
S11328C00895CF92DF92EF92FF92CF93DF93EC01C2
S11328D00E94620C6B017C018091190E90911A0E7A
S11328E0A0911B0EB0911C0EC816D906EA06FB0671
S11328F020F47FDF81E0888301C01882C092190E22
S1132900D0921A0EE0921B0EF0921C0EC701B60173
S1132910DF91CF91FF90EF90DF90CF9008954F9289
S11329205F926F927F928F929F92AF92BF92CF925B
S1132930DF92EF92FF920F931F93CF93DF934B019C
S11329405C0129013A01E091230EF091240E0780E5
S1132950F085E02DC085D185CE0102960E94250523
S11329608E8982FF1BC04E855F8568897989480DF1
S1132970591D6A1D7B1D7501640193018201CE01FD
S113298048DE882369F0C12CD12C760100E010E0E8
S1132990A501940160E0CE01CEDE02C08E7F8E8B55
S11329A0EC89FD89CE011995DF91CF911F910F918B
S11329B0FF90EF90DF90CF90BF90AF909F908F905B
S11329C07F906F905F904F9008958F929F92AF92F7
S11329D0BF92CF92DF92EF92FF921F93CF93DF9338
S11329E01F92CDB7DEB76B017C01142F0E945C0CE3
S11329F0CE01019666DF4B015C01898181112BC0F8
S1132A0011110CC08C149D04AE04BF0438F094D88A
S1132A10A5019401C701B60182DF1EC0112341F054
S1132A20E091210EF091220E808111E0811110E0DD
S1132A30B701A601481959096A097B09212F809118
S1132A401F0E9091200E0E94B80976D8811104C0FF
S1132A500E94A10501C070D80F90DF91CF911F9102
S1132A60FF90EF90DF90CF90BF90AF909F908F90AA
S1132A700895AF92BF92CF92DF92EF92FF920F939D
S1132A801F93CF93DF93CDB7DEB728970FB6F89493
S1132A90DEBF0FBECDBF82C0898188230CF47EC007
S1132AA0AE80BF80D5011C968D919C911D97892B7A
S1132AB021F0C50102960E942505CE01089601DF8A
S1132AC08B019C01E9810E2E000CFF0BEA30F1050D
S1132AD008F064C08827EE58FF4F8F4F0C94F51F01
S1132AE0F50186898160868BCA80DB80EC80FD805D
S1132AF046855785608971894C0D5D1D6E1D7F1D4E
S1132B00C50187DD882309F449C0D5015496ED91A8
S1132B10FC915597C5011995F501868982FF3EC040
S1132B204A815B816C817D8186859785A089B18985
S1132B309A01AB01280F391F4A1F5B1FC12CD12CEE
S1132B40760100E010E060E0C501F5DD27C0D501A5
S1132B5056968C9156978E7F56968C931FC0F5018E
S1132B6086898160868B4A815B816C817D81468701
S1132B705787608B718B400F511F621F731F680151
S1132B807901C50146DD0AC0F501868981FD04C0CD
S1132B90C5010E94970402C08E7F868B20E030E03E
S1132BA0A901BE016F5F7F4F80911F0E9091200E8F
S1132BB00E947F08811170CF28960FB6F894DEBF6B
S1132BC00FBECDBFDF91CF911F910F91FF90EF907A
S1132BD0DF90CF90BF90AF900895089584B180683E
S1132BE084B985B1806885B9089583B1806883B953
S1132BF00895F4DF2FEF80E792E021508040904069
S1132C00E1F700C00000F1DFF5CFE8DF2FEF87EA3E
S1132C1091E6215080409040E1F700C00000E5DFDC
S1132C20F5CF9093690E8093680E08959093640E87
S1132C308093630E08959093670E8093660E0895B3
S1132C400F9343E060E081E00E94950790936E0E3D
S1132C5080936D0E00E020E030E0A90160E070E0B8
S1132C600E94B8070F91089540E062E083E00E945B
S1132C70950790936C0E80936B0E08950E943A0210
S1132C809093720E8093710E0895DED0811105C069
S1132C908EEB92E00C945F21089581EE92E00C9407
S1132CA05F210895E8D0882321F08BEF92E00E9401
S1132CB05F2163E070E080E090E01AD8F0D08823D0
S1132CC021F08BE193E00E945F2161E070E080E0FD
S1132CD090E00EC80895CF93DF9300D01F92CDB734
S1132CE0DEB71C821B821A8219824FEF5FEFBA0192
S1132CF080916D0E90916E0E0E940C09813009F046
S1132D0043C0D0DF0FD19C838B83ECD09A8389831B
S1132D108C818F938B818F9380E493E09F938F9327
S1132D200E944C218A818F9389818F9381E593E05E
S1132D309F938F930E944C2100E02FEF3FEFA90156
S1132D40BE016D5F7F4F80916B0E90916C0E0E945F
S1132D50B8072FEF3FEFA901BE016F5F7F4F80914E
S1132D606B0E90916C0E0E94B80742E050E060E058
S1132D7070E08091710E9091720E0E94ED020FB678
S1132D80F894DEBF0FBECDBF6AE070E080E090E053
S1132D900E94780EA6CFEF92FF920F9376DFE12C7C
S1132DA0F12C01E020E030E040EC50E06FE573E00E
S1132DB08BE696E10E94DB0B0F91FF90EF90089554
S1132DC05DDF52DF3DCF0895E6DF0E9400020C94E0
S1132DD08401089580E015D5F3DFF6CF0895FADF76
S1132DE08EE693E00E945F210E94260CFFCF65309F
S1132DF0F1F4FA0180818F7390E0982F8827218164
S1132E00822B90930A02809309028281F0E48F9FBF
S1132E10C0011124FA01238126952695822B9093D3
S1132E2008028093070281E080933B0E089564308A
S1132E3051F080E090E4909308028093070290930D
S1132E400A028093090208950F931F9307EF16E176
S1132E5020E034E244EF50E060E087E20CD5909348
S1132E603D0E80933C0E21E0892B09F020E0822F57
S1132E701F910F91089580913C0E90913D0E009703
S1132E8051F040E060E070E047D5843031F41092B6
S1132E903B0E80E0089582E0089583E008958091D8
S1132EA03C0E90913D0E009731F064E081D5853061
S1132EB021F083E0089582E0089580E00895609110
S1132EC0090270910A0280E090E07CD720E030E0B3
S1132ED048EC52E40E94701F20E038EF4FE756E4BC
S1132EE0D8C60895ECDF20E030E040E251E4F8D7A2
S1132EF03DD7CB010895609107027091080280E0EC
S1132F0090E060D720E030E045E253E4E9D720E0E8
S1132F1038EF4FE756E4BDD620E030E040E252E41B
S1132F2053C60895E8DF20E030E040E251E4D8D70A
S1132F3018D7CB0108958091410E860F8093410EDE
S1132F409091440E913079F028F09230A9F09330AA
S1132F5019F108956F3F09F048C01092410E81E0C5
S1132F608093440E0895663809F03FC01092400ED5
S1132F7082E08093440E0895E091400E81E08E0F2C
S1132F808093400EF0E0E25CF14F6083823069F59B
S1132F9083E08093440E08959091400E21E0290F20
S1132FA02093400E963009F581110EC0EEE3FEE049
S1132FB0808190E0982F88272181820F911D909322
S1132FC0460E8093450E04C01092460E1092450E94
S1132FD01092440EE091420EF091430E309729F086
S1132FE08091450E9091460E199508958F929F9267
S1132FF0AF92CF92EF920F930F2EFBE98F2EF7E152
S11330009F2EF02D6894AA24A4F86894CC24C4F8C4
S1133010E12C00E023E040E855E260E070E03FD0BE
S11330209093480E8093470E0F91EF90CF90AF90FE
S11330309F908F9008959093430E8093420E08952D
S1133040CF93DF93CDB7DEB729970FB6F894DEBFE1
S11330500FBECDBF89E0E2E2F2E09E012F5F3F4F59
S1133060D90101900D928A95E1F71092460E1092C3
S1133070450E8091470E9091480E009731F0422FF3
S1133080532F69E0D3D080E001C082E029960FB6C7
S1133090F894DEBF0FBECDBFDF91CF9108952F927C
S11330A03F924F925F926F927F928F929F92AF92D4
S11330B0CF92EF92FF920F931F93CF93DF93CDB7ED
S11330C0DEB7F82E2A013B0188E090E0B0D78C01EE
S11330D08F2D90E0FC01EE0FFF1FE75BF14F118392
S11330E000830115110509F464C0880F991FFC01C0
S11330F0E55FFD4F80819181D8018D939C936C2D68
S113310070E084E090E079D71C0161E070E086E033
S113311090E073D77C014C2DB1013AD5F801F582CA
S1133120E4826A2D70E084E090E067D71C0161E0DE
S113313070E086E090E061D77C014A2DB10128D58A
S1133140D8011396FC92EE92129717969C928E9247
S11331501697FFB6F894ED91FC91119736978081FC
S1133160826080838D909C90C301B2012BD620E0B5
S113317030E040E051E4B4D69B01AC0160E074E27D
S113318084E79BE486D520E030E040E85FE31CD58B
S1133190EDD5F40132976083D801ED91FC9111973C
S11331A0359788E98083ED91FC91349786E080839C
S11331B0FFBEC801DF91CF911F910F91FF90EF9057
S11331C0CF90AF909F908F907F906F905F904F9033
S11331D03F902F900895CF93DF93DC01892B01F169
S11331E01296ED91FC911397938182812581981B0E
S11331F0922384819817B1F0838126952823C08176
S1133200D181C20FD11D68838F5F95818923838308
S1133210ED91FC91359780818062808380E003C0CA
S113322081E001C082E0DF91CF910895EF92FF9297
S11332300F931F93CF93DF937C01009709F441C050
S1133240DC011296ED91FC91139793818281981B76
S1133250858198238481891B8617A8F1662341F10F
S1133260842F952FDC016150462F50E04F5F5F4F54
S1133270480F591FE701EA81FB81938182812581EF
S1133280981B92238481981779F08C9193812695C9
S11332902923608171818B01020F111DE80188834C
S11332A09F5F8581982393831196A417B50711F71F
S11332B0D701ED91FC91359780818062808380E015
S11332C003C081E001C082E0DF91CF911F910F9193
S11332D0FF90EF9008950097D1F0DC011496ED91E2
S11332E0FC91159793818281981799F09281858139
S11332F086958923A081B181A80FB11D8C91DB0132
S11333008C939F5F85819823928380E0089581E068
S1133310089583E008951F920F920FB60F9211241F
S11333200BB60F922F933F934F935F936F937F93BB
S11333308F939F93AF93BF93CF93DF93EF93FF93B9
S1133340A091490EB0914A0E109711F16091C600F8
S11333501496ED91FC911597938182812581981B98
S113336092238481981761F0838126952823C08154
S1133370D181C20FD11D68838F5F95818923838397
S11333801696ED91FC911797309711F0CD01199590
S1133390FF91EF91DF91CF91BF91AF919F918F9169
S11333A07F916F915F914F913F912F910F900BBE41
S11333B00F900FBE0F901F9018951F920F920FB68B
S11333C00F9211240BB60F922F938F939F93AF9369
S11333D0BF93EF93FF93E091490EF0914A0E30971B
S11333E0B9F00280F381E02D938182819817B1F0C6
S11333F092818581282F26952923A081B181A20F4E
S1133400B11D2C919F5F892382832093C6000BC03A
S1133410E1ECF0E080818F7D808305C0E1ECF0E099
S113342080818F7D8083FF91EF91BF91AF919F91B8
S11334308F912F910F900BBE0F900FBE0F901F9086
S113344018951F920F920FB60F9211240BB60F927C
S11334502F933F934F935F936F937F938F939F9398
S1133460AF93BF93CF93DF93EF93FF93A0914B0E52
S1133470B0914C0E109711F16091CE001496ED911D
S1133480FC911597938182812581981B92238481D5
S1133490981761F0838126952823C081D181C20FBA
S11334A0D11D68838F5F9581892383831696ED915F
S11334B0FC911797309711F0CD011995FF91EF9179
S11334C0DF91CF91BF91AF919F918F917F916F9138
S11334D05F914F913F912F910F900BBE0F900FBEB4
S11334E00F901F9018951F920F920FB60F921124F0
S11334F00BB60F922F938F939F93AF93BF93EF933A
S1133500FF93E0914B0EF0914C0E3097B9F002808E
S1133510F381E02D938182819817B1F092818581A6
S1133520282F26952923A081B181A20FB11D2C91AA
S11335309F5F892382832093CE000BC0E9ECF0E0E7
S113354080818F7D808305C0E9ECF0E080818F7DF0
S11335508083FF91EF91BF91AF919F918F912F91B4
S11335600F900BBE0F900FBE0F901F9018951F92D7
S11335700F920FB60F9211240BB60F922F933F9315
S11335804F935F936F937F938F939F93AF93BF9367
S1133590CF93DF93EF93FF93A0914D0EB0914E0E16
S11335A0109711F16091D6001496ED91FC91159746
S11335B0938182812581981B92238481981761F0DD
S11335C0838126952823C081D181C20FD11D6883B0
S11335D08F5F9581892383831696ED91FC911797CC
S11335E0309711F0CD011995FF91EF91DF91CF91B3
S11335F0BF91AF919F918F917F916F915F914F9107
S11336003F912F910F900BBE0F900FBE0F901F9004
S113361018951F920F920FB60F9211240BB60F92AA
S11336202F938F939F93AF93BF93EF93FF93E09167
S11336304D0EF0914E0E3097B9F00280F381E02DDB
S1133640938182819817B1F092818581282F2695E4
S11336502923A081B181A20FB11D2C919F5F8923E1
S113366082832093D6000BC0E1EDF0E080818F7D52
S1133670808305C0E1EDF0E080818F7D8083FF9140
S1133680EF91BF91AF919F918F912F910F900BBEAE
S11336900F900FBE0F901F9018951F920F920FB6A8
S11336A00F9211240BB60F922F933F934F935F9376
S11336B06F937F938F939F93AF93BF93CF93DF9336
S11336C0EF93FF93A0914F0EB091500E109711F10C
S11336D0609136011496ED91FC9115979381828146
S11336E02581981B92238481981761F08381269504
S11336F02823C081D181C20FD11D68838F5F95813A
S1133700892383831696ED91FC911797309711F0D6
S1133710CD011995FF91EF91DF91CF91BF91AF91B9
S11337209F918F917F916F915F914F913F912F91D5
S11337300F900BBE0F900FBE0F901F9018951F9205
S11337400F920FB60F9211240BB60F922F938F93F3
S11337509F93AF93BF93EF93FF93E0914F0EF0913C
S1133760500E3097B9F00280F381E02D938182816D
S11337709817B1F092818581282F26952923A0815D
S1133780B181A20FB11D2C919F5F89238283209365
S113379036010BC0E1E3F1E080818F7D808305C0B9
S11337A0E1E3F1E080818F7D8083FF91EF91BF9110
S11337B0AF919F918F912F910F900BBE0F900FBEE1
S11337C00F901F901895CF93DF931F92CDB7DEB75C
S11337D0BE016F5F7F4F8091510E9091520E7BDD41
S11337E08111F6CF898190E00F90DF91CF910895F8
S11337F0682F8091510E9091520EEDDC80E090E0A4
S113380008958F929F92AF92CF92EF920F93812C53
S1133810912C6894AA24A7F86894CC24C7F8E12CC6
S113382000E023E040E051EE60E070E038DC90938B
S1133830520E8093510EE9E7FEE083E192E091831A
S11338408083938382830F91EF90CF90AF909F906A
S11338508F9008958091610E81110CC08CE080934B
S1133860B8008FEF8093BB0084E08093BC0081E0BC
S11338708093610E0895AF92BF92CF92DF92EF9240
S1133880FF920F931F93CF93DF93A82EB62E690157
S11338907A0184E090E0CBD3EC01892B61F1A8821A
S11338A081E0B81212C0C701B60120EA36E841E04F
S11338B050E079D3DA01C9014097A109B109B6955D
S11338C0A79597958795898311C0C701B60120E80C
S11338D03AE146E050E067D3DA01C9014097A10913
S11338E0B109B695A7959795879589831B830A8314
S11338F08C2F9D2F02C080E090E0DF91CF911F912B
S11339000F91FF90EF90DF90CF90BF90AF9008950C
S11339108091BC0081700895FF920F931F93CF9301
S1133920DF930097D1F14A30D0F5F42E8B01EC01EE
S1133930EFDF811136C08091540E9091550EC81757
S1133940D90741F087DF89818093B800D093550E61
S1133950C093540E81E08F0D8093560E8881880F9A
S11339608093570EFF2089F0F801A8E5BEE04FEFE1
S11339704F0D642F70E0CB010196B801680F791FD9
S113398081918D93E617F707D9F788EF8093210289
S113399085EA8093BC0084E005C086E003C087E02C
S11339A001C082E0DF91CF911F910F91FF900895A4
S11339B01F93CF93DF93009729F16B3028F5162FCF
S11339C0EC01A6DF811122C08091540E9091550E16
S11339D0C817D90741F03EDF89818093B800D0939E
S11339E0550EC093540E1093560E8881880F816033
S11339F08093570E88EF8093210285EA8093BC0060
S1133A0085E005C086E003C087E001C082E0DF9165
S1133A10CF911F9108951F920F920FB60F92112408
S1133A200BB60F922F933F934F935F936F937F93B4
S1133A308F939F93AF93BF93EF93FF93E091B9005C
S1133A408E2F90E0FC013897E135F10508F075C040
S1133A508827E458FF4F8F4FC8C21092530EE0914D
S1133A60530E8091560EE81770F481E08E0F809308
S1133A70530EF0E0E95AF14F80818093BB0085E852
S1133A808093BC0072C084E98093BC008091540E82
S1133A909091550EDC011296ED91FC91139730979D
S1133AA009F463C020E040E050E064E019955DC093
S1133AB0E091530E81E08E0F8093530E8091BB00F2
S1133AC0F0E0E95AF14F80838091B900803411F419
S1133AD01092530E2091530E30E08091560E90E0D8
S1133AE001972817390724F485EC8093BC003DC066
S1133AF085E88093BC0039C08091BB00E091530EEF
S1133B00F0E0E95AF14F808384E98093BC0080910E
S1133B10540E9091550EDC011296ED91FC91139781
S1133B20309719F12091560E47E55EE065E019954E
S1133B301CC085EA8093BC0018C08091B9008093B2
S1133B40210284E08093BC008091540E9091550E24
S1133B50DC011296ED91FC911397309731F020E03F
S1133B6040E050E0609121021995FF91EF91BF91DF
S1133B70AF919F918F917F916F915F914F913F9101
S1133B802F910F900BBE0F900FBE0F901F901895A2
S1133B90FC01411101C06CD3842F90E09C012150A1
S1133BA0310982239323892B09F062D3413808F029
S1133BB05FD3128213824483440F4150458371833F
S1133BC0608380E090E008955058BB27AA270ED068
S1133BD04DC13ED130F043D120F031F49F3F11F478
S1133BE01EF433C10EF4E095E7FB29C1E92F4FD150
S1133BF080F3BA17620773078407950718F071F406
S1133C009EF567C10EF4E0950B2EBA2FA02D0B0183
S1133C10B90190010C01CA01A0011124FF27591B0D
S1133C2099F0593F50F4503E68F11A16F040A22F13
S1133C30232F342F4427585FF3CF46953795279584
S1133C40A795F0405395C9F77EF41F16BA0B620B83
S1133C50730B840BBAF09150A1F0FF0FBB1F661FCA
S1133C60771F881FC2F70EC0BA0F621F731F841F0D
S1133C7048F4879577956795B795F7959E3F08F033
S1133C80B3CF9395880F08F09927EE0F97958795F2
S1133C9008950CD0EBC0E3D040F0DAD030F021F43A
S1133CA05F3F19F0CCC0511115C1CFC0F0D098F3CB
S1133CB09923C9F35523B1F3951B550BBB27AA27A9
S1133CC062177307840738F09F5F5F4F220F331F1B
S1133CD0441FAA1FA9F333D00E2E3AF0E0E830D0E7
S1133CE091505040E695001CCAF729D0FE2F27D0EA
S1133CF0660F771F881FBB1F261737074807AB07B8
S1133D00B0E809F0BB0B802DBF01FF2793585F4F2C
S1133D102AF09E3F510568F092C0DCC05F3FECF38F
S1133D20983EDCF3869577956795B795F7959F5FF1
S1133D30C9F7880F911D9695879597F90895E1E045
S1133D40660F771F881FBB1F621773078407BA07A4
S1133D5020F0621B730B840BBA0BEE1F88F7E095FF
S1133D60089504D06894B111B5C0089598D088F02E
S1133D709F5790F0B92F9927B751A0F0D1F0660F53
S1133D80771F881F991F1AF0BA95C9F712C0B1306E
S1133D9081F09FD0B1E008959CC0672F782F8827C9
S1133DA0B85F39F0B93FCCF3869577956795B395AD
S1133DB0D9F73EF490958095709561957F4F8F4F1C
S1133DC09F4F0895E89409C097FB3EF49095809521
S1133DD0709561957F4F8F4F9F4F9923A9F0F92FCD
S1133DE096E9BB279395F695879577956795B7954B
S1133DF0F111F8CFFAF4BB0F11F460FF1BC06F5F31
S1133E007F4F8F4F9F4F16C0882311F096E911C042
S1133E10772321F09EE8872F762F05C0662371F063
S1133E2096E8862F70E060E02AF09A95660F771F77
S1133E30881FDAF7880F9695879597F9089597F96B
S1133E409F6780E870E060E008959FEF80EC08953C
S1133E5000240A9416161706180609060895002465
S1133E600A9412161306140605060895092E0394DF
S1133E70000C11F4882352F0BB0F40F4BF2B11F453
S1133E8060FF04C06F5F7F4F8F4F9F4F089557FDB2
S1133E909058440F551F59F05F3F71F04795880FB4
S1133EA097FB991F61F09F3F79F08795089512164B
S1133EB013061406551FF2CF4695F1DF08C01616F7
S1133EC017061806991FF1CF8695710561050894A8
S1133ED00895E894BB2766277727CB0197F90895BF
S1133EE00BD0C4CFB5DF28F0BADF18F0952309F062
S1133EF0A6CFABCF1124EECFCADFA0F3959FD1F3A9
S1133F00950F50E0551F629FF001729FBB27F00D83
S1133F10B11D639FAA27F00DB11DAA1F649F6627D8
S1133F20B00DA11D661F829F2227B00DA11D621F27
S1133F30739FB00DA11D621F839FA00D611D221FE1
S1133F40749F3327A00D611D231F849F600D211DC5
S1133F50822F762F6A2F11249F5750408AF0E1F068
S1133F6088234AF0EE0FFF1FBB1F661F771F881FB1
S1133F7091505040A9F79E3F510570F060CFAACFF1
S1133F805F3FECF3983EDCF3869577956795B7959C
S1133F90F795E7959F5FC1F7FE2B880F911D9695C6
S1133FA0879597F90895A1E21A2EAA1BBB1BFD0160
S1133FB00DC0AA1FBB1FEE1FFF1FA217B307E40704
S1133FC0F50720F0A21BB30BE40BF50B661F771F5C
S1133FD0881F991F1A9469F760957095809590953C
S1133FE09B01AC01BD01CF010895EE0FFF1F881F97
S1133FF08BBF0790F691E02D19940F931F93CF93E5
S1134000DF93869F8001879F100D969F100D1124CA
S1134010C8010DD0EC01009721F0A80160E070E028
S113402034D1CE01DF91CF911F910F9108950F9359
S11340301F93CF93DF938230910510F482E090E0D8
S1134040E091770EF091780E20E030E0A0E0B0E04F
S1134050309719F140815181028113814817590722
S1134060C8F08417950769F4109731F012960C93F1
S1134070129713961C9327C00093770E1093780E13
S113408022C02115310519F04217530718F49A017B
S1134090BD01EF01DF01F801DBCF21153105F9F096
S11340A0281B390B2430310580F48A819B816115EA
S11340B0710521F0FB019383828304C09093780EF1
S11340C08093770EFE01329644C0FE01E20FF31F87
S11340D08193919322503109398328833AC02091E6
S11340E0750E3091760E232B41F42091020230910B
S11340F003023093760E2093750E209100023091C6
S113410001022115310541F42DB73EB74091040257
S113411050910502241B350BE091750EF091760E3B
S1134120E217F307A0F42E1B3F0B2817390778F08A
S1134130AC014E5F5F4F2417350748F04E0F5F1FE9
S11341405093760E4093750E8193919302C0E0E0F4
S1134150F0E0CF01DF91CF911F910F910895CF939C
S1134160DF93009709F481C0FC0132971382128215
S1134170A091770EB091780E109781F4208131814F
S1134180820F931F2091750E3091760E28173907F0
S113419051F5F093760EE093750E67C0ED0120E0C3
S11341A030E0CE17DF0740F44A815B819E01411560
S11341B05105F1F0EA01F5CFD383C28340815181E7
S11341C0840F951FC817D90759F488819981840FE2
S11341D0951F0296918380838A819B819383828336
S11341E02115310529F4F093780EE093770E3DC044
S11341F0E901FB83EA8349915991C40FD51FEC1758
S1134200FD0761F480819181840F951F0296E90175
S113421099838883828193819B838A83E0E0F0E0A1
S113422012968D919C911397009719F0FD01DC0172
S1134230F7CF8D919C9111979D012E5F3F4F820F77
S1134240931F2091750E3091760E2817390769F463
S1134250309729F41092780E1092770E02C01382D0
S11342601282B093760EA093750EDF91CF910895CC
S113427081E090E0F89400C3FB01DC0102C00190EE
S11342800D9241505040D8F70895DC0101C06D9360
S113429041505040E0F70895CF93DF93CDB7DEB798
S11342A0AE014A5F5F4FFA0161917191AF01809154
S11342B07B0E90917C0E33D0DF91CF9108950F93B4
S11342C01F93CF93DF93E0917B0EF0917C0E2381BB
S11342D021FF1BC08C01D0E0C0E0F80181918F0167
S11342E060917B0E70917C0EDB011896ED91FC9130
S11342F01997882331F01995892B79F3DFEFCFEFE4
S1134300ECCF8AE01995892B19F08FEF9FEF02C04B
S11343108D2F9C2FDF91CF911F910F9108952F9294
S11343203F924F925F926F927F928F929F92AF9241
S1134330BF92CF92DF92EF92FF920F931F93CF938E
S1134340DF93CDB7DEB72B970FB6F894DEBF0FBE61
S1134350CDBF6C017B018A01FC0117821682838127
S113436081FFBFC1CE0101963C01F6019381F701A3
S113437093FD859193FF81917F01882309F4ADC159
S1134380853239F493FD859193FF81917F018532C4
S113439021F4B60190E0D6D1E8CF912C212C312C18
S11343A0FFE1F315D8F08B3279F038F4803279F0EC
S11343B08332A1F4232D20611DC08D3261F080333E
S11343C069F4232D216016C0832D8260382EE32DDD
S11343D0E4603E2E2AC0F32DF8601DC037FC2DC0CA
S11343E020ED280F2A3040F08E32B9F436FC75C126
S11343F0232D2064322E19C036FE06C08AE0989E12
S1134400200D1124922E11C0EAE02E9E200D1124BD
S1134410222EF32DF0623F2E08C08C3621F4832D1A
S11344208068382E02C0883641F4F70193FD8591E7
S113443093FF81917F018111B3CF982F9F7D955474
S1134440933028F40C5F1F4F9FE399830DC083368C
S113445031F0833771F0833509F055C020C0F8017D
S1134460808189830E5F1F4F88248394912C53018C
S113447012C02801F2E04F0E511CF801A080B18057
S113448036FE03C0692D70E002C06FEF7FEFC501F7
S11344904ED14C018201F32DFF773F2E15C0280128
S11344A022E0420E511CF801A080B18036FE03C008
S11344B0692D70E002C06FEF7FEFC5012DD14C0173
S11344C0F32DF0683F2E820133FC19C0822D90E059
S11344D088169906A0F4B60180E290E033D12A94BC
S11344E0F5CFF50137FC859137FE81915F01B60167
S11344F090E028D121102A9421E0821A9108811495
S1134500910479F7E1C0843611F0893639F5F80160
S113451037FE07C060817181828193810C5F1F4FD8
S113452008C060817181072E000C880B990B0E5F07
S11345301F4FF32DFF763F2E97FF09C0909580956E
S1134540709561957F4F8F4F9F4FF0683F2E2AE003
S113455030E0A30133D1882E861844C0853731F466
S1134560232D2F7EB22E2AE030E025C0932D997F93
S1134570B92E8F36C1F018F4883579F0AEC0803783
S113458019F0883721F0A9C0E92FE061BE2EB4FEEE
S11345900DC0FB2DF460BF2E09C034FE0AC0292FC4
S11345A02660B22E06C028E030E005C020E130E0ED
S11345B002C020E132E0F801B7FE07C060817181DA
S11345C0828193810C5F1F4F06C06081718180E0FE
S11345D090E00E5F1F4FA301F1D0882E8618FB2DAB
S11345E0FF773F2E36FE0DC0232D2E7FA22E891479
S11345F058F434FE0BC032FC09C0832D8E7EA82EE5
S113460005C0B82CA32C03C0B82C01C0B92CA4FE3F
S11346100FC0FE01E80DF11D8081803321F49A2D35
S1134620997EA92E09C0A2FE06C0B394B39404C017
S11346308A2D867809F0B394A3FC10C0A0FE06C0AE
S1134640B21480F4280C922C9B180DC0B21458F4A8
S1134650B60180E290E076D0B394F8CFB21418F4A7
S11346602B1802C0982C212CA4FE0FC0B60180E3A5
S113467090E068D0A2FE16C0A1FC03C088E790E0D9
S113468002C088E590E0B6010CC08A2D867851F00E
S1134690A1FE02C08BE201C080E2A7FC8DE2B6015C
S11346A090E050D0891430F4B60180E390E04AD011
S11346B09A94F8CF8A94F301E80DF11D8081B60134
S11346C090E040D08110F6CF222009F44ECEB601FE
S11346D080E290E037D02A94F7CFF6018681978163
S11346E002C08FEF9FEF2B960FB6F894DEBF0FBE7C
S11346F0CDBFDF91CF911F910F91FF90EF90DF908D
S1134700CF90BF90AF909F908F907F906F905F906D
S11347104F903F902F900895FC0105906150704098
S11347200110D8F7809590958E0F9F1F0895FC0176
S11347306150704001900110D8F7809590958E0FCC
S11347409F1F08950F931F93CF93DF93FB01238142
S113475021FD03C08FEF9FEF2CC022FF16C04681BE
S11347605781248135814217530744F4A081B181D4
S11347709D012F5F3F4F318320838C9326813781A6
S11347802F5F3F4F3783268314C08B01EC01FB015D
S11347900084F185E02D1995892BE1F6D801169650
S11347A08D919C911797019617969C938E931697CB
S11347B0CE01DF91CF911F910F910895FA01AA279D
S11347C0283051F1203181F1E8946F936E7F6E5F50
S11347D07F4F8F4F9F4FAF4FB1E03ED0B4E03CD0FE
S11347E0670F781F891F9A1FA11D680F791F8A1FE1
S11347F0911DA11D6A0F711D811D911DA11D20D048
S113480009F468943F912AE0269F11243019305D01
S11348103193DEF6CF010895462F4770405D4193F2
S1134820B3E00FD0C9F7F6CF462F4F70405D4A333F
S113483018F0495D31FD4052419302D0A9F7EACF07
S1134840B4E0A6959795879577956795BA95C9F736
S113485000976105710508959B01AC010A2E069429
S11348605795479537952795BA95C9F7620F731FE2
S10F4870841F951FA01D0895F894FFCF2D
S113487C00007F0E20000900400040C600CE00D688
S113488C0036010000000300000000F81BE31B00CD
S113489C00F8FF0186000000000079FF0179A000F8
S11348AC000000E6FF0179000000000086FF01878C
S11348BC000000000078FF01880000000000005098
S11348CC6172616D65746572203A2025640A004139
S11348DC4C4C204441544120434F4C4C454354458B
S11348EC44004170705461736B00434F3220566125
S11348FC6C75653A2025640A00434F32204D65617E
S113490C737572652077656E742077726F6E6700AD
S113491C4D6561737572656400434F325461736BFA
S113492C0049444C4500546D722053766300546521
S113493C6D7020616E642048756D204472697665D3
S113494C7220496E697469616C697A6564206F6B55
S113495C0054454D5020414E442048554D204F5550
S113496C54204F462048454150200054454D50207A
S113497C414E442048554D2057414B45205550201D
S113498C57454E542057524F4E470054454D5020D6
S113499C414E442048554D204D4541535552494EA6
S11349AC472055502057454E542057524F4E4700E0
S11349BC54656D70657261747572653A2025640A6C
S11349CC0048756D69646974793A2025640A005449
S11349DC656D70416E6448756D5461736B005072F3
S11349EC6F6772616D20537474747474617274653E
S10749FC642121000D
S9030000FC
