S011000053656D6573746572342E7372656397
S1130000E5C0000004C1000002C1000000C10000FE
S1130010FEC00000FCC00000FAC00000F8C00000F0
S1130020F6C00000F4C00000F2C00000F0C0000000
S11300301FC60000ECC00000EAC00000E8C00000D9
S1130040E6C00000E4C00000E2C00000E0C0000020
S1130050DEC00000DCC00000DAC00000D8C0000030
S1130060D6C000000C94E4250C943626D0C00000C1
S1130070CEC00000CCC00000CAC00000C8C0000050
S1130080C6C00000C4C00000C2C00000C0C0000060
S11300900C947A260C94CC26BAC000000C94842AC2
S11300A0B6C00000B4C00000B2C00000B0C0000080
S11300B0AEC00000ACC00000AAC00000A8C0000090
S11300C0A6C00000A4C00000A2C000000C94102729
S11300D00C9462279CC000000C94A6270C94F8276B
S11300E096C00000F41BF41BF41B2B1C331C481C8F
S11300F0F41BF41B2B1C331CA62A162B162B162BB5
S1130100162B162B162B162BA62A162B162B162B54
S1130110162B162B162B162BA82A162B162B162B42
S1130120162B162B162B162B162B162B162B162BC3
S1130130162B162B162B162BA82A162B162B162B22
S1130140162B162B162B162B162B162B162B162BA3
S1130150162B162B162B162B122B162B162B162B97
S1130160162B162B162B162BDD2A162B162B162BBD
S1130170162B162B162B162B162B162B162B162B73
S1130180162B162B162B162BD12A162B162B162BA9
S1130190162B162B162B162BF52A0E94350E809142
S11301A0FB11823008F09ED40E94711CF6CFCF93CD
S11301B0DF931F92CDB7DEB7CE0101960E9471196D
S11301C049810E94661B0E94BD1BF6CF11241FBEED
S11301D0CFEFD1E2DEBFCDBF00E00CBF17E0A0E05F
S11301E0B2E0E8E6F4E600E00BBF02C007900D922F
S11301F0A63DB107D9F724E1A6EDB7E001C01D92F1
S1130200AA36B207E1F70E94CB1E0C943232F8CE24
S11302100F931F93CF93DF9300D000D0CDB7DEB7F9
S113022000E010E013C0B801660F771F81E090E092
S11302308C0F9D1F680F791F2FEF3FEFA90180914D
S113024056149091571433D70F5F1F4F0330110585
S113025054F389819A810E94C91D8B819C810E94DB
S1130260CE1D8D819E810E94C41D60E08091561434
S113027090915714D7D526960FB6F894DEBF0FBECB
S1130280CDBFDF91CF911F910F910895CC24CA94D3
S1130290DC2C760101E021E043E050E060E070E016
S11302A080915C1490915D14C8D0DC01CB01837003
S11302B09927AA27BB270397A105B10509F4A8DF4D
S11302C063E070E080E090E00E940112DFCFEF92E3
S11302D0FF920F93E12CF12C01E020E030E040ECA0
S11302E050E06FE672E086E491E00E94FC0E0F910C
S11302F0FF90EF9008950F93CF93DF931F921F9277
S1130300CDB7DEB79A83898300E02FEF3FEFA901D1
S1130310BE016F5F7F4F8091561490915714FAD5A8
S113032041E050E060E070E080915C1490915D14D5
S113033024D120E030E0A90160E070E080915814FD
S113034090915914E7D50F900F90DF91CF910F91B1
S1130350089583E00C944A2408950E9474248093A1
S11303604D14882321F087E792E00C94272F0895F9
S1130370CC24CA94DC2C760101E020E042E050E079
S113038060E070E080915C1490915D1456D061FD42
S1130390E4DF6EE170E080E090E00E940112E8CFBB
S11303A0EF92FF920F93D5DF8BE791E00E946F24C9
S11303B0E12CF12C01E020E030E040EC50E06EE86C
S11303C072E088EB91E00E94FC0E0F91FF90EF9099
S11303D008950F9301110CC0DC01CB0182239323F8
S11303E0A423B523892B8A2B8B2B79F480E010C0AE
S11303F0DC01CB0182239323A423B52328173907D7
S11304004A075B0721F080E003C081E001C081E07E
S11304100F910895CF93DF938FE090E0AFD1EC017B
S1130420009739F0FC011192119211921192CF01AF
S11304308BD2CE01DF91CF9108952F923F924F92AC
S11304405F926F927F928F929F92AF92BF92CF9260
S1130450DF92EF92FF920F931F93CF93DF93EC0100
S11304604A015B01622E702E0E94800F2880398021
S11304704A805B80A5019401C201B101AADF8823EF
S1130480A1F0662089F1D501C40180959095A095CD
S1130490B09582219321A421B52188839983AA83CD
S11304A0BB83C12CD12C760122C0C114D104E10438
S11304B0F104E9F0611004C040E050E0BA0104C066
S11304C040E050E060E071E07110746048295929FF
S11304D06A297B2997018601CE0104960E9498120D
S11304E0212C312C210103C0C12CD12C76010E9476
S11304F0C010CD28CE28CF2859F1811101C0F2D2E5
S11305000E945A166B017C0191FD1FC00FB6F8942E
S11305100F92C880D980EA80FB80072DA501940141
S1130520C701B60156DF882371F0662061F080941C
S11305309094A094B0948C209D20AE20BF208882FB
S11305409982AA82BB820F900FBE160127015524FF
S1130550C201B101DF91CF911F910F91FF90EF90F4
S1130560DF90CF90BF90AF909F908F907F906F90CF
S11305705F904F903F902F9008954F925F926F92AB
S11305807F92AF92BF92CF92DF92EF92FF920F933E
S11305901F93CF93DF93EC016A017B018C01095F08
S11305A01F4F0E94800FEB85FC8588819981AA8169
S11305B0BB81C82AD92AEA2AFB2AC882D982EA82BC
S11305C0FB82C12CD12C76013DC0A480B5808081F2
S11305D09181A281B381AC01BD017727B2FD0EC028
S11305E0488059806A807B80442255226622772283
S11305F045284628472889F420E012C048805980BD
S11306006A807B8044225522662277224415550550
S11306106605770521F020E003C021E001C021E058
S1130620222371F0B0FF04C0C42AD52AE62AF72A8F
S1130630488159816A817B817260CF010E94D31302
S1130640EA2DFB2DE017F10709F0BFCFC094D09439
S1130650E094F09488819981AA81BB81C822D9222F
S1130660EA22FB22C882D982EA82FB820E94C0105D
S1130670688179818A819B81DF91CF911F910F914C
S1130680FF90EF90DF90CF90BF90AF907F906F90EE
S11306905F904F900895E2EEF7E0A6EEB7E0B183E5
S11306A0A08313821282E6EAF1E1F093E107E0937A
S11306B0E007138212821182108280EC99E0139673
S11306C09C938E931297ED93FC939093DD07809304
S11306D0DC079093DF078093DE0780E090E8909337
S11306E0D7078093D6070895CF93DF93EC01A2EE4A
S11306F0B7E001C0DF01ED91FC911197EC17FD0704
S1130700C8F312968D919C9113979D01280F391F60
S1130710C217D30749F42A813B81820F931F139692
S11307209C938E931297ED018A819B819E01280FE1
S1130730391FE217F307C1F42091E0073091E10774
S1130740E217F30771F022813381820F931F9B8399
S11307508A83ED91FC91119780819181998388839B
S113076005C03983288302C0F983E883CA17DB07ED
S113077011F0CD93DC93DF91CF910895EF92FF9226
S11307800F931F93CF93DF938C010E94800F80916E
S1130790E0079091E107892B09F47DDF8091D6076A
S11307A09091D70780239123892B09F076C00115F6
S11307B0110549F0C80104960817190718F000E05C
S11307C010E001C08C010115110509F469C0809184
S11307D0DE079091DF078017910708F464C0C09189
S11307E0E207D091E307E2EEF7E002C0FE01EC017C
S11307F08A819B818017910720F4888199810097D1
S1130800A9F78091E0079091E107C817D90709F487
S11308104DC0E080F18084E0E80EF11C888199816C
S1130820918380832A813B81201B310B2930310540
S113083048F0CE01800F911FFC01338322831B8378
S11308400A8352DF2A813B818091DE079091DF0782
S1130850821B930B9093DF078093DE074091DC07A4
S11308605091DD078417950720F49093DD0780935A
S1130870DC078091D6079091D707282B392B3B832F
S11308802A83198218828091DA079091DB070196F6
S11308909093DB078093DA070BC0E12CF12C08C09E
S11308A0E12CF12C05C0E12CF12C02C0E12CF12C3F
S11308B00E94C010E114F10411F40E947D1CC701D0
S11308C0DF91CF911F910F91FF90EF9008950F93B7
S11308D01F93CF93DF93009791F1EC0124974A8102
S11308E05B812091D6073091D707BA016223732325
S11308F0672B29F168817981672B09F5209530955B
S1130900242335233B832A830E94800F8A819B8181
S11309102091DE073091DF07820F931F9093DF074A
S11309208093DE07CE01E0DE8091D8079091D9074D
S113093001969093D9078093D8070E94C010DF9145
S1130940CF911F910F910895FC01039692838183A7
S11309504FEF5FEFBA0143835483658376839087B7
S113096087839287818710820895FC0113861286FB
S113097008950F931F93CF93DF93EB01088119819F
S11309802A813B810F3F4FEF14072407340721F4DA
S1130990FC01A185B28511C0DC01139601C0DF0101
S11309A01496ED91FC911597408151816281738178
S11309B0041715072607370790F71496ED91FC9155
S11309C01597FD83EC83D783C683BF83AE831596C7
S11309D0DC93CE9314979B878A87FC0120812F5F39
S11309E02083DF91CF911F910F910895CF93DF93CF
S11309F0FC01A285B385C481D581868197819F83BB
S1130A008E83C681D781848195819D838C83119641
S1130A108D919C911297E817F90731F4868197819B
S1130A2012969C938E931197138612868C91815003
S1130A308C938C91DF91CF910895A89590EC88E1E7
S1130A400FB6F894A895809360000FBE9093600051
S1130A500895FC0160833197708331971082319738
S1130A601082319720E820833197108231971082C9
S1130A7031971082779740833197508386970895F2
S1130A80DCDFA0916912B0916A12CD91CDBFDD91E6
S1130A90DEBFFF91EF91DF91CF91BF91AF919F9115
S1130AA08F917F916F915F914F913F912F911F9102
S1130AB00F91FF90EF90DF90CF90BF90AF909F90F9
S1130AC08F907F906F905F904F903F902F901F90EA
S1130AD00F900CBE0F900BBE0F900FBE0F90089599
S1130AE081E008950F920FB6F8940F920BB60F920F
S1130AF00CB60F921F9211242F923F924F925F9245
S1130B006F927F928F929F92AF92BF92CF92DF9219
S1130B10EF92FF920F931F932F933F934F935F9303
S1130B206F937F938F939F93AF93BF93CF93DF93F1
S1130B30EF93FF93A0916912B0916A120DB60D92D2
S1130B400EB60D920E941C12A0916912B0916A1205
S1130B50CD91CDBFDD91DEBFFF91EF91DF91CF91BC
S1130B60BF91AF919F918F917F916F915F914F91C1
S1130B703F912F911F910F91FF90EF90DF90CF90B5
S1130B80BF90AF909F908F907F906F905F904F90A9
S1130B903F902F901F900F900CBE0F900BBE0F90A4
S1130BA00FBE0F9008950F920FB6F8940F920BB6E4
S1130BB00F920CB60F921F9211242F923F924F92D4
S1130BC05F926F927F928F929F92AF92BF92CF92D9
S1130BD0DF92EF92FF920F931F932F933F934F93C4
S1130BE05F936F937F938F939F93AF93BF93CF93B1
S1130BF0DF93EF93FF93A0916912B0916A120DB63F
S1130C000D920EB60D9213BE0E94940F81110E9494
S1130C101C12A0916912B0916A12CD91CDBFDD91E1
S1130C20DEBFFF91EF91DF91CF91BF91AF919F9183
S1130C308F917F916F915F914F913F912F911F9170
S1130C400F91FF90EF90DF90CF90BF90AF909F9067
S1130C508F907F906F905F904F903F902F901F9058
S1130C600F900CBE0F900BBE0F900FBE0F90089507
S1130C709ADF1895DC0153962C915397222341F067
S1130C805A96ED91FC915B9790818AE0891B0895B7
S1130C9080E008950FB6F8940F92FC01868D8111BF
S1130CA002C081E001C080E00F900FBE08950FB62E
S1130CB0F8940F92FC01268D878D281302C081E0E1
S1130CC001C080E00F900FBE08950F931F93CF9340
S1130CD0DF93EC01042F1E8D48A141110CC08881C3
S1130CE09981892B09F042C08C819D810E949815BD
S1130CF01D821C8242C0011117C050E08A819B8171
S1130D000E94B52E28A18A819B81820F911D9B830D
S1130D108A832C813D818217930750F188819981C0
S1130D209B838A8380E029C050E08E819F810E944A
S1130D30B52E88A190E09195819591092E813F81EE
S1130D40280F391F3F832E83488159812417350783
S1130D5030F42C813D81820F931F9F838E83023058
S1130D6049F4112349F0115080E007C080E005C028
S1130D7080E003C080E001C080E01F5F1E8FDF9130
S1130D80CF911F910F910895FC0140A14423A9F034
S1130D9050E026813781240F351F378326838481D1
S1130DA095812817390720F0808191819783868364
S1130DB0CB01668177810C94B52E08951F93CF9350
S1130DC0DF93EC010FB6F8940F921AA10BC08B8934
S1130DD0882351F0CE0143960E94241381110E946E
S1130DE0FA14115011169CF38FEF8AA30F900FBEC3
S1130DF00FB6F8940F9219A10BC08885882351F07F
S1130E00CE0108960E94241381110E94FA141150F5
S1130E1011169CF38FEF89A30F900FBEDF91CF9132
S1130E201F910895CF93DF93EC010FB6F8940F92BE
S1130E30E881F9818F8D28A190E030E0829FA001A4
S1130E40839F500D929F500D11244E0F5F1F5D83A1
S1130E504C831E8EFB83EA830197289FA001299F60
S1130E60500D389F500D1124CF01840F951F9F837F
S1130E708E838FEF89A38AA361110BC08885882391
S1130E8071F0CE0108960E942413882341F02ADED3
S1130E9006C0CE01089658DDCE01439655DD0F906D
S1130EA00FBE81E0DF91CF9108950F931F93F80156
S1130EB0611103C01183008302C051834083878F73
S1130EC060A361E0CF01AEDF1F910F910895DF921F
S1130ED0EF92FF920F931F93CF93DF93F82EE62E9A
S1130EE0D42E869FC0011124839648DCEC01009720
S1130EF041F08C012D2DAC014D5D5F4F6E2D8F2D7A
S1130F00D4DFCE01DF91CF911F910F91FF90EF902D
S1130F10DF900895CF92DF92EF92FF920F931F9389
S1130F20CF93DF93CDB7DEB729970FB6F894DEBF22
S1130F300FBECDBF7C016B012E833F834887598749
S1130F4010E00FB6F8940F92F701968D878D9817DD
S1130F5010F00230B1F4402FB601C701B6DEF7013C
S1130F609389992341F0C70143960E94241388234F
S1130F7021F0B8DD02C08111B5DD0F900FBE81E014
S1130F804CC08E819F81A885B985892B8A2B8B2B98
S1130F9021F40F900FBE80E040C0111105C0CE01B6
S1130FA001960E94831411E00F900FBEA9D70FB6CB
S1130FB0F8940F92F70181A18F3F09F411A2F70170
S1130FC082A18F3F09F412A20F900FBEBE016A5F87
S1130FD07F4FCE0101960E949414811119C0C7015C
S1130FE066DE882381F04E815F8168857985C7013B
S1130FF008960E948112C701E1DE0E94C01081118F
S1131000A0CF70DD9ECFC701D9DE0E94C01099CF5A
S1131010C701D4DE0E94C01080E029960FB6F89470
S1131020DEBF0FBECDBFDF91CF911F910F91FF9017
S1131030EF90DF90CF900895EF92FF920F931F935C
S1131040CF93DF938A01FC01568D378D531710F02F
S11310502230F9F4422F7801EC011AA18E8DCE01D1
S113106034DE1F3F81F48B898823A9F0CE01439697
S11310700E942413882389F0E114F10481F081E0B3
S1131080F70180830DC0FF24F394F10EFAA281E0EE
S113109007C080E005C081E003C081E001C081E0B9
S11310A0DF91CF911F910F91FF90EF900895CF9210
S11310B0DF92EF92FF920F931F93CF93DF93CDB7FD
S11310C0DEB729970FB6F894DEBF0FBECDBF8C01F3
S11310D06B012E833F8348875987E12C0FB6F89420
S11310E00F92F801F68CFF2099F0B601C8014CDE8E
S11310F0FA94F801F68E8085882331F0C8010896A9
S11311000E9424138111EEDC0F900FBE81E04FC0CA
S11311108E819F81A885B985892B8A2B8B2B21F4FD
S11311200F900FBE80E043C0E11006C0CE010196CF
S11311300E948314EE24E3940F900FBEE1D60FB601
S1131140F8940F92F80181A18F3F09F411A2F801DC
S113115082A18F3F09F412A20F900FBEBE016A5FF5
S11311607F4FCE0101960E949414811117C0C801CB
S113117091DD882379F04E815F8168857985C80186
S113118043960E948112C80119DEFAD78111A6CFB5
S1131190A9DCA4CFC80112DEF3D7A0CFC8010EDEAC
S11311A0EFD7C80177DD882309F498CF80E029962A
S11311B00FB6F894DEBF0FBECDBFDF91CF911F9164
S11311C00F91FF90EF90DF90CF900895EF92FF92F0
S11311D00F931F93CF93DF93CDB7DEB729970FB645
S11311E0F894DEBF0FBECDBF8C014E835F8368874A
S11311F07987E12CF12C0FB6F8940F92F801868DC3
S11312008823C9F08150868F80819181892B29F4AC
S11312100E948416F80195838483F80180858823CD
S113122031F0C80108960E94241381115BDC0F90F1
S11312300FBE81E06FC08E819F81A885B985892BFF
S11312408A2B8B2B21F40F900FBE80E063C0F1102A
S113125006C0CE0101960E948314FF24F3940F90DC
S11312600FBE4ED60FB6F8940F92F80181A18F3FAE
S113127009F411A2F80182A18F3F09F412A20F9080
S11312800FBEBE016A5F7F4FCE0101960E94941487
S1131290811126C0C801FEDC8823F1F0F8018081A9
S11312A09181892B51F40FB6F8940F928481958122
S11312B00E941115E82E0F900FBE4E815F81688544
S11312C07985C80143960E948112C80177DD58D7F9
S11312D0811191CF07DC8FCFC80170DD51D78BCF3F
S11312E0C8016CDD4DD7C801D5DC882309F483CF50
S11312F0EE2079F00FB6F8940F92C801BBDC682F8A
S1131300F801848195810E94F3150F900FBE80E04F
S113131001C080E029960FB6F894DEBF0FBECDBFA2
S1131320DF91CF911F910F91FF90EF900895CF938C
S1131330DF93EC010FB6F8940F9289A18F3F09F463
S113134019A28AA18F3F09F41AA20F900FBE8E8DA5
S1131350811104C0CE0143960E94E212CE012EDD1B
S1131360DF91CF910895FC0144815581228133811D
S1131370240F351F80819181B901681B790BCB0142
S11313806417750710F0841B950B08950F93FC01E7
S11313908FE0DF011D928A95E9F77587648755838D
S11313A044833783268306870F910895AF92BF92B3
S11313B0CF92DF92EF92FF920F931F93CF93DF931D
S11313C06C015B017A01FC01C281D3810481158126
S11313D00C1B1D0B4017510708F48A01F601848584
S11313E09585A801B5018C0F9D1F0E94B52E0E1581
S11313F01F0558F4A701401B510BB501600F711F65
S1131400F601848595850E94B52ECE018E0D9F1D13
S1131410F601248135818217930710F0821B930B08
S1131420F60193838283C701DF91CF911F910F91BE
S1131430FF90EF90DF90CF90BF90AF900895CF9240
S1131440DF92EF92FF920F931F93CF93DF931F923C
S11314501F92CDB7DEB77C016B015A8349832115F6
S11314603105C1F0FC01868580FD08C04217530791
S113147008F49A013A83298381E00FC020173107C9
S113148058F042E050E0BE016F5F7F4FC7018EDF2E
S113149081E003C080E001C080E0882331F049810D
S11314A05A81B601C70182DF02C080E090E00F904C
S11314B00F90DF91CF911F910F91FF90EF90DF90EC
S11314C0CF900895AF92BF92CF92DF92EF92FF92A6
S11314D00F931F93CF93DF937C015B01E9014217C4
S11314E0530708F4EA01209781F1F7010081118183
S11314F084819581801B910B6E018C179D0708F4E4
S11315006C01F70164857585600F711FA601C50123
S11315100E94B52ECC16DD0658F4AE014C195D09B7
S1131520F70164857585C5018C0D9D1D0E94B52E3E
S11315300C0F1D1FF701848195810817190710F0FE
S1131540081B190BF70111830083CE01DF91CF91A2
S11315501F910F91FF90EF90DF90CF90BF90AF90CD
S113156008956F927F928F929F92AF92BF92CF9283
S1131570DF92EF92FF920F931F93CF93DF931F920B
S11315801F92CDB7DEB76C014B015A0179010115E9
S11315901105B1F0FC0160807180A801BE016F5F8C
S11315A07F4F90DF89819A81E01AF10AA816B90663
S11315B030F4F60171826082A12CB12C01C05C016F
S11315C09701A501B401C6017DDF0F900F90DF9153
S11315D0CF911F910F91FF90EF90DF90CF90BF902C
S11315E0AF909F908F907F906F900895CF92DF92ED
S11315F0EF92FF920F93CF93DF93EC016B01413095
S113160011F401E001C000E0C114D10419F4CC24A8
S1131610C394D12CCE014096C817D90720F4219643
S1131620ADD87C0102C0E12CF12CE114F10439F0B5
S11316309601AE01B701615F7F4FC701A7DEC70105
S1131640DF91CF910F91FF90EF90DF90CF900895AD
S11316500F930FB6F8940F92FC0120853185232B4C
S113166071F422853385232B61F4268137814481EB
S1131670558164857585068589DE81E003C080E037
S113168001C080E00F900FBE0F910895FC012481EA
S1131690358180819181820F931F42815381841B04
S11316A0950B01978217930710F0821B930B0895F3
S11316B02F923F924F925F926F927F928F929F925E
S11316C0AF92BF92CF92DF92EF92FF920F931F934C
S11316D0CF93DF93CDB7DEB72B970FB6F894DEBF69
S11316E00FBECDBF4C017B876A871A010E831F830F
S11316F028873987FC01848195810197268520FFFD
S11317000CC02A01F2E04F0E511C8415950558F4C3
S11317101E821F821886198606C08417950710F04A
S11317202A0101C02C018E819F81A885B985892B4E
S11317308A2B8B2B09F438C0CE0101960E946D14BC
S11317400FB6F8940F92C401A1DF3C0184159505EE
S113175040F560E080E090E00E9457190E94FE147A
S1131760F401938782870F900FBEAE80BF80C88438
S1131770D984E12CF12C00E010E0980140E050E025
S1131780BA0180E00E949616F40113861286BE0107
S11317906A5F7F4FCE0101960E949414882381F2E0
S11317A005C00F900FBE02C0612C712C611471042E
S11317B019F4C4016BDF3C0182019301A1016A8524
S11317C07B85C4013CDE6C01892BE9F0C401CBDDCF
S11317D0F4012681378182179307A8F091D3F4018D
S11317E080859185892B71F080859185E12CF12C80
S11317F000E020E030E0A90160E00E943E17F4011F
S113180011861086BDD4C6012B960FB6F894DEBFA0
S11318100FBECDBFDF91CF911F910F91FF90EF903D
S1131820DF90CF90BF90AF909F908F907F906F90FC
S11318305F904F903F902F900895AF92BF92CF92B8
S1131840DF92EF92FF920F931F93CF93DF93EC01FC
S11318507B015A0169018E8580FF04C08A010E5FF5
S11318601F4F01C08A01CE0111DF9C01A501B70100
S1131870CE01E5DD5C01892BC1F0CE0174DD2E8142
S11318803F818217930788F088859985892B69F0B1
S113189088859985E12CF12C00E020E030E0A90155
S11318A060E00E94351819861886C501DF91CF9132
S11318B01F910F91FF90EF90DF90CF90BF90AF906A
S11318C008954F925F926F927F928F929F92AF9200
S11318D0BF92CF92DF92EF92FF920F931F93CF9319
S11318E0DF93EC012B013A01580169018E8580FFD9
S11318F005C06894882481F8912C02C0812C912C15
S1131900A114B104C104D10441F10FB6F8940F92AB
S1131910CE0129DD7C018816990648F060E080E05C
S113192090E00E9457190E94FE14998788870F90AF
S11319300FBE8E149F04A0F0E12CF12C00E010E007
S1131940980140E050E0BA0180E00E9496161986A2
S11319501886CE0108DD7C0103C0CE0104DD7C01C4
S11319608E149F04E8F484019701A301B201CE010F
S1131970F8DD6C01892BB1F0C3D28A859B85892B54
S113198069F08A859B85E12CF12C00E020E030E0B1
S1131990A90160E00E943E171B861A86F1D302C09B
S11319A0C12CD12CC601DF91CF911F910F91FF90D3
S11319B0EF90DF90CF90BF90AF909F908F907F90EB
S11319C06F905F904F900895E091E311F091E411CE
S11319D0808181110CC08FEF9FEFDC018093AD11EA
S11319E09093AE11A093AF11B093B0110895E0910C
S11319F0E311F091E4110780F085E02D808191815D
S1131A00A281B3818093AD119093AE11A093AF11D5
S1131A10B093B0110895CF93DF93EC018B8D9C8D1F
S1131A200E946704CE010E946704DF91CF9108955C
S1131A304F925F926F927F928F929F92AF92BF92DA
S1131A40CF92DF92EF92FF920F93CF93DF932C010B
S1131A505B014A013901E60165EA70E08B8D9C8DDA
S1131A600E94BE2E8B8D9C8D21E0821A9108880ED7
S1131A70991EA114B10489F415C0822F90E0F501D8
S1131A80E80FF91F3081DE01A80FB91F5D963C9362
S1131A908081882329F02F5F01C020E0203168F382
S1131AA01CA601C01D8E0A3008F009E00A8F0DA79C
S1131AB01EA6CE0102960E94B504CE010E960E9487
S1131AC0B504DB87CA878AE090E0A0E0B0E0801B21
S1131AD09109A109B1098E879F87A88BB98BDF8BE8
S1131AE0CE8B84E0FE01BF96DF011D928A95E9F753
S1131AF01BAAA301B201C4010E942905998388830A
S1131B00E114F10419F0F701D183C083DF91CF917F
S1131B100F91FF90EF90DF90CF90BF90AF909F9088
S1131B208F907F906F905F904F900895CF93C0E017
S1131B3009C02BE0C29FC001112485509E4E0E9413
S1131B40A404CF5FCA30A8F380EF91E10E94A404FB
S1131B5085EE91E10E94A40486ED91E10E94A40423
S1131B608BEC91E10E94A4048FEB91E10E94A40408
S1131B7080EF91E19093E4118093E31185EE91E17C
S1131B809093E2118093E111CF910895CF93DF9365
S1131B90EC010FB6F8940F928091BE118F5F809381
S1131BA0BE118091691290916A12892B51F4D093DD
S1131BB06A12C09369128091BE11813091F4B6DF2C
S1131BC010C08091B81181110CC0E0916912F0919C
S1131BD06A12928D8A8D891720F0D0936A12C0936D
S1131BE069128091B1118F5F8093B111EA8D809158
S1131BF0B9118E1710F4E093B9118BE08E9FF001A8
S1131C001124E550FE4E0180F281E02DFF83EE8326
S1131C102681378139872887A681B7819E012E5F67
S1131C203F4F15963C932E93149737832683EA8D62
S1131C308E9FF0011124E550FE4EFD87EC878081D4
S1131C408F5F80830F900FBE8091B811882351F06D
S1131C50E0916912F0916A12928D8A8D981710F4AE
S1131C600E947205DF91CF910895CF93DF931BC03B
S1131C700FB6F8940F92E091D211F091D311C08570
S1131C80D185CE0102960E94F6048091BE11815046
S1131C908093BE118091CA1181508093CA110F9014
S1131CA00FBECE01B8DE8091CA118111E1CFDF9160
S1131CB0CF9108958F929F92AF92BF92CF92DF926D
S1131CC0EF92FF92CF93DF936B017C01C42F80903E
S1131CD0BA119090BB11A090BC11B090BD1180912D
S1131CE0691290916A1202960E94F6048FEFC81648
S1131CF0D806E806F806B1F5CC23A1F1EFEBF1E143
S1131D00A181B281C0916912D0916A12BF83AE835E
S1131D10C0916912D0916A1216968D919C91179771
S1131D20998788871696CD91DC91179780916912CF
S1131D3090916A1202969D838C838091691290918E
S1131D406A12029617969C938E931697A091691225
S1131D50B0916A121D96FC93EE931C9780818F5F5D
S1131D6080833FC0C80CD91CEA1CFB1CE09169129B
S1131D70F0916A12C282D382E482F582C814D90433
S1131D80EA04FB0468F46091691270916A1280910C
S1131D90E1119091E2116E5F7F4F0E94B90421C05E
S1131DA06091691270916A128091E3119091E4112B
S1131DB06E5F7F4F0E94B9048091AD119091AE1176
S1131DC0A091AF11B091B011C816D906EA06FB066E
S1131DD040F4C092AD11D092AE11E092AF11F092E6
S1131DE0B011DF91CF91FF90EF90DF90CF90BF9033
S1131DF0AF909F908F9008952F923F924F925F9251
S1131E006F927F928F929F92AF92BF92CF92DF9206
S1131E10EF92FF920F93CF93DF933C011B014A0192
S1131E202901CA010E94BE036C01892B71F084E36D
S1131E3090E00E94BE03EC01892B19F0DC8ECB8E5E
S1131E4006C0C6010E94670402C0C0E0D0E020972B
S1131E5061F0A12CB12C6E019201A401B101C30166
S1131E60E7DDCE0193DE81E001C08FEFDF91CF91FA
S1131E700F91FF90EF90DF90CF90BF90AF909F9025
S1131E808F907F906F905F904F903F902F90089528
S1131E90EF92FF920F930F2EFBEAEF2EF1E1FF2E4C
S1131EA0F02D00E020E030E040EC50E066E972E024
S1131EB08DEC90E0A1DF813011F40E94FB19813098
S1131EC0C9F4F8948FEF9FEFDC018093AD119093E8
S1131ED0AE11A093AF11B093B01181E08093B8110B
S1131EE01092BA111092BB111092BC111092BD1134
S1131EF00E944005809106020F91FF90EF90089593
S1131F008091AA118F5F8093AA1108950FB6F89457
S1131F100F926091BA117091BB118091BC11909194
S1131F20BD110F900FBE0895CF92DF92EF92FF92F2
S1131F30CF93DF938091AA11811105C1C090BA118A
S1131F40D090BB11E090BC11F090BD118FEFC81A76
S1131F50D80AE80AF80AC092BA11D092BB11E092EA
S1131F60BC11F092BD11C114D104E104F104B1F427
S1131F708091E3119091E4112091E1113091E211EB
S1131F803093E4112093E3119093E2118093E111D3
S1131F908091B2118F5F8093B21116DD8091AD11E3
S1131FA09091AE11A091AF11B091B011C816D9069D
S1131FB0EA06FB0620F480E0B2C081E001C080E0C4
S1131FC0E091E311F091E411908191110CC04FEF75
S1131FD05FEFBA014093AD115093AE116093AF110E
S1131FE07093B0119CC0E091E311F091E41107806B
S1131FF0F085E02D0084F185E02D428153816481D8
S11320007581C416D506E606F70648F44093AD116B
S11320105093AE116093AF117093B01180C0A4853A
S1132020B585C681D781208531853F832E83C085C0
S1132030D185268137813D832C8311964D915C9106
S113204012979F012E5F3F4F4217530731F440858B
S1132050518512965C934E931197158614869C9124
S113206091509C93A08DB18D109709F1C289D389A9
S1132070448955895F834E83C489D58942895389AC
S11320805D834C8311966D917C911297AF01425FF1
S11320905F4F6417750731F44489558912965C9330
S11320A04E931197118E108E9C9191509C93A28DFA
S11320B09091B9119A1710F4A093B9119BE09A9FCB
S11320C0D0011124A550BE4E11960D90BC91A02DA7
S11320D0B783A68316964D915C91179751874087D5
S11320E01696CD91DC9117973D832C8317963C93DC
S11320F02E931697A28D9A9FD0011124A550BE4EFF
S1132100B587A4879C919F5F9C93228DE09169126F
S1132110F0916A12928D291708F04FCF51CFE091B8
S11321206912F0916A12E28D9BE0E99FF00111249B
S1132130E550FE4E9081923008F081E09091B31109
S1132140911116C016C08091B4119091B511A0914F
S1132150B611B091B7110196A11DB11D8093B411B0
S11321609093B511A093B611B093B71180E001C05C
S113217081E0DF91CF91FF90EF90DF90CF900895B1
S1132180CF92DF92EF92FF92CF93DF930FB6F89442
S11321900F928091AA1181508093AA118091AA1163
S11321A08111BEC08091BE11811188C0BCC0E09174
S11321B0DD11F091DE110084F185E02DA08DB18D4B
S11321C0C289D389848995899F838E83C489D5895B
S11321D0828993899D838C8311962D913C911297CA
S11321E0CF010E962817390731F484899589129600
S11321F09C938E931197118E108E8C9181508C9399
S1132200A485B585C681D781808591859F838E837A
S1132210C085D185868197819D838C8311968D910C
S11322209C9112979F012E5F3F4F8217930731F4C1
S11322308085918512969C938E93119715861486AA
S11322408C9181508C93A28D8091B9118A1710F4CE
S1132250A093B9118BE08A9FD0011124A550BE4EE2
S113226011960D90BC91A02DB783A68316964D911F
S11322705C911797518740871696CD91DC911797FB
S11322803D832C8317963C932E931697A28D8A9F99
S1132290D0011124A550BE4EB587A4878C918F5FC1
S11322A08C93928DA0916912B0916A125A968C9176
S11322B0981730F081E08093B31102C0E0E0F0E0C1
S11322C08091D611811173CFEF2B09F07DDBC09083
S11322D0B411D090B511E090B611F090B711C114BB
S11322E0D104E104F104A1F01FDE882319F081E098
S11322F08093B31181E0C81AD108E108F108A1F76D
S11323001092B4111092B5111092B6111092B71127
S11323108091B311882331F00E94720581E003C0DB
S113232080E001C080E00F900FBEDF91CF91FF905D
S1132330EF90DF90CF9008958F929F92AF92BF92CB
S1132340CF92DF92EF92FF921F93CF93DF93EC0132
S11323506A017B01D5DD8090BA119090BB11A090E9
S1132360BC11B090BD1188819981AA81BB81AC0157
S1132370BD014C0D5D1D6E1D7F1D88169906AA06B4
S1132380BB0660F4481759076A077B0798F484165C
S11323909506A606B70680F010E013C04817590743
S11323A06A077B0758F084169506A606B70640F020
S11323B010E007C010E005C011E003C011E001C047
S11323C011E0488359836A837B83112341F0CB0155
S11323D0BA01681979098A099B0940E06BDCD0DEEF
S11323E0811102C00E947205812FDF91CF911F914C
S11323F0FF90EF90DF90CF90BF90AF909F908F9021
S11324000895CF92DF92EF92FF926B017C01672BCC
S1132410682B692B39F074DD40E0C701B6014ADC52
S1132420AFDE01C080E0811102C00E947205FF90FE
S1132430EF90DF90CF9008958091AA11882321F026
S113244081E08093B31108951092B311E091691261
S1132450F0916A1220813181E0916912F0916A123F
S1132460838D948D8217930760F060916912709147
S11324706A12635E7F4F8091691290916A120E9482
S1132480891C8091B91101C08150282F30E09BE054
S1132490929FF001939FF00D1124E550FE4E908120
S11324A0992391F39BE0929FA001939F500D1124D7
S11324B0DF010180F281E02D0480F581E02D129688
S11324C0FC93EE93119742505E4EE417F50729F4FE
S11324D044815581FD01528341839BE0929FF00129
S11324E0939FF00D1124E550FE4E0180F281E02D02
S11324F02085318530936A12209369128093B91133
S11325000895CF92DF92EF92FF926A017B0160916E
S1132510691270916A12625F7F4F0E94B90441E0B0
S1132520C701B601C7DBFF90EF90DF90CF9008950D
S11325300F931F93CF93DF93FC01A0916912B09185
S11325406A1270681E964D935D936D937C935197B8
S1132550A181B281C0916912D0916A12BB8BAA8BFE
S1132560C0916912D0916A1216968D919C91179719
S11325709D8B8C8B1696CD91DC9117978091691267
S113258090916A120E969D838C838091691290912A
S11325906A120E9617969C938E931697A0916912C1
S11325A0B0916A125996FC93EE93589780818F5F8D
S11325B0808341E0C901B8017DDBDF91CF911F9198
S11325C00F910895CF93DF93FC01CB01BA01A18150
S11325D0B281C0916912D0916A12BB8BAA8BC0914F
S11325E06912D0916A1216964D915C9117975D8B82
S11325F04C8B1696CD91DC911797409169125091AE
S11326006A12425F5F4F5D834C834091691250911F
S11326106A12425F5F4F17965C934E931697A09190
S11326206912B0916A125996FC93EE9358973081CF
S11326303F5F3083222319F06FEF7FEFCB01422FEE
S113264039DBDF91CF910895CF93DF93DC011796A7
S1132650ED91FC9118970084F185E02DA08DB18D4A
S1132660C289D389848995899F838E83C489D589B6
S1132670828993899D838C8311968D919C91129765
S11326809F01225F3F4F8217930731F48489958914
S113269012969C938E931197118E108E8C9181506B
S11326A08C938091AA11811152C0A485B585C681ED
S11326B0D781808591859F838E83C085D1858681CE
S11326C097819D838C8311968D919C9112979F0184
S11326D02E5F3F4F8217930731F4808591851296C0
S11326E09C938E931197158614868C9181508C93AC
S11326F0A28D8091B9118A1710F4A093B9118BE0BF
S11327008A9FD0011124A550BE4E11960D90BC9104
S1132710A02DB783A68316964D915C911797518788
S113272040871696CD91DC9117973D832C8317969D
S11327303C932E931697A28D8A9FD0011124A55005
S1132740BE4EB587A4878C918F5F8C931CC046EDD9
S113275051E1DA011196CD91DC911297D38BC28BA2
S11327608E819F81958B848B8E819F81DC01159650
S11327703C932E9314973F832E83518F408FDA011D
S11327808C918F5F8C93928DE0916912F0916A1213
S1132790828D891720F481E08093B31101C080E019
S11327A0DF91CF910895CF93DF93DC0170684D934F
S11327B05D936D937C9313971896ED91FC91199703
S11327C01A964D915C911B9714968D919C91159737
S11327D016962D913C911797EC013F832E83169604
S11327E08D919C91179714962D913C911597EC011E
S11327F03D832C83EA0189819A81A817B90731F4B2
S113280016968D919C9117979A8389831B961C9297
S11328101E921A97DA018C9181508C93A485B58508
S1132820C681D781808591859F838E83C085D1851C
S1132830868197819D838C8311968D919C911297AB
S11328409F012E5F3F4F8217930731F48085918556
S113285012969C938E931197158614868C918150B1
S11328608C93A28D8091B9118A1710F4A093B91199
S11328708BE08A9FD0011124A550BE4E11960D9075
S1132880BC91A02DB783A68316964D915C911797A2
S1132890518740871696CD91DC9117973D832C8301
S11328A017963C932E931697A28D8A9FD0011124DC
S11328B0A550BE4EB587A4878C918F5F8C93928D63
S11328C0E0916912F0916A12828D891718F481E0FF
S11328D08093B311DF91CF9108950FB6F8940F92BE
S11328E02091B211FC0120834091BA115091BB1187
S11328F06091BC117091BD114183528363837483D1
S11329000F900FBE08952091B211FC0120834091D5
S1132910BA115091BB116091BC117091BD114183EA
S113292052836383748308958F929F92AF92BF9270
S1132930CF92DF92EF92FF920F931F93CF93DF9387
S1132940FB010FB6F8940F92C090BA11D090BB114E
S1132950E090BC11F090BD11DC0111960D911D9118
S11329602D913C91149746015701801A910AA20AAD
S1132970B30A40815181628173814F3FBFEF5B078E
S11329806B077B0739F1EC01B881A091B211BA173A
S113299059F0C016D106E206F30630F01082118217
S11329A01282138281E017C084169506A606B70624
S11329B058F4481959096A097B0940835183628391
S11329C07383A1DF80E007C0108211821282138218
S11329D081E001C080E00F900FBEDF91CF911F9185
S11329E00F91FF90EF90DF90CF90BF90AF909F90AA
S11329F08F90089581E08093B311089580916912B6
S1132A0090916A1208958091B811882331F08091D1
S1132A10AA11811104C082E0089581E0089580E044
S1132A2008950F931F93CF93DF93FC01892B09F42F
S1132A3077C0828DA0916912B0916A125A969C91C6
S1132A40891708F063C046855785608971897723A3
S1132A5094F0A0916912B0916A125A969C914AE03E
S1132A6050E060E070E0491B510961097109468733
S1132A705787608B718B248535854BE0849FC0011B
S1132A80112485509E4E28173907B9F5EF018F019F
S1132A900E5F1F4FC8010E94F604E0916912F09185
S1132AA06A12E28DEA8F8091B9118E1710F4E093C7
S1132AB0B9118BE08E9FF0011124E550FE4E018088
S1132AC0F281E02DFF83EE832681378139872887C1
S1132AD0A681B78115961C930E93149717830683CA
S1132AE0EA8D8E9FF0011124E550FE4EFD87EC87A0
S1132AF080818F5F808381E016C0A0916912B091BC
S1132B006A125A968C91828F81E00DC095A5E0914E
S1132B106912F0916A12828D981720F080E003C048
S1132B2080E001C081E0DF91CF911F910F91089562
S1132B300F931F93CF93DF93FC01892B09F449C0B2
S1132B4086A5815086A7228D95A5291709F443C02F
S1132B50811143C0EF018F010E5F1F4FC8010E9416
S1132B60F604EDA5EA8F8AE090E0A0E0B0E08E1BC9
S1132B709109A109B1098E879F87A88BB98B809190
S1132B80B9118E1710F4E093B9118BE08E9FF00108
S1132B901124E550FE4E0180F281E02DFF83EE8387
S1132BA02681378139872887A681B78115961C939A
S1132BB00E93149717830683EA8D8E9FF0011124D8
S1132BC0E550FE4EFD87EC8780818F5F808381E036
S1132BD005C080E003C080E001C080E0DF91CF91B8
S1132BE01F910F9108950F931F93CF93DF93FC01CF
S1132BF0892B09F45AC085A5861708F4862F928D6F
S1132C00891709F452C026A5213009F04EC0828FDD
S1132C104685578560897189772364F04AE050E0DE
S1132C2060E070E0481B51096109710946875787C4
S1132C30608B718B248535854BE0949FC0011124F2
S1132C4085509E4E2817390781F5EF018F010E5FDD
S1132C501F4FC8010E94F604EA8D8091B9118E17A6
S1132C6010F4E093B9118BE08E9FF0011124E5502C
S1132C70FE4E0180F281E02DFF83EE8326813781B1
S1132C8039872887A681B78115961C930E931497CC
S1132C9017830683EA8D8E9FF0011124E550FE4EC2
S1132CA0FD87EC8780818F5F8083DF91CF911F91B7
S1132CB00F910895CF92DF92EF92FF92E091691203
S1132CC0F0916A126685778580899189E09169120D
S1132CD0F0916A12A0916912B0916A125A962C91DD
S1132CE00F2EFAE0CF2ED12CE12CF12CF02DC21AAC
S1132CF0D108E108F108C686D786E08AF18AFF90F8
S1132D00EF90DF90CF9008958091691290916A12AC
S1132D10892B39F0E0916912F0916A1286A58F5FD0
S1132D2086A78091691290916A1208954F925F92DA
S1132D306F927F92AF92BF92CF92DF92EF92FF9207
S1132D400F931F93CF93DF93280139010FB6F894A3
S1132D500F92E0916912F0916A12C82FD0E0EC0F43
S1132D60FD1F83A9823079F1E0916912F0916A1212
S1132D70CE01880F991F880F991FE80FF91F87A5A7
S1132D8090A9A1A9B2A94095509560957095482342
S1132D9059236A237B2347A750AB61AB72ABE09105
S1132DA06912F0916A12EC0FFD1F81E083ABA1144C
S1132DB0B104C104D10439F041E0C601B5010E9457
S1132DC05A0E0E9472050F900FBE0FB6F8940F9220
S1132DD0E114F104A1F0E0916912F0916A12CE01BC
S1132DE0880F991F880F991FE80FF91F87A590A9CD
S1132DF0A1A9B2A9F70180839183A283B383E0914F
S1132E006912F0916A12EC0FFD1F83A98230E9F474
S1132E10E0916912F0916A12CE01880F991F880F10
S1132E20991FE80FF91F87A590A9A1A9B2A94094F9
S1132E30509460947094482259226A227B2247A6B7
S1132E4050AA61AA72AA81E001C080E020916912AF
S1132E5030916A12C20FD31F1BAA0F900FBEDF91CD
S1132E60CF911F910F91FF90EF90DF90CF90BF9083
S1132E70AF907F906F905F904F9008958F929F9244
S1132E80AF92BF92EF92FF920F93CF93DF93DC0147
S1132E900FB6F8940F92E114F10489F0E62FF0E0F4
S1132EA0EE0FFF1FEE0FFF1FE80FF91F87A490A876
S1132EB0A1A8B2A8F70180829182A282B38270E0B5
S1132EC0FD01E60FF71F83A992E093AB023001F1F5
S1132ED018F4013031F04DC0033079F10430D1F1F0
S1132EE048C0660F771F660F771FFD01E60FF71FB7
S1132EF087A490A8A1A8B2A8BA01A9014829592970
S1132F006A297B2947A750AB61AB72AB01E034C09F
S1132F10660F771F660F771FFD01E60FF71F47A5A2
S1132F2050A961A972A94F5F5F4F6F4F7F4F47A7A9
S1132F3050AB61AB72AB01E01FC0660F771F660F29
S1132F40771FFD01E60FF71F27A730AB41AB52AB4C
S1132F5001E012C0823079F0660F771F660F771F89
S1132F60FD01E60FF71F27A730AB41AB52AB01E0E1
S1132F7003C001E001C000E0813009F069C01C9683
S1132F80ED91FC911D971696CD91DC9117971896AB
S1132F908D919C9119979F838E831896CD91DC9186
S1132FA0199716968D919C9117979D838C83818197
S1132FB092819D012E5F3F4F8217930731F418963B
S1132FC08D919C911997928381831D961C921E92D8
S1132FD01C978081815080835A96EC915A978091F6
S1132FE0B9118E1710F4E093B9118BE08E9FF001A4
S1132FF01124E550FE4E0180F281E02D1796FC93DA
S1133000EE9316974681578119965C934E931897C1
S1133010C681D7813D832C83378326835A96EC91CE
S11330205A978E9FF0011124E550FE4E1D96FC9395
S1133030EE931C9780818F5F80835A969C91E091D8
S11330406912F0916A12828D891710F40E94720538
S11330500F900FBE802FDF91CF910F91FF90EF90D3
S1133060BF90AF909F908F9008958F929F92AF9250
S1133070BF92CF92DF92EF92FF920F93CF93DF93A1
S1133080DC01E114F10489F0E62FF0E0EE0FFF1FFC
S1133090EE0FFF1FE80FF91F87A490A8A1A8B2A8FC
S11330A0F70180829182A282B38270E0FD01E60F73
S11330B0F71F93A982E083AB023001F118F40130C9
S11330C031F04DC0033079F10430D1F148C0660FBE
S11330D0771F660F771FFD01E60FF71F87A490A8DF
S11330E0A1A8B2A8BA01A901482959296A297B29AA
S11330F047A750AB61AB72AB81E034C0660F771F5A
S1133100660F771FFD01E60FF71F47A550A961A9B8
S113311072A94F5F5F4F6F4F7F4F47A750AB61ABB3
S113312072AB81E01FC0660F771F660F771FFD012A
S1133130E60FF71F27A730AB41AB52AB81E012C0BB
S1133140923079F0660F771F660F771FFD01E60F47
S1133150F71F27A730AB41AB52AB81E003C081E03E
S113316001C080E0913009F096C09091AA119111AC
S11331705FC01C96ED91FC911D971696CD91DC9144
S1133180179718962D913C9119973F832E83189683
S1133190CD91DC91199716962D913C9117973D830B
S11331A02C83418152819D012E5F3F4F421753076B
S11331B031F418964D915C911997528341831D9671
S11331C01C921E921C979081915090835A96EC9178
S11331D05A979091B9119E1710F4E093B9119BE09E
S11331E09E9FF0011124E550FE4E0180F281E02DF6
S11331F01796FC93EE9316974681578119965C9324
S11332004E931897C681D7813D832C8337832683B9
S11332105A96EC915A979E9FF0011124E550FE4E68
S11332201D96FC93EE931C9790819F5F908321C021
S113323066ED71E1FB01C181D2815396DC93CE939B
S113324052972E813F8155963C932E9354974E81ED
S11332505F819D01225F3F4FFA01358324833F83C1
S11332602E8359967C936E935897FB0190819F5FB0
S113327090835A962C91E0916912F0916A12928D82
S1133280921748F4C114D10419F091E0F601908327
S113329091E09093B311DF91CF910F91FF90EF9054
S11332A0DF90CF90BF90AF909F908F90089500973C
S11332B021F48091691290916A120FB6F8940F92DA
S11332C070E0FC01E60FF71F23A9223031F4FC0162
S11332D0E60FF71F13AA81E001C080E00F900FBE34
S11332E00895DC01E0917512F0917612808191E0ED
S11332F0811190E09C93911108C00780F085E02D26
S11333006081718182819381089560E070E0CB01D6
S11333100895CF92DF92EF92FF920F931F93FC01D7
S113332042835383648375839387828704171507C5
S113333026073707C0F00C191D092E093F09868599
S11333409785A089B189081719072A073B0700F553
S1133350BF016E5F7F4F80917312909174120E942F
S1133360B90480E018C00C151D052E053F0528F48E
S11333704C155D056E057F0568F4BF016E5F7F4FD8
S113338080917512909176120E94B90480E003C076
S113339081E001C081E01F910F91FF90EF90DF90D9
S11333A0CF9008950FB6F8940F9280917112909176
S11333B07212892BE9F482E892E10E94A40487E75F
S11333C092E10E94A40482E892E1909376128093A1
S11333D0751287E792E1909374128093731240E020
S11333E067E08AE00E9467079093721280937112DB
S11333F00F900FBE0895EF92FF920F93D3DF809149
S1133400711290917212892B91F00F2EFFE6EF2E1C
S1133410F2E1FF2EF02D03E020E030E040EC50E03C
S11334206BE972E087ED90E00E94FC0E01C080E041
S11334300F91FF90EF9008958F929F92AF92BF9259
S1133440CF92DF92EF92FF920F931F93CF93DF936C
S1133450CDB7DEB727970FB6F894DEBF0FBECDBF4A
S1133460E0917112F0917212309781F169832A838D
S11334703B834C835D839F838E836630F4F4C3DA8D
S1133480823069F400E0A7019601BE016F5F7F4FAF
S113349080917112909172120E948A0718C000E004
S11334A020E030E0A901BE016F5F7F4F809171126F
S11334B0909172120E948A070AC020E0A801BE01FE
S11334C06F5F7F4FCF010E941C0801C080E02796E8
S11334D00FB6F894DEBF0FBECDBFDF91CF911F9121
S11334E00F91FF90EF90DF90CF90BF90AF909F909F
S11334F08F9008958F929F92AF92BF92CF92DF9256
S1133500EF92FF920F931F93CF93DF933BC00780FB
S1133510F085E02D80809180A280B380C085D18524
S11335208E010E5F1F4FC8010E94F604EC89FD89CD
S1133530CE0119958E8982FF25C08E859F85A88925
S1133540B989880D991DAA1DBB1D88169906AA065E
S1133550BB0670F48A839B83AC83BD83DB87CA87F5
S1133560B80180917512909176120E94B9040AC034
S1133570C12CD12C760100E010E0A501940160E09B
S1133580CE015ADFE0917512F0917612808181119B
S1133590BECF80917312909174129093761280939F
S11335A07512F0937412E0937312DF91CF911F910F
S11335B00F91FF90EF90DF90CF90BF90AF909F90CE
S11335C08F900895CF92DF92EF92FF92CF93DF9383
S11335D0EC010E94860F6B017C0180916B1290912B
S11335E06C12A0916D12B0916E12C816D906EA063B
S11335F0FB0620F47FDF81E0888301C01882C0923B
S11336006B12D0926C12E0926D12F0926E12C7019E
S1133610B601DF91CF91FF90EF90DF90CF900895A6
S11336204F925F926F927F928F929F92AF92BF92CE
S1133630CF92DF92EF92FF920F931F93CF93DF937A
S11336404B015C0129013A01E0917512F091761267
S11336500780F085E02DC085D185CE0102960E94B9
S1133660F6048E8982FF1BC04E855F85688979893F
S1133670480D591D6A1D7B1D75016401930182016A
S1133680CE0147DE882369F0C12CD12C760100E0FD
S113369010E0A501940160E0CE01CEDE02C08E7F71
S11336A08E8BEC89FD89CE011995DF91CF911F9105
S11336B00F91FF90EF90DF90CF90BF90AF909F90CD
S11336C08F907F906F905F904F9008958F929F920C
S11336D0AF92BF92CF92DF92EF92FF921F93CF935C
S11336E0DF931F92CDB7DEB76B017C01142F0E94CC
S11336F0800FCE01019666DF4B015C018981811147
S11337002DC011110DC08C149D04AE04BF0440F0F3
S11337100E94C010A5019401C701B60181DF20C039
S1133720112341F0E0917312F0917412808111E041
S1133730811110E0B701A601481959096A097B09EA
S1133740212F80917112909172120E9497090E9408
S1133750C010811105C00E94720502C00E94C010F1
S11337600F90DF91CF911F91FF90EF90DF90CF905A
S1133770BF90AF909F908F900895AF92BF92CF92D9
S1133780DF92EF92FF920F931F93CF93DF93CDB706
S1133790DEB728970FB6F894DEBF0FBECDBF82C048
S11337A0898188230CF47EC0AE80BF80D5011C962D
S11337B08D919C911D97892B21F0C50102960E9441
S11337C0F604CE010896FEDE8B019C01E9810E2EE3
S11337D0000CFF0BEA30F10508F064C08827EE58AE
S11337E0FF4F8F4F0C946E2DF50186898160868B77
S11337F0CA80DB80EC80FD804685578560897189AD
S11338004C0D5D1D6E1D7F1DC50183DD882309F4EC
S113381049C0D5015496ED91FC915597C501199570
S1133820F501868982FF3EC04A815B816C817D817E
S113383086859785A089B1899A01AB01280F391F24
S11338404A1F5B1FC12CD12C760100E010E060E020
S1133850C501F2DD27C0D50156968C9156978E7F0F
S113386056968C931FC0F50186898160868B4A81A8
S11338705B816C817D8146875787608B718B400F9C
S1133880511F621F731F68017901C50142DD0AC01F
S1133890F501868981FD04C0C5010E94670402C048
S11338A08E7F868B20E030E0A901BE016F5F7F4FE1
S11338B080917112909172120E945708811170CFF9
S11338C028960FB6F894DEBF0FBECDBFDF91CF911F
S11338D01F910F91FF90EF90DF90CF90BF90AF902A
S11338E00895089584B1806884B985B1806885B9E4
S11338F0089583B1806883B90895F4DF2FEF80E7DA
S113390092E0215080409040E1F700C00000F1DFD8
S1133910F5CFE8DF2FEF87EA91E621508040904011
S1133920E1F700C00000E5DFF5CFCF93DF9381E03E
S11339300E941B2956D4D2D69F938F9383EA92E098
S11339409F938F930E94142FCAD5C8D69F938F93A9
S113395086EB92E09F938F930E94142F8DE892E15F
S113396052D4BCD6CDE8D2E1DF93CF939F938F930B
S11339708FEC92E09F938F930E94142FCE015FD41B
S1133980ADD69F938F93DF93CF9383EE92E09F9373
S11339908F930E94142FAE0168EF72E089E193E0E7
S11339A07CD69CD69F938F93DF93CF9388EF92E03E
S11339B09F938F9389E193E09F938F938AE293E09F
S11339C09F938F930E94142F6DD488D69F938F93C7
S11339D080E693E09F938F930E94142F8DB79EB738
S11339E082960FB6F8949EBF0FBE8DBF81E054D56A
S11339F075D69F938F938FE693E09F938F930E9446
S1133A00142F84EF91E053D569D69F938F9381E06F
S1133A108F9384EF8F9380E993E09F938F930E9419
S1133A20142F8DB79EB70A960FB6F8949EBF0FBE9B
S1133A308DBFCAE080E03CD4D82F50D69F938F939B
S1133A401F92CF9380EB93E09F938F930E94142F48
S1133A500F900F900F900F900F900F90D83059F057
S1133A6080E00E947F2966E371E080E090E00E949C
S1133A700112C150F9F6D83021F481E00E94612985
S1133A8009C081E00E94702980E00E943E290E94C2
S1133A907205FDCFDF91CF910895CF93DF93CDB71A
S1133AA0DEB76A970FB6F894DEBF0FBECDBF81E0D4
S1133AB08AD362E070E080E090E00E94011280E02E
S1133AC082D366E970E080E090E00E94011234D372
S1133AD02CDF80ED93E00E94272F0E94860F6983DC
S1133AE07A838B839C8386E04CD062E0CE0105967A
S1133AF05AD08EED93E00E94272F81E094E00E943B
S1133B00272F44E457E060E070E0CE0101960E9464
S1133B109C1182E194E00E94272F8E811F928F9343
S1133B2085E394E09F938F930E94142F83E00E9477
S1133B309129BE016B5F7F4F80E0E3D3CFD59F9384
S1133B408F9381E494E09F938F930E94142F0FB678
S1133B50F894DEBF0FBECDBFD0CFEF92FF920F938C
S1133B60E12CF12C082F20E030E040EC50E066E539
S1133B7074E08DE49DE10E94FC0E0F91FF90EF90A4
S1133B800895809355140895909354148093531476
S1133B90089590934F1480934E1408959093521463
S1133BA08093511408951F93CF93DF93EC01162F44
S1133BB086E190E00E94BE03FC01892BB1F01083E2
S1133BC0809155148183809153149091541492835D
S1133BD083838091511490915214948385838091AE
S1133BE04E1490914F149683878386E1DE010190F1
S1133BF00D928A95E1F7CE01DF91CF911F9108953F
S1133C000F9343E060E081E00E94670790935914AA
S1133C108093581400E020E030E0A90160E070E0F7
S1133C200E948A070F91089540E062E083E00E94B9
S1133C306707909357148093561408950E940A02BC
S1133C4090935D1480935C14089541E060E070E00B
S1133C5084E690E00E94F60A90935F1480935E14C9
S1133C600895CED0811105C083E694E00C94272FEB
S1133C70089586E894E00C94272F0895D9D08823DA
S1133C8021F080EA94E00E94272F63E070E080E056
S1133C9090E00E940112E1D0882321F080EC94E0AE
S1133CA00E94272F61E070E080E090E00C94011204
S1133CB00895CF93DF9300D01F92CDB7DEB71C8257
S1133CC01B821A8219824FEF5FEFBA018091581458
S1133CD0909159140E94E608813051F5CFDF09D143
S1133CE09C838B83E0D09A83898300E02FEF3FEF9E
S1133CF0A901BE016D5F7F4F8091561490915714B6
S1133D000E948A072FEF3FEFA901BE016F5F7F4F2B
S1133D1080915614909157140E948A0742E050E013
S1133D2060E070E080915C1490915D140E94BD028B
S1133D306AE070E080E090E00E940112C0CFEF9250
S1133D40FF920F938EDFE12CF12C01E020E030E0B4
S1133D5040EC50E065EE74E089E59EE10E94FC0EC3
S1133D600F91FF90EF90089569DF5EDF49DF6DCF1B
S1133D700895E5DF0E94D0010C946701089580E066
S1133D800E945A28F1DFF5DF60E070E081E0DBD1CA
S1133D9082E0E3CE0895F3DF84EF94E00E94272FBE
S1133DA00E94480FFFCF6530F1F4FA0180818F73D0
S1133DB090E0982F88272181822B90930A02809388
S1133DC009028281F0E48F9FC0011124FA0123814A
S1133DD026952695822B909308028093070281E012
S1133DE08093F1120895643051F080E090E4909350
S1133DF008028093070290930A02809309020895AF
S1133E000F931F9303ED1EE120E034E244EF50E0F2
S1133E1060E087E20E94B4299093F3128093F21237
S1133E2021E0892B09F020E0822F1F910F91089542
S1133E308091F2129091F312009759F040E060E003
S1133E4070E00E94052A843031F41092F11280E06F
S1133E50089582E0089583E008958091F21290918C
S1133E60F312009739F064E00E94512A853021F062
S1133E7083E0089582E0089580E008956091090246
S1133E8070910A0280E090E00E945B2C20E030E018
S1133E9048EC52E40E94E92C20E038EF4FE756E466
S1133EA00C94C22B0895EADF20E030E040E251E4B4
S1133EB00E94E92C0E942F2CCB01089560910702E7
S1133EC07091080280E090E00E945B2C20E030E0DA
S1133ED045E253E40E94E92C20E038EF4FE756E432
S1133EE00E94C22B20E030E040E252E40C945D2BAF
S1133EF00895E4DF20E030E040E251E40E94E92C40
S1133F000E942A2CCB0108950F931F93CF93DF9324
S1133F101F921F92CDB7DEB78C0119822DC0E0919C
S1133F205813EC3250F481E08E0F80935813F0E074
S1133F30E657FC4E8A81808302C0109258138A810E
S1133F408A30D1F44091581350E0FA01E857FC4EFE
S1133F501082415051099E012F5F3F4F6AE873E17F
S1133F6080915B1390915C130E941D0C89818111D7
S1133F700E94720510925813BE016E5F7F4FC801F4
S1133F8003D6882361F20F900F90DF91CF911F9198
S1133F900F9108950F931F93CF93DF938C01EB013F
S1133FA080915B1390915C130E94280BB80184EFFD
S1133FB092E10E94F52E209779F0E4EFF2E101906E
S1133FC00020E9F7319780E290E091838083BE017D
S1133FD084EF92E10E94EA2EE4EFF2E1DF010D901A
S1133FE00020E9F711978DE09AE011969C938E9347
S1133FF012961C9201900020E9F73197E45FF24198
S1134000AE2F84EF92E1AC016A2F80915D13909101
S11340105E1365D5811111C008E215E020E030E09F
S11340204DE250E064EE73E180915B1390915C1378
S11340300E94610C84EE93E102C080E090E0DF9185
S1134040CF911F910F9108952F923F924F925F92BB
S11340506F927F928F929F92AF92BF92CF92DF9294
S1134060EF92FF920F931F93CF93DF935C01FC01B8
S113407001900020E9F731976F01C81AD90A5C2C26
S11340800F2EF3EA8F2EF7E09F2EF02DE12CF12C6A
S11340904C2C3701F40101811281E80109900020C0
S11340A0E9F72197C01BD10B3C2EF9E0CF16D104C0
S11340B058F0F4012080FEE02F1206C0B801C501BB
S11340C00E94C52E892B09F5442D351408F44C2F74
S11340D050E0B801C5010E94FC2E892B49F4F3017C
S11340E0EE0FFF1FE60DF71DED55F84F20800DC0B4
S11340F08FEFE81AF80AE3E08E0E911CF1E1EF1657
S1134100F10439F66894222424F8822DDF91CF91AA
S11341101F910F91FF90EF90DF90CF90BF90AF90E1
S11341209F908F907F906F905F904F903F902F90D3
S1134130089530DF89CF089580915B1390915C13CB
S11341400C94280B08958F929F92AF92CF92EF9286
S11341500F931F93CF93C82F8B0141E060E070E071
S113416088EC90E00E94F60A90935C1380935B13B2
S113417010935A13009359130F2EF4E88F2EFFE176
S11341809F2EF02D6894AA24A6F86894CC24C6F82F
S1134190E12C00E023E040E051EE60E070E08C2F81
S11341A0D2D390935E1380935D13E7E0F1E08081B6
S11341B080618083CF911F910F91EF90CF90AF904A
S11341C09F908F900895882331F0E8E0F1E080819A
S11341D08F7E80830895E8E0F1E0808180618083B0
S11341E0089560E070E089E295E0D4DEE4EEF3E166
S11341F001900020E9F73197E45EF34181E075977F
S113420008F080E00895CF93DF93EC0160E070E064
S11342108AE395E0BFDEE4EEF3E101900020E9F7E4
S1134220E55FF34139F464EE73E1CE010E94F52EAB
S113423080E002C0188281E0DF91CF910895FC01F3
S113424001900020E9F79F0121513109281739070E
S113425029F4BC0188E695E06CCF089589E00895BF
S1134260FC0101900020E9F79F0121513109281731
S1134270390729F4BC0187E795E05BCF089589E00D
S11342800895FC0101900020E9F79F0121523109B2
S11342902817390729F4BC0186E895E04ACF089528
S11342A089E0089560E070E085EC95E042CF0895E0
S11342B00F931F93E82FF0E0EE0FFF1FE156F84F26
S11342C0608171818EEC95E034DF811114C008E2C5
S11342D015E020E030E04DE250E064EE73E18091BF
S11342E05B1390915C130E94610C882321F084EE8F
S11342F093E1AADE03C084EE93E1A6DE1F910F9141
S113430008950F931F93CF93DF931F92CDB7DEB71A
S1134310DB0111969C911197953108F0B4C0992353
S113432081F160E070E0272F30E0462F50E0FD017E
S1134330E40FF51F928192959F709A3010F0995C6A
S113434001C0905DF901EB58FC4E90832F5F3F4F05
S1134350FD01E40FF51F92819F70492F50E04A3010
S1134360510514F0995C01C0905DF901EB58FC4EC5
S113437090837E5F6F5F11969C911197691798F2F5
S113438001C070E0E72FF0E0EB58FC4E10824C9136
S1134390811103C087ED95E002C089ED95E025E722
S11343A033E13F932F931F924F939F938F938DED00
S11343B095E09F938F9387EB93E19F938F930E9454
S11343C0572F60E070E087EB93E1B3DE0FB6F8940B
S11343D0DEBF0FBECDBF811159C008E215E020E059
S11343E030E04DE250E064EE73E180915B13909114
S11343F05C130E94610C882309F447C084EE93E1A6
S113440023DE8E3009F042C087E0898380915913FE
S113441090915A13892BA9F1BE016F5F7F4F84EEEF
S113442093E168D180935F13E981F0E0EC51FC4E95
S1134430DF010D900020E9F71197AE1BBF0BAA23F3
S113444091F0BB27CD0101979C0112F42F5F3F4FE0
S11344503595279520936013AF014F5F5F4F64E15B
S113446081E693E173D101E010E020E030E046E121
S113447050E06FE573E18091591390915A130E94B3
S1134480580B8EE003C084E101C080E00F90DF91FF
S1134490CF911F910F910895813019F06DEE75E061
S11344A002C066EC76E081EF95E043CE08959F93D9
S11344B08F9382E296E09F938F9387EB93E19F9390
S11344C08F930E94572F60E070E087EB93E131DE19
S11344D00F900F900F900F900F900F9008952F92C0
S11344E03F924F925F926F927F928F929F92AF9280
S11344F0BF92CF92DF92EF92FF920F931F93CF93CD
S1134500DF93CDB7DEB7A0970FB6F894DEBF0FBE2A
S1134510CDBF6FE476E08BE596E03CDD95DD81115F
S1134520A3C080E2E2E2F2E0DE01119601900D9276
S11345308A95E1F79E012F5F3F4F6901E12CF12C31
S11345400F2EF7E6AF2EF6E0BF2EF02D07EB13E1AA
S11345500F2EF0E84F2EF6E05F2EF02D0F2EF7E928
S11345608F2EF6E09F2EF02D0F2EF1EB6F2EF6E03E
S11345707F2EF02D3E2C2F2CFF92EF92BF92AF9204
S11345801F930F930E94572F60E070E0C80102DD73
S11345905BDD0F900F900F900F900F900F90811193
S11345A063C032E03E15E8F4F60183818F93828183
S11345B08F9381818F9380818F93FF92EF925F928B
S11345C04F921F930F930E94572F60E070E0C80131
S11345D0E1DC3ADD0FB6F894DEBF0FBECDBF81112A
S11345E043C02F923F929F928F921F930F930E94EA
S11345F0572F60E070E0C801CDDC26DD0F900F90EE
S11346000F900F900F900F9081112EC02F923F9218
S11346107F926F921F930F930E94572F60E070E078
S1134620C801B8DC11DD0F900F900F900F900F9020
S11346300F90811119C03FEFE31AF30A84E0C80E0A
S1134640D11C98E0E916F10409F094CF60E070E021
S113465089EC96E09FDCF8DC811106C060E070E034
S11346608AED96E097DCF0DCA0960FB6F894DEBFF6
S11346700FBECDBFDF91CF911F910F91FF90EF90AF
S1134680DF90CF90BF90AF909F908F907F906F906E
S11346905F904F903F902F900895EF92FF920F9369
S11346A01F93CF93DF93EC018B017A0181E0F4DE59
S11346B081110DC0CE01D4DD811109C0C801E1DD35
S11346C0811105C0C701BBDD811101C0EBDDDF91A4
S11346D0CF911F910F91FF90EF90089590E0FC010E
S11346E0EE0FFF1F8E0F9F1FFC01ED55F84F8181C8
S11346F092810895DC01009729F1FB012081FC01DE
S113470001900020E9F73197E81BF90B822F90E024
S1134710E817F907C8F080E008C0880F382F330F76
S1134720330F830F8053890F2F5FFD01E20FF11DBB
S1134730908130ED390F3A3010F49111EECFFB0136
S11347402083089580E0089580E008950F931F93D7
S1134750CF93DF93DC01EA012097E1F1FA010190A4
S11347600020E9F73197E41BF50B329710F532C0BE
S11347708D01040F151F30E0AE01420F531FFA01E3
S11347809081913428F09753592F5295507F03C04C
S1134790592F5295507F2C0F3D1FF901918191346F
S11347A010F0975301C09053950FF80190838F5FD9
S11347B001C080E0282F220F482F50E0FE01019015
S11347C00020E9F73197EC1BFD0B4E175F0710F43F
S11347D08613CECFDF91CF911F910F9108958091D1
S11347E01414860F8093141490911714913079F057
S11347F028F09230A9F0933019F108956F3F09F031
S113480048C01092141481E08093171408956638F8
S113481009F03FC01092131482E080931714089596
S1134820E091131481E08E0F80931314F0E0EF5E97
S1134830FB4E6083823069F583E0809317140895FA
S11348409091131421E0290F20931314963009F545
S113485081110EC0E1E1F4E1808190E0982F882776
S11348602181820F911D909319148093181404C010
S1134870109219141092181410921714E091151430
S1134880F0911614309729F080911814909119140E
S1134890199508958F929F92AF92CF92EF920F93B2
S11348A00F2EFFEE8F2EF3E29F2EF02D6894AA2494
S11348B0A4F86894CC24C4F8E12C00E023E040E898
S11348C055E260E070E03FD090931B1480931A147B
S11348D00F91EF90CF90AF909F908F900895909309
S11348E01614809315140895CF93DF93CDB7DEB7D4
S11348F029970FB6F894DEBF0FBECDBF89E0E2E47E
S1134900F2E09E012F5F3F4FD90101900D928A95ED
S1134910E1F7109219141092181480911A149091BE
S11349201B14009731F0422F532F69E0D8D080E058
S113493001C082E029960FB6F894DEBF0FBECDBF4A
S1134940DF91CF9108952F923F924F925F926F9291
S11349507F928F929F92AF92CF92EF92FF920F939A
S11349601F93CF93DF93CDB7DEB7F82E2A013B0117
S113497088E090E00E94902D8C018F2D90E0FC0146
S1134980EE0FFF1FE45EFB4E11830083011511053A
S113499009F468C0880F991FFC01E55FFD4F808111
S11349A09181D8018D939C936C2D70E084E090E00C
S11349B00E94762D1C0161E070E086E090E00E9488
S11349C0762D7C014C2DB1015CD6F801F582E48290
S11349D06A2D70E084E090E00E94762D1C0161E075
S11349E070E086E090E00E94762D7C014A2DB101B2
S11349F048D6D8011396FC92EE92129717969C9281
S1134A008E921697FFB6F894ED91FC911197369714
S1134A108081826080838D909C90C301B2014BD7CA
S1134A2020E030E040E051E4D4D79B01AC0160E0E9
S1134A3074E284E79BE4A6D620E030E040E85FE33C
S1134A403CD60DD7F40132976083D801ED91FC91E7
S1134A501197359788E98083ED91FC91349786E02E
S1134A608083FFBEC801DF91CF911F910F91FF900A
S1134A70EF90CF90AF909F908F907F906F905F90CA
S1134A804F903F902F900895CF93DF93DC01892BB3
S1134A9001F11296ED91FC91139793818281258106
S1134AA0981B922384819817B1F08381269528233B
S1134AB0C081D181C20FD11D68838F5F9581892305
S1134AC08383ED91FC91359780818062808380E0BF
S1134AD003C081E001C082E0DF91CF910895EF929D
S1134AE0FF920F931F93CF93DF937C01009709F4F8
S1134AF041C0DC011296ED91FC9113979381828160
S1134B00981B858198238481891B8617A8F16623C5
S1134B1041F1842F952FDC016150462F50E04F5F07
S1134B205F4F480F591FE701EA81FB81938182811E
S1134B302581981B92238481981779F08C91938115
S1134B4026952923608171818B01020F111DE801D3
S1134B5088839F5F8581982393831196A417B50753
S1134B6011F7D701ED91FC913597808180628083A4
S1134B7080E003C081E001C082E0DF91CF911F910A
S1134B800F91FF90EF9008950097D1F0DC011496F7
S1134B90ED91FC91159793818281981799F09281F8
S1134BA0858186958923A081B181A80FB11D8C913F
S1134BB0DB018C939F5F85819823928380E0089525
S1134BC081E0089583E008951F920F920FB60F922B
S1134BD011240BB60F922F933F934F935F936F93D0
S1134BE07F938F939F93AF93BF93CF93DF93EF9371
S1134BF0FF93A0911C14B0911D14109711F16091B2
S1134C00C6001496ED91FC911597938182812581BC
S1134C10981B92238481981761F083812695282319
S1134C20C081D181C20FD11D68838F5F9581892393
S1134C3083831696ED91FC911797309711F0CD016F
S1134C401995FF91EF91DF91CF91BF91AF919F9112
S1134C508F917F916F915F914F913F912F910F9021
S1134C600BBE0F900FBE0F901F9018951F920F92BE
S1134C700FB60F9211240BB60F922F938F939F931D
S1134C80AF93BF93EF93FF93E0911C14F0911D1425
S1134C903097B9F00280F381E02D938182819817D7
S1134CA0B1F092818581282F26952923A081B18195
S1134CB0A20FB11D2C919F5F892382832093C6008C
S1134CC00BC0E1ECF0E080818F7D808305C0E1ECD6
S1134CD0F0E080818F7D8083FF91EF91BF91AF9150
S1134CE09F918F912F910F900BBE0F900FBE0F903D
S1134CF01F9018951F920F920FB60F9211240BB6A6
S1134D000F922F933F934F935F936F937F938F9360
S1134D109F93AF93BF93CF93DF93EF93FF93A091B0
S1134D201E14B0911F14109711F16091CE001496C7
S1134D30ED91FC911597938182812581981B922393
S1134D408481981761F0838126952823C081D181BD
S1134D50C20FD11D68838F5F958189238383169643
S1134D60ED91FC911797309711F0CD011995FF91B2
S1134D70EF91DF91CF91BF91AF919F918F917F91EF
S1134D806F915F914F913F912F910F900BBE0F90B8
S1134D900FBE0F901F9018951F920F920FB60F928F
S1134DA011240BB60F922F938F939F93AF93BF93BE
S1134DB0EF93FF93E0911E14F0911F143097B9F014
S1134DC00280F381E02D938182819817B1F0928162
S1134DD08581282F26952923A081B181A20FB11D99
S1134DE02C919F5F892382832093CE000BC0E9EC32
S1134DF0F0E080818F7D808305C0E9ECF0E0808164
S1134E008F7D8083FF91EF91BF91AF919F918F919F
S1134E102F910F900BBE0F900FBE0F901F901895FF
S1134E201F920F920FB60F9211240BB60F922F936D
S1134E303F934F935F936F937F938F939F93AF931E
S1134E40BF93CF93DF93EF93FF93A0912014B0917E
S1134E502114109711F16091D6001496ED91FC91F4
S1134E601597938182812581981B922384819817B9
S1134E7061F0838126952823C081D181C20FD11D81
S1134E8068838F5F9581892383831696ED91FC91C6
S1134E901797309711F0CD011995FF91EF91DF919C
S1134EA0CF91BF91AF919F918F917F916F915F91BE
S1134EB04F913F912F910F900BBE0F900FBE0F900B
S1134EC01F9018951F920F920FB60F9211240BB6D4
S1134ED00F922F938F939F93AF93BF93EF93FF936F
S1134EE0E0912014F09121143097B9F00280F381FD
S1134EF0E02D938182819817B1F092818581282FCA
S1134F0026952923A081B181A20FB11D2C919F5F09
S1134F10892382832093D6000BC0E1EDF0E08081E9
S1134F208F7D808305C0E1EDF0E080818F7D8083FB
S1134F30FF91EF91BF91AF919F918F912F910F901E
S1134F400BBE0F900FBE0F901F9018951F920F92DB
S1134F500FB60F9211240BB60F922F933F934F93DA
S1134F605F936F937F938F939F93AF93BF93CF93ED
S1134F70DF93EF93FF93A0912214B0912314109721
S1134F8011F1609136011496ED91FC91159793817E
S1134F9082812581981B92238481981761F08381F3
S1134FA026952823C081D181C20FD11D68838F5FCC
S1134FB09581892383831696ED91FC9117973097F9
S1134FC011F0CD011995FF91EF91DF91CF91BF9130
S1134FD0AF919F918F917F916F915F914F913F918D
S1134FE02F910F900BBE0F900FBE0F901F9018952E
S1134FF01F920F920FB60F9211240BB60F922F939C
S11350008F939F93AF93BF93EF93FF93E0912214F9
S1135010F09123143097B9F00280F381E02D93814D
S113502082819817B1F092818581282F26952923B2
S1135030A081B181A20FB11D2C919F5F892382832E
S1135040209336010BC0E1E3F1E080818F7D808302
S113505005C0E1E3F1E080818F7D8083FF91EF91D2
S1135060BF91AF919F918F912F910F900BBE0F9095
S11350700FBE0F901F901895CF93DF931F92CDB75B
S1135080DEB7BE016F5F7F4F809124149091251489
S11350907BDD8111F6CF898190E00F90DF91CF9174
S11350A00895682F8091241490912514EDDC80E0FC
S11350B090E008958F929F92AF92CF92EF920F93C8
S11350C0812C912C6894AA24A7F86894CC24C7F85E
S11350D0E12C00E023E040E051EE60E070E033DCDE
S11350E09093251480932414E4E6F4E183E192E0A0
S11350F091838083938382830F91EF90CF90AF90BD
S11351009F908F90089590E0FC01EE0FFF1FE80F31
S1135110F91FEE0FFF1FEA5DFB4E238121111FC013
S11351209C01220F331FF901E80FF91FEE0FFF1F37
S1135130EA5DFB4EA081B1814C91F901E80FF91FA2
S1135140EE0FFF1FEA5DFB4E81E090E0028002C09B
S1135150880F991F0A94E2F7842B8C930895FC011D
S1135160EE0FFF1FDF01A80FB91FAA0FBB1FAA5D17
S1135170BB4E0D90BC91A02D2C91E80FF91FEE0FA2
S1135180FF1FEA5DFB4E81E090E0028002C0880FC1
S1135190991F0A94E2F7809582238C93089590E0F6
S11351A0FC01EE0FFF1FE80FF91FEE0FFF1FEA5D72
S11351B0FB4E2381211120C09C01220F331FF901D2
S11351C0E80FF91FEE0FFF1FEA5DFB4EA081B181CE
S11351D04C91F901E80FF91FEE0FFF1FEA5DFB4E3A
S11351E081E090E0028002C0880F991F0A94E2F7E0
S11351F0809584238C930895FC01EE0FFF1FDF013B
S1135200A80FB91FAA0FBB1FAA5DBB4E0D90BC917E
S1135210A02D2C91E80FF91FEE0FFF1FEA5DFB4E46
S113522081E090E0028002C0880F991F0A94E2F79F
S1135230822B8C930895CF93DF9390E0FC01EE0FC3
S1135240FF1FDF01A80FB91FAA0FBB1FAA5DBB4E2A
S1135250CD91DC911197488121E030E012960C90B9
S1135260129702C0220F331F0A94E2F724272883DF
S1135270FD0181E08483DF91CF910895CF93DF9383
S113528090E0FC01EE0FFF1FDF01A80FB91FAA0F6A
S1135290BB1FAA5DBB4ECD91DC911197488121E0E3
S11352A030E012960C90129702C0220F331F0A941A
S11352B0E2F724272883FD0182E08483DF91CF91E4
S11352C00895282F30E0F901EE0FFF1FE20FF31FBE
S11352D0EE0FFF1FEA5DFB4E93E0948360CF0895C9
S11352E0282F30E0F901EE0FFF1FE20FF31FEE0F3E
S11352F0FF1FEA5DFB4E94E0948305CF089590E090
S1135300FC01EE0FFF1FDF01A80FB91FAA0FBB1F7F
S1135310AA5DBB4E24E015962C931597FD011482CB
S1135320089590E0FC01EE0FFF1FDF01A80FB91FE5
S1135330AA0FBB1FAA5DBB4E21E015962C931597AF
S1135340FD011482089580914C1481110CC08CE0ED
S11353508093B8008FEF8093BB0084E08093BC00FF
S113536081E080934C140895AF92BF92CF92DF9264
S1135370EF92FF920F931F93CF93DF93A82EB62E35
S113538069017A0184E090E0CBD3EC01892B61F1CF
S1135390A88281E0B81212C0C701B60120EA36E83B
S11353A041E050E079D3DA01C9014097A109B1097C
S11353B0B695A79597958795898311C0C701B601BE
S11353C020E83AE146E050E067D3DA01C9014097AA
S11353D0A109B109B695A7959795879589831B83EC
S11353E00A838C2F9D2F02C080E090E0DF91CF9143
S11353F01F910F91FF90EF90DF90CF90BF90AF90EF
S113540008958091BC0081700895FF920F931F93BB
S1135410CF93DF930097D1F14A30D0F5F42E8B016E
S1135420EC01EFDF811136C080913F14909140145C
S1135430C817D90741F087DF89818093B800D093DA
S11354404014C0933F1481E08F0D809341148881F0
S1135450880F80934214FF2089F0F801A3E4B4E19B
S11354604FEF4F0D642F70E0CB010196B801680F28
S1135470791F81918D93E617F707D9F788EF809309
S1135480210285EA8093BC0084E005C086E003C065
S113549087E001C082E0DF91CF911F910F91FF90CF
S11354A008951F93CF93DF93009729F16B3028F56C
S11354B0162FEC01A6DF811122C080913F14909138
S11354C04014C817D90741F03EDF89818093B800A2
S11354D0D0934014C0933F14109341148881880FD3
S11354E081608093421488EF8093210285EA80933F
S11354F0BC0085E005C086E003C087E001C082E00F
S1135500DF91CF911F9108951F920F920FB60F92C2
S113551011240BB60F922F933F934F935F936F9386
S11355207F938F939F93AF93BF93EF93FF93E091F8
S1135530B9008E2F90E0FC013897E135F10508F0B1
S113554075C08827E458FF4F8F4FC8C210923E148D
S1135550E0913E1480914114E81770F481E08E0FBD
S113556080933E14F0E0EE5BFB4E80818093BB00A1
S113557085E88093BC0072C084E98093BC0080916C
S11355803F1490914014DC011296ED91FC91139715
S1135590309709F463C020E040E050E064E01995DE
S11355A05DC0E0913E1481E08E0F80933E148091A3
S11355B0BB00F0E0EE5BFB4E80838091B900803449
S11355C011F410923E1420913E1430E08091411465
S11355D090E001972817390724F485EC8093BC00E8
S11355E03DC085E88093BC0039C08091BB00E09148
S11355F03E14F0E0EE5BFB4E808384E98093BC00B4
S113560080913F1490914014DC011296ED91FC912D
S11356101397309719F12091411442E454E165E065
S113562019951CC085EA8093BC0018C08091B9000C
S11356308093210284E08093BC0080913F14909178
S11356404014DC011296ED91FC911397309731F0E0
S113565020E040E050E0609121021995FF91EF9124
S1135660BF91AF919F918F917F916F915F914F9176
S11356703F912F910F900BBE0F900FBE0F901F9074
S11356801895FC01411101C06CD3842F90E09C015A
S11356902150310982239323892B09F062D34138A5
S11356A008F05FD3128213824483440F4150458330
S11356B07183608380E090E008955058BB27AA2747
S11356C00ED04DC13ED130F043D120F031F49F3F94
S11356D011F41EF433C10EF4E095E7FB29C1E92F60
S11356E04FD180F3BA17620773078407950718F040
S11356F071F49EF567C10EF4E0950B2EBA2FA02D20
S11357000B01B90190010C01CA01A0011124FF276A
S1135710591B99F0593F50F4503E68F11A16F04065
S1135720A22F232F342F4427585FF3CF4695379564
S11357302795A795F0405395C9F77EF41F16BA0B29
S1135740620B730B840BBAF09150A1F0FF0FBB1FD7
S1135750661F771F881FC2F70EC0BA0F621F731F20
S1135760841F48F4879577956795B795F7959E3F7D
S113577008F0B3CF9395880F08F09927EE0F97950B
S1135780879508950CD0EBC0E3D040F0DAD030F028
S113579021F45F3F19F0CCC0511115C1CFC0F0D036
S11357A098F39923C9F35523B1F3951B550BBB27E4
S11357B0AA2762177307840738F09F5F5F4F220F91
S11357C0331F441FAA1FA9F333D00E2E3AF0E0E88A
S11357D030D091505040E695001CCAF729D0FE2FD6
S11357E027D0660F771F881FBB1F26173707480768
S11357F0AB07B0E809F0BB0B802DBF01FF2793581E
S11358005F4F2AF09E3F510568F092C0DCC05F3FB5
S1135810ECF3983EDCF3869577956795B795F79505
S11358209F5FC9F7880F911D9695879597F90895FD
S1135830E1E0660F771F881FBB1F62177307840799
S1135840BA0720F0621B730B840BBA0BEE1F88F7A8
S1135850E095089504D06894B111B5C0089598D026
S113586088F09F5790F0B92F9927B751A0F0D1F045
S1135870660F771F881F991F1AF0BA95C9F712C0CF
S1135880B13081F09FD0B1E008959CC0672F782F8C
S11358908827B85F39F0B93FCCF38695779567953B
S11358A0B395D9F73EF490958095709561957F4FA7
S11358B08F4F9F4F0895E89409C097FB3EF490954D
S11358C08095709561957F4F8F4F9F4F9923A9F0D5
S11358D0F92F96E9BB279395F69587957795679564
S11358E0B795F111F8CFFAF4BB0F11F460FF1BC0A8
S11358F06F5F7F4F8F4F9F4F16C0882311F096E93B
S113590011C0772321F09EE8872F762F05C06623E8
S113591071F096E8862F70E060E02AF09A95660FA1
S1135920771F881FDAF7880F9695879597F908955A
S113593097F99F6780E870E060E008959FEF80EC3E
S1135940089500240A9416161706180609060895E1
S113595000240A9412161306140605060895092E47
S11359600394000C11F4882352F0BB0F40F4BF2BB6
S113597011F460FF04C06F5F7F4F8F4F9F4F0895F6
S113598057FD9058440F551F59F05F3F71F04795EC
S1135990880F97FB991F61F09F3F79F087950895D1
S11359A0121613061406551FF2CF4695F1DF08C0F0
S11359B0161617061806991FF1CF8695710561050D
S11359C008940895E894BB2766277727CB0197F9B5
S11359D008950BD0C4CFB5DF28F0BADF18F09523B3
S11359E009F0A6CFABCF1124EECFCADFA0F3959F69
S11359F0D1F3950F50E0551F629FF001729FBB27B2
S1135A00F00DB11D639FAA27F00DB11DAA1F649F5D
S1135A106627B00DA11D661F829F2227B00DA11D10
S1135A20621F739FB00DA11D621F839FA00D611D96
S1135A30221F749F3327A00D611D231F849F600DB7
S1135A40211D822F762F6A2F11249F5750408AF0F0
S1135A50E1F088234AF0EE0FFF1FBB1F661F771F7C
S1135A60881F91505040A9F79E3F510570F060CFB8
S1135A70AACF5F3FECF3983EDCF386957795679564
S1135A80B795F795E7959F5FC1F7FE2B880F911D9A
S1135A909695879597F90895A1E21A2EAA1BBB1B28
S1135AA0FD010DC0AA1FBB1FEE1FFF1FA217B307E6
S1135AB0E407F50720F0A21BB30BE40BF50B661FFC
S1135AC0771F881F991F1A9469F7609570958095C0
S1135AD090959B01AC01BD01CF010895EE0FFF1F0E
S1135AE0881F8BBF0790F691E02D19940F931F9395
S1135AF0CF93DF93869F8001879F100D969F100D93
S1135B001124C8010DD0EC01009721F0A80160E038
S1135B1070E034D1CE01DF91CF911F910F910895A0
S1135B200F931F93CF93DF938230910510F482E09B
S1135B3090E0E0916214F091631420E030E0A0E082
S1135B40B0E0309719F140815181028113814817E7
S1135B505907C8F08417950769F4109731F0129625
S1135B600C93129713961C9327C0009362141093FE
S1135B70631422C02115310519F04217530718F494
S1135B809A01BD01EF01DF01F801DBCF21153105D9
S1135B90F9F0281B390B2430310580F48A819B816C
S1135BA06115710521F0FB019383828304C09093F6
S1135BB0631480936214FE01329644C0FE01E20F26
S1135BC0F31F8193919322503109398328833AC07A
S1135BD02091601430916114232B41F4209102022E
S1135BE030910302309361142093601420910002D9
S1135BF0309101022115310541F42DB73EB7409192
S1135C00040250910502241B350BE0916014F091BD
S1135C106114E217F307A0F42E1B3F0B2817390772
S1135C2078F0AC014E5F5F4F2417350748F04E0FF4
S1135C305F1F50936114409360148193919302C049
S1135C40E0E0F0E0CF01DF91CF911F910F91089533
S1135C50CF93DF93009709F481C0FC01329713823C
S1135C601282A0916214B0916314109781F4208180
S1135C703181820F931F2091601430916114281791
S1135C80390751F5F0936114E093601467C0ED0196
S1135C9020E030E0CE17DF0740F44A815B819E01AB
S1135CA041155105F1F0EA01F5CFD383C283408158
S1135CB05181840F951FC817D90759F48881998198
S1135CC0840F951F0296918380838A819B8193839D
S1135CD082832115310529F4F0936314E09362144F
S1135CE03DC0E901FB83EA8349915991C40FD51F53
