S011000053656D6573746572342E7372656397
S1130000E5C0000004C1000002C1000000C10000FE
S1130010FEC00000FCC00000FAC00000F8C00000F0
S1130020F6C00000F4C00000F2C00000F0C0000000
S11300305CC60000ECC00000EAC00000E8C000009C
S1130040E6C00000E4C00000E2C00000E0C0000020
S1130050DEC00000DCC00000DAC00000D8C0000030
S1130060D6C000000C948E270C94E027D0C000006A
S1130070CEC00000CCC00000CAC00000C8C0000050
S1130080C6C00000C4C00000C2C00000C0C0000060
S11300900C9424280C947628BAC000000C942E2CBE
S11300A0B6C00000B4C00000B2C00000B0C0000080
S11300B0AEC00000ACC00000AAC00000A8C0000090
S11300C0A6C00000A4C00000A2C000000C94BA287E
S11300D00C940C299CC000000C9450290C94A22967
S11300E096C00000491C491C491C801C881C9D1C8E
S11300F0491C491C801C881C502CC02CC02CC02CB2
S1130100C02CC02CC02CC02C502CC02CC02CC02CFB
S1130110C02CC02CC02CC02C522CC02CC02CC02CE9
S1130120C02CC02CC02CC02CC02CC02CC02CC02C6B
S1130130C02CC02CC02CC02C522CC02CC02CC02CC9
S1130140C02CC02CC02CC02CC02CC02CC02CC02C4B
S1130150C02CC02CC02CC02CBC2CC02CC02CC02C3F
S1130160C02CC02CC02CC02C872CC02CC02CC02C64
S1130170C02CC02CC02CC02CC02CC02CC02CC02C1B
S1130180C02CC02CC02CC02C7B2CC02CC02CC02C50
S1130190C02CC02CC02CC02C9F2C0E948A0E809195
S11301A04516823008F0DBD40E94C61CF6CFCF93EC
S11301B0DF931F92CDB7DEB7CE0101960E94C61918
S11301C049810E94BB1B0E94121CF6CF11241FBE42
S11301D0CFEFD1E2DEBFCDBF00E00CBF19E0A0E05D
S11301E0B2E0ECEBF7E600E00BBF02C007900D9223
S11301F0A436B107D9F728E1A4E6B9E001C01D92FD
S1130200AF3CB207E1F70E9441200C94DC33F8CEF6
S11302100F931F93CF93DF9300D000D0CDB7DEB7F9
S113022000E010E013C0B801660F771F81E090E092
S11302308C0F9D1F680F791F2FEF3FEFA90180914D
S1130240B9189091BA1870D70F5F1F4F033011057A
S113025054F389819A810E94D01E8B819C810E94D3
S1130260D51E8D819E810E94CB1E60E08091B918BD
S11302709091BA1814D626960FB6F894DEBF0FBE26
S1130280CDBFDF91CF911F910F910895CC24CA94D3
S1130290DC2C760101E021E043E050E060E070E016
S11302A08091C1189091C21805D1DC01CB018370F3
S11302B09927AA27BB270397A105B105B1F48FE6B7
S11302C092E00E94D130A4DF6AEB70E080E090E01D
S11302D00E94561200E020E030E0A90160E070E0E6
S11302E08091BD189091BE1852D663E070E080E012
S11302F090E00E945612CACFEF92FF920F93E12C26
S1130300F12C01E020E030E040EC50E062E872E0E3
S113031086E491E00E94510F0F91FF90EF900895B1
S11303200F93CF93DF931F921F92CDB7DEB79A83BB
S1130330898300E02FEF3FEFA901BE016F5F7F4F7C
S11303408091B9189091BA1822D641E050E060E04B
S113035070E08091C1189091C2184CD10F900F9009
S1130360DF91CF910F91089583E00C94C0250895F7
S11303700E94EA2580939718882321F08AE892E066
S11303800C94D1300895CC24CA94DC2C760101E07D
S113039020E042E050E060E070E08091C11890916C
S11303A0C21888D061FDE4DF6EE170E080E090E087
S11303B00E945612E8CFEF92FF920F93D5DF80E9A7
S11303C091E00E94E525E12CF12C01E020E030E0F1
S11303D040EC50E061EA72E083EC91E00E94510F3E
S11303E00F91FF90EF9008950F938CE980939A18E2
S11303F043E060E081E0A8D5909399188093981821
S113040000E020E030E0A90160E070E0C0D50F9189
S113041008950F93CF93C82F4FEF5FEFBA018091E8
S113042098189091991812D7813069F4C0939A184A
S113043000E020E030E0A90160E070E080919818CD
S113044090919918A4D5CF910F9108950F9301110C
S11304500CC0DC01CB0182239323A423B523892B75
S11304608A2B8B2B79F480E010C0DC01CB01822332
S11304709323A423B523281739074A075B0721F0E0
S113048080E003C081E001C081E00F910895CF9323
S1130490DF938FE090E0AFD1EC01009739F0FC01DD
S11304A01192119211921192CF018BD2CE01DF9150
S11304B0CF9108952F923F924F925F926F927F92C5
S11304C08F929F92AF92BF92CF92DF92EF92FF9260
S11304D00F931F93CF93DF93EC014A015B01622ECC
S11304E0702E0E94D50F288039804A805B80A50138
S11304F09401C201B101AADF8823A1F0662089F129
S1130500D501C40180959095A095B0958221932141
S1130510A421B52188839983AA83BB83C12CD12CC0
S1130520760122C0C114D104E104F104E9F06110A0
S113053004C040E050E0BA0104C040E050E060E094
S113054071E071107460482959296A297B2997013F
S11305508601CE0104960E94ED12212C312C21013A
S113056003C0C12CD12C76010E941511CD28CE28B0
S1130570CF2859F1811101C0F2D20E94AF166B014C
S11305807C0191FD1FC00FB6F8940F92C880D980EA
S1130590EA80FB80072DA5019401C701B60156DF4F
S11305A0882371F0662061F080949094A094B094B4
S11305B08C209D20AE20BF2088829982AA82BB8293
S11305C00F900FBE160127015524C201B101DF911E
S11305D0CF911F910F91FF90EF90DF90CF90BF903C
S11305E0AF909F908F907F906F905F904F903F90CF
S11305F02F9008954F925F926F927F92AF92BF9225
S1130600CF92DF92EF92FF920F931F93CF93DF93DA
S1130610EC016A017B018C01095F1F4F0E94D50F19
S1130620EB85FC8588819981AA81BB81C82AD92A56
S1130630EA2AFB2AC882D982EA82FB82C12CD12C05
S113064076013DC0A480B58080819181A281B3816F
S1130650AC01BD017727B2FD0EC0488059806A8085
S11306607B80442255226622772245284628472843
S113067089F420E012C0488059806A807B8044223B
S1130680552266227722441555056605770521F023
S113069020E003C021E001C021E0222371F0B0FF7B
S11306A004C0C42AD52AE62AF72A488159816A81D6
S11306B07B817260CF010E942814EA2DFB2DE01784
S11306C0F10709F0BFCFC094D094E094F0948881EE
S11306D09981AA81BB81C822D922EA22FB22C8823D
S11306E0D982EA82FB820E941511688179818A810C
S11306F09B81DF91CF911F910F91FF90EF90DF903D
S1130700CF90BF90AF907F906F905F904F9008957F
S1130710E0E7F9E0A4E7B9E0B183A0831382128291
S1130720E0EFF5E1F0936F09E0936E091382128212
S1130730118210828CE79CE013969C938E931297FF
S1130740ED93FC9390936B0980936A0990936D09E0
S113075080936C0980E090E8909365098093640924
S11307600895CF93DF93EC01A0E7B9E001C0DF0166
S1130770ED91FC911197EC17FD07C8F312968D913A
S11307809C9113979D01280F391FC217D30749F471
S11307902A813B81820F931F13969C938E93129709
S11307A0ED018A819B819E01280F391FE217F3070F
S11307B0C1F420916E0930916F09E217F30771F0CB
S11307C022813381820F931F9B838A83ED91FC9155
S11307D01197808191819983888305C03983288307
S11307E002C0F983E883CA17DB0711F0CD93DC93C9
S11307F0DF91CF910895EF92FF920F931F93CF93C0
S1130800DF938C010E94D50F80916E0990916F093E
S1130810892B09F47DDF8091640990916509802317
S11308209123892B09F076C00115110549F0C801FF
S113083004960817190718F000E010E001C08C01B5
S11308400115110509F469C080916C0990916D0935
S11308508017910708F464C0C0917009D0917109A0
S1130860E0E7F9E002C0FE01EC018A819B81801778
S1130870910720F4888199810097A9F780916E09E6
S113088090916F09C817D90709F44DC0E080F18031
S113089084E0E80EF11C88819981918380832A8108
S11308A03B81201B310B2930310548F0CE01800FEC
S11308B0911FFC01338322831B830A8352DF2A8125
S11308C03B8180916C0990916D09821B930B9093ED
S11308D06D0980936C0940916A0950916B098417E2
S11308E0950720F490936B0980936A0980916409B9
S11308F090916509282B392B3B832A83198218820E
S1130900809168099091690901969093690980938F
S113091068090BC0E12CF12C08C0E12CF12C05C0B6
S1130920E12CF12C02C0E12CF12C0E941511E114F0
S1130930F10411F40E94D21CC701DF91CF911F91E1
S11309400F91FF90EF9008950F931F93CF93DF9330
S1130950009791F1EC0124974A815B81209164090D
S113096030916509BA0162237323672B29F16881E9
S11309707981672B09F520953095242335233B8312
S11309802A830E94D50F8A819B8120916C09309122
S11309906D09820F931F90936D0980936C09CE01AA
S11309A0E0DE80916609909167090196909367094A
S11309B0809366090E941511DF91CF911F910F91C9
S11309C00895FC010396928381834FEF5FEFBA0190
S11309D04383548365837683908787839287818753
S11309E010820895FC011386128608950F931F93B5
S11309F0CF93DF93EB01088119812A813B810F3F5B
S1130A004FEF14072407340721F4FC01A185B285B4
S1130A1011C0DC01139601C0DF011496ED91FC9125
S1130A201597408151816281738104171507260748
S1130A30370790F71496ED91FC911597FD83EC839D
S1130A40D783C683BF83AE831596DC93CE93149766
S1130A509B878A87FC0120812F5F2083DF91CF91C0
S1130A601F910F910895CF93DF93FC01A285B38565
S1130A70C481D581868197819F838E83C681D781E6
S1130A80848195819D838C8311968D919C9112977D
S1130A90E817F90731F48681978112969C938E9317
S1130AA01197138612868C9181508C938C91DF91CF
S1130AB0CF910895A89590EC88E10FB6F894A89585
S1130AC0809360000FBE909360000895FC016083E2
S1130AD0319770833197108231971082319720E8D3
S1130AE02083319710823197108231971082779743
S1130AF040833197508386970895DCDFA091B31625
S1130B00B091B416CD91CDBFDD91DEBFFF91EF91D1
S1130B10DF91CF91BF91AF919F918F917F916F9111
S1130B205F914F913F912F911F910F91FF90EF9003
S1130B30DF90CF90BF90AF909F908F907F906F90F9
S1130B405F904F903F902F901F900F900CBE0F908E
S1130B500BBE0F900FBE0F90089581E008950F9281
S1130B600FB6F8940F920BB60F920CB60F921F9219
S1130B7011242F923F924F925F926F927F928F92A5
S1130B809F92AF92BF92CF92DF92EF92FF920F9318
S1130B901F932F933F934F935F936F937F938F9301
S1130BA09F93AF93BF93CF93DF93EF93FF93A09162
S1130BB0B316B091B4160DB60D920EB60D920E94F6
S1130BC07112A091B316B091B416CD91CDBFDD9141
S1130BD0DEBFFF91EF91DF91CF91BF91AF919F91D4
S1130BE08F917F916F915F914F913F912F911F91C1
S1130BF00F91FF90EF90DF90CF90BF90AF909F90B8
S1130C008F907F906F905F904F903F902F901F90A8
S1130C100F900CBE0F900BBE0F900FBE0F90089557
S1130C200F920FB6F8940F920BB60F920CB60F9268
S1130C301F9211242F923F924F925F926F927F9254
S1130C408F929F92AF92BF92CF92DF92EF92FF92D8
S1130C500F931F932F933F934F935F936F937F93C0
S1130C608F939F93AF93BF93CF93DF93EF93FF93B0
S1130C70A091B316B091B4160DB60D920EB60D92A6
S1130C8013BE0E94E90F81110E947112A091B31644
S1130C90B091B416CD91CDBFDD91DEBFFF91EF9140
S1130CA0DF91CF91BF91AF919F918F917F916F9180
S1130CB05F914F913F912F911F910F91FF90EF9072
S1130CC0DF90CF90BF90AF909F908F907F906F9068
S1130CD05F904F903F902F901F900F900CBE0F90FD
S1130CE00BBE0F900FBE0F9008959ADF1895DC018C
S1130CF053962C915397222341F05A96ED91FC91EF
S1130D005B9790818AE0891B089580E008950FB66F
S1130D10F8940F92FC01868D811102C081E001C01C
S1130D2080E00F900FBE08950FB6F8940F92FC0167
S1130D30268D878D281302C081E001C080E00F90CA
S1130D400FBE08950F931F93CF93DF93EC01042FED
S1130D501E8D48A141110CC088819981892B09F00D
S1130D6042C08C819D810E94ED151D821C8242C06F
S1130D70011117C050E08A819B810E945F3028A135
S1130D808A819B81820F911D9B838A832C813D8163
S1130D908217930750F1888199819B838A8380E02D
S1130DA029C050E08E819F810E945F3088A190E02D
S1130DB09195819591092E813F81280F391F3F8399
S1130DC02E83488159812417350730F42C813D81C5
S1130DD0820F931F9F838E83023049F4112349F0BD
S1130DE0115080E007C080E005C080E003C080E0CF
S1130DF001C080E01F5F1E8FDF91CF911F910F9183
S1130E000895FC0140A14423A9F050E026813781D4
S1130E10240F351F3783268384819581281739074A
S1130E2020F08081918197838683CB0166817781CD
S1130E300C945F3008951F93CF93DF93EC010FB6AA
S1130E40F8940F921AA10BC08B89882351F0CE011C
S1130E5043960E94791381110E944F151150111667
S1130E609CF38FEF8AA30F900FBE0FB6F8940F92E6
S1130E7019A10BC08885882351F0CE0108960E94E1
S1130E80791381110E944F15115011169CF38FEFA5
S1130E9089A30F900FBEDF91CF911F910895CF9337
S1130EA0DF93EC010FB6F8940F92E881F9818F8DEE
S1130EB028A190E030E0829FA001839F500D929F73
S1130EC0500D11244E0F5F1F5D834C831E8EFB83D8
S1130ED0EA830197289FA001299F500D389F500D48
S1130EE01124CF01840F951F9F838E838FEF89A3D5
S1130EF08AA361110BC08885882371F0CE010896FE
S1130F000E947913882341F02ADE06C0CE01089698
S1130F1058DDCE01439655DD0F900FBE81E0DF9181
S1130F20CF9108950F931F93F801611103C01183AA
S1130F30008302C051834083878F60A361E0CF01A7
S1130F40AEDF1F910F910895DF92EF92FF920F93FE
S1130F501F93CF93DF93F82EE62ED42E869FC001E5
S1130F601124839648DCEC01009741F08C012D2D6F
S1130F70AC014D5D5F4F6E2D8F2DD4DFCE01DF911F
S1130F80CF911F910F91FF90EF90DF900895CF9232
S1130F90DF92EF92FF920F931F93CF93DF93CDB71E
S1130FA0DEB729970FB6F894DEBF0FBECDBF7C0124
S1130FB06B012E833F834887598710E00FB6F8945E
S1130FC00F92F701968D878D981710F00230B1F4C7
S1130FD0402FB601C701B6DEF7019389992341F08A
S1130FE0C70143960E947913882321F0B8DD02C01B
S1130FF08111B5DD0F900FBE81E04CC08E819F81C1
S1131000A885B985892B8A2B8B2B21F40F900FBED1
S113101080E040C0111105C0CE0101960E94D81491
S113102011E00F900FBEC1D70FB6F8940F92F701DD
S113103081A18F3F09F411A2F70182A18F3F09F426
S113104012A20F900FBEBE016A5F7F4FCE010196C0
S11310500E94E914811119C0C70166DE882381F05A
S11310604E815F8168857985C70108960E94D612F2
S1131070C701E1DE0E9415118111A0CF70DD9ECF62
S1131080C701D9DE0E94151199CFC701D4DE0E9491
S1131090151180E029960FB6F894DEBF0FBECDBFC0
S11310A0DF91CF911F910F91FF90EF90DF90CF9040
S11310B00895EF92FF920F931F93CF93DF938A01CA
S11310C0FC01568D378D531710F02230F9F4422F5E
S11310D07801EC011AA18E8DCE0134DE1F3F81F41C
S11310E08B898823A9F0CE0143960E947913882323
S11310F089F0E114F10481F081E0F70180830DC0EF
S1131100FF24F394F10EFAA281E007C080E005C049
S113111081E003C081E001C081E0DF91CF911F91A4
S11311200F91FF90EF900895CF92DF92EF92FF928C
S11311300F931F93CF93DF93CDB7DEB729970FB6E5
S1131140F894DEBF0FBECDBF8C016B012E833F83AD
S113115048875987E12C0FB6F8940F92F801F68C62
S1131160FF2099F0B601C8014CDEFA94F801F68E1E
S11311708085882331F0C80108960E947913811173
S1131180EEDC0F900FBE81E052C08E819F81A88556
S1131190B985892B8A2B8B2B21F40F900FBE80E00D
S11311A046C0E11006C0CE0101960E94D814EE2478
S11311B0E3940F900FBEF9D60FB6F8940F92F8018E
S11311C081A18F3F09F411A2F80182A18F3F09F494
S11311D012A20F900FBEBE016A5F7F4FCE0101962F
S11311E00E94E914811119C0C80191DD882381F09E
S11311F04E815F8168857985C80143960E94D61225
S1131200C80119DE0E9415118111A5CFA8DCA3CF56
S1131210C80111DE0E9415119ECFC8010CDE0E9488
S11312201511C80174DD882309F495CF80E029964F
S11312300FB6F894DEBF0FBECDBFDF91CF911F91E3
S11312400F91FF90EF90DF90CF900895EF92FF926F
S11312500F931F93CF93DF93CDB7DEB729970FB6C4
S1131260F894DEBF0FBECDBF8C014E835F836887C9
S11312707987E12CF12C0FB6F8940F92F801868D42
S11312808823C9F08150868F80819181892B29F42C
S11312900E94D916F80195838483F80180858823F8
S11312A031F0C80108960E947913811158DC0F901F
S11312B00FBE81E06FC08E819F81A885B985892B7F
S11312C08A2B8B2B21F40F900FBE80E063C0F110AA
S11312D006C0CE0101960E94D814FF24F3940F9007
S11312E00FBE63D60FB6F8940F92F80181A18F3F19
S11312F009F411A2F80182A18F3F09F412A20F9000
S11313000FBEBE016A5F7F4FCE0101960E94E914B1
S1131310811126C0C801FBDC8823F1F0F80180812B
S11313209181892B51F40FB6F8940F9284819581A1
S11313300E946615E82E0F900FBE4E815F8168856E
S11313407985C80143960E94D612C80174DD6DD711
S1131350811191CF04DC8FCFC8016DDD66D78BCFAF
S1131360C80169DD62D7C801D2DC882309F483CFC0
S1131370EE2079F00FB6F8940F92C801B8DC682F0C
S1131380F801848195810E9448160F900FBE80E079
S113139001C080E029960FB6F894DEBF0FBECDBF22
S11313A0DF91CF911F910F91FF90EF900895CF930C
S11313B0DF93EC010FB6F8940F9289A18F3F09F4E3
S11313C019A28AA18F3F09F41AA20F900FBE8E8D25
S11313D0811104C0CE0143960E943713CE012BDD48
S11313E0DF91CF910895FC0144815581228133819D
S11313F0240F351F80819181B901681B790BCB01C2
S11314006417750710F0841B950B08950F93FC0166
S11314108FE0DF011D928A95E9F77587648755830C
S113142044833783268306870F910895AF92BF9232
S1131430CF92DF92EF92FF920F931F93CF93DF939C
S11314406C015B017A01FC01C281D38104811581A5
S11314500C1B1D0B4017510708F48A01F601848503
S11314609585A801B5018C0F9D1F0E945F300E1554
S11314701F0558F4A701401B510BB501600F711FE4
S1131480F601848595850E945F30CE018E0D9F1DE7
S1131490F601248135818217930710F0821B930B88
S11314A0F60193838283C701DF91CF911F910F913E
S11314B0FF90EF90DF90CF90BF90AF900895CF92C0
S11314C0DF92EF92FF920F931F93CF93DF931F92BC
S11314D01F92CDB7DEB77C016B015A834983211576
S11314E03105C1F0FC01868580FD08C04217530711
S11314F008F49A013A83298381E00FC02017310749
S113150058F042E050E0BE016F5F7F4FC7018EDFAD
S113151081E003C080E001C080E0882331F049818C
S11315205A81B601C70182DF02C080E090E00F90CB
S11315300F90DF91CF911F910F91FF90EF90DF906B
S1131540CF900895AF92BF92CF92DF92EF92FF9225
S11315500F931F93CF93DF937C015B01E901421743
S1131560530708F4EA01209781F1F7010081118102
S113157084819581801B910B6E018C179D0708F463
S11315806C01F70164857585600F711FA601C501A3
S11315900E945F30CC16DD0658F4AE014C195D098B
S11315A0F70164857585C5018C0D9D1D0E945F3012
S11315B00C0F1D1FF701848195810817190710F07E
S11315C0081B190BF70111830083CE01DF91CF9122
S11315D01F910F91FF90EF90DF90CF90BF90AF904D
S11315E008956F927F928F929F92AF92BF92CF9203
S11315F0DF92EF92FF920F931F93CF93DF931F928B
S11316001F92CDB7DEB76C014B015A017901011568
S11316101105B1F0FC0160807180A801BE016F5F0B
S11316207F4F90DF89819A81E01AF10AA816B906E2
S113163030F4F60171826082A12CB12C01C05C01EE
S11316409701A501B401C6017DDF0F900F90DF91D2
S1131650CF911F910F91FF90EF90DF90CF90BF90AB
S1131660AF909F908F907F906F900895CF92DF926C
S1131670EF92FF920F93CF93DF93EC016B01413014
S113168011F401E001C000E0C114D10419F4CC2428
S1131690C394D12CCE014096C817D90720F42196C3
S11316A0AAD87C0102C0E12CF12CE114F10439F038
S11316B09601AE01B701615F7F4FC701A7DEC70185
S11316C0DF91CF910F91FF90EF90DF90CF9008952D
S11316D00F930FB6F8940F92FC0120853185232BCC
S11316E071F422853385232B61F42681378144816B
S11316F0558164857585068589DE81E003C080E0B7
S113170001C080E00F900FBE0F910895FC01248169
S1131710358180819181820F931F42815381841B83
S1131720950B01978217930710F0821B930B089572
S11317302F923F924F925F926F927F928F929F92DD
S1131740AF92BF92CF92DF92EF92FF920F931F93CB
S1131750CF93DF93CDB7DEB72B970FB6F894DEBFE8
S11317600FBECDBF4C017B876A871A010E831F838E
S113177028873987FC01848195810197268520FF7C
S11317800CC02A01F2E04F0E511C8415950558F443
S11317901E821F821886198606C08417950710F0CA
S11317A02A0101C02C018E819F81A885B985892BCE
S11317B08A2B8B2B09F438C0CE0101960E94C214E7
S11317C00FB6F8940F92C401A1DF3C01841595056E
S11317D040F560E080E090E00E94AC190E9453154F
S11317E0F401938782870F900FBEAE80BF80C884B8
S11317F0D984E12CF12C00E010E0980140E050E0A5
S1131800BA0180E00E94EB16F40113861286BE0131
S11318106A5F7F4FCE0101960E94E914882381F20A
S113182005C00F900FBE02C0612C712C61147104AD
S113183019F4C4016BDF3C0182019301A1016A85A3
S11318407B85C4013CDE6C01892BE9F0C401CBDD4E
S1131850F4012681378182179307A8F0A6D3F401F7
S113186080859185892B71F080859185E12CF12CFF
S113187000E020E030E0A90160E00E949317F40149
S113188011861086D2D4C6012B960FB6F894DEBF0B
S11318900FBECDBFDF91CF911F910F91FF90EF90BD
S11318A0DF90CF90BF90AF909F908F907F906F907C
S11318B05F904F903F902F900895AF92BF92CF9238
S11318C0DF92EF92FF920F931F93CF93DF93EC017C
S11318D07B015A0169018E8580FF04C08A010E5F75
S11318E01F4F01C08A01CE0111DF9C01A501B70180
S11318F0CE01E5DD5C01892BC1F0CE0174DD2E81C2
S11319003F818217930788F088859985892B69F030
S113191088859985E12CF12C00E020E030E0A901D4
S113192060E00E948A1819861886C501DF91CF915C
S11319301F910F91FF90EF90DF90CF90BF90AF90E9
S113194008954F925F926F927F928F929F92AF927F
S1131950BF92CF92DF92EF92FF920F931F93CF9398
S1131960DF93EC012B013A01580169018E8580FF58
S113197005C06894882481F8912C02C0812C912C94
S1131980A114B104C104D10441F10FB6F8940F922B
S1131990CE0129DD7C018816990648F060E080E0DC
S11319A090E00E94AC190E945315998788870F9084
S11319B00FBE8E149F04A0F0E12CF12C00E010E087
S11319C0980140E050E0BA0180E00E94EB161986CD
S11319D01886CE0108DD7C0103C0CE0104DD7C0144
S11319E08E149F04E8F484019701A301B201CE018F
S11319F0F8DD6C01892BB1F0D8D28A859B85892BBF
S1131A0069F08A859B85E12CF12C00E020E030E030
S1131A10A90160E00E9493171B861A8606D402C0AF
S1131A20C12CD12CC601DF91CF911F910F91FF9052
S1131A30EF90DF90CF90BF90AF909F908F907F906A
S1131A406F905F904F900895CF93DF93FC012685AC
S1131A5020FF03C0C2E0D0E002C0C0E0D0E056DE08
S1131A60C817D90710F081E001C080E0DF91CF9161
S1131A700895E0912D16F0912E16808181110CC0ED
S1131A808FEF9FEFDC018093F7159093F815A093E7
S1131A90F915B093FA150895E0912D16F0912E16CC
S1131AA00780F085E02D80819181A281B3818093AC
S1131AB0F7159093F815A093F915B093FA150895B6
S1131AC0CF93DF93EC018B8D9C8D0E94A404CE01F7
S1131AD00E94A404DF91CF9108954F925F926F9278
S1131AE07F928F929F92AF92BF92CF92DF92EF92AA
S1131AF0FF920F93CF93DF932C015B014A013901CD
S1131B00E60165EA70E08B8D9C8D0E9468308B8DB8
S1131B109C8D21E0821A9108880E991EA114B104AB
S1131B2089F415C0822F90E0F501E80FF91F308188
S1131B30DE01A80FB91F5D963C938081882329F0AC
S1131B402F5F01C020E0203168F31CA601C01D8E68
S1131B500A3008F009E00A8F0DA71EA6CE010296EE
S1131B600E94F204CE010E960E94F204DB87CA871B
S1131B708AE090E0A0E0B0E0801B9109A109B109DE
S1131B808E879F87A88BB98BDF8BCE8B84E0FE0179
S1131B90BF96DF011D928A95E9F71BAAA301B20142
S1131BA0C4010E94660599838883E114F10419F045
S1131BB0F701D183C083DF91CF910F91FF90EF9014
S1131BC0DF90CF90BF90AF909F908F907F906F9059
S1131BD05F904F900895CF93C0E009C02BE0C29F5F
S1131BE0C00111248B5B994E0E94E104CF5FCA307F
S1131BF0A8F38AE396E10E94E1048FE296E10E9451
S1131C00E10480E296E10E94E10485E196E10E940C
S1131C10E10489E096E10E94E1048AE396E190936D
S1131C202E1680932D168FE296E190932C168093B6
S1131C302B16CF910895CF93DF93EC010FB6F89450
S1131C400F92809108168F5F809308168091B316C7
S1131C509091B416892B51F4D093B416C093B31653
S1131C6080910816813091F4B6DF10C0809102167D
S1131C7081110CC0E091B316F091B416928D8A8D47
S1131C80891720F0D093B416C093B3168091FB1536
S1131C908F5F8093FB15EA8D809103168E1710F4E5
S1131CA0E09303168BE08E9FF0011124EB5BF94E59
S1131CB00180F281E02DFF83EE832681378139870D
S1131CC02887A681B7819E012E5F3F4F15963C93CE
S1131CD02E93149737832683EA8D8E9FF001112467
S1131CE0EB5BF94EFD87EC8780818F5F80830F90DB
S1131CF00FBE80910216882351F0E091B316F09143
S1131D00B416928D8A8D981710F40E94AF05DF9156
S1131D10CF910895CF93DF931BC00FB6F8940F9221
S1131D20E0911C16F0911D16C085D185CE01029656
S1131D300E94330580910816815080930816809183
S1131D4014168150809314160F900FBECE01B8DE86
S1131D50809114168111E1CFDF91CF9108958F9274
S1131D609F92AF92BF92CF92DF92EF92FF92CF9366
S1131D70DF936B017C01C42F8090041690900516AC
S1131D80A0900616B09007168091B3169091B416E1
S1131D9002960E9433058FEFC816D806E806F806A7
S1131DA0B1F5CC23A1F1E9E0F6E1A181B281C091C2
S1131DB0B316D091B416BF83AE83C091B316D0913D
S1131DC0B41616968D919C911797998788871696C5
S1131DD0CD91DC9117978091B3169091B416029629
S1131DE09D838C838091B3169091B41602961796B6
S1131DF09C938E931697A091B316B091B4161D962A
S1131E00FC93EE931C9780818F5F80833FC0C80C46
S1131E10D91CEA1CFB1CE091B316F091B416C282E3
S1131E20D382E482F582C814D904EA04FB0468F47A
S1131E306091B3167091B41680912B1690912C1664
S1131E406E5F7F4F0E94F60421C06091B3167091BB
S1131E50B41680912D1690912E166E5F7F4F0E94BE
S1131E60F6048091F7159091F815A091F915B091A9
S1131E70FA15C816D906EA06FB0640F4C092F7150F
S1131E80D092F815E092F915F092FA15DF91CF91FE
S1131E90FF90EF90DF90CF90BF90AF909F908F9086
S1131EA008952F923F924F925F926F927F928F92FA
S1131EB09F92AF92BF92CF92DF92EF92FF920F93D5
S1131EC0CF93DF933C011B014A012901CA010E94FF
S1131ED0FB036C01892B71F084E390E00E94FB0307
S1131EE0EC01892B19F0DC8ECB8E06C0C6010E9452
S1131EF0A40402C0C0E0D0E0209761F0A12CB12C72
S1131F006E019201A401B101C301E7DDCE0193DEAC
S1131F1081E001C08FEFDF91CF910F91FF90EF909F
S1131F20DF90CF90BF90AF909F908F907F906F90F5
S1131F305F904F903F902F900895EF92FF920F93F0
S1131F400F2EF5EFEF2EF5E1FF2EF02D00E020E04F
S1131F5030E040EC50E069EA72E08DEC90E0A1DF03
S1131F60813011F40E94501A8130C9F4F8948FEF33
S1131F709FEFDC018093F7159093F815A093F91562
S1131F80B093FA1581E08093021610920416109211
S1131F90051610920616109207160E947D05809170
S1131FA006020F91FF90EF9008958091F4158F5FD2
S1131FB08093F41508950FB6F8940F926091041667
S1131FC07091051680910616909107160F900FBE1A
S1131FD00895CF92DF92EF92FF92CF93DF93809197
S1131FE0F415811105C1C0900416D0900516E09037
S1131FF00616F09007168FEFC81AD80AE80AF80AEE
S1132000C0920416D0920516E0920616F0920716B6
S1132010C114D104E104F104B1F480912D1690911E
S11320202E1620912B1630912C1630932E162093B9
S11320302D1690932C1680932B168091FC158F5F90
S11320408093FC1516DD8091F7159091F815A091F9
S1132050F915B091FA15C816D906EA06FB0620F45C
S113206080E0B2C081E001C080E0E0912D16F091E3
S11320702E16908191110CC04FEF5FEFBA0140937F
S1132080F7155093F8156093F9157093FA159CC0E1
S1132090E0912D16F0912E160780F085E02D008436
S11320A0F185E02D4281538164817581C416D50682
S11320B0E606F70648F44093F7155093F815609335
S11320C0F9157093FA1580C0A485B585C681D781AA
S11320D0208531853F832E83C085D1852681378134
S11320E03D832C8311964D915C9112979F012E5F35
S11320F03F4F4217530731F44085518512965C9344
S11321004E931197158614869C9191509C93A08DA3
S1132110B18D109709F1C289D389448955895F83A8
S11321204E83C489D589428953895D834C83119632
S11321306D917C911297AF01425F5F4F64177507F1
S113214031F44489558912965C934E931197118EFC
S1132150108E9C9191509C93A28D909103169A1786
S113216010F4A09303169BE09A9FD0011124AB5B5B
S1132170B94E11960D90BC91A02DB783A6831696E7
S11321804D915C911797518740871696CD91DC91BC
S113219017973D832C8317963C932E931697A28D05
S11321A09A9FD0011124AB5BB94EB587A4879C914B
S11321B09F5F9C93228DE091B316F091B416928D9B
S11321C0291708F04FCF51CFE091B316F091B41610
S11321D0E28D9BE0E99FF0011124EB5BF94E9081C5
S11321E0923008F081E09091FD15911116C016C04F
S11321F08091FE159091FF15A0910016B0910116E3
S11322000196A11DB11D8093FE159093FF15A09317
S11322100016B093011680E001C081E0DF91CF91F8
S1132220FF90EF90DF90CF900895CF92DF92EF92DE
S1132230FF92CF93DF930FB6F8940F928091F41529
S113224081508093F4158091F4158111BEC0809162
S11322500816811188C0BCC0E0912716F091281699
S11322600084F185E02DA08DB18DC289D389848944
S113227095899F838E83C489D589828993899D8317
S11322808C8311962D913C911297CF010E962817AD
S1132290390731F48489958912969C938E9311970A
S11322A0118E108E8C9181508C93A485B585C68136
S11322B0D781808591859F838E83C085D1858681D2
S11322C097819D838C8311968D919C9112979F0188
S11322D02E5F3F4F8217930731F4808591851296C4
S11322E09C938E931197158614868C9181508C93B0
S11322F0A28D809103168A1710F4A09303168BE025
S11323008A9FD0011124AB5BB94E11960D90BC91FC
S1132310A02DB783A68316964D915C91179751878C
S113232040871696CD91DC9117973D832C831796A1
S11323303C932E931697A28D8A9FD0011124AB5BF8
S1132340B94EB587A4878C918F5F8C93928DA091A1
S1132350B316B091B4165A968C91981730F081E068
S11323608093FD1502C0E0E0F0E080912016811119
S113237073CFEF2B09F07DDBC090FE15D090FF15D5
S1132380E0900016F0900116C114D104E104F104A8
S1132390A1F01FDE882319F081E08093FD1581E010
S11323A0C81AD108E108F108A1F71092FE1510929D
S11323B0FF1510920016109201168091FD158823C6
S11323C031F00E94AF0581E003C080E001C080E0ED
S11323D00F900FBEDF91CF91FF90EF90DF90CF90E1
S11323E008958F929F92AF92BF92CF92DF92EF9215
S11323F0FF921F93CF93DF93EC016A017B01D5DD3C
S11324008090041690900516A0900616B0900716BA
S113241088819981AA81BB81AC01BD014C0D5D1DF0
S11324206E1D7F1D88169906AA06BB0660F4481720
S113243059076A077B0798F484169506A606B7061B
S113244080F010E013C0481759076A077B0758F05B
S113245084169506A606B70640F010E007C010E003
S113246005C011E003C011E001C011E048835983A5
S11324706A837B83112341F0CB01BA01681979097E
S11324808A099B0940E06BDCD0DE811102C00E9406
S1132490AF05812FDF91CF911F91FF90EF90DF90D7
S11324A0CF90BF90AF909F908F900895CF92DF927E
S11324B0EF92FF926B017C01672B682B692B39F03B
S11324C074DD40E0C701B6014ADCAFDE01C080E044
S11324D0811102C00E94AF05FF90EF90DF90CF9072
S11324E008958091F415882321F081E08093FD15EF
S11324F008951092FD15E091B316F091B416208161
S11325003181E091B316F091B416838D948D8217C6
S1132510930760F06091B3167091B416635E7F4FB9
S11325208091B3169091B4160E94DE1C809103161C
S113253001C08150282F30E09BE0929FF001939FCF
S1132540F00D1124EB5BF94E9081992391F39BE0FC
S1132550929FA001939F500D1124DF010180F2810D
S1132560E02D0480F581E02D1296FC93EE931197F3
S1132570485B594EE417F50729F444815581FD0160
S1132580528341839BE0929FF001939FF00D1124AD
S1132590EB5BF94E0180F281E02D2085318530938B
S11325A0B4162093B316809303160895CF92DF9246
S11325B0EF92FF926A017B016091B3167091B41699
S11325C0625F7F4F0E94F60441E0C701B601C7DB9A
S11325D0FF90EF90DF90CF9008950F931F93CF93C8
S11325E0DF93FC01A091B316B091B41670681E96E7
S11325F04D935D936D937C935197A181B281C0916A
S1132600B316D091B416BB8BAA8BC091B316D091DC
S1132610B41616968D919C9117979D8B8C8B16965C
S1132620CD91DC9117978091B3169091B4160E96C4
S11326309D838C838091B3169091B4160E96179651
S11326409C938E931697A091B316B091B416599695
S1132650FC93EE93589780818F5F808341E0C9019A
S1132660B8017DDBDF91CF911F910F910895CF9336
S1132670DF93FC01CB01BA01A181B281C091B316F1
S1132680D091B416BB8BAA8BC091B316D091B4165B
S113269016964D915C9117975D8B4C8B1696CD9148
S11326A0DC9117974091B3165091B416425F5F4F77
S11326B05D834C834091B3165091B416425F5F4FD3
S11326C017965C934E931697A091B316B091B416D7
S11326D05996FC93EE93589730813F5F30832223C1
S11326E019F06FEF7FEFCB01422F39DBDF91CF91F0
S11326F00895CF93DF93DC011796ED91FC91189721
S11327000084F185E02DA08DB18DC289D38984899F
S113271095899F838E83C489D589828993899D8372
S11327208C8311968D919C9112979F01225F3F4F4C
S11327308217930731F48489958912969C938E931A
S11327401197118E108E8C9181508C938091F41579
S1132750811152C0A485B585C681D78180859185B4
S11327609F838E83C085D185868197819D838C8349
S113277011968D919C9112979F012E5F3F4F821766
S1132780930731F48085918512969C938E931197CB
S1132790158614868C9181508C93A28D809103169A
S11327A08A1710F4A09303168BE08A9FD00111249A
S11327B0AB5BB94E11960D90BC91A02DB783A68347
S11327C016964D915C911797518740871696CD9137
S11327D0DC9117973D832C8317963C932E93169781
S11327E0A28D8A9FD0011124AB5BB94EB587A48713
S11327F08C918F5F8C931CC040E256E1DA011196F4
S1132800CD91DC911297D38BC28B8E819F81958B56
S1132810848B8E819F81DC0115963C932E931497B3
S11328203F832E83518F408FDA018C918F5F8C937D
S1132830928DE091B316F091B416828D891720F42D
S113284081E08093FD1501C080E0DF91CF91089570
S1132850CF93DF93DC0170684D935D936D937C930C
S113286013971896ED91FC9119971A964D915C91D6
S11328701B9714968D919C91159716962D913C91CA
S11328801797EC013F832E8316968D919C91179791
S113289014962D913C911597EC013D832C83EA010C
S11328A089819A81A817B90731F416968D919C9164
S11328B017979A8389831B961C921E921A97DA01A2
S11328C08C9181508C93A485B585C681D7818085F0
S11328D091859F838E83C085D185868197819D83D1
S11328E08C8311968D919C9112979F012E5F3F4F7F
S11328F08217930731F48085918512969C938E9369
S11329001197158614868C9181508C93A28D809199
S113291003168A1710F4A09303168BE08A9FD00144
S11329201124AB5BB94E11960D90BC91A02DB783C9
S1132930A68316964D915C911797518740871696FA
S1132940CD91DC9117973D832C8317963C932E935E
S11329501697A28D8A9FD0011124AB5BB94EB5871F
S1132960A4878C918F5F8C93928DE091B316F09134
S1132970B416828D891718F481E08093FD15DF91D8
S1132980CF9108950FB6F8940F922091FC15FC0195
S1132990208340910416509105166091061670919B
S11329A0071641835283638374830F900FBE089587
S11329B02091FC15FC0120834091041650910516CA
S11329C06091061670910716418352836383748362
S11329D008958F929F92AF92BF92CF92DF92EF921F
S11329E0FF920F931F93CF93DF93FB010FB6F894DD
S11329F00F92C0900416D0900516E0900616F09041
S1132A000716DC0111960D911D912D913C9114979F
S1132A1046015701801A910AA20AB30A40815181E2
S1132A20628173814F3FBFEF5B076B077B0739F10F
S1132A30EC01B881A091FC15BA1759F0C016D10663
S1132A40E206F30630F0108211821282138281E0D2
S1132A5017C084169506A606B70658F448195909EE
S1132A606A097B094083518362837383A1DF80E019
S1132A7007C0108211821282138281E001C080E0BB
S1132A800F900FBEDF91CF911F910F91FF90EF90A8
S1132A90DF90CF90BF90AF909F908F90089581E08A
S1132AA08093FD1508958091B3169091B4160895FE
S1132AB080910216882331F08091F415811104C0AD
S1132AC082E0089581E0089580E008950F931F93B4
S1132AD0CF93DF93FC01892B09F477C0828DA091F9
S1132AE0B316B091B4165A969C91891708F063C036
S1132AF04685578560897189772394F0A091B31630
S1132B00B091B4165A969C914AE050E060E070E0AF
S1132B10491B51096109710946875787608B718B7D
S1132B20248535854BE0849FC00111248B5B994E2D
S1132B3028173907B9F5EF018F010E5F1F4FC80140
S1132B400E943305E091B316F091B416E28DEA8F3A
S1132B50809103168E1710F4E09303168BE08E9F7A
S1132B60F0011124EB5BF94E0180F281E02DFF832B
S1132B70EE832681378139872887A681B781159608
S1132B801C930E93149717830683EA8D8E9FF0018E
S1132B901124EB5BF94EFD87EC8780818F5F808386
S1132BA081E016C0A091B316B091B4165A968C91D8
S1132BB0828F81E00DC095A5E091B316F091B41613
S1132BC0828D981720F080E003C080E001C081E08E
S1132BD0DF91CF911F910F9108950F931F93CF937E
S1132BE0DF93FC01892B09F449C086A5815086A78F
S1132BF0228D95A5291709F443C0811143C0EF0123
S1132C008F010E5F1F4FC8010E943305EDA5EA8FA7
S1132C108AE090E0A0E0B0E08E1B9109A109B1091F
S1132C208E879F87A88BB98B809103168E1710F41B
S1132C30E09303168BE08E9FF0011124EB5BF94EB9
S1132C400180F281E02DFF83EE832681378139876D
S1132C502887A681B78115961C930E931497178322
S1132C600683EA8D8E9FF0011124EB5BF94EFD87FC
S1132C70EC8780818F5F808381E005C080E003C0A2
S1132C8080E001C080E0DF91CF911F910F91089502
S1132C900F931F93CF93DF93FC01892B09F45AC040
S1132CA085A5861708F4862F928D891709F452C0DA
S1132CB026A5213009F04EC0828F4685578560894C
S1132CC07189772364F04AE050E060E070E0481BCB
S1132CD051096109710946875787608B718B248577
S1132CE035854BE0949FC00111248B5B994E2817C6
S1132CF0390781F5EF018F010E5F1F4FC8010E9454
S1132D003305EA8D809103168E1710F4E0930316B1
S1132D108BE08E9FF0011124EB5BF94E0180F28170
S1132D20E02DFF83EE832681378139872887A681AA
S1132D30B78115961C930E93149717830683EA8D17
S1132D408E9FF0011124EB5BF94EFD87EC878081A7
S1132D508F5F8083DF91CF911F910F910895CF9260
S1132D60DF92EF92FF92E091B316F091B41666856C
S1132D70778580899189E091B316F091B416A0917A
S1132D80B316B091B4165A962C910F2EFAE0CF2EAA
S1132D90D12CE12CF12CF02DC21AD108E108F10854
S1132DA0C686D786E08AF18AFF90EF90DF90CF90B5
S1132DB008958091B3169091B416892B39F0E0915F
S1132DC0B316F091B41686A58F5F86A78091B316CB
S1132DD09091B41608954F925F926F927F92AF9242
S1132DE0BF92CF92DF92EF92FF920F931F93CF93F4
S1132DF0DF93280139010FB6F8940F92E091B316CE
S1132E00F091B416C82FD0E0EC0FFD1F83A98230D7
S1132E1079F1E091B316F091B416CE01880F991FA1
S1132E20880F991FE80FF91F87A590A9A1A9B2A936
S1132E304095509560957095482359236A237B23C8
S1132E4047A750AB61AB72ABE091B316F091B416E7
S1132E50EC0FFD1F81E083ABA114B104C104D104C4
S1132E6039F041E0C601B5010E94AF0E0E94AF05E2
S1132E700F900FBE0FB6F8940F92E114F104A1F075
S1132E80E091B316F091B416CE01880F991F880F04
S1132E90991FE80FF91F87A590A9A1A9B2A9F70165
S1132EA080839183A283B383E091B316F091B41627
S1132EB0EC0FFD1F83A98230E9F4E091B316F09181
S1132EC0B416CE01880F991F880F991FE80FF91FB8
S1132ED087A590A9A1A9B2A9409450946094709434
S1132EE0482259226A227B2247A650AA61AA72AAC2
S1132EF081E001C080E02091B3163091B416C20F76
S1132F00D31F1BAA0F900FBEDF91CF911F910F917A
S1132F10FF90EF90DF90CF90BF90AF907F906F9035
S1132F205F904F9008958F929F92AF92BF92EF92CD
S1132F30FF920F93CF93DF93DC010FB6F8940F92B7
S1132F40E114F10489F0E62FF0E0EE0FFF1FEE0F1D
S1132F50FF1FE80FF91F87A490A8A1A8B2A8F70142
S1132F6080829182A282B38270E0FD01E60FF71F96
S1132F7083A992E093AB023001F118F4013031F0EF
S1132F804DC0033079F10430D1F148C0660F771F8A
S1132F90660F771FFD01E60FF71F87A490A8A1A86D
S1132FA0B2A8BA01A901482959296A297B2947A746
S1132FB050AB61AB72AB01E034C0660F771F660F94
S1132FC0771FFD01E60FF71F47A550A961A972A954
S1132FD04F5F5F4F6F4F7F4F47A750AB61AB72ABF3
S1132FE001E01FC0660F771F660F771FFD01E60F14
S1132FF0F71F27A730AB41AB52AB01E012C08230C0
S113300079F0660F771F660F771FFD01E60FF71F34
S113301027A730AB41AB52AB01E003C001E001C0D4
S113302000E0813009F069C01C96ED91FC911D9778
S11330301696CD91DC91179718968D919C911997BE
S11330409F838E831896CD91DC91199716968D9156
S11330509C9117979D838C83818192819D012E5F22
S11330603F4F8217930731F418968D919C911997CD
S1133070928381831D961C921E921C97808181509D
S113308080835A96EC915A97809103168E1710F408
S1133090E09303168BE08E9FF0011124EB5BF94E55
S11330A00180F281E02D1796FC93EE9316974681EA
S11330B0578119965C934E931897C681D7813D83A7
S11330C02C83378326835A96EC915A978E9FF0016E
S11330D01124EB5BF94E1D96FC93EE931C978081B3
S11330E08F5F80835A969C91E091B316F091B41649
S11330F0828D891710F40E94AF050F900FBE802FA8
S1133100DF91CF910F91FF90EF90BF90AF909F9080
S11331108F9008958F929F92AF92BF92CF92DF9239
S1133120EF92FF920F93CF93DF93DC01E114F1044C
S113313089F0E62FF0E0EE0FFF1FEE0FFF1FE80F00
S1133140F91F87A490A8A1A8B2A8F7018082918250
S1133150A282B38270E0FD01E60FF71F93A982E01B
S113316083AB023001F118F4013031F04DC003306B
S113317079F10430D1F148C0660F771F660F771FCD
S1133180FD01E60FF71F87A490A8A1A8B2A8BA0171
S1133190A901482959296A297B2947A750AB61AB62
S11331A072AB81E034C0660F771F660F771FFD0195
S11331B0E60FF71F47A550A961A972A94F5F5F4F9A
S11331C06F4F7F4F47A750AB61AB72AB81E01FC01D
S11331D0660F771F660F771FFD01E60FF71F27A7FE
S11331E030AB41AB52AB81E012C0923079F0660F44
S11331F0771F660F771FFD01E60FF71F27A730AB78
S113320041AB52AB81E003C081E001C080E091306A
S113321009F096C09091F41591115FC01C96ED9140
S1133220FC911D971696CD91DC91179718962D91C8
S11332303C9119973F832E831896CD91DC91199771
S113324016962D913C9117973D832C834181528191
S11332509D012E5F3F4F4217530731F418964D914D
S11332605C911997528341831D961C921E921C9760
S11332709081915090835A96EC915A9790910316AD
S11332809E1710F4E09303169BE09E9FF001112417
S1133290EB5BF94E0180F281E02D1796FC93EE93DF
S11332A016974681578119965C934E931897C68159
S11332B0D7813D832C83378326835A96EC915A9782
S11332C09E9FF0011124EB5BF94E1D96FC93EE9347
S11332D01C9790819F5F908321C060E276E1FB019F
S11332E0C181D2815396DC93CE9352972E813F8134
S11332F055963C932E9354974E815F819D01225F96
S11333003F4FFA01358324833F832E8359967C9360
S11333106E935897FB0190819F5F90835A962C91EE
S1133320E091B316F091B416928D921748F4C1143B
S1133330D10419F091E0F601908391E09093FD158A
S1133340DF91CF910F91FF90EF90DF90CF90BF90DE
S1133350AF909F908F900895009721F48091B316B9
S11333609091B4160FB6F8940F9270E0FC01E60F3A
S1133370F71F23A9223031F4FC01E60FF71F13AA2B
S113338081E001C080E00F900FBE0895DC01E09160
S1133390BF16F091C016808191E0811190E09C935A
S11333A0911108C00780F085E02D608171818281D0
S11333B09381089560E070E0CB010895CF92DF928D
S11333C0EF92FF920F931F93FC0142835383648314
S11333D07583938782870417150726073707C0F07C
S11333E00C191D092E093F0986859785A089B18985
S11333F0081719072A073B0700F5BF016E5F7F4FC7
S11334008091BD169091BE160E94F60480E018C00B
S11334100C151D052E053F0528F44C155D056E059C
S11334207F0568F4BF016E5F7F4F8091BF16909156
S1133430C0160E94F60480E003C081E001C081E070
S11334401F910F91FF90EF90DF90CF9008950FB6EA
S1133450F8940F928091BB169091BC16892BE9F4D5
S11334608CEC96E10E94E10481EC96E10E94E10477
S11334708CEC96E19093C0168093BF1681EC96E194
S11334809093BE168093BD1640E067E08AE00E94E8
S1133490A4079093BC168093BB160F900FBE08959B
S11334A0EF92FF920F93D3DF8091BB169091BC16DD
S11334B0892B91F00F2EF9EBEF2EF6E1FF2EF02D74
S11334C003E020E030E040EC50E06EEA72E087ED8B
S11334D090E00E94510F01C080E00F91FF90EF90A7
S11334E008958F929F92AF92BF92CF92DF92EF9204
S11334F0FF920F931F93CF93DF93CDB7DEB7279738
S11335000FB6F894DEBF0FBECDBFE091BB16F091AD
S1133510BC16309781F169832A833B834C835D8396
S11335209F838E836630F4F4C3DA823069F400E05A
S1133530A7019601BE016F5F7F4F8091BB169091EA
S1133540BC160E94C70718C000E020E030E0A901C3
S1133550BE016F5F7F4F8091BB169091BC160E9495
S1133560C7070AC020E0A801BE016F5F7F4FCF01EB
S11335700E94590801C080E027960FB6F894DEBF78
S11335800FBECDBFDF91CF911F910F91FF90EF90B0
S1133590DF90CF90BF90AF909F908F9008958F92BF
S11335A09F92AF92BF92CF92DF92EF92FF920F93CE
S11335B01F93CF93DF933BC00780F085E02D80807D
S11335C09180A280B380C085D1858E010E5F1F4F8C
S11335D0C8010E943305EC89FD89CE0119958E89B5
S11335E082FF25C08E859F85A889B989880D991D7C
S11335F0AA1DBB1D88169906AA06BB0670F48A8309
S11336009B83AC83BD83DB87CA87B8018091BF16D7
S11336109091C0160E94F6040AC0C12CD12C7601E8
S113362000E010E0A501940160E0CE015ADFE091D2
S1133630BF16F091C01680818111BECF8091BD1656
S11336409091BE169093C0168093BF16F093BE1649
S1133650E093BD16DF91CF911F910F91FF90EF90F2
S1133660DF90CF90BF90AF909F908F900895CF92AE
S1133670DF92EF92FF92CF93DF93EC010E94DB0F76
S11336806B017C018091B5169091B616A091B71686
S1133690B091B816C816D906EA06FB0620F47FDFF7
S11336A081E0888301C01882C092B516D092B61604
S11336B0E092B716F092B816C701B601DF91CF9128
S11336C0FF90EF90DF90CF9008954F925F926F92AA
S11336D07F928F929F92AF92BF92CF92DF92EF929E
S11336E0FF920F931F93CF93DF934B015C0129014A
S11336F03A01E091BF16F091C0160780F085E02DE5
S1133700C085D185CE0102960E9433058E8982FF41
S11337101BC04E855F8568897989480D591D6A1DCE
S11337207B1D7501640193018201CE0147DE88236C
S113373069F0C12CD12C760100E010E0A5019401C0
S113374060E0CE01CEDE02C08E7F8E8BEC89FD89D7
S1133750CE011995DF91CF911F910F91FF90EF90BA
S1133760DF90CF90BF90AF909F908F907F906F909D
S11337705F904F9008958F929F92AF92BF92CF9295
S1133780DF92EF92FF921F93CF93DF931F92CDB7F7
S1133790DEB76B017C01142F0E94D50FCE01019678
S11337A066DF4B015C01898181112DC011110DC0AF
S11337B08C149D04AE04BF0440F00E941511A501B1
S11337C09401C701B60181DF20C0112341F0E091CB
S11337D0BD16F091BE16808111E0811110E0B70191
S11337E0A601481959096A097B09212F8091BB1642
S11337F09091BC160E94D7090E941511811105C031
S11338000E94AF0502C00E9415110F90DF91CF9165
S11338101F91FF90EF90DF90CF90BF90AF909F905B
S11338208F900895AF92BF92CF92DF92EF92FF9262
S11338300F931F93CF93DF93CDB7DEB728970FB6BF
S1133840F894DEBF0FBECDBF82C0898188230CF4FB
S11338507EC0AE80BF80D5011C968D919C911D9732
S1133860892B21F0C50102960E943305CE010896EA
S1133870FEDE8B019C01E9810E2E000CFF0BEA3069
S1133880F10508F064C08827EE58FF4F8F4F0C9461
S1133890182FF50186898160868BCA80DB80EC80D5
S11338A0FD8046855785608971894C0D5D1D6E1DAF
S11338B07F1DC50183DD882309F449C0D5015496D1
S11338C0ED91FC915597C5011995F501868982FF03
S11338D03EC04A815B816C817D8186859785A08904
S11338E0B1899A01AB01280F391F4A1F5B1FC12CF4
S11338F0D12C760100E010E060E0C501F2DD27C0C4
S1133900D50156968C9156978E7F56968C931FC0F0
S1133910F50186898160868B4A815B816C817D811A
S113392046875787608B718B400F511F621F731F2F
S113393068017901C50142DD0AC0F501868981FD6E
S113394004C0C5010E94A40402C08E7F868B20E0BF
S113395030E0A901BE016F5F7F4F8091BB1690914B
S1133960BC160E949408811170CF28960FB6F89463
S1133970DEBF0FBECDBFDF91CF911F910F91FF909E
S1133980EF90DF90CF90BF90AF900895089584B1E9
S1133990806884B985B1806885B9089583B18068E9
S11339A083B90895F4DF2FEF80E792E0215080403F
S11339B09040E1F700C00000F1DFF5CFE8DF2FEF22
S11339C087EA91E6215080409040E1F700C0000072
S11339D0E5DFF5CF86EB92E00E94D1300FEF1FEFC9
S11339E0980146E150E06BE978E18091BF1890912D
S11339F0C0180E94A10CCBE9D8E1998188811F925B
S1133A009F931F928F9385ED92E09F938F930E94D3
S1133A10BE3089810F900F900F900F900F900F90F0
S1133A20813099F5C0919D181F92CF938BE093E05C
S1133A309F938F930E94BE308091BF189091C018BD
S1133A400E94240D91E020E0811190E02F939F9338
S1133A5084E193E09F938F930E94BE308C2F0E9449
S1133A60090200E020E030E0A90160E070E080910C
S1133A70BB189091BC180E94C7078DB79EB70896D3
S1133A800FB6F8949EBF0FBE8DBF64E670E080E071
S1133A9090E00E9456129ECFEF92FF920F93E12C7A
S1133AA0F12C082F20E030E040EC50E068E173E0B6
S1133AB08AEE9CE10E94510F0F91FF90EF900895C0
S1133AC0CF93DF9381E00E94C52A01D57DD79F93D0
S1133AD08F9386E293E09F938F930E94BE3075D6B6
S1133AE073D79F938F9389E393E09F938F930E945F
S1133AF0BE3087ED96E1FDD467D7C7EDD6E1DF93FD
S1133B00CF939F938F9382E593E09F938F930E942B
S1133B10BE30CE010AD558D79F938F93DF93CF93AE
S1133B2086E693E09F938F930E94BE30AE016BE7CD
S1133B3073E08CE993E027D747D79F938F93DF9364
S1133B40CF938BE793E09F938F938CE993E09F93BC
S1133B508F938DEA93E09F938F930E94BE3018D584
S1133B6033D79F938F9383EE93E09F938F930E9419
S1133B70BE308DB79EB782960FB6F8949EBF0FBE27
S1133B808DBF81E0FFD520D79F938F9382EF93E081
S1133B909F938F930E94BE3084EF91E0FED514D79B
S1133BA09F938F9381E08F9384EF8F9383E194E0CD
S1133BB09F938F930E94BE308DB79EB70A960FB61F
S1133BC0F8949EBF0FBE8DBFCAE080E0E7D4D82F23
S1133BD0FBD69F938F931F92CF9383E394E09F939D
S1133BE08F930E94BE300F900F900F900F900F9004
S1133BF00F90D83059F080E00E94292B66E371E0E1
S1133C0080E090E00E945612C150F9F6D83021F4B9
S1133C1081E00E940B2B09C081E00E941A2B80E0F6
S1133C200E94E82A0E94AF05FDCFDF91CF9108954D
S1133C30CF93DF93CDB7DEB76A970FB6F894DEBFA4
S1133C400FBECDBF81E035D462E070E080E090E04B
S1133C500E94561280E02DD466E970E080E090E086
S1133C600E945612DFD32CDF83E594E00E94D1300A
S1133C700E94DB0F69837A838B839C8386E088D0E0
S1133C8062E0CE01059696D081E694E00E94D130A0
S1133C9081E894E00E94D13048E85EE060E070E0A2
S1133CA0CE0101960E94F1118EE894E00E94D13079
S1133CB08E811F928F938FEA94E09F938F930E943B
S1133CC0BE3083E00E943B2B8F811F928F938BEB3E
S1133CD094E09F938F930E94BE3088851F928F93A8
S1133CE084EC94E09F938F930E94BE3089851F9249
S1133CF08F938DEC94E09F938F930E94BE308A85BE
S1133D001F928F9386ED94E09F938F930E94BE3011
S1133D108B851F928F938FED94E09F938F930E94D6
S1133D20BE308C851F928F9388EE94E09F938F937F
S1133D300E94BE30BE016B5F7F4F80E058D444D6F2
S1133D409F938F9381EF94E09F938F930E94BE3053
S1133D500FB6F894DEBF0FBECDBF64E670E080E01E
S1133D6090E00E9456128CCFEF92FF920F93E12CB9
S1133D70F12C082F20E030E040EC50E06AE175E0DF
S1133D8088E19EE10E94510F0F91FF90EF900895FA
S1133D908093B81808959093B7188093B61808952F
S1133DA09093B2188093B11808959093B5188093A6
S1133DB0B41808951F93CF93DF93EC01162F86E177
S1133DC090E00E94FB03FC01892BB1F010838091E9
S1133DD0B81881838091B6189091B7189283838321
S1133DE08091B4189091B518948385838091B1180B
S1133DF09091B2189683878386E1DE0101900D923B
S1133E008A95E1F7CE01DF91CF911F9108950F9329
S1133E1043E060E081E00E94A4079093BE18809381
S1133E20BD1800E020E030E0A90160E070E00E94ED
S1133E30C7070F9108950F9343E060E081E00E946B
S1133E40A4079093BC188093BB1800E020E030E0F6
S1133E50A90160E070E00E94C7070F91089540E057
S1133E6062E083E00E94A4079093BA188093B91883
S1133E7008950E9447029093C2188093C118089530
S1133E8041E060E070E084E690E00E94360B90939D
S1133E90C4188093C318089541E060E070E08CE298
S1133EA090E00E94360B9093C0188093BF18089539
S1133EB01DD1811105C087E295E00C94D13008959D
S1133EC08AE495E00C94D130089528D1882321F018
S1133ED084E695E00E94D13063E070E080E090E0F9
S1133EE00E94561230D1882321F084E895E00E9484
S1133EF0D13061E070E080E090E00C9456120895B7
S1133F00CF93DF9300D01F92CDB7DEB71C821B8204
S1133F101A8219824FEF5FEFBA018091BD18909118
S1133F20BE180E942609813051F5CFDF58D19C83F9
S1133F308B832FD19A83898300E02FEF3FEFA90170
S1133F40BE016D5F7F4F8091B9189091BA180E949D
S1133F50C7072FEF3FEFA901BE016F5F7F4F80912D
S1133F60B9189091BA180E94C70742E050E060E087
S1133F7070E08091C1189091C2180E94FA026AE020
S1133F8070E080E090E00E945612C0CFEF92FF9262
S1133F900F938EDFE12CF12C01E020E030E040ECC7
S1133FA050E069EA75E080E89FE10E94510F0F91AB
S1133FB0FF90EF90089588EB95E00E94D13086ED54
S1133FC095E00E94D1304FEF5FEFBA018091BB18AA
S1133FD09091BC180E942609813021F489EF95E064
S1133FE00E94D13066E070E080E090E00E945612BA
S1133FF0E6CFEF92FF920F9334D660E081E019D6BA
S11340008CE196E00E94D130E12CF12C03E020E019
S113401030E040EC50E069E376E08BED9FE10E94F4
S1134020510F0F91FF90EF90089523DF18DFEFDE1B
S113403002DF0E94F40124DF2FCF0895A7DF0E943E
S1134040DB010C947C01089580E00E94042AEDDFDA
S1134050F5DF6091BF187091C01881E0EAD184E067
S113406083DE85E496E00E94D13083E015DD8CE5A3
S113407096E00E94D130BDDF80E796E00C94D13009
S11340800895E2DF82E896E00E94D1300E949D0FFD
S1134090FFCF6530F1F4FA0180818F7390E0982F9F
S11340A088272181822B90930A02809309028281BE
S11340B0F0E48F9FC0011124FA01238126952695EF
S11340C0822B909308028093070281E080933B1730
S11340D00895643051F080E090E490930802809356
S11340E0070290930A028093090208950F931F9385
S11340F009E410E220E034E244EF50E060E087E2BB
S11341000E945E2B90933D1780933C1721E0892BEE
S113411009F020E0822F1F910F91089580913C17A0
S113412090913D17009759F040E060E070E00E94E4
S1134130AF2B843031F410923B1780E0089582E075
S1134140089583E0089580913C1790913D1700975E
S113415039F064E00E94FB2B853021F083E0089560
S113416082E0089580E008956091090270910A0246
S113417080E090E00E94052E20E030E048EC52E41C
S11341800E94932E20E038EF4FE756E40C946C2DF8
S11341900895EADF20E030E040E251E40E94932EEB
S11341A00E94D92DCB0108956091070270910802F5
S11341B080E090E00E94052E20E030E045E253E4E8
S11341C00E94932E20E038EF4FE756E40E946C2DB6
S11341D020E030E040E252E40C94072D0895E4DF3F
S11341E020E030E040E251E40E94932E0E94D42D5E
S11341F0CB0108950F931F93CF93DF931F921F92C8
S1134200CDB7DEB78C0119822DC0E091A217EC3234
S113421050F481E08E0F8093A217F0E0EC52F84E38
S11342208A81808302C01092A2178A818A30D1F4D5
S11342304091A21750E0FA01EE52F84E108241501C
S113424051099E012F5F3F4F64ED77E18091A517DF
S11342509091A6170E945D0C898181110E94AF057F
S11342601092A217BE016E5F7F4FC80137D6882314
S113427061F20F900F90DF91CF911F910F910895EC
S11342800F931F93CF93DF938C01EB018091A517BC
S11342909091A6170E94680BB8018EE397E10E94E3
S11342A09F30209779F0EEE3F7E101900020E9F7E1
S11342B0319780E290E091838083BE018EE397E1A1
S11342C00E949430EEE3F7E1DF010D900020E9F75E
S11342D011978DE09AE011969C938E9312961C92FE
S11342E001900020E9F73197EE53F741AE2F8EE3AA
S11342F097E1AC016A2F8091A7179091A81799D5DF
S1134300811111C008E215E020E030E04DE250E0F8
S11343106EE278E18091A5179091A6170E94A10CF6
S11343208EE298E102C080E090E0DF91CF911F918E
S11343300F9108952F923F924F925F926F927F92C6
S11343408F929F92AF92BF92CF92DF92EF92FF92A1
S11343500F931F93CF93DF935C01FC010190002026
S1134360E9F731976F01C81AD90A5C2C0F2EF1E3D3
S11343708F2EF9E09F2EF02DE12CF12C4C2C3701DF
S1134380F40101811281E80109900020E9F72197E5
S1134390C01BD10B3C2EF9E0CF16D10458F0F40128
S11343A02080FEE02F1206C0B801C5010E946F30C4
S11343B0892B09F5442D351408F44C2F50E0B8012D
S11343C0C5010E94A630892B49F4F301EE0FFF1FAB
S11343D0E60DF71DEF5CF64F20800DC08FEFE81A55
S11343E0F80AE3E08E0E911CF1E1EF16F10439F6C0
S11343F06894222424F8822DDF91CF911F910F918C
S1134400FF90EF90DF90CF90BF90AF909F908F90F0
S11344107F906F905F904F903F902F90089530DF82
S113442089CF08958091A5179091A6170C94680BD5
S113443008958F929F92AF92CF92EF920F931F9312
S1134440CF93C82F8B0141E060E070E088EC90E0EE
S11344500E94360B9093A6178093A5171093A41768
S11344600093A3170F2EFAEF8F2EF0E29F2EF02D5C
S11344706894AA24A6F86894CC24C6F8E12C00E039
S113448023E040E051EE60E070E08C2F06D490937E
S1134490A8178093A717E7E0F1E08081806180830B
S11344A0CF911F910F91EF90CF90AF909F908F90ED
S11344B00895882331F0E8E0F1E080818F7E8083E5
S11344C00895E8E0F1E0808180618083089560E0F0
S11344D070E087EB96E0D4DEEEE2F8E10190002094
S11344E0E9F73197EE52F84181E0759708F080E0E2
S11344F00895CF93DF93EC0160E070E088EC96E0E0
S1134500BFDEEEE2F8E101900020E9F7EF53F84155
S113451039F46EE278E1CE010E949F3080E002C05F
S1134520188281E0DF91CF910895FC010190002071
S1134530E9F79F01215131092817390729F4BC01F2
S113454086EF96E06CCF089589E00895FC01019010
S11345500020E9F79F01215131092817390729F46F
S1134560BC0185E097E05BCF089589E00895FC01E4
S113457001900020E9F79F012152310928173907DA
S113458029F4BC0184E197E04ACF089589E00895B5
S113459060E070E083E597E042CF08950F931F93A6
S11345A0E82FF0E0EE0FFF1FE35DF64F60817181AD
S11345B08CE597E034DF811114C008E215E020E0B7
S11345C030E04DE250E06EE278E18091A5179091E1
S11345D0A6170E94A10C882321F08EE298E1AADE9E
S11345E003C08EE298E1A6DE1F910F9108950F9308
S11345F01F93CF93DF931F92CDB7DEB7DB011196E4
S11346009C911197953108F0B4C0992381F160E031
S113461070E0272F30E0462F50E0FD01E40FF51F36
S1134620928192959F709A3010F0995C01C0905DD0
S1134630F901E154F84E90832F5F3F4FFD01E40FE1
S1134640F51F92819F70492F50E04A30510514F0B4
S1134650995C01C0905DF901E154F84E90837E5F4E
S11346606F5F11969C911197691798F201C070E0E1
S1134670E72FF0E0E154F84E10824C91811103C011
S113468085E697E002C087E697E02FEB37E13F939A
S11346902F931F924F939F938F938BE697E09F9353
S11346A08F9381E098E19F938F930E94013160E0A2
S11346B070E081E098E1B3DE0FB6F894DEBF0FBE80
S11346C0CDBF811159C008E215E020E030E04DE291
S11346D050E06EE278E18091A5179091A6170E94B0
S11346E0A10C882309F447C08EE298E123DE8E30C2
S11346F009F042C087E089838091A3179091A417A1
S1134700892BA9F1BE016F5F7F4F8EE298E168D1DA
S11347108093A917E981F0E0E25DF74EDF010D9087
S11347200020E9F71197AE1BBF0BAA2391F0BB271A
S1134730CD0101979C0112F42F5F3F4F35952795CA
S11347402093AA17AF014F5F5F4F64E18BEA97E1B3
S113475073D101E010E020E030E046E150E069EA86
S113476077E18091A3179091A4170E94980B8EE093
S113477003C084E101C080E00F90DF91CF911F91CD
S11347800F910895813019F06BE777E002C064E57A
S113479078E08FE797E043CE08959F938F9380EB63
S11347A097E09F938F9381E098E19F938F930E946A
S11347B0013160E070E081E098E131DE0F900F900C
S11347C00F900F900F900F9008952F923F924F9259
S11347D05F926F927F928F929F92AF92BF92CF928D
S11347E0DF92EF92FF920F931F93CF93DF93CDB796
S11347F0DEB7A0970FB6F894DEBF0FBECDBF6DED48
S113480077E089EE97E03CDD95DD8111A3C080E27D
S1134810E2E2F2E0DE01119601900D928A95E1F751
S11348209E012F5F3F4F6901E12CF12C0F2EF5EF14
S1134830AF2EF7E0BF2EF02D01E018E10F2EFEE0C1
S11348404F2EF8E05F2EF02D0F2EF5E28F2EF8E0BC
S11348509F2EF02D0F2EFFE36F2EF8E07F2EF02D0C
S11348603E2C2F2CFF92EF92BF92AF921F930F9387
S11348700E94013160E070E0C80102DD5BDD0F9051
S11348800F900F900F900F900F90811163C032E042
S11348903E15E8F4F60183818F9382818F938181A1
S11348A08F9380818F93FF92EF925F924F921F9329
S11348B00F930E94013160E070E0C801E1DC3ADD51
S11348C00FB6F894DEBF0FBECDBF811143C02F9247
S11348D03F929F928F921F930F930E94013160E049
S11348E070E0C801CDDC26DD0F900F900F900F9083
S11348F00F900F9081112EC02F923F927F926F9252
S11349001F930F930E94013160E070E0C801B8DC8E
S113491011DD0F900F900F900F900F900F90811159
S113492019C03FEFE31AF30A84E0C80ED11C98E0E3
S1134930E916F10409F094CF60E070E087E598E0AF
S11349409FDCF8DC811106C060E070E088E698E046
S113495097DCF0DCA0960FB6F894DEBF0FBECDBF97
S1134960DF91CF911F910F91FF90EF90DF90CF9047
S1134970BF90AF909F908F907F906F905F904F907B
S11349803F902F900895EF92FF920F931F93CF9330
S1134990DF93EC018B017A0181E0F4DE81110DC01B
S11349A0CE01D4DD811109C0C801E1DD811105C04A
S11349B0C701BBDD811101C0EBDDDF91CF911F91F8
S11349C00F91FF90EF90089590E0FC01EE0FFF1F10
S11349D08E0F9F1FFC01EF5CF64F81819281089539
S11349E0DC01009729F1FB012081FC0101900020EA
S11349F0E9F73197E81BF90B822F90E0E817F907E4
S1134A00C8F080E008C0880F382F330F330F830FAE
S1134A108053890F2F5FFD01E20FF11D908130ED6E
S1134A20390F3A3010F49111EECFFB012083089531
S1134A3080E0089580E008950F931F93CF93DF9350
S1134A40DC01EA012097E1F1FA0101900020E9F785
S1134A503197E41BF50B329710F532C08D01040F2A
S1134A60151F30E0AE01420F531FFA0190819134BB
S1134A7028F09753592F5295507F03C0592F5295C0
S1134A80507F2C0F3D1FF9019181913410F0975301
S1134A9001C09053950FF80190838F5F01C080E0AF
S1134AA0282F220F482F50E0FE0101900020E9F743
S1134AB03197EC1BFD0B4E175F0710F48613CECF16
S1134AC0DF91CF911F910F91089580915E18860F09
S1134AD080935E1890916118913079F028F09230AB
S1134AE0A9F0933019F108956F3F09F048C010926E
S1134AF05E1881E0809361180895663809F03FC01C
S1134B0010925D1882E0809361180895E0915D1819
S1134B1081E08E0F80935D18F0E0E55AF74E6083D4
S1134B20823069F583E080936118089590915D184F
S1134B3021E0290F20935D18963009F581110EC0EC
S1134B40EBE5F8E1808190E0982F88272181820F9E
S1134B50911D909363188093621804C01092631897
S1134B601092621810926118E0915F18F091601829
S1134B70309729F0809162189091631819950895DF
S1134B808F929F92AF92CF92EF920F930F2EF5E6F2
S1134B908F2EF5E29F2EF02D6894AA24A4F8689431
S1134BA0CC24C4F8E12C00E023E040E855E260E0C6
S1134BB070E073D090936518809364180F91EF9010
S1134BC0CF90AF909F908F900895909360188093AA
S1134BD05F180895CF93DF93CDB7DEB729970FB64B
S1134BE0F894DEBF0FBECDBF89E0E2E4F2E09E019F
S1134BF02F5F3F4FD90101900D928A95E1F71092F2
S1134C006318109262188091641890916518009747
S1134C1031F0422F532F69E00CD180E001C082E0D3
S1134C2029960FB6F894DEBF0FBECDBFDF91CF91AA
S1134C30089565360CF064E66C390CF46CE996EF73
S1134C406902B00111246854744F811105C0709336
S1134C50290160932801089570932B0160932A0120
S1134C600895EAE0F1E08081886180838FE39CE924
S1134C70909327018093260160E080E0DADF60E012
S1134C8081E0D7DFE0E2F1E08081826A8083E1E2C3
S1134C90F1E080818A61808308952F923F924F9240
S1134CA05F926F927F928F929F92AF92CF92EF9288
S1134CB0FF920F931F93CF93DF93CDB7DEB7F82EF8
S1134CC02A013B0188E090E00E943A2F8C018F2D4D
S1134CD090E0FC01EE0FFF1FEA59F74E11830083A9
S1134CE00115110509F468C0880F991FFC01E55FDF
S1134CF0FD4F80819181D8018D939C936C2D70E040
S1134D0084E090E00E94202F1C0161E070E086E0C6
S1134D1090E00E94202F7C014C2DB1015CD6F8015B
S1134D20F582E4826A2D70E084E090E00E94202FF6
S1134D301C0161E070E086E090E00E94202F7C017D
S1134D404A2DB10148D6D8011396FC92EE921297DF
S1134D5017969C928E921697FFB6F894ED91FC915B
S1134D60119736978081826080838D909C90C301D7
S1134D70B2014BD720E030E040E051E4D4D79B01AE
S1134D80AC0160E074E284E79BE4A6D620E030E066
S1134D9040E85FE33CD60DD7F40132976083D80135
S1134DA0ED91FC911197359788E98083ED91FC9101
S1134DB0349786E08083FFBEC801DF91CF911F91B5
S1134DC00F91FF90EF90CF90AF909F908F907F9036
S1134DD06F905F904F903F902F900895CF93DF9303
S1134DE0DC01892B01F11296ED91FC9113979381CB
S1134DF082812581981B922384819817B1F0838145
S1134E0026952823C081D181C20FD11D68838F5F6D
S1134E10958189238383ED91FC913597808180620C
S1134E20808380E003C081E001C082E0DF91CF9104
S1134E300895EF92FF920F931F93CF93DF937C011A
S1134E40009709F441C0DC011296ED91FC9113978F
S1134E5093818281981B858198238481891B86177D
S1134E60A8F1662341F1842F952FDC016150462F70
S1134E7050E04F5F5F4F480F591FE701EA81FB8104
S1134E80938182812581981B92238481981779F0DC
S1134E908C91938126952923608171818B01020F66
S1134EA0111DE80188839F5F858198239383119660
S1134EB0A417B50711F7D701ED91FC9135978081BF
S1134EC08062808380E003C081E001C082E0DF91E2
S1134ED0CF911F910F91FF90EF9008950097D1F01B
S1134EE0DC011496ED91FC911597938182819817BA
S1134EF099F09281858186958923A081B181A80F3B
S1134F00B11D8C91DB018C939F5F858198239283E3
S1134F1080E0089581E0089583E008951F920F9240
S1134F200FB60F9211240BB60F922F933F934F930A
S1134F305F936F937F938F939F93AF93BF93CF931D
S1134F40DF93EF93FF93A0916618B09167181097C1
S1134F5011F16091C6001496ED91FC91159793811F
S1134F6082812581981B92238481981761F0838123
S1134F7026952823C081D181C20FD11D68838F5FFC
S1134F809581892383831696ED91FC911797309729
S1134F9011F0CD011995FF91EF91DF91CF91BF9160
S1134FA0AF919F918F917F916F915F914F913F91BD
S1134FB02F910F900BBE0F900FBE0F901F9018955E
S1134FC01F920F920FB60F9211240BB60F922F93CC
S1134FD08F939F93AF93BF93EF93FF93E0916618E2
S1134FE0F09167183097B9F00280F381E02D938136
S1134FF082819817B1F092818581282F26952923E3
S1135000A081B181A20FB11D2C919F5F892382835E
S11350102093C6000BC0E1ECF0E080818F7D80839B
S113502005C0E1ECF0E080818F7D8083FF91EF91FA
S1135030BF91AF919F918F912F910F900BBE0F90C5
S11350400FBE0F901F9018951F920F920FB60F92DC
S113505011240BB60F922F933F934F935F936F934B
S11350607F938F939F93AF93BF93CF93DF93EF93EC
S1135070FF93A0916818B0916918109711F160918D
S1135080CE001496ED91FC91159793818281258130
S1135090981B92238481981761F083812695282395
S11350A0C081D181C20FD11D68838F5F958189230F
S11350B083831696ED91FC911797309711F0CD01EB
S11350C01995FF91EF91DF91CF91BF91AF919F918E
S11350D08F917F916F915F914F913F912F910F909D
S11350E00BBE0F900FBE0F901F9018951F920F923A
S11350F00FB60F9211240BB60F922F938F939F9399
S1135100AF93BF93EF93FF93E0916818F091691800
S11351103097B9F00280F381E02D93818281981752
S1135120B1F092818581282F26952923A081B18110
S1135130A20FB11D2C919F5F892382832093CE00FF
S11351400BC0E9ECF0E080818F7D808305C0E9EC41
S1135150F0E080818F7D8083FF91EF91BF91AF91CB
S11351609F918F912F910F900BBE0F900FBE0F90B8
S11351701F9018951F920F920FB60F9211240BB621
S11351800F922F933F934F935F936F937F938F93DC
S11351909F93AF93BF93CF93DF93EF93FF93A0912C
S11351A06A18B0916B18109711F16091D60014969B
S11351B0ED91FC911597938182812581981B92230F
S11351C08481981761F0838126952823C081D18139
S11351D0C20FD11D68838F5F9581892383831696BF
S11351E0ED91FC911797309711F0CD011995FF912E
S11351F0EF91DF91CF91BF91AF919F918F917F916B
S11352006F915F914F913F912F910F900BBE0F9033
S11352100FBE0F901F9018951F920F920FB60F920A
S113522011240BB60F922F938F939F93AF93BF9339
S1135230EF93FF93E0916A18F0916B183097B9F0EF
S11352400280F381E02D938182819817B1F09281DD
S11352508581282F26952923A081B181A20FB11D14
S11352602C919F5F892382832093D6000BC0E1EDAC
S1135270F0E080818F7D808305C0E1EDF0E08081E6
S11352808F7D8083FF91EF91BF91AF919F918F911B
S11352902F910F900BBE0F900FBE0F901F9018957B
S11352A01F920F920FB60F9211240BB60F922F93E9
S11352B03F934F935F936F937F938F939F93AF939A
S11352C0BF93CF93DF93EF93FF93A0916C18B091AA
S11352D06D18109711F1609136011496ED91FC91BF
S11352E01597938182812581981B92238481981735
S11352F061F0838126952823C081D181C20FD11DFD
S113530068838F5F9581892383831696ED91FC9141
S11353101797309711F0CD011995FF91EF91DF9117
S1135320CF91BF91AF919F918F917F916F915F9139
S11353304F913F912F910F900BBE0F900FBE0F9086
S11353401F9018951F920F920FB60F9211240BB64F
S11353500F922F938F939F93AF93BF93EF93FF93EA
S1135360E0916C18F0916D183097B9F00280F381D8
S1135370E02D938182819817B1F092818581282F45
S113538026952923A081B181A20FB11D2C919F5F85
S113539089238283209336010BC0E1E3F1E080810D
S11353A08F7D808305C0E1E3F1E080818F7D808380
S11353B0FF91EF91BF91AF919F918F912F910F909A
S11353C00BBE0F900FBE0F901F901895CF93DF93D5
S11353D01F92CDB7DEB7BE016F5F7F4F80916E180D
S11353E090916F187BDD8111F6CF898190E00F9049
S11353F0DF91CF910895682F80916E1890916F1866
S1135400EDDC80E090E008958F929F92AF92CF926E
S1135410EF920F93812C912C6894AA24A7F8689496
S1135420CC24C7F8E12C00E023E040E051EE60E03A
S113543070E033DC90936F1880936E18E9ECF8E118
S113544083E192E091838083938382830F91EF9031
S1135450CF90AF909F908F90089590E0FC01EE0F55
S1135460FF1FE80FF91FEE0FFF1FE059F74E2381CE
S113547021111FC09C01220F331FF901E80FF91FEE
S1135480EE0FFF1FE059F74EA081B1814C91F90155
S1135490E80FF91FEE0FFF1FE059F74E81E090E08F
S11354A0028002C0880F991F0A94E2F7842B8C9320
S11354B00895FC01EE0FFF1FDF01A80FB91FAA0F0B
S11354C0BB1FA059B74E0D90BC91A02D2C91E80F95
S11354D0F91FEE0FFF1FE059F74E81E090E00280C4
S11354E002C0880F991F0A94E2F7809582238C9357
S11354F0089590E0FC01EE0FFF1FE80FF91FEE0F77
S1135500FF1FE059F74E2381211120C09C01220F77
S1135510331FF901E80FF91FEE0FFF1FE059F74E93
S1135520A081B1814C91F901E80FF91FEE0FFF1F23
S1135530E059F74E81E090E0028002C0880F991F85
S11355400A94E2F7809584238C930895FC01EE0F6E
S1135550FF1FDF01A80FB91FAA0FBB1FA059B74E29
S11355600D90BC91A02D2C91E80FF91FEE0FFF1F99
S1135570E059F74E81E090E0028002C0880F991F45
S11355800A94E2F7822B8C930895CF93DF9390E0F3
S1135590FC01EE0FFF1FDF01A80FB91FAA0FBB1FED
S11355A0A059B74ECD91DC911197488121E030E0AC
S11355B012960C90129702C0220F331F0A94E2F73E
S11355C024272883FD0181E08483DF91CF9108950E
S11355D0CF93DF9390E0FC01EE0FFF1FDF01A80FD4
S11355E0B91FAA0FBB1FA059B74ECD91DC911197DB
S11355F0488121E030E012960C90129702C0220FED
S1135600331F0A94E2F724272883FD0182E0848370
S1135610DF91CF910895282F30E0F901EE0FFF1F9D
S1135620E20FF31FEE0FFF1FE059F74E93E0948350
S113563060CF0895282F30E0F901EE0FFF1FE20F2D
S1135640F31FEE0FFF1FE059F74E94E0948305CF4C
S1135650089590E0FC01EE0FFF1FDF01A80FB91FB2
S1135660AA0FBB1FA059B74E24E015962C9315978B
S1135670FD011482089590E0FC01EE0FFF1FDF018D
S1135680A80FB91FAA0FBB1FA059B74E21E015964A
S11356902C931597FD011482089580919618811119
S11356A00CC08CE08093B8008FEF8093BB0084E043
S11356B08093BC0081E0809396180895AF92BF92C6
S11356C0CF92DF92EF92FF920F931F93CF93DF93CA
S11356D0A82EB62E69017A0184E090E0CBD3EC01C8
S11356E0892B61F1A88281E0B81212C0C701B6010A
S11356F020EA36E841E050E079D3DA01C901409765
S1135700A109B109B695A79597958795898311C085
S1135710C701B60120E83AE146E050E067D3DA0178
S1135720C9014097A109B109B695A79597958795A1
S113573089831B830A838C2F9D2F02C080E090E015
S1135740DF91CF911F910F91FF90EF90DF90CF9059
S1135750BF90AF9008958091BC0081700895FF922E
S11357600F931F93CF93DF930097D1F14A30D0F575
S1135770F42E8B01EC01EFDF811136C08091891882
S113578090918A18C817D90741F087DF89818093DF
S1135790B800D0938A18C093891881E08F0D809344
S11357A08B188881880F80938C18FF2089F0F8016A
S11357B0ADE8B8E14FEF4F0D642F70E0CB010196D7
S11357C0B801680F791F81918D93E617F707D9F710
S11357D088EF8093210285EA8093BC0084E005C0B1
S11357E086E003C087E001C082E0DF91CF911F9182
S11357F00F91FF9008951F93CF93DF93009729F1A2
S11358006B3028F5162FEC01A6DF811122C08091A0
S1135810891890918A18C817D90741F03EDF898109
S11358208093B800D0938A18C093891810938B186A
S11358308881880F816080938C1888EF809321027F
S113584085EA8093BC0085E005C086E003C087E05C
S113585001C082E0DF91CF911F9108951F920F92B2
S11358600FB60F9211240BB60F922F933F934F93C1
S11358705F936F937F938F939F93AF93BF93EF93B4
S1135880FF93E091B9008E2F90E0FC013897E13549
S1135890F10508F075C08827E458FF4F8F4FC8C240
S11358A010928818E091881880918B18E81770F48A
S11358B081E08E0F80938818F0E0E457F74E8081E2
S11358C08093BB0085E88093BC0072C084E9809318
S11358D0BC008091891890918A18DC011296ED9190
S11358E0FC911397309709F463C020E040E050E046
S11358F064E019955DC0E091881881E08E0F809373
S113590088188091BB00F0E0E457F74E80838091C3
S1135910B900803411F4109288182091881830E06E
S113592080918B1890E001972817390724F485ECAF
S11359308093BC003DC085E88093BC0039C0809151
S1135940BB00E0918818F0E0E457F74E808384E9C7
S11359508093BC008091891890918A18DC0112967A
S1135960ED91FC911397309719F120918B184CE825
S113597058E165E019951CC085EA8093BC0018C005
S11359808091B9008093210284E08093BC008091CF
S1135990891890918A18DC011296ED91FC91139765
S11359A0309731F020E040E050E0609121021995F9
S11359B0FF91EF91BF91AF919F918F917F916F91E3
S11359C05F914F913F912F910F900BBE0F900FBE9F
S11359D00F901F901895FC01411101C06CD3842FC6
S11359E090E09C012150310982239323892B09F0F3
S11359F062D3413808F05FD3128213824483440F88
S1135A00415045837183608380E090E0089550584D
S1135A10BB27AA270ED04DC13ED130F043D120F090
S1135A2031F49F3F11F41EF433C10EF4E095E7FB0B
S1135A3029C1E92F4FD180F3BA176207730784078E
S1135A40950718F071F49EF567C10EF4E0950B2EDE
S1135A50BA2FA02D0B01B90190010C01CA01A001BC
S1135A601124FF27591B99F0593F50F4503E68F117
S1135A701A16F040A22F232F342F4427585FF3CF58
S1135A80469537952795A795F0405395C9F77EF429
S1135A901F16BA0B620B730B840BBAF09150A1F072
S1135AA0FF0FBB1F661F771F881FC2F70EC0BA0FF8
S1135AB0621F731F841F48F4879577956795B79580
S1135AC0F7959E3F08F0B3CF9395880F08F0992778
S1135AD0EE0F9795879508950CD0EBC0E3D040F076
S1135AE0DAD030F021F45F3F19F0CCC0511115C168
S1135AF0CFC0F0D098F39923C9F35523B1F3951B84
S1135B00550BBB27AA2762177307840738F09F5FDA
S1135B105F4F220F331F441FAA1FA9F333D00E2E49
S1135B203AF0E0E830D091505040E695001CCAF7B6
S1135B3029D0FE2F27D0660F771F881FBB1F26177B
S1135B4037074807AB07B0E809F0BB0B802DBF014E
S1135B50FF2793585F4F2AF09E3F510568F092C08B
S1135B60DCC05F3FECF3983EDCF386957795679550
S1135B70B795F7959F5FC9F7880F911D96958795FF
S1135B8097F90895E1E0660F771F881FBB1F62171E
S1135B9073078407BA0720F0621B730B840BBA0BDC
S1135BA0EE1F88F7E095089504D06894B111B5C04C
S1135BB0089598D088F09F5790F0B92F9927B7513E
S1135BC0A0F0D1F0660F771F881F991F1AF0BA95BD
S1135BD0C9F712C0B13081F09FD0B1E008959CC0E4
S1135BE0672F782F8827B85F39F0B93FCCF38695B3
S1135BF077956795B395D9F73EF490958095709510
S1135C0061957F4F8F4F9F4F0895E89409C097FB8C
S1135C103EF490958095709561957F4F8F4F9F4F7F
S1135C209923A9F0F92F96E9BB279395F6958795C3
S1135C3077956795B795F111F8CFFAF4BB0F11F486
S1135C4060FF1BC06F5F7F4F8F4F9F4F16C088232D
S1135C5011F096E911C0772321F09EE8872F762F63
S1135C6005C0662371F096E8862F70E060E02AF0A4
S1135C709A95660F771F881FDAF7880F9695879590
S1135C8097F9089597F99F6780E870E060E00895B8
S1135C909FEF80EC089500240A9416161706180640
S1135CA00906089500240A9412161306140605061C
S1135CB00895092E0394000C11F4882352F0BB0FAD
S1135CC040F4BF2B11F460FF04C06F5F7F4F8F4F10
S1135CD09F4F089557FD9058440F551F59F05F3F4B
S1135CE071F04795880F97FB991F61F09F3F79F0FA
